{
  "contractName": "AutoStakeTransfererMock",
  "abi": [
    {
      "inputs": [
        {
          "internalType": "address",
          "name": "token",
          "type": "address"
        },
        {
          "internalType": "uint256",
          "name": "_throttleRoundBlocks",
          "type": "uint256"
        },
        {
          "internalType": "uint256",
          "name": "_throttleRoundCap",
          "type": "uint256"
        },
        {
          "internalType": "uint256",
          "name": "stakeEnd",
          "type": "uint256"
        }
      ],
      "stateMutability": "nonpayable",
      "type": "constructor"
    },
    {
      "anonymous": false,
      "inputs": [
        {
          "indexed": false,
          "internalType": "address",
          "name": "user",
          "type": "address"
        },
        {
          "indexed": false,
          "internalType": "uint256",
          "name": "stake",
          "type": "uint256"
        }
      ],
      "name": "ExitCompleted",
      "type": "event"
    },
    {
      "anonymous": false,
      "inputs": [
        {
          "indexed": false,
          "internalType": "address",
          "name": "user",
          "type": "address"
        },
        {
          "indexed": false,
          "internalType": "uint256",
          "name": "exitBlock",
          "type": "uint256"
        }
      ],
      "name": "ExitRequested",
      "type": "event"
    },
    {
      "anonymous": false,
      "inputs": [
        {
          "indexed": true,
          "internalType": "address",
          "name": "previousOwner",
          "type": "address"
        },
        {
          "indexed": true,
          "internalType": "address",
          "name": "newOwner",
          "type": "address"
        }
      ],
      "name": "OwnershipTransferred",
      "type": "event"
    },
    {
      "anonymous": false,
      "inputs": [
        {
          "indexed": true,
          "internalType": "address",
          "name": "user",
          "type": "address"
        },
        {
          "indexed": false,
          "internalType": "uint256",
          "name": "amount",
          "type": "uint256"
        },
        {
          "indexed": false,
          "internalType": "uint256",
          "name": "sharesIssued",
          "type": "uint256"
        },
        {
          "indexed": false,
          "internalType": "uint256",
          "name": "oldShareVaule",
          "type": "uint256"
        },
        {
          "indexed": false,
          "internalType": "uint256",
          "name": "newShareValue",
          "type": "uint256"
        },
        {
          "indexed": false,
          "internalType": "uint256",
          "name": "balanceOf",
          "type": "uint256"
        }
      ],
      "name": "Staked",
      "type": "event"
    },
    {
      "inputs": [
        {
          "internalType": "address",
          "name": "who",
          "type": "address"
        }
      ],
      "name": "balanceOf",
      "outputs": [
        {
          "internalType": "uint256",
          "name": "",
          "type": "uint256"
        }
      ],
      "stateMutability": "view",
      "type": "function"
    },
    {
      "inputs": [],
      "name": "completeExit",
      "outputs": [],
      "stateMutability": "nonpayable",
      "type": "function"
    },
    {
      "inputs": [],
      "name": "exit",
      "outputs": [],
      "stateMutability": "nonpayable",
      "type": "function"
    },
    {
      "inputs": [
        {
          "internalType": "address",
          "name": "transferTo",
          "type": "address"
        }
      ],
      "name": "exitAndTransfer",
      "outputs": [],
      "stateMutability": "nonpayable",
      "type": "function"
    },
    {
      "inputs": [
        {
          "internalType": "address",
          "name": "",
          "type": "address"
        }
      ],
      "name": "exitInfo",
      "outputs": [
        {
          "internalType": "uint256",
          "name": "exitBlock",
          "type": "uint256"
        },
        {
          "internalType": "uint256",
          "name": "exitStake",
          "type": "uint256"
        }
      ],
      "stateMutability": "view",
      "type": "function"
    },
    {
      "inputs": [],
      "name": "exitStake",
      "outputs": [
        {
          "internalType": "uint256",
          "name": "",
          "type": "uint256"
        }
      ],
      "stateMutability": "view",
      "type": "function"
    },
    {
      "inputs": [],
      "name": "factory",
      "outputs": [
        {
          "internalType": "address",
          "name": "",
          "type": "address"
        }
      ],
      "stateMutability": "view",
      "type": "function"
    },
    {
      "inputs": [
        {
          "internalType": "uint256",
          "name": "tokenIndex",
          "type": "uint256"
        }
      ],
      "name": "getPendingReward",
      "outputs": [
        {
          "internalType": "uint256",
          "name": "",
          "type": "uint256"
        }
      ],
      "stateMutability": "view",
      "type": "function"
    },
    {
      "inputs": [],
      "name": "lockEndBlock",
      "outputs": [
        {
          "internalType": "uint256",
          "name": "",
          "type": "uint256"
        }
      ],
      "stateMutability": "view",
      "type": "function"
    },
    {
      "inputs": [],
      "name": "nextAvailableExitBlock",
      "outputs": [
        {
          "internalType": "uint256",
          "name": "",
          "type": "uint256"
        }
      ],
      "stateMutability": "view",
      "type": "function"
    },
    {
      "inputs": [],
      "name": "nextAvailableRoundExitVolume",
      "outputs": [
        {
          "internalType": "uint256",
          "name": "",
          "type": "uint256"
        }
      ],
      "stateMutability": "view",
      "type": "function"
    },
    {
      "inputs": [],
      "name": "owner",
      "outputs": [
        {
          "internalType": "address",
          "name": "",
          "type": "address"
        }
      ],
      "stateMutability": "view",
      "type": "function"
    },
    {
      "inputs": [
        {
          "internalType": "address",
          "name": "",
          "type": "address"
        }
      ],
      "name": "receiversWhitelist",
      "outputs": [
        {
          "internalType": "bool",
          "name": "",
          "type": "bool"
        }
      ],
      "stateMutability": "view",
      "type": "function"
    },
    {
      "inputs": [],
      "name": "refreshAutoStake",
      "outputs": [],
      "stateMutability": "nonpayable",
      "type": "function"
    },
    {
      "inputs": [],
      "name": "renounceOwnership",
      "outputs": [],
      "stateMutability": "nonpayable",
      "type": "function"
    },
    {
      "inputs": [],
      "name": "rewardPool",
      "outputs": [
        {
          "internalType": "contract IRewardsPoolBase",
          "name": "",
          "type": "address"
        }
      ],
      "stateMutability": "view",
      "type": "function"
    },
    {
      "inputs": [
        {
          "internalType": "address",
          "name": "pool",
          "type": "address"
        }
      ],
      "name": "setPool",
      "outputs": [],
      "stateMutability": "nonpayable",
      "type": "function"
    },
    {
      "inputs": [
        {
          "internalType": "address",
          "name": "receiver",
          "type": "address"
        },
        {
          "internalType": "bool",
          "name": "whitelisted",
          "type": "bool"
        }
      ],
      "name": "setReceiverWhitelisted",
      "outputs": [],
      "stateMutability": "nonpayable",
      "type": "function"
    },
    {
      "inputs": [
        {
          "internalType": "address",
          "name": "",
          "type": "address"
        }
      ],
      "name": "share",
      "outputs": [
        {
          "internalType": "uint256",
          "name": "",
          "type": "uint256"
        }
      ],
      "stateMutability": "view",
      "type": "function"
    },
    {
      "inputs": [
        {
          "internalType": "uint256",
          "name": "amount",
          "type": "uint256"
        }
      ],
      "name": "stake",
      "outputs": [],
      "stateMutability": "nonpayable",
      "type": "function"
    },
    {
      "inputs": [],
      "name": "stakingToken",
      "outputs": [
        {
          "internalType": "contract IERC20Detailed",
          "name": "",
          "type": "address"
        }
      ],
      "stateMutability": "view",
      "type": "function"
    },
    {
      "inputs": [],
      "name": "throttleRoundBlocks",
      "outputs": [
        {
          "internalType": "uint256",
          "name": "",
          "type": "uint256"
        }
      ],
      "stateMutability": "view",
      "type": "function"
    },
    {
      "inputs": [],
      "name": "throttleRoundCap",
      "outputs": [
        {
          "internalType": "uint256",
          "name": "",
          "type": "uint256"
        }
      ],
      "stateMutability": "view",
      "type": "function"
    },
    {
      "inputs": [],
      "name": "totalShares",
      "outputs": [
        {
          "internalType": "uint256",
          "name": "",
          "type": "uint256"
        }
      ],
      "stateMutability": "view",
      "type": "function"
    },
    {
      "inputs": [],
      "name": "totalValue",
      "outputs": [
        {
          "internalType": "uint256",
          "name": "",
          "type": "uint256"
        }
      ],
      "stateMutability": "view",
      "type": "function"
    },
    {
      "inputs": [
        {
          "internalType": "address",
          "name": "newOwner",
          "type": "address"
        }
      ],
      "name": "transferOwnership",
      "outputs": [],
      "stateMutability": "nonpayable",
      "type": "function"
    },
    {
      "inputs": [],
      "name": "unit",
      "outputs": [
        {
          "internalType": "uint256",
          "name": "",
          "type": "uint256"
        }
      ],
      "stateMutability": "view",
      "type": "function"
    },
    {
      "inputs": [],
      "name": "valuePerShare",
      "outputs": [
        {
          "internalType": "uint256",
          "name": "",
          "type": "uint256"
        }
      ],
      "stateMutability": "view",
      "type": "function"
    }
  ],
  "bytecode": "0x60e0604052670de0b6b3a76400006008553480156200001d57600080fd5b506040516200205038038062002050833981810160405260808110156200004357600080fd5b508051602082015160408301516060909301516001600055919290918383838380438111620000a45760405162461bcd60e51b815260040180806020018281038252602e81526020018062002022602e913960400191505060405180910390fd5b6080526000620000b362000135565b600680546001600160a01b0319166001600160a01b038316908117909155604051919250906000907f8be0079c531659141344cd1fd0a4f28419497f9722a3daafe3b4186f6b6457e0908290a35033606090811b60c05284901b6001600160601b03191660a0526200012783838362000139565b505050505050505062000295565b3390565b600083116200017a5760405162461bcd60e51b815260040180806020018281038252603681526020018062001fec6036913960400191505060405180910390fd5b60008211620001bb5760405162461bcd60e51b815260040180806020018281038252603381526020018062001f886033913960400191505060405180910390fd5b600354158015620001cc5750600454155b620002095760405162461bcd60e51b815260040180806020018281038252603181526020018062001fbb6031913960400191505060405180910390fd5b600383905560048290556200022b818462000233602090811b62000d5b17901c565b600155505050565b6000828201838110156200028e576040805162461bcd60e51b815260206004820152601b60248201527f536166654d6174683a206164646974696f6e206f766572666c6f770000000000604482015290519081900360640190fd5b9392505050565b60805160a05160601c60c05160601c611c84620003046000398061093d5280610ade52508061059e52806108a95280610a875280610ec9528061123752806114ca528061154b52806115ca528061160552508061049b52806108cd52806109a95280610b085250611c846000f3fe608060405234801561001057600080fd5b50600436106101c45760003560e01c80638587edbb116100f9578063b540652e11610097578063d4c3eea011610071578063d4c3eea0146103ea578063e9fad8ee146103f2578063ee483cdf146103fa578063f2fde38b14610402576101c4565b8063b540652e146103d2578063c0a239e3146103da578063c45a0155146103e2576101c4565b806394f66417116100d357806394f6641714610340578063a694fc3a1461037f578063a861a7a31461039c578063b01eb660146103ca576101c4565b80638587edbb146103285780638da5cb5b14610330578063907af6c014610338576101c4565b80634ff3306f1161016657806370a082311161014057806370a08231146102d5578063715018a6146102fb5780637211bbc91461030357806372f702f314610320576101c4565b80634ff3306f146102a157806366666aa9146102a95780636eb957df146102cd576101c4565b8063363291dc116101a2578063363291dc146102315780633882f7421461026b5780633a98ef39146102735780634437152a1461027b576101c4565b80631877bb5c146101c95780631c1f9cc0146102015780632240e63c14610209575b600080fd5b6101ef600480360360208110156101df57600080fd5b50356001600160a01b0316610428565b60408051918252519081900360200190f35b6101ef61043a565b61022f6004803603602081101561021f57600080fd5b50356001600160a01b0316610440565b005b6102576004803603602081101561024757600080fd5b50356001600160a01b0316610646565b604080519115158252519081900360200190f35b6101ef61065b565b6101ef610661565b61022f6004803603602081101561029157600080fd5b50356001600160a01b0316610667565b6101ef61075b565b6102b1610761565b604080516001600160a01b039092168252519081900360200190f35b6101ef610770565b6101ef600480360360208110156102eb57600080fd5b50356001600160a01b0316610776565b61022f6107b7565b6101ef6004803603602081101561031957600080fd5b5035610875565b6102b16108a7565b6101ef6108cb565b6102b16108ef565b6101ef6108fe565b6103666004803603602081101561035657600080fd5b50356001600160a01b031661090a565b6040805192835260208301919091528051918290030190f35b61022f6004803603602081101561039557600080fd5b5035610923565b61022f600480360360408110156103b257600080fd5b506001600160a01b0381351690602001351515610932565b61022f6109a7565b61022f610abc565b6101ef610ad6565b6102b1610adc565b6101ef610b00565b61022f610b06565b6101ef610c40565b61022f6004803603602081101561041857600080fd5b50356001600160a01b0316610c46565b600c6020526000908152604090205481565b60015481565b6001600160a01b0381166000908152600d6020526040902054819060ff166104995760405162461bcd60e51b815260040180806020018281038252602c815260200180611ba1602c913960400191505060405180910390fd5b7f000000000000000000000000000000000000000000000000000000000000000043116104f75760405162461bcd60e51b8152600401808060200182810382526042815260200180611b3e6042913960600191505060405180910390fd5b6002600054141561053d576040805162461bcd60e51b815260206004820152601f6024820152600080516020611ad2833981519152604482015290519081900360640190fd5b600260005561054a610dbe565b610552610ea4565b600061055d33610776565b90508061056a575061063d565b336000908152600c602052604090205460095461058691610f89565b600955336000908152600c60205260408120556105cd7f00000000000000000000000000000000000000000000000000000000000000006001600160a01b03168483610fe6565b60408051633c323a1b60e01b81523360048201526024810183905290516001600160a01b03851691633c323a1b91604480830192600092919082900301818387803b15801561061b57600080fd5b505af115801561062f573d6000803e3d6000fd5b5050505061063b610ea4565b505b50506001600055565b600d6020526000908152604090205460ff1681565b600b5481565b60095481565b61066f6110fe565b6001600160a01b03166106806108ef565b6001600160a01b0316146106db576040805162461bcd60e51b815260206004820181905260248201527f4f776e61626c653a2063616c6c6572206973206e6f7420746865206f776e6572604482015290519081900360640190fd5b6007546001600160a01b031615610739576040805162461bcd60e51b815260206004820152601760248201527f52657761726420706f6f6c20616c726561647920736574000000000000000000604482015290519081900360640190fd5b600780546001600160a01b0319166001600160a01b0392909216919091179055565b60045481565b6007546001600160a01b031681565b60035481565b6001600160a01b0381166000908152600c60205260408120546008546107af91670de0b6b3a7640000916107a991611102565b9061115b565b90505b919050565b6107bf6110fe565b6001600160a01b03166107d06108ef565b6001600160a01b03161461082b576040805162461bcd60e51b815260206004820181905260248201527f4f776e61626c653a2063616c6c6572206973206e6f7420746865206f776e6572604482015290519081900360640190fd5b6006546040516000916001600160a01b0316907f8be0079c531659141344cd1fd0a4f28419497f9722a3daafe3b4186f6b6457e0908390a3600680546001600160a01b0319169055565b3360009081526005602052604081206002810180548490811061089457fe5b9060005260206000200154915050919050565b7f000000000000000000000000000000000000000000000000000000000000000081565b7f000000000000000000000000000000000000000000000000000000000000000081565b6006546001600160a01b031690565b670de0b6b3a764000081565b6005602052600090815260409020805460019091015482565b61092f813360016111c2565b50565b336001600160a01b037f000000000000000000000000000000000000000000000000000000000000000016146109995760405162461bcd60e51b8152600401808060200182810382526022815260200180611bcd6022913960400191505060405180910390fd5b6109a3828261134d565b5050565b7f00000000000000000000000000000000000000000000000000000000000000004311610a055760405162461bcd60e51b8152600401808060200182810382526042815260200180611b3e6042913960600191505060405180910390fd5b60026000541415610a4b576040805162461bcd60e51b815260206004820152601f6024820152600080516020611ad2833981519152604482015290519081900360640190fd5b600260009081553381526005602052604090206001810154600b54610a6f91610f89565b600b55604080516000815260208101909152610aac907f000000000000000000000000000000000000000000000000000000000000000090611378565b610ab4610ea4565b506001600055565b610ac4610dbe565b610acc610ea4565b610ad46114aa565b565b60085481565b7f000000000000000000000000000000000000000000000000000000000000000081565b600a5481565b7f00000000000000000000000000000000000000000000000000000000000000004311610b645760405162461bcd60e51b8152600401808060200182810382526042815260200180611b3e6042913960600191505060405180910390fd5b60026000541415610baa576040805162461bcd60e51b815260206004820152601f6024820152600080516020611ad2833981519152604482015290519081900360640190fd5b6002600055610bb7610dbe565b610bbf610ea4565b6000610bca33610776565b905080610bd75750610c39565b60408051600080825260208201909252610bf2918391611696565b336000908152600c6020526040902054600954610c0e91610f89565b600955336000908152600c6020526040812055600b54610c2e9082610d5b565b600b55610ab4610ea4565b6001600055565b60025481565b610c4e6110fe565b6001600160a01b0316610c5f6108ef565b6001600160a01b031614610cba576040805162461bcd60e51b815260206004820181905260248201527f4f776e61626c653a2063616c6c6572206973206e6f7420746865206f776e6572604482015290519081900360640190fd5b6001600160a01b038116610cff5760405162461bcd60e51b8152600401808060200182810382526026815260200180611af26026913960400191505060405180910390fd5b6006546040516001600160a01b038084169216907f8be0079c531659141344cd1fd0a4f28419497f9722a3daafe3b4186f6b6457e090600090a3600680546001600160a01b0319166001600160a01b0392909216919091179055565b600082820183811015610db5576040805162461bcd60e51b815260206004820152601b60248201527f536166654d6174683a206164646974696f6e206f766572666c6f770000000000604482015290519081900360640190fd5b90505b92915050565b600754604080516370a0823160e01b815230600482015290516001600160a01b03909216916370a0823191602480820192602092909190829003018186803b158015610e0957600080fd5b505afa158015610e1d573d6000803e3d6000fd5b505050506040513d6020811015610e3357600080fd5b505115610ad457600760009054906101000a90046001600160a01b03166001600160a01b031663e9fad8ee6040518163ffffffff1660e01b8152600401600060405180830381600087803b158015610e8a57600080fd5b505af1158015610e9e573d6000803e3d6000fd5b50505050565b600954610ec1576000600a55670de0b6b3a7640000600855610ad4565b610f66600b547f00000000000000000000000000000000000000000000000000000000000000006001600160a01b03166370a08231306040518263ffffffff1660e01b815260040180826001600160a01b0316815260200191505060206040518083038186803b158015610f3457600080fd5b505afa158015610f48573d6000803e3d6000fd5b505050506040513d6020811015610f5e57600080fd5b505190610f89565b600a819055600954610f84916107a990670de0b6b3a7640000611102565b600855565b600082821115610fe0576040805162461bcd60e51b815260206004820152601e60248201527f536166654d6174683a207375627472616374696f6e206f766572666c6f770000604482015290519081900360640190fd5b50900390565b80158061106c575060408051636eb1769f60e11b81523060048201526001600160a01b03848116602483015291519185169163dd62ed3e91604480820192602092909190829003018186803b15801561103e57600080fd5b505afa158015611052573d6000803e3d6000fd5b505050506040513d602081101561106857600080fd5b5051155b6110a75760405162461bcd60e51b8152600401808060200182810382526036815260200180611c196036913960400191505060405180910390fd5b604080516001600160a01b038416602482015260448082018490528251808303909101815260649091019091526020810180516001600160e01b031663095ea7b360e01b1790526110f990849061177f565b505050565b3390565b60008261111157506000610db8565b8282028284828161111e57fe5b0414610db55760405162461bcd60e51b8152600401808060200182810382526021815260200180611b806021913960400191505060405180910390fd5b60008082116111b1576040805162461bcd60e51b815260206004820152601a60248201527f536166654d6174683a206469766973696f6e206279207a65726f000000000000604482015290519081900360640190fd5b8183816111ba57fe5b049392505050565b60026000541415611208576040805162461bcd60e51b815260206004820152601f6024820152600080516020611ad2833981519152604482015290519081900360640190fd5b6002600055611215610dbe565b61121d610ea4565b61125f8161122b573361122d565b825b6001600160a01b037f000000000000000000000000000000000000000000000000000000000000000016903086611937565b60085460009061127b906107a986670de0b6b3a7640000611102565b60095490915061128b9082610d5b565b6009556001600160a01b0383166000908152600c60205260409020546112b19082610d5b565b6001600160a01b0384166000908152600c60205260409020556008546112d5610ea4565b836001600160a01b03167f6381ea17a5324d29cc015352644672ead5185c1c61a0d3a521eda97e35cec97e86848460085461130f8a610776565b6040805195865260208601949094528484019290925260608401526080830152519081900360a00190a26113416114aa565b50506001600055505050565b6001600160a01b03919091166000908152600d60205260409020805460ff1916911515919091179055565b336000908152600560205260409020805443116113c65760405162461bcd60e51b8152600401808060200182810382526026815260200180611b186026913960400191505060405180910390fd5b60018101805460009091556113e56001600160a01b0385163383611991565b60005b835181101561146857600083600201828154811061140257fe5b90600052602060002001549050600084600201838154811061142057fe5b906000526020600020018190555061145f338287858151811061143f57fe5b60200260200101516001600160a01b03166119919092919063ffffffff16565b506001016113e8565b50604080513381526020810183905281517f548aea05c5e3b6ba34acdf7b3ad06c7bb667ed71d1761e2c177167be0a9eb059929181900390910190a150505050565b604080516370a0823160e01b815230600482015290516001600160a01b037f000000000000000000000000000000000000000000000000000000000000000016916370a08231916024808301926020929190829003018186803b15801561151057600080fd5b505afa158015611524573d6000803e3d6000fd5b505050506040513d602081101561153a57600080fd5b505115610ad45760006115b6600b547f00000000000000000000000000000000000000000000000000000000000000006001600160a01b03166370a08231306040518263ffffffff1660e01b815260040180826001600160a01b0316815260200191505060206040518083038186803b158015610f3457600080fd5b6007549091506115f4906001600160a01b037f0000000000000000000000000000000000000000000000000000000000000000811691166000610fe6565b60075461162e906001600160a01b037f00000000000000000000000000000000000000000000000000000000000000008116911683610fe6565b6007546040805163534a7e1d60e11b81526004810184905290516001600160a01b039092169163a694fc3a9160248082019260009290919082900301818387803b15801561167b57600080fd5b505af115801561168f573d6000803e3d6000fd5b5050505050565b6116a033836119e3565b3360009081526005602052604090206116b884611a3e565b815560018101546116c99085610d5b565b600182015560005b8381101561173b576117188382815181106116e857fe5b60200260200101518360020183815481106116ff57fe5b9060005260206000200154610d5b90919063ffffffff16565b82600201828154811061172757fe5b6000918252602090912001556001016116d1565b50805460408051338152602081019290925280517fd9217a461a0f7f84171a8866118c3d92e943ba7c1ba89b819371f729b5cabcbc9281900390910190a150505050565b611791826001600160a01b0316611acb565b6117e2576040805162461bcd60e51b815260206004820152601f60248201527f5361666545524332303a2063616c6c20746f206e6f6e2d636f6e747261637400604482015290519081900360640190fd5b60006060836001600160a01b0316836040518082805190602001908083835b602083106118205780518252601f199092019160209182019101611801565b6001836020036101000a0380198251168184511680821785525050505050509050019150506000604051808303816000865af19150503d8060008114611882576040519150601f19603f3d011682016040523d82523d6000602084013e611887565b606091505b5091509150816118de576040805162461bcd60e51b815260206004820181905260248201527f5361666545524332303a206c6f772d6c6576656c2063616c6c206661696c6564604482015290519081900360640190fd5b805115610e9e578080602001905160208110156118fa57600080fd5b5051610e9e5760405162461bcd60e51b815260040180806020018281038252602a815260200180611bef602a913960400191505060405180910390fd5b604080516001600160a01b0380861660248301528416604482015260648082018490528251808303909101815260849091019091526020810180516001600160e01b03166323b872dd60e01b179052610e9e90859061177f565b604080516001600160a01b038416602482015260448082018490528251808303909101815260649091019091526020810180516001600160e01b031663a9059cbb60e01b1790526110f990849061177f565b6001600160a01b03821660009081526005602052604090206002810154821415611a0d57506109a3565b60028101545b82811015610e9e57600282018054600181810183556000928352602083209091019190915501611a13565b6000600154431115611a90576000600354600154430381611a5b57fe5b069050611a7d600354611a778343610f8990919063ffffffff16565b90610d5b565b6001819055600284905591506107b29050565b600254611a9d9083610d5b565b60025550600154600454600254106107b257600354600154611abe91610d5b565b6001556000600255919050565b3b15159056fe5265656e7472616e637947756172643a207265656e7472616e742063616c6c004f776e61626c653a206e6577206f776e657220697320746865207a65726f206164647265737366696e616c697a65457869743a3a547279696e6720746f206578697420746f6f206561726c796f6e6c79556e6c6f636b65643a3a63616e6e6f7420706572666f726d207468697320616374696f6e20756e74696c2074686520656e64206f6620746865206c6f636b536166654d6174683a206d756c7469706c69636174696f6e206f766572666c6f7765786974416e645472616e736665723a3a7265636569766572206973206e6f742077686974656c697374656443616c6c6572206973206e6f742074686520466163746f727920636f6e74726163745361666545524332303a204552433230206f7065726174696f6e20646964206e6f7420737563636565645361666545524332303a20617070726f76652066726f6d206e6f6e2d7a65726f20746f206e6f6e2d7a65726f20616c6c6f77616e6365a2646970667358221220f7c41690c44ecf3da309e7c9d2f85eeda9cdd9fd145d7910329f8fb95a8fd80264736f6c634300060c00337365745468726f74746c653a3a7468726f74746c6520726f756e6420636170206d757374206265206d6f7265207468616e20307365745468726f74746c653a3a7468726f74746c6520706172616d6574657273207765726520616c7265616479207365747365745468726f74746c653a3a7468726f74746c6520726f756e6420626c6f636b73206d757374206265206d6f7265207468616e20307365744c6f636b456e643a3a4c6f636b20656e64206e6565647320746f20626520696e2074686520667574757265",
  "source": "// SPDX-License-Identifier: MIT\n\npragma solidity 0.6.12;\n\nimport \"./../autostake-features/StakeTransfererAutoStake.sol\";\n\ncontract AutoStakeTransfererMock is StakeTransfererAutoStake {\n\tconstructor(address token, uint256 _throttleRoundBlocks, uint256 _throttleRoundCap, uint256 stakeEnd) public AutoStake(token, _throttleRoundBlocks, _throttleRoundCap, stakeEnd) {\n\t}\n}",
  "sourcePath": "/Users/martindobrev/Code/custom-token/contracts/mocks/AutoStakeTransfererMock.sol",
  "compiler": {
    "name": "solc",
    "version": "0.6.12+commit.27d51765.Emscripten.clang",
    "optimizer": true,
    "runs": 200
  },
  "schemaVersion": "2.3.5",
  "updatedAt": "2022-02-16T15:12:31.214Z"
}