{
  "contractName": "AutoStakeReceiverMock",
  "abi": [
    {
      "inputs": [
        {
          "internalType": "address",
          "name": "token",
          "type": "address"
        },
        {
          "internalType": "uint256",
          "name": "_throttleRoundBlocks",
          "type": "uint256"
        },
        {
          "internalType": "uint256",
          "name": "_throttleRoundCap",
          "type": "uint256"
        },
        {
          "internalType": "uint256",
          "name": "stakeEnd",
          "type": "uint256"
        }
      ],
      "stateMutability": "nonpayable",
      "type": "constructor"
    },
    {
      "anonymous": false,
      "inputs": [
        {
          "indexed": false,
          "internalType": "address",
          "name": "user",
          "type": "address"
        },
        {
          "indexed": false,
          "internalType": "uint256",
          "name": "stake",
          "type": "uint256"
        }
      ],
      "name": "ExitCompleted",
      "type": "event"
    },
    {
      "anonymous": false,
      "inputs": [
        {
          "indexed": false,
          "internalType": "address",
          "name": "user",
          "type": "address"
        },
        {
          "indexed": false,
          "internalType": "uint256",
          "name": "exitBlock",
          "type": "uint256"
        }
      ],
      "name": "ExitRequested",
      "type": "event"
    },
    {
      "anonymous": false,
      "inputs": [
        {
          "indexed": true,
          "internalType": "address",
          "name": "previousOwner",
          "type": "address"
        },
        {
          "indexed": true,
          "internalType": "address",
          "name": "newOwner",
          "type": "address"
        }
      ],
      "name": "OwnershipTransferred",
      "type": "event"
    },
    {
      "anonymous": false,
      "inputs": [
        {
          "indexed": true,
          "internalType": "address",
          "name": "user",
          "type": "address"
        },
        {
          "indexed": false,
          "internalType": "uint256",
          "name": "amount",
          "type": "uint256"
        },
        {
          "indexed": false,
          "internalType": "uint256",
          "name": "sharesIssued",
          "type": "uint256"
        },
        {
          "indexed": false,
          "internalType": "uint256",
          "name": "oldShareVaule",
          "type": "uint256"
        },
        {
          "indexed": false,
          "internalType": "uint256",
          "name": "newShareValue",
          "type": "uint256"
        },
        {
          "indexed": false,
          "internalType": "uint256",
          "name": "balanceOf",
          "type": "uint256"
        }
      ],
      "name": "Staked",
      "type": "event"
    },
    {
      "inputs": [
        {
          "internalType": "address",
          "name": "who",
          "type": "address"
        }
      ],
      "name": "balanceOf",
      "outputs": [
        {
          "internalType": "uint256",
          "name": "",
          "type": "uint256"
        }
      ],
      "stateMutability": "view",
      "type": "function"
    },
    {
      "inputs": [],
      "name": "completeExit",
      "outputs": [],
      "stateMutability": "nonpayable",
      "type": "function"
    },
    {
      "inputs": [
        {
          "internalType": "address",
          "name": "staker",
          "type": "address"
        },
        {
          "internalType": "uint256",
          "name": "stake",
          "type": "uint256"
        }
      ],
      "name": "delegateStake",
      "outputs": [],
      "stateMutability": "nonpayable",
      "type": "function"
    },
    {
      "inputs": [],
      "name": "exit",
      "outputs": [],
      "stateMutability": "nonpayable",
      "type": "function"
    },
    {
      "inputs": [
        {
          "internalType": "address",
          "name": "",
          "type": "address"
        }
      ],
      "name": "exitInfo",
      "outputs": [
        {
          "internalType": "uint256",
          "name": "exitBlock",
          "type": "uint256"
        },
        {
          "internalType": "uint256",
          "name": "exitStake",
          "type": "uint256"
        }
      ],
      "stateMutability": "view",
      "type": "function"
    },
    {
      "inputs": [],
      "name": "exitStake",
      "outputs": [
        {
          "internalType": "uint256",
          "name": "",
          "type": "uint256"
        }
      ],
      "stateMutability": "view",
      "type": "function"
    },
    {
      "inputs": [],
      "name": "factory",
      "outputs": [
        {
          "internalType": "address",
          "name": "",
          "type": "address"
        }
      ],
      "stateMutability": "view",
      "type": "function"
    },
    {
      "inputs": [
        {
          "internalType": "uint256",
          "name": "tokenIndex",
          "type": "uint256"
        }
      ],
      "name": "getPendingReward",
      "outputs": [
        {
          "internalType": "uint256",
          "name": "",
          "type": "uint256"
        }
      ],
      "stateMutability": "view",
      "type": "function"
    },
    {
      "inputs": [],
      "name": "lockEndBlock",
      "outputs": [
        {
          "internalType": "uint256",
          "name": "",
          "type": "uint256"
        }
      ],
      "stateMutability": "view",
      "type": "function"
    },
    {
      "inputs": [],
      "name": "nextAvailableExitBlock",
      "outputs": [
        {
          "internalType": "uint256",
          "name": "",
          "type": "uint256"
        }
      ],
      "stateMutability": "view",
      "type": "function"
    },
    {
      "inputs": [],
      "name": "nextAvailableRoundExitVolume",
      "outputs": [
        {
          "internalType": "uint256",
          "name": "",
          "type": "uint256"
        }
      ],
      "stateMutability": "view",
      "type": "function"
    },
    {
      "inputs": [],
      "name": "owner",
      "outputs": [
        {
          "internalType": "address",
          "name": "",
          "type": "address"
        }
      ],
      "stateMutability": "view",
      "type": "function"
    },
    {
      "inputs": [],
      "name": "refreshAutoStake",
      "outputs": [],
      "stateMutability": "nonpayable",
      "type": "function"
    },
    {
      "inputs": [],
      "name": "renounceOwnership",
      "outputs": [],
      "stateMutability": "nonpayable",
      "type": "function"
    },
    {
      "inputs": [],
      "name": "rewardPool",
      "outputs": [
        {
          "internalType": "contract IRewardsPoolBase",
          "name": "",
          "type": "address"
        }
      ],
      "stateMutability": "view",
      "type": "function"
    },
    {
      "inputs": [
        {
          "internalType": "address",
          "name": "pool",
          "type": "address"
        }
      ],
      "name": "setPool",
      "outputs": [],
      "stateMutability": "nonpayable",
      "type": "function"
    },
    {
      "inputs": [
        {
          "internalType": "address",
          "name": "",
          "type": "address"
        }
      ],
      "name": "share",
      "outputs": [
        {
          "internalType": "uint256",
          "name": "",
          "type": "uint256"
        }
      ],
      "stateMutability": "view",
      "type": "function"
    },
    {
      "inputs": [
        {
          "internalType": "uint256",
          "name": "amount",
          "type": "uint256"
        }
      ],
      "name": "stake",
      "outputs": [],
      "stateMutability": "nonpayable",
      "type": "function"
    },
    {
      "inputs": [],
      "name": "stakingToken",
      "outputs": [
        {
          "internalType": "contract IERC20Detailed",
          "name": "",
          "type": "address"
        }
      ],
      "stateMutability": "view",
      "type": "function"
    },
    {
      "inputs": [],
      "name": "throttleRoundBlocks",
      "outputs": [
        {
          "internalType": "uint256",
          "name": "",
          "type": "uint256"
        }
      ],
      "stateMutability": "view",
      "type": "function"
    },
    {
      "inputs": [],
      "name": "throttleRoundCap",
      "outputs": [
        {
          "internalType": "uint256",
          "name": "",
          "type": "uint256"
        }
      ],
      "stateMutability": "view",
      "type": "function"
    },
    {
      "inputs": [],
      "name": "totalShares",
      "outputs": [
        {
          "internalType": "uint256",
          "name": "",
          "type": "uint256"
        }
      ],
      "stateMutability": "view",
      "type": "function"
    },
    {
      "inputs": [],
      "name": "totalValue",
      "outputs": [
        {
          "internalType": "uint256",
          "name": "",
          "type": "uint256"
        }
      ],
      "stateMutability": "view",
      "type": "function"
    },
    {
      "inputs": [
        {
          "internalType": "address",
          "name": "newOwner",
          "type": "address"
        }
      ],
      "name": "transferOwnership",
      "outputs": [],
      "stateMutability": "nonpayable",
      "type": "function"
    },
    {
      "inputs": [],
      "name": "unit",
      "outputs": [
        {
          "internalType": "uint256",
          "name": "",
          "type": "uint256"
        }
      ],
      "stateMutability": "view",
      "type": "function"
    },
    {
      "inputs": [],
      "name": "valuePerShare",
      "outputs": [
        {
          "internalType": "uint256",
          "name": "",
          "type": "uint256"
        }
      ],
      "stateMutability": "view",
      "type": "function"
    }
  ],
  "bytecode": "0x60e0604052670de0b6b3a76400006008553480156200001d57600080fd5b5060405162001d7638038062001d76833981810160405260808110156200004357600080fd5b508051602082015160408301516060909301516001600055919290918383838380438111620000a45760405162461bcd60e51b815260040180806020018281038252602e81526020018062001d48602e913960400191505060405180910390fd5b6080526000620000b362000135565b600680546001600160a01b0319166001600160a01b038316908117909155604051919250906000907f8be0079c531659141344cd1fd0a4f28419497f9722a3daafe3b4186f6b6457e0908290a35033606090811b60c05284901b6001600160601b03191660a0526200012783838362000139565b505050505050505062000295565b3390565b600083116200017a5760405162461bcd60e51b815260040180806020018281038252603681526020018062001d126036913960400191505060405180910390fd5b60008211620001bb5760405162461bcd60e51b815260040180806020018281038252603381526020018062001cae6033913960400191505060405180910390fd5b600354158015620001cc5750600454155b620002095760405162461bcd60e51b815260040180806020018281038252603181526020018062001ce16031913960400191505060405180910390fd5b600383905560048290556200022b818462000233602090811b62000b1717901c565b600155505050565b6000828201838110156200028e576040805162461bcd60e51b815260206004820152601b60248201527f536166654d6174683a206164646974696f6e206f766572666c6f770000000000604482015290519081900360640190fd5b9392505050565b60805160a05160601c60c05160601c6119b9620002f5600039806108885250806106b652806108315280610c015280610f8f528061115552806111d6528061125552806112905250806106da528061074152806108b252506119b96000f3fe608060405234801561001057600080fd5b506004361061018e5760003560e01c80638587edbb116100de578063b540652e11610097578063d4c3eea011610071578063d4c3eea014610352578063e9fad8ee1461035a578063ee483cdf14610362578063f2fde38b1461036a5761018e565b8063b540652e1461033a578063c0a239e314610342578063c45a01551461034a5761018e565b80638587edbb146102be5780638da5cb5b146102c6578063907af6c0146102ce57806394f66417146102d6578063a694fc3a14610315578063b01eb660146103325761018e565b80634ff3306f1161014b57806370a082311161012557806370a082311461026b578063715018a6146102915780637211bbc91461029957806372f702f3146102b65761018e565b80634ff3306f1461023757806366666aa91461023f5780636eb957df146102635761018e565b80631877bb5c146101935780631c1f9cc0146101cb5780633882f742146101d35780633a98ef39146101db5780633c323a1b146101e35780634437152a14610211575b600080fd5b6101b9600480360360208110156101a957600080fd5b50356001600160a01b0316610390565b60408051918252519081900360200190f35b6101b96103a2565b6101b96103a8565b6101b96103ae565b61020f600480360360408110156101f957600080fd5b506001600160a01b0381351690602001356103b4565b005b61020f6004803603602081101561022757600080fd5b50356001600160a01b0316610474565b6101b9610568565b61024761056e565b604080516001600160a01b039092168252519081900360200190f35b6101b961057d565b6101b96004803603602081101561028157600080fd5b50356001600160a01b0316610583565b61020f6105c4565b6101b9600480360360208110156102af57600080fd5b5035610682565b6102476106b4565b6101b96106d8565b6102476106fc565b6101b961070b565b6102fc600480360360208110156102ec57600080fd5b50356001600160a01b0316610717565b6040805192835260208301919091528051918290030190f35b61020f6004803603602081101561032b57600080fd5b5035610730565b61020f61073f565b61020f610866565b6101b9610880565b610247610886565b6101b96108aa565b61020f6108b0565b6101b96109fc565b61020f6004803603602081101561038057600080fd5b50356001600160a01b0316610a02565b600c6020526000908152604090205481565b60015481565b600b5481565b60095481565b60008111610409576040805162461bcd60e51b815260206004820152601c60248201527f64656c65676174655374616b653a3a4e6f207374616b652073656e7400000000604482015290519081900360640190fd5b6001600160a01b038216610464576040805162461bcd60e51b815260206004820152601d60248201527f64656c65676174655374616b653a3a496e76616c6964207374616b6572000000604482015290519081900360640190fd5b61047081836000610b7a565b5050565b61047c610d17565b6001600160a01b031661048d6106fc565b6001600160a01b0316146104e8576040805162461bcd60e51b815260206004820181905260248201527f4f776e61626c653a2063616c6c6572206973206e6f7420746865206f776e6572604482015290519081900360640190fd5b6007546001600160a01b031615610546576040805162461bcd60e51b815260206004820152601760248201527f52657761726420706f6f6c20616c726561647920736574000000000000000000604482015290519081900360640190fd5b600780546001600160a01b0319166001600160a01b0392909216919091179055565b60045481565b6007546001600160a01b031681565b60035481565b6001600160a01b0381166000908152600c60205260408120546008546105bc91670de0b6b3a7640000916105b691610d1b565b90610d74565b90505b919050565b6105cc610d17565b6001600160a01b03166105dd6106fc565b6001600160a01b031614610638576040805162461bcd60e51b815260206004820181905260248201527f4f776e61626c653a2063616c6c6572206973206e6f7420746865206f776e6572604482015290519081900360640190fd5b6006546040516000916001600160a01b0316907f8be0079c531659141344cd1fd0a4f28419497f9722a3daafe3b4186f6b6457e0908390a3600680546001600160a01b0319169055565b336000908152600560205260408120600281018054849081106106a157fe5b9060005260206000200154915050919050565b7f000000000000000000000000000000000000000000000000000000000000000081565b7f000000000000000000000000000000000000000000000000000000000000000081565b6006546001600160a01b031690565b670de0b6b3a764000081565b6005602052600090815260409020805460019091015482565b61073c81336001610b7a565b50565b7f0000000000000000000000000000000000000000000000000000000000000000431161079d5760405162461bcd60e51b81526004018080602001828103825260428152602001806118c16042913960600191505060405180910390fd5b600260005414156107f5576040805162461bcd60e51b815260206004820152601f60248201527f5265656e7472616e637947756172643a207265656e7472616e742063616c6c00604482015290519081900360640190fd5b600260009081553381526005602052604090206001810154600b5461081991610ddb565b600b55604080516000815260208101909152610856907f000000000000000000000000000000000000000000000000000000000000000090610e38565b61085e610f6a565b506001600055565b61086e61104f565b610876610f6a565b61087e611135565b565b60085481565b7f000000000000000000000000000000000000000000000000000000000000000081565b600a5481565b7f0000000000000000000000000000000000000000000000000000000000000000431161090e5760405162461bcd60e51b81526004018080602001828103825260428152602001806118c16042913960600191505060405180910390fd5b60026000541415610966576040805162461bcd60e51b815260206004820152601f60248201527f5265656e7472616e637947756172643a207265656e7472616e742063616c6c00604482015290519081900360640190fd5b600260005561097361104f565b61097b610f6a565b600061098633610583565b90508061099357506109f5565b604080516000808252602082019092526109ae918391611321565b336000908152600c60205260409020546009546109ca91610ddb565b600955336000908152600c6020526040812055600b546109ea9082610b17565b600b5561085e610f6a565b6001600055565b60025481565b610a0a610d17565b6001600160a01b0316610a1b6106fc565b6001600160a01b031614610a76576040805162461bcd60e51b815260206004820181905260248201527f4f776e61626c653a2063616c6c6572206973206e6f7420746865206f776e6572604482015290519081900360640190fd5b6001600160a01b038116610abb5760405162461bcd60e51b81526004018080602001828103825260268152602001806118756026913960400191505060405180910390fd5b6006546040516001600160a01b038084169216907f8be0079c531659141344cd1fd0a4f28419497f9722a3daafe3b4186f6b6457e090600090a3600680546001600160a01b0319166001600160a01b0392909216919091179055565b600082820183811015610b71576040805162461bcd60e51b815260206004820152601b60248201527f536166654d6174683a206164646974696f6e206f766572666c6f770000000000604482015290519081900360640190fd5b90505b92915050565b60026000541415610bd2576040805162461bcd60e51b815260206004820152601f60248201527f5265656e7472616e637947756172643a207265656e7472616e742063616c6c00604482015290519081900360640190fd5b6002600055610bdf61104f565b610be7610f6a565b610c2981610bf55733610bf7565b825b6001600160a01b037f00000000000000000000000000000000000000000000000000000000000000001690308661140a565b600854600090610c45906105b686670de0b6b3a7640000610d1b565b600954909150610c559082610b17565b6009556001600160a01b0383166000908152600c6020526040902054610c7b9082610b17565b6001600160a01b0384166000908152600c6020526040902055600854610c9f610f6a565b836001600160a01b03167f6381ea17a5324d29cc015352644672ead5185c1c61a0d3a521eda97e35cec97e868484600854610cd98a610583565b6040805195865260208601949094528484019290925260608401526080830152519081900360a00190a2610d0b611135565b50506001600055505050565b3390565b600082610d2a57506000610b74565b82820282848281610d3757fe5b0414610b715760405162461bcd60e51b81526004018080602001828103825260218152602001806119036021913960400191505060405180910390fd5b6000808211610dca576040805162461bcd60e51b815260206004820152601a60248201527f536166654d6174683a206469766973696f6e206279207a65726f000000000000604482015290519081900360640190fd5b818381610dd357fe5b049392505050565b600082821115610e32576040805162461bcd60e51b815260206004820152601e60248201527f536166654d6174683a207375627472616374696f6e206f766572666c6f770000604482015290519081900360640190fd5b50900390565b33600090815260056020526040902080544311610e865760405162461bcd60e51b815260040180806020018281038252602681526020018061189b6026913960400191505060405180910390fd5b6001810180546000909155610ea56001600160a01b0385163383611464565b60005b8351811015610f28576000836002018281548110610ec257fe5b906000526020600020015490506000846002018381548110610ee057fe5b9060005260206000200181905550610f1f3382878581518110610eff57fe5b60200260200101516001600160a01b03166114649092919063ffffffff16565b50600101610ea8565b50604080513381526020810183905281517f548aea05c5e3b6ba34acdf7b3ad06c7bb667ed71d1761e2c177167be0a9eb059929181900390910190a150505050565b600954610f87576000600a55670de0b6b3a764000060085561087e565b61102c600b547f00000000000000000000000000000000000000000000000000000000000000006001600160a01b03166370a08231306040518263ffffffff1660e01b815260040180826001600160a01b0316815260200191505060206040518083038186803b158015610ffa57600080fd5b505afa15801561100e573d6000803e3d6000fd5b505050506040513d602081101561102457600080fd5b505190610ddb565b600a81905560095461104a916105b690670de0b6b3a7640000610d1b565b600855565b600754604080516370a0823160e01b815230600482015290516001600160a01b03909216916370a0823191602480820192602092909190829003018186803b15801561109a57600080fd5b505afa1580156110ae573d6000803e3d6000fd5b505050506040513d60208110156110c457600080fd5b50511561087e57600760009054906101000a90046001600160a01b03166001600160a01b031663e9fad8ee6040518163ffffffff1660e01b8152600401600060405180830381600087803b15801561111b57600080fd5b505af115801561112f573d6000803e3d6000fd5b50505050565b604080516370a0823160e01b815230600482015290516001600160a01b037f000000000000000000000000000000000000000000000000000000000000000016916370a08231916024808301926020929190829003018186803b15801561119b57600080fd5b505afa1580156111af573d6000803e3d6000fd5b505050506040513d60208110156111c557600080fd5b50511561087e576000611241600b547f00000000000000000000000000000000000000000000000000000000000000006001600160a01b03166370a08231306040518263ffffffff1660e01b815260040180826001600160a01b0316815260200191505060206040518083038186803b158015610ffa57600080fd5b60075490915061127f906001600160a01b037f00000000000000000000000000000000000000000000000000000000000000008116911660006114bb565b6007546112b9906001600160a01b037f000000000000000000000000000000000000000000000000000000000000000081169116836114bb565b6007546040805163534a7e1d60e11b81526004810184905290516001600160a01b039092169163a694fc3a9160248082019260009290919082900301818387803b15801561130657600080fd5b505af115801561131a573d6000803e3d6000fd5b5050505050565b61132b33836115ce565b33600090815260056020526040902061134384611629565b815560018101546113549085610b17565b600182015560005b838110156113c6576113a383828151811061137357fe5b602002602001015183600201838154811061138a57fe5b9060005260206000200154610b1790919063ffffffff16565b8260020182815481106113b257fe5b60009182526020909120015560010161135c565b50805460408051338152602081019290925280517fd9217a461a0f7f84171a8866118c3d92e943ba7c1ba89b819371f729b5cabcbc9281900390910190a150505050565b604080516001600160a01b0380861660248301528416604482015260648082018490528251808303909101815260849091019091526020810180516001600160e01b03166323b872dd60e01b17905261112f9085906116b6565b604080516001600160a01b038416602482015260448082018490528251808303909101815260649091019091526020810180516001600160e01b031663a9059cbb60e01b1790526114b69084906116b6565b505050565b801580611541575060408051636eb1769f60e11b81523060048201526001600160a01b03848116602483015291519185169163dd62ed3e91604480820192602092909190829003018186803b15801561151357600080fd5b505afa158015611527573d6000803e3d6000fd5b505050506040513d602081101561153d57600080fd5b5051155b61157c5760405162461bcd60e51b815260040180806020018281038252603681526020018061194e6036913960400191505060405180910390fd5b604080516001600160a01b038416602482015260448082018490528251808303909101815260649091019091526020810180516001600160e01b031663095ea7b360e01b1790526114b69084906116b6565b6001600160a01b038216600090815260056020526040902060028101548214156115f85750610470565b60028101545b8281101561112f576002820180546001818101835560009283526020832090910191909155016115fe565b600060015443111561167b57600060035460015443038161164657fe5b0690506116686003546116628343610ddb90919063ffffffff16565b90610b17565b6001819055600284905591506105bf9050565b6002546116889083610b17565b60025550600154600454600254106105bf576003546001546116a991610b17565b6001556000600255919050565b6116c8826001600160a01b031661186e565b611719576040805162461bcd60e51b815260206004820152601f60248201527f5361666545524332303a2063616c6c20746f206e6f6e2d636f6e747261637400604482015290519081900360640190fd5b60006060836001600160a01b0316836040518082805190602001908083835b602083106117575780518252601f199092019160209182019101611738565b6001836020036101000a0380198251168184511680821785525050505050509050019150506000604051808303816000865af19150503d80600081146117b9576040519150601f19603f3d011682016040523d82523d6000602084013e6117be565b606091505b509150915081611815576040805162461bcd60e51b815260206004820181905260248201527f5361666545524332303a206c6f772d6c6576656c2063616c6c206661696c6564604482015290519081900360640190fd5b80511561112f5780806020019051602081101561183157600080fd5b505161112f5760405162461bcd60e51b815260040180806020018281038252602a815260200180611924602a913960400191505060405180910390fd5b3b15159056fe4f776e61626c653a206e6577206f776e657220697320746865207a65726f206164647265737366696e616c697a65457869743a3a547279696e6720746f206578697420746f6f206561726c796f6e6c79556e6c6f636b65643a3a63616e6e6f7420706572666f726d207468697320616374696f6e20756e74696c2074686520656e64206f6620746865206c6f636b536166654d6174683a206d756c7469706c69636174696f6e206f766572666c6f775361666545524332303a204552433230206f7065726174696f6e20646964206e6f7420737563636565645361666545524332303a20617070726f76652066726f6d206e6f6e2d7a65726f20746f206e6f6e2d7a65726f20616c6c6f77616e6365a264697066735822122046139127ec814f63f4f2c0c533c27914e61d743e0fce3d630ede0f024bc70aaa64736f6c634300060c00337365745468726f74746c653a3a7468726f74746c6520726f756e6420636170206d757374206265206d6f7265207468616e20307365745468726f74746c653a3a7468726f74746c6520706172616d6574657273207765726520616c7265616479207365747365745468726f74746c653a3a7468726f74746c6520726f756e6420626c6f636b73206d757374206265206d6f7265207468616e20307365744c6f636b456e643a3a4c6f636b20656e64206e6565647320746f20626520696e2074686520667574757265",
  "source": "// SPDX-License-Identifier: MIT\n\npragma solidity 0.6.12;\n\nimport \"./../autostake-features/StakeReceiverAutoStake.sol\";\n\ncontract AutoStakeReceiverMock is StakeReceiverAutoStake {\n\tconstructor(address token, uint256 _throttleRoundBlocks, uint256 _throttleRoundCap, uint256 stakeEnd) public AutoStake(token, _throttleRoundBlocks, _throttleRoundCap, stakeEnd) {\n\t}\n}",
  "sourcePath": "/Users/martindobrev/Code/custom-token/contracts/mocks/AutoStakeReceiverMock.sol",
  "compiler": {
    "name": "solc",
    "version": "0.6.12+commit.27d51765.Emscripten.clang",
    "optimizer": true,
    "runs": 200
  },
  "schemaVersion": "2.3.5",
  "updatedAt": "2022-02-16T15:12:31.214Z"
}