{
  "contractName": "AutoStake",
  "abi": [
    {
      "inputs": [
        {
          "internalType": "address",
          "name": "token",
          "type": "address"
        },
        {
          "internalType": "uint256",
          "name": "_throttleRoundBlocks",
          "type": "uint256"
        },
        {
          "internalType": "uint256",
          "name": "_throttleRoundCap",
          "type": "uint256"
        },
        {
          "internalType": "uint256",
          "name": "stakeEnd",
          "type": "uint256"
        }
      ],
      "stateMutability": "nonpayable",
      "type": "constructor"
    },
    {
      "anonymous": false,
      "inputs": [
        {
          "indexed": false,
          "internalType": "address",
          "name": "user",
          "type": "address"
        },
        {
          "indexed": false,
          "internalType": "uint256",
          "name": "stake",
          "type": "uint256"
        }
      ],
      "name": "ExitCompleted",
      "type": "event"
    },
    {
      "anonymous": false,
      "inputs": [
        {
          "indexed": false,
          "internalType": "address",
          "name": "user",
          "type": "address"
        },
        {
          "indexed": false,
          "internalType": "uint256",
          "name": "exitBlock",
          "type": "uint256"
        }
      ],
      "name": "ExitRequested",
      "type": "event"
    },
    {
      "anonymous": false,
      "inputs": [
        {
          "indexed": true,
          "internalType": "address",
          "name": "previousOwner",
          "type": "address"
        },
        {
          "indexed": true,
          "internalType": "address",
          "name": "newOwner",
          "type": "address"
        }
      ],
      "name": "OwnershipTransferred",
      "type": "event"
    },
    {
      "anonymous": false,
      "inputs": [
        {
          "indexed": true,
          "internalType": "address",
          "name": "user",
          "type": "address"
        },
        {
          "indexed": false,
          "internalType": "uint256",
          "name": "amount",
          "type": "uint256"
        },
        {
          "indexed": false,
          "internalType": "uint256",
          "name": "sharesIssued",
          "type": "uint256"
        },
        {
          "indexed": false,
          "internalType": "uint256",
          "name": "oldShareVaule",
          "type": "uint256"
        },
        {
          "indexed": false,
          "internalType": "uint256",
          "name": "newShareValue",
          "type": "uint256"
        },
        {
          "indexed": false,
          "internalType": "uint256",
          "name": "balanceOf",
          "type": "uint256"
        }
      ],
      "name": "Staked",
      "type": "event"
    },
    {
      "inputs": [
        {
          "internalType": "address",
          "name": "",
          "type": "address"
        }
      ],
      "name": "exitInfo",
      "outputs": [
        {
          "internalType": "uint256",
          "name": "exitBlock",
          "type": "uint256"
        },
        {
          "internalType": "uint256",
          "name": "exitStake",
          "type": "uint256"
        }
      ],
      "stateMutability": "view",
      "type": "function"
    },
    {
      "inputs": [],
      "name": "exitStake",
      "outputs": [
        {
          "internalType": "uint256",
          "name": "",
          "type": "uint256"
        }
      ],
      "stateMutability": "view",
      "type": "function"
    },
    {
      "inputs": [],
      "name": "factory",
      "outputs": [
        {
          "internalType": "address",
          "name": "",
          "type": "address"
        }
      ],
      "stateMutability": "view",
      "type": "function"
    },
    {
      "inputs": [
        {
          "internalType": "uint256",
          "name": "tokenIndex",
          "type": "uint256"
        }
      ],
      "name": "getPendingReward",
      "outputs": [
        {
          "internalType": "uint256",
          "name": "",
          "type": "uint256"
        }
      ],
      "stateMutability": "view",
      "type": "function"
    },
    {
      "inputs": [],
      "name": "lockEndBlock",
      "outputs": [
        {
          "internalType": "uint256",
          "name": "",
          "type": "uint256"
        }
      ],
      "stateMutability": "view",
      "type": "function"
    },
    {
      "inputs": [],
      "name": "nextAvailableExitBlock",
      "outputs": [
        {
          "internalType": "uint256",
          "name": "",
          "type": "uint256"
        }
      ],
      "stateMutability": "view",
      "type": "function"
    },
    {
      "inputs": [],
      "name": "nextAvailableRoundExitVolume",
      "outputs": [
        {
          "internalType": "uint256",
          "name": "",
          "type": "uint256"
        }
      ],
      "stateMutability": "view",
      "type": "function"
    },
    {
      "inputs": [],
      "name": "owner",
      "outputs": [
        {
          "internalType": "address",
          "name": "",
          "type": "address"
        }
      ],
      "stateMutability": "view",
      "type": "function"
    },
    {
      "inputs": [],
      "name": "renounceOwnership",
      "outputs": [],
      "stateMutability": "nonpayable",
      "type": "function"
    },
    {
      "inputs": [],
      "name": "rewardPool",
      "outputs": [
        {
          "internalType": "contract IRewardsPoolBase",
          "name": "",
          "type": "address"
        }
      ],
      "stateMutability": "view",
      "type": "function"
    },
    {
      "inputs": [
        {
          "internalType": "address",
          "name": "",
          "type": "address"
        }
      ],
      "name": "share",
      "outputs": [
        {
          "internalType": "uint256",
          "name": "",
          "type": "uint256"
        }
      ],
      "stateMutability": "view",
      "type": "function"
    },
    {
      "inputs": [],
      "name": "stakingToken",
      "outputs": [
        {
          "internalType": "contract IERC20Detailed",
          "name": "",
          "type": "address"
        }
      ],
      "stateMutability": "view",
      "type": "function"
    },
    {
      "inputs": [],
      "name": "throttleRoundBlocks",
      "outputs": [
        {
          "internalType": "uint256",
          "name": "",
          "type": "uint256"
        }
      ],
      "stateMutability": "view",
      "type": "function"
    },
    {
      "inputs": [],
      "name": "throttleRoundCap",
      "outputs": [
        {
          "internalType": "uint256",
          "name": "",
          "type": "uint256"
        }
      ],
      "stateMutability": "view",
      "type": "function"
    },
    {
      "inputs": [],
      "name": "totalShares",
      "outputs": [
        {
          "internalType": "uint256",
          "name": "",
          "type": "uint256"
        }
      ],
      "stateMutability": "view",
      "type": "function"
    },
    {
      "inputs": [],
      "name": "totalValue",
      "outputs": [
        {
          "internalType": "uint256",
          "name": "",
          "type": "uint256"
        }
      ],
      "stateMutability": "view",
      "type": "function"
    },
    {
      "inputs": [
        {
          "internalType": "address",
          "name": "newOwner",
          "type": "address"
        }
      ],
      "name": "transferOwnership",
      "outputs": [],
      "stateMutability": "nonpayable",
      "type": "function"
    },
    {
      "inputs": [],
      "name": "unit",
      "outputs": [
        {
          "internalType": "uint256",
          "name": "",
          "type": "uint256"
        }
      ],
      "stateMutability": "view",
      "type": "function"
    },
    {
      "inputs": [],
      "name": "valuePerShare",
      "outputs": [
        {
          "internalType": "uint256",
          "name": "",
          "type": "uint256"
        }
      ],
      "stateMutability": "view",
      "type": "function"
    },
    {
      "inputs": [
        {
          "internalType": "address",
          "name": "pool",
          "type": "address"
        }
      ],
      "name": "setPool",
      "outputs": [],
      "stateMutability": "nonpayable",
      "type": "function"
    },
    {
      "inputs": [],
      "name": "refreshAutoStake",
      "outputs": [],
      "stateMutability": "nonpayable",
      "type": "function"
    },
    {
      "inputs": [
        {
          "internalType": "uint256",
          "name": "amount",
          "type": "uint256"
        }
      ],
      "name": "stake",
      "outputs": [],
      "stateMutability": "nonpayable",
      "type": "function"
    },
    {
      "inputs": [],
      "name": "exit",
      "outputs": [],
      "stateMutability": "nonpayable",
      "type": "function"
    },
    {
      "inputs": [],
      "name": "completeExit",
      "outputs": [],
      "stateMutability": "nonpayable",
      "type": "function"
    },
    {
      "inputs": [
        {
          "internalType": "address",
          "name": "who",
          "type": "address"
        }
      ],
      "name": "balanceOf",
      "outputs": [
        {
          "internalType": "uint256",
          "name": "",
          "type": "uint256"
        }
      ],
      "stateMutability": "view",
      "type": "function"
    }
  ],
  "bytecode": "0x60e0604052670de0b6b3a76400006008553480156200001d57600080fd5b5060405162001c6b38038062001c6b833981810160405260808110156200004357600080fd5b5080516020820151604083015160609093015160016000559192909180438111620000a05760405162461bcd60e51b815260040180806020018281038252602e81526020018062001c3d602e913960400191505060405180910390fd5b6080526000620000af6200012d565b600680546001600160a01b0319166001600160a01b038316908117909155604051919250906000907f8be0079c531659141344cd1fd0a4f28419497f9722a3daafe3b4186f6b6457e0908290a35033606090811b60c05284901b6001600160601b03191660a0526200012383838362000131565b505050506200028d565b3390565b60008311620001725760405162461bcd60e51b815260040180806020018281038252603681526020018062001c076036913960400191505060405180910390fd5b60008211620001b35760405162461bcd60e51b815260040180806020018281038252603381526020018062001ba36033913960400191505060405180910390fd5b600354158015620001c45750600454155b620002015760405162461bcd60e51b815260040180806020018281038252603181526020018062001bd66031913960400191505060405180910390fd5b600383905560048290556200022381846200022b602090811b62000a1017901c565b600155505050565b60008282018381101562000286576040805162461bcd60e51b815260206004820152601b60248201527f536166654d6174683a206164646974696f6e206f766572666c6f770000000000604482015290519081900360640190fd5b9392505050565b60805160a05160601c60c05160601c6118b6620002ed600039806107815250806105af528061072a5280610bbe5280610e88528061104e52806110cf528061114e52806111895250806105d3528061063a52806107ab52506118b66000f3fe608060405234801561001057600080fd5b50600436106101735760003560e01c80638587edbb116100de578063b540652e11610097578063d4c3eea011610071578063d4c3eea01461030b578063e9fad8ee14610313578063ee483cdf1461031b578063f2fde38b1461032357610173565b8063b540652e146102f3578063c0a239e3146102fb578063c45a01551461030357610173565b80638587edbb146102775780638da5cb5b1461027f578063907af6c01461028757806394f664171461028f578063a694fc3a146102ce578063b01eb660146102eb57610173565b806366666aa91161013057806366666aa9146101f85780636eb957df1461021c57806370a0823114610224578063715018a61461024a5780637211bbc91461025257806372f702f31461026f57610173565b80631877bb5c146101785780631c1f9cc0146101b05780633882f742146101b85780633a98ef39146101c05780634437152a146101c85780634ff3306f146101f0575b600080fd5b61019e6004803603602081101561018e57600080fd5b50356001600160a01b0316610349565b60408051918252519081900360200190f35b61019e61035b565b61019e610361565b61019e610367565b6101ee600480360360208110156101de57600080fd5b50356001600160a01b031661036d565b005b61019e610461565b610200610467565b604080516001600160a01b039092168252519081900360200190f35b61019e610476565b61019e6004803603602081101561023a57600080fd5b50356001600160a01b031661047c565b6101ee6104bd565b61019e6004803603602081101561026857600080fd5b503561057b565b6102006105ad565b61019e6105d1565b6102006105f5565b61019e610604565b6102b5600480360360208110156102a557600080fd5b50356001600160a01b0316610610565b6040805192835260208301919091528051918290030190f35b6101ee600480360360208110156102e457600080fd5b5035610629565b6101ee610638565b6101ee61075f565b61019e610779565b61020061077f565b61019e6107a3565b6101ee6107a9565b61019e6108f5565b6101ee6004803603602081101561033957600080fd5b50356001600160a01b03166108fb565b600c6020526000908152604090205481565b60015481565b600b5481565b60095481565b610375610a73565b6001600160a01b03166103866105f5565b6001600160a01b0316146103e1576040805162461bcd60e51b815260206004820181905260248201527f4f776e61626c653a2063616c6c6572206973206e6f7420746865206f776e6572604482015290519081900360640190fd5b6007546001600160a01b03161561043f576040805162461bcd60e51b815260206004820152601760248201527f52657761726420706f6f6c20616c726561647920736574000000000000000000604482015290519081900360640190fd5b600780546001600160a01b0319166001600160a01b0392909216919091179055565b60045481565b6007546001600160a01b031681565b60035481565b6001600160a01b0381166000908152600c60205260408120546008546104b591670de0b6b3a7640000916104af91610a77565b90610ad0565b90505b919050565b6104c5610a73565b6001600160a01b03166104d66105f5565b6001600160a01b031614610531576040805162461bcd60e51b815260206004820181905260248201527f4f776e61626c653a2063616c6c6572206973206e6f7420746865206f776e6572604482015290519081900360640190fd5b6006546040516000916001600160a01b0316907f8be0079c531659141344cd1fd0a4f28419497f9722a3daafe3b4186f6b6457e0908390a3600680546001600160a01b0319169055565b3360009081526005602052604081206002810180548490811061059a57fe5b9060005260206000200154915050919050565b7f000000000000000000000000000000000000000000000000000000000000000081565b7f000000000000000000000000000000000000000000000000000000000000000081565b6006546001600160a01b031690565b670de0b6b3a764000081565b6005602052600090815260409020805460019091015482565b61063581336001610b37565b50565b7f000000000000000000000000000000000000000000000000000000000000000043116106965760405162461bcd60e51b81526004018080602001828103825260428152602001806117be6042913960600191505060405180910390fd5b600260005414156106ee576040805162461bcd60e51b815260206004820152601f60248201527f5265656e7472616e637947756172643a207265656e7472616e742063616c6c00604482015290519081900360640190fd5b600260009081553381526005602052604090206001810154600b5461071291610cd4565b600b5560408051600081526020810190915261074f907f000000000000000000000000000000000000000000000000000000000000000090610d31565b610757610e63565b506001600055565b610767610f48565b61076f610e63565b61077761102e565b565b60085481565b7f000000000000000000000000000000000000000000000000000000000000000081565b600a5481565b7f000000000000000000000000000000000000000000000000000000000000000043116108075760405162461bcd60e51b81526004018080602001828103825260428152602001806117be6042913960600191505060405180910390fd5b6002600054141561085f576040805162461bcd60e51b815260206004820152601f60248201527f5265656e7472616e637947756172643a207265656e7472616e742063616c6c00604482015290519081900360640190fd5b600260005561086c610f48565b610874610e63565b600061087f3361047c565b90508061088c57506108ee565b604080516000808252602082019092526108a791839161121a565b336000908152600c60205260409020546009546108c391610cd4565b600955336000908152600c6020526040812055600b546108e39082610a10565b600b55610757610e63565b6001600055565b60025481565b610903610a73565b6001600160a01b03166109146105f5565b6001600160a01b03161461096f576040805162461bcd60e51b815260206004820181905260248201527f4f776e61626c653a2063616c6c6572206973206e6f7420746865206f776e6572604482015290519081900360640190fd5b6001600160a01b0381166109b45760405162461bcd60e51b81526004018080602001828103825260268152602001806117726026913960400191505060405180910390fd5b6006546040516001600160a01b038084169216907f8be0079c531659141344cd1fd0a4f28419497f9722a3daafe3b4186f6b6457e090600090a3600680546001600160a01b0319166001600160a01b0392909216919091179055565b600082820183811015610a6a576040805162461bcd60e51b815260206004820152601b60248201527f536166654d6174683a206164646974696f6e206f766572666c6f770000000000604482015290519081900360640190fd5b90505b92915050565b3390565b600082610a8657506000610a6d565b82820282848281610a9357fe5b0414610a6a5760405162461bcd60e51b81526004018080602001828103825260218152602001806118006021913960400191505060405180910390fd5b6000808211610b26576040805162461bcd60e51b815260206004820152601a60248201527f536166654d6174683a206469766973696f6e206279207a65726f000000000000604482015290519081900360640190fd5b818381610b2f57fe5b049392505050565b60026000541415610b8f576040805162461bcd60e51b815260206004820152601f60248201527f5265656e7472616e637947756172643a207265656e7472616e742063616c6c00604482015290519081900360640190fd5b6002600055610b9c610f48565b610ba4610e63565b610be681610bb25733610bb4565b825b6001600160a01b037f000000000000000000000000000000000000000000000000000000000000000016903086611303565b600854600090610c02906104af86670de0b6b3a7640000610a77565b600954909150610c129082610a10565b6009556001600160a01b0383166000908152600c6020526040902054610c389082610a10565b6001600160a01b0384166000908152600c6020526040902055600854610c5c610e63565b836001600160a01b03167f6381ea17a5324d29cc015352644672ead5185c1c61a0d3a521eda97e35cec97e868484600854610c968a61047c565b6040805195865260208601949094528484019290925260608401526080830152519081900360a00190a2610cc861102e565b50506001600055505050565b600082821115610d2b576040805162461bcd60e51b815260206004820152601e60248201527f536166654d6174683a207375627472616374696f6e206f766572666c6f770000604482015290519081900360640190fd5b50900390565b33600090815260056020526040902080544311610d7f5760405162461bcd60e51b81526004018080602001828103825260268152602001806117986026913960400191505060405180910390fd5b6001810180546000909155610d9e6001600160a01b038516338361135d565b60005b8351811015610e21576000836002018281548110610dbb57fe5b906000526020600020015490506000846002018381548110610dd957fe5b9060005260206000200181905550610e183382878581518110610df857fe5b60200260200101516001600160a01b031661135d9092919063ffffffff16565b50600101610da1565b50604080513381526020810183905281517f548aea05c5e3b6ba34acdf7b3ad06c7bb667ed71d1761e2c177167be0a9eb059929181900390910190a150505050565b600954610e80576000600a55670de0b6b3a7640000600855610777565b610f25600b547f00000000000000000000000000000000000000000000000000000000000000006001600160a01b03166370a08231306040518263ffffffff1660e01b815260040180826001600160a01b0316815260200191505060206040518083038186803b158015610ef357600080fd5b505afa158015610f07573d6000803e3d6000fd5b505050506040513d6020811015610f1d57600080fd5b505190610cd4565b600a819055600954610f43916104af90670de0b6b3a7640000610a77565b600855565b600754604080516370a0823160e01b815230600482015290516001600160a01b03909216916370a0823191602480820192602092909190829003018186803b158015610f9357600080fd5b505afa158015610fa7573d6000803e3d6000fd5b505050506040513d6020811015610fbd57600080fd5b50511561077757600760009054906101000a90046001600160a01b03166001600160a01b031663e9fad8ee6040518163ffffffff1660e01b8152600401600060405180830381600087803b15801561101457600080fd5b505af1158015611028573d6000803e3d6000fd5b50505050565b604080516370a0823160e01b815230600482015290516001600160a01b037f000000000000000000000000000000000000000000000000000000000000000016916370a08231916024808301926020929190829003018186803b15801561109457600080fd5b505afa1580156110a8573d6000803e3d6000fd5b505050506040513d60208110156110be57600080fd5b50511561077757600061113a600b547f00000000000000000000000000000000000000000000000000000000000000006001600160a01b03166370a08231306040518263ffffffff1660e01b815260040180826001600160a01b0316815260200191505060206040518083038186803b158015610ef357600080fd5b600754909150611178906001600160a01b037f00000000000000000000000000000000000000000000000000000000000000008116911660006113b4565b6007546111b2906001600160a01b037f000000000000000000000000000000000000000000000000000000000000000081169116836113b4565b6007546040805163534a7e1d60e11b81526004810184905290516001600160a01b039092169163a694fc3a9160248082019260009290919082900301818387803b1580156111ff57600080fd5b505af1158015611213573d6000803e3d6000fd5b5050505050565b61122433836114c7565b33600090815260056020526040902061123c84611526565b8155600181015461124d9085610a10565b600182015560005b838110156112bf5761129c83828151811061126c57fe5b602002602001015183600201838154811061128357fe5b9060005260206000200154610a1090919063ffffffff16565b8260020182815481106112ab57fe5b600091825260209091200155600101611255565b50805460408051338152602081019290925280517fd9217a461a0f7f84171a8866118c3d92e943ba7c1ba89b819371f729b5cabcbc9281900390910190a150505050565b604080516001600160a01b0380861660248301528416604482015260648082018490528251808303909101815260849091019091526020810180516001600160e01b03166323b872dd60e01b1790526110289085906115b3565b604080516001600160a01b038416602482015260448082018490528251808303909101815260649091019091526020810180516001600160e01b031663a9059cbb60e01b1790526113af9084906115b3565b505050565b80158061143a575060408051636eb1769f60e11b81523060048201526001600160a01b03848116602483015291519185169163dd62ed3e91604480820192602092909190829003018186803b15801561140c57600080fd5b505afa158015611420573d6000803e3d6000fd5b505050506040513d602081101561143657600080fd5b5051155b6114755760405162461bcd60e51b815260040180806020018281038252603681526020018061184b6036913960400191505060405180910390fd5b604080516001600160a01b038416602482015260448082018490528251808303909101815260649091019091526020810180516001600160e01b031663095ea7b360e01b1790526113af9084906115b3565b6001600160a01b038216600090815260056020526040902060028101548214156114f15750611522565b60028101545b82811015611028576002820180546001818101835560009283526020832090910191909155016114f7565b5050565b600060015443111561157857600060035460015443038161154357fe5b06905061156560035461155f8343610cd490919063ffffffff16565b90610a10565b6001819055600284905591506104b89050565b6002546115859083610a10565b60025550600154600454600254106104b8576003546001546115a691610a10565b6001556000600255919050565b6115c5826001600160a01b031661176b565b611616576040805162461bcd60e51b815260206004820152601f60248201527f5361666545524332303a2063616c6c20746f206e6f6e2d636f6e747261637400604482015290519081900360640190fd5b60006060836001600160a01b0316836040518082805190602001908083835b602083106116545780518252601f199092019160209182019101611635565b6001836020036101000a0380198251168184511680821785525050505050509050019150506000604051808303816000865af19150503d80600081146116b6576040519150601f19603f3d011682016040523d82523d6000602084013e6116bb565b606091505b509150915081611712576040805162461bcd60e51b815260206004820181905260248201527f5361666545524332303a206c6f772d6c6576656c2063616c6c206661696c6564604482015290519081900360640190fd5b8051156110285780806020019051602081101561172e57600080fd5b50516110285760405162461bcd60e51b815260040180806020018281038252602a815260200180611821602a913960400191505060405180910390fd5b3b15159056fe4f776e61626c653a206e6577206f776e657220697320746865207a65726f206164647265737366696e616c697a65457869743a3a547279696e6720746f206578697420746f6f206561726c796f6e6c79556e6c6f636b65643a3a63616e6e6f7420706572666f726d207468697320616374696f6e20756e74696c2074686520656e64206f6620746865206c6f636b536166654d6174683a206d756c7469706c69636174696f6e206f766572666c6f775361666545524332303a204552433230206f7065726174696f6e20646964206e6f7420737563636565645361666545524332303a20617070726f76652066726f6d206e6f6e2d7a65726f20746f206e6f6e2d7a65726f20616c6c6f77616e6365a26469706673582212207995a5fc8c338f41c24a60135a992bc08ffa6b26d9cb9d3dc61309dd8bb8d95364736f6c634300060c00337365745468726f74746c653a3a7468726f74746c6520726f756e6420636170206d757374206265206d6f7265207468616e20307365745468726f74746c653a3a7468726f74746c6520706172616d6574657273207765726520616c7265616479207365747365745468726f74746c653a3a7468726f74746c6520726f756e6420626c6f636b73206d757374206265206d6f7265207468616e20307365744c6f636b456e643a3a4c6f636b20656e64206e6565647320746f20626520696e2074686520667574757265",
  "source": "// SPDX-License-Identifier: MIT\n\npragma solidity 0.6.12;\n\nimport \"openzeppelin-solidity/contracts/math/Math.sol\";\nimport \"openzeppelin-solidity/contracts/math/SafeMath.sol\";\nimport \"openzeppelin-solidity/contracts/utils/ReentrancyGuard.sol\";\nimport \"openzeppelin-solidity/contracts/access/Ownable.sol\";\nimport \"./../interfaces/IRewardsPoolBase.sol\";\nimport \"./../interfaces/IERC20Detailed.sol\";\nimport \"./../SafeERC20Detailed.sol\";\nimport \"./../StakeLock.sol\";\nimport \"./../ThrottledExit.sol\";\n\n// Based on ideas here: https://github.com/harvest-finance/harvest/blob/7a455967e40e980d4cfb2115bd000fbd6b201cc1/contracts/AutoStake.sol\n\ncontract AutoStake is ReentrancyGuard, StakeLock, ThrottledExit, Ownable {\n\tusing SafeMath for uint256;\n\tusing SafeERC20Detailed for IERC20Detailed;\n\n\tIRewardsPoolBase public rewardPool;\n\tIERC20Detailed public immutable stakingToken;\n\taddress public immutable factory;\n\tuint256 public constant unit = 1e18;\n\tuint256 public valuePerShare = unit;\n\tuint256 public totalShares; \n\tuint256 public totalValue;\n\tuint256 public exitStake;\n\tmapping(address => uint256) public share;\n\n\tevent Staked(address indexed user, uint256 amount, uint256 sharesIssued, uint256 oldShareVaule, uint256 newShareValue, uint256 balanceOf);\n\n\tconstructor(address token, uint256 _throttleRoundBlocks, uint256 _throttleRoundCap, uint256 stakeEnd) StakeLock(stakeEnd) public {\n\t\tfactory = msg.sender;\n\t\tstakingToken = IERC20Detailed(token);\n\t\tsetThrottleParams(_throttleRoundBlocks, _throttleRoundCap, stakeEnd);\n\t}\n\n\tfunction setPool(address pool) public onlyOwner {\n\t\trequire(address(rewardPool) == address(0x0), \"Reward pool already set\");\n\t\trewardPool = IRewardsPoolBase(pool);\n\t}\n\n\tmodifier onlyFactory() {\n\t\trequire(\n\t\t\tmsg.sender == factory,\n\t\t\t\"Caller is not the Factory contract\"\n\t\t);\n\t\t_;\n\t}\n\n\tfunction refreshAutoStake() external {\n\t\texitRewardPool();\n\t\tupdateValuePerShare();\n\t\trestakeIntoRewardPool();\n\t}\n\n\tfunction stake(uint256 amount) public virtual {\n\t\t_stake(amount, msg.sender, true);\n\t}\n\n\tfunction _stake(uint256 amount, address staker, bool chargeStaker) internal nonReentrant {\n\t\texitRewardPool();\n\t\tupdateValuePerShare();\n\n\t\t// now we can issue shares\n\t\tstakingToken.safeTransferFrom(chargeStaker ? staker : msg.sender, address(this), amount);\n\t\tuint256 sharesToIssue = amount.mul(unit).div(valuePerShare);\n\t\ttotalShares = totalShares.add(sharesToIssue);\n\t\tshare[staker] = share[staker].add(sharesToIssue);\n\n\t\tuint256 oldValuePerShare = valuePerShare;\n\n\t\t// Rate needs to be updated here, otherwise the valuePerShare would be incorrect.\n\t\tupdateValuePerShare();\n\n\t\temit Staked(staker, amount, sharesToIssue, oldValuePerShare, valuePerShare, balanceOf(staker));\n\n\t\trestakeIntoRewardPool();\n\t}\n\n\tfunction exit() public virtual onlyUnlocked nonReentrant {\n\t\texitRewardPool();\n\t\tupdateValuePerShare();\n\n\n\t\tuint256 userStake = balanceOf(msg.sender);\n\n\t\tif(userStake == 0) {\n\t\t\treturn;\n\t\t}\n\n\t\t// now we can transfer funds and burn shares\n\t\tinitiateExit(userStake, 0, new uint256[](0));\n\n\t\ttotalShares = totalShares.sub(share[msg.sender]);\n\t\tshare[msg.sender] = 0;\n\t\texitStake = exitStake.add(userStake);\n\n\t\tupdateValuePerShare();\n\t}\n\n\tfunction completeExit() virtual public onlyUnlocked nonReentrant {\n\t\tExitInfo storage info = exitInfo[msg.sender];\n\t\texitStake = exitStake.sub(info.exitStake);\n\n\t\tfinalizeExit(address(stakingToken), new address[](0));\n\n\t\tupdateValuePerShare();\n\t}\n\n\tfunction balanceOf(address who) public view returns(uint256) {\n\t\treturn valuePerShare.mul(share[who]).div(unit);\n\t}\n\n\tfunction updateValuePerShare() internal {\n\t\tif (totalShares == 0) {\n\t\t\ttotalValue = 0;\n\t\t\tvaluePerShare = unit;\n\t\t\treturn;\n\t\t}\n\t\ttotalValue = stakingToken.balanceOf(address(this)).sub(exitStake);\n\t\tvaluePerShare = totalValue.mul(unit).div(totalShares);\n\t}\n\n\tfunction exitRewardPool() internal {\n\t\tif(rewardPool.balanceOf(address(this)) != 0){\n\t\t\t// exit and do accounting first\n\t\t\trewardPool.exit();\n\t\t}\n\t}\n\n\tfunction restakeIntoRewardPool() internal {\n\t\tif(stakingToken.balanceOf(address(this)) != 0){\n\t\t\t// stake back to the pool\n\n\t\t\tuint256 balanceToRestake = stakingToken.balanceOf(address(this)).sub(exitStake);\n\n\t\t\tstakingToken.safeApprove(address(rewardPool), 0);\n\t\t\tstakingToken.safeApprove(address(rewardPool), balanceToRestake);\n\t\t\trewardPool.stake(balanceToRestake);\n\t\t}\n\t}\n\n}",
  "sourcePath": "/Users/martindobrev/Code/custom-token/contracts/autostake-features/AutoStake.sol",
  "compiler": {
    "name": "solc",
    "version": "0.6.12+commit.27d51765.Emscripten.clang",
    "optimizer": true,
    "runs": 200
  },
  "schemaVersion": "2.3.5",
  "updatedAt": "2022-02-16T15:12:31.204Z"
}