{
  "contractName": "CompoundingRewardsPoolStaker",
  "abi": [
    {
      "inputs": [
        {
          "internalType": "address",
          "name": "token",
          "type": "address"
        },
        {
          "internalType": "uint256",
          "name": "_throttleRoundBlocks",
          "type": "uint256"
        },
        {
          "internalType": "uint256",
          "name": "_throttleRoundCap",
          "type": "uint256"
        },
        {
          "internalType": "uint256",
          "name": "stakeEnd",
          "type": "uint256"
        },
        {
          "internalType": "uint256",
          "name": "_stakeLimit",
          "type": "uint256"
        }
      ],
      "stateMutability": "nonpayable",
      "type": "constructor"
    },
    {
      "anonymous": false,
      "inputs": [
        {
          "indexed": false,
          "internalType": "address",
          "name": "user",
          "type": "address"
        },
        {
          "indexed": false,
          "internalType": "uint256",
          "name": "stake",
          "type": "uint256"
        }
      ],
      "name": "ExitCompleted",
      "type": "event"
    },
    {
      "anonymous": false,
      "inputs": [
        {
          "indexed": false,
          "internalType": "address",
          "name": "user",
          "type": "address"
        },
        {
          "indexed": false,
          "internalType": "uint256",
          "name": "exitBlock",
          "type": "uint256"
        }
      ],
      "name": "ExitRequested",
      "type": "event"
    },
    {
      "anonymous": false,
      "inputs": [
        {
          "indexed": true,
          "internalType": "address",
          "name": "previousOwner",
          "type": "address"
        },
        {
          "indexed": true,
          "internalType": "address",
          "name": "newOwner",
          "type": "address"
        }
      ],
      "name": "OwnershipTransferred",
      "type": "event"
    },
    {
      "anonymous": false,
      "inputs": [
        {
          "indexed": true,
          "internalType": "address",
          "name": "user",
          "type": "address"
        },
        {
          "indexed": false,
          "internalType": "uint256",
          "name": "amount",
          "type": "uint256"
        },
        {
          "indexed": false,
          "internalType": "uint256",
          "name": "sharesIssued",
          "type": "uint256"
        },
        {
          "indexed": false,
          "internalType": "uint256",
          "name": "oldShareVaule",
          "type": "uint256"
        },
        {
          "indexed": false,
          "internalType": "uint256",
          "name": "newShareValue",
          "type": "uint256"
        },
        {
          "indexed": false,
          "internalType": "uint256",
          "name": "balanceOf",
          "type": "uint256"
        }
      ],
      "name": "Staked",
      "type": "event"
    },
    {
      "inputs": [
        {
          "internalType": "address",
          "name": "who",
          "type": "address"
        }
      ],
      "name": "balanceOf",
      "outputs": [
        {
          "internalType": "uint256",
          "name": "",
          "type": "uint256"
        }
      ],
      "stateMutability": "view",
      "type": "function"
    },
    {
      "inputs": [],
      "name": "completeExit",
      "outputs": [],
      "stateMutability": "nonpayable",
      "type": "function"
    },
    {
      "inputs": [],
      "name": "exit",
      "outputs": [],
      "stateMutability": "nonpayable",
      "type": "function"
    },
    {
      "inputs": [
        {
          "internalType": "address",
          "name": "transferTo",
          "type": "address"
        }
      ],
      "name": "exitAndTransfer",
      "outputs": [],
      "stateMutability": "nonpayable",
      "type": "function"
    },
    {
      "inputs": [
        {
          "internalType": "address",
          "name": "",
          "type": "address"
        }
      ],
      "name": "exitInfo",
      "outputs": [
        {
          "internalType": "uint256",
          "name": "exitBlock",
          "type": "uint256"
        },
        {
          "internalType": "uint256",
          "name": "exitStake",
          "type": "uint256"
        }
      ],
      "stateMutability": "view",
      "type": "function"
    },
    {
      "inputs": [],
      "name": "exitStake",
      "outputs": [
        {
          "internalType": "uint256",
          "name": "",
          "type": "uint256"
        }
      ],
      "stateMutability": "view",
      "type": "function"
    },
    {
      "inputs": [],
      "name": "factory",
      "outputs": [
        {
          "internalType": "address",
          "name": "",
          "type": "address"
        }
      ],
      "stateMutability": "view",
      "type": "function"
    },
    {
      "inputs": [
        {
          "internalType": "uint256",
          "name": "tokenIndex",
          "type": "uint256"
        }
      ],
      "name": "getPendingReward",
      "outputs": [
        {
          "internalType": "uint256",
          "name": "",
          "type": "uint256"
        }
      ],
      "stateMutability": "view",
      "type": "function"
    },
    {
      "inputs": [],
      "name": "lockEndBlock",
      "outputs": [
        {
          "internalType": "uint256",
          "name": "",
          "type": "uint256"
        }
      ],
      "stateMutability": "view",
      "type": "function"
    },
    {
      "inputs": [],
      "name": "nextAvailableExitBlock",
      "outputs": [
        {
          "internalType": "uint256",
          "name": "",
          "type": "uint256"
        }
      ],
      "stateMutability": "view",
      "type": "function"
    },
    {
      "inputs": [],
      "name": "nextAvailableRoundExitVolume",
      "outputs": [
        {
          "internalType": "uint256",
          "name": "",
          "type": "uint256"
        }
      ],
      "stateMutability": "view",
      "type": "function"
    },
    {
      "inputs": [],
      "name": "owner",
      "outputs": [
        {
          "internalType": "address",
          "name": "",
          "type": "address"
        }
      ],
      "stateMutability": "view",
      "type": "function"
    },
    {
      "inputs": [
        {
          "internalType": "address",
          "name": "",
          "type": "address"
        }
      ],
      "name": "receiversWhitelist",
      "outputs": [
        {
          "internalType": "bool",
          "name": "",
          "type": "bool"
        }
      ],
      "stateMutability": "view",
      "type": "function"
    },
    {
      "inputs": [],
      "name": "refreshAutoStake",
      "outputs": [],
      "stateMutability": "nonpayable",
      "type": "function"
    },
    {
      "inputs": [],
      "name": "renounceOwnership",
      "outputs": [],
      "stateMutability": "nonpayable",
      "type": "function"
    },
    {
      "inputs": [],
      "name": "rewardPool",
      "outputs": [
        {
          "internalType": "contract IRewardsPoolBase",
          "name": "",
          "type": "address"
        }
      ],
      "stateMutability": "view",
      "type": "function"
    },
    {
      "inputs": [
        {
          "internalType": "address",
          "name": "pool",
          "type": "address"
        }
      ],
      "name": "setPool",
      "outputs": [],
      "stateMutability": "nonpayable",
      "type": "function"
    },
    {
      "inputs": [
        {
          "internalType": "address",
          "name": "receiver",
          "type": "address"
        },
        {
          "internalType": "bool",
          "name": "whitelisted",
          "type": "bool"
        }
      ],
      "name": "setReceiverWhitelisted",
      "outputs": [],
      "stateMutability": "nonpayable",
      "type": "function"
    },
    {
      "inputs": [
        {
          "internalType": "address",
          "name": "",
          "type": "address"
        }
      ],
      "name": "share",
      "outputs": [
        {
          "internalType": "uint256",
          "name": "",
          "type": "uint256"
        }
      ],
      "stateMutability": "view",
      "type": "function"
    },
    {
      "inputs": [],
      "name": "stakeLimit",
      "outputs": [
        {
          "internalType": "uint256",
          "name": "",
          "type": "uint256"
        }
      ],
      "stateMutability": "view",
      "type": "function"
    },
    {
      "inputs": [],
      "name": "stakingToken",
      "outputs": [
        {
          "internalType": "contract IERC20Detailed",
          "name": "",
          "type": "address"
        }
      ],
      "stateMutability": "view",
      "type": "function"
    },
    {
      "inputs": [],
      "name": "throttleRoundBlocks",
      "outputs": [
        {
          "internalType": "uint256",
          "name": "",
          "type": "uint256"
        }
      ],
      "stateMutability": "view",
      "type": "function"
    },
    {
      "inputs": [],
      "name": "throttleRoundCap",
      "outputs": [
        {
          "internalType": "uint256",
          "name": "",
          "type": "uint256"
        }
      ],
      "stateMutability": "view",
      "type": "function"
    },
    {
      "inputs": [],
      "name": "totalShares",
      "outputs": [
        {
          "internalType": "uint256",
          "name": "",
          "type": "uint256"
        }
      ],
      "stateMutability": "view",
      "type": "function"
    },
    {
      "inputs": [],
      "name": "totalValue",
      "outputs": [
        {
          "internalType": "uint256",
          "name": "",
          "type": "uint256"
        }
      ],
      "stateMutability": "view",
      "type": "function"
    },
    {
      "inputs": [
        {
          "internalType": "address",
          "name": "newOwner",
          "type": "address"
        }
      ],
      "name": "transferOwnership",
      "outputs": [],
      "stateMutability": "nonpayable",
      "type": "function"
    },
    {
      "inputs": [],
      "name": "unit",
      "outputs": [
        {
          "internalType": "uint256",
          "name": "",
          "type": "uint256"
        }
      ],
      "stateMutability": "view",
      "type": "function"
    },
    {
      "inputs": [],
      "name": "valuePerShare",
      "outputs": [
        {
          "internalType": "uint256",
          "name": "",
          "type": "uint256"
        }
      ],
      "stateMutability": "view",
      "type": "function"
    },
    {
      "inputs": [
        {
          "internalType": "uint256",
          "name": "amount",
          "type": "uint256"
        }
      ],
      "name": "stake",
      "outputs": [],
      "stateMutability": "nonpayable",
      "type": "function"
    },
    {
      "inputs": [
        {
          "internalType": "address",
          "name": "staker",
          "type": "address"
        },
        {
          "internalType": "uint256",
          "name": "amount",
          "type": "uint256"
        }
      ],
      "name": "delegateStake",
      "outputs": [],
      "stateMutability": "nonpayable",
      "type": "function"
    }
  ],
  "bytecode": "0x610100604052670de0b6b3a76400006008553480156200001e57600080fd5b506040516200235138038062002351833981810160405260a08110156200004457600080fd5b50805160208201516040830151606084015160809094015160016000559293919290919084848484848484848480438111620000b25760405162461bcd60e51b815260040180806020018281038252602e815260200180620022ea602e913960400191505060405180910390fd5b6080526000620000c16200018e565b600680546001600160a01b0319166001600160a01b038316908117909155604051919250906000907f8be0079c531659141344cd1fd0a4f28419497f9722a3daafe3b4186f6b6457e0908290a35033606090811b60c05284901b6001600160601b03191660a0526200013583838362000192565b5050505080600014156200017b5760405162461bcd60e51b8152600401808060200182810382526039815260200180620023186039913960400191505060405180910390fd5b60e05250620002ee975050505050505050565b3390565b60008311620001d35760405162461bcd60e51b8152600401808060200182810382526036815260200180620022b46036913960400191505060405180910390fd5b60008211620002145760405162461bcd60e51b8152600401808060200182810382526033815260200180620022506033913960400191505060405180910390fd5b600354158015620002255750600454155b620002625760405162461bcd60e51b8152600401808060200182810382526031815260200180620022836031913960400191505060405180910390fd5b600383905560048290556200028481846200028c602090811b62000e4e17901c565b600155505050565b600082820183811015620002e7576040805162461bcd60e51b815260206004820152601b60248201527f536166654d6174683a206164646974696f6e206f766572666c6f770000000000604482015290519081900360640190fd5b9392505050565b60805160a05160601c60c05160601c60e051611ee062000370600039806106c2528061082f5280611382525080610a305280610bd15250806105e8528061099f5280610b7a5280610fbc528061156e52806115ef528061166e52806116a95280611a495250806104e552806109c35280610a9c5280610bfb5250611ee06000f3fe608060405234801561001057600080fd5b50600436106101da5760003560e01c806372f702f311610104578063b01eb660116100a2578063d4c3eea011610071578063d4c3eea014610434578063e9fad8ee1461043c578063ee483cdf14610444578063f2fde38b1461044c576101da565b8063b01eb66014610414578063b540652e1461041c578063c0a239e314610424578063c45a01551461042c576101da565b8063907af6c0116100de578063907af6c01461038257806394f664171461038a578063a694fc3a146103c9578063a861a7a3146103e6576101da565b806372f702f31461036a5780638587edbb146103725780638da5cb5b1461037a576101da565b80634437152a1161017c5780636eb957df1161014b5780636eb957df1461031757806370a082311461031f578063715018a6146103455780637211bbc91461034d576101da565b80634437152a146102bd57806345ef79af146102e35780634ff3306f146102eb57806366666aa9146102f3576101da565b8063363291dc116101b8578063363291dc146102475780633882f742146102815780633a98ef39146102895780633c323a1b14610291576101da565b80631877bb5c146101df5780631c1f9cc0146102175780632240e63c1461021f575b600080fd5b610205600480360360208110156101f557600080fd5b50356001600160a01b0316610472565b60408051918252519081900360200190f35b610205610484565b6102456004803603602081101561023557600080fd5b50356001600160a01b031661048a565b005b61026d6004803603602081101561025d57600080fd5b50356001600160a01b0316610690565b604080519115158252519081900360200190f35b6102056106a5565b6102056106ab565b610245600480360360408110156102a757600080fd5b506001600160a01b0381351690602001356106b1565b610245600480360360208110156102d357600080fd5b50356001600160a01b0316610739565b61020561082d565b610205610851565b6102fb610857565b604080516001600160a01b039092168252519081900360200190f35b610205610866565b6102056004803603602081101561033557600080fd5b50356001600160a01b031661086c565b6102456108ad565b6102056004803603602081101561036357600080fd5b503561096b565b6102fb61099d565b6102056109c1565b6102fb6109e5565b6102056109f4565b6103b0600480360360208110156103a057600080fd5b50356001600160a01b0316610a00565b6040805192835260208301919091528051918290030190f35b610245600480360360208110156103df57600080fd5b5035610a19565b610245600480360360408110156103fc57600080fd5b506001600160a01b0381351690602001351515610a25565b610245610a9a565b610245610baf565b610205610bc9565b6102fb610bcf565b610205610bf3565b610245610bf9565b610205610d33565b6102456004803603602081101561046257600080fd5b50356001600160a01b0316610d39565b600c6020526000908152604090205481565b60015481565b6001600160a01b0381166000908152600d6020526040902054819060ff166104e35760405162461bcd60e51b815260040180806020018281038252602c815260200180611dfd602c913960400191505060405180910390fd5b7f000000000000000000000000000000000000000000000000000000000000000043116105415760405162461bcd60e51b8152600401808060200182810382526042815260200180611d726042913960600191505060405180910390fd5b60026000541415610587576040805162461bcd60e51b815260206004820152601f6024820152600080516020611d06833981519152604482015290519081900360640190fd5b6002600055610594610eb1565b61059c610f97565b60006105a73361086c565b9050806105b45750610687565b336000908152600c60205260409020546009546105d09161107c565b600955336000908152600c60205260408120556106177f00000000000000000000000000000000000000000000000000000000000000006001600160a01b031684836110d9565b60408051633c323a1b60e01b81523360048201526024810183905290516001600160a01b03851691633c323a1b91604480830192600092919082900301818387803b15801561066557600080fd5b505af1158015610679573d6000803e3d6000fd5b50505050610685610f97565b505b50506001600055565b600d6020526000908152604090205460ff1681565b600b5481565b60095481565b818160006106be8361086c565b90507f00000000000000000000000000000000000000000000000000000000000000006106eb8284610e4e565b11156107285760405162461bcd60e51b8152600401808060200182810382526028815260200180611db46028913960400191505060405180910390fd5b61073285856111f1565b5050505050565b6107416112ad565b6001600160a01b03166107526109e5565b6001600160a01b0316146107ad576040805162461bcd60e51b815260206004820181905260248201527f4f776e61626c653a2063616c6c6572206973206e6f7420746865206f776e6572604482015290519081900360640190fd5b6007546001600160a01b03161561080b576040805162461bcd60e51b815260206004820152601760248201527f52657761726420706f6f6c20616c726561647920736574000000000000000000604482015290519081900360640190fd5b600780546001600160a01b0319166001600160a01b0392909216919091179055565b7f000000000000000000000000000000000000000000000000000000000000000081565b60045481565b6007546001600160a01b031681565b60035481565b6001600160a01b0381166000908152600c60205260408120546008546108a591670de0b6b3a76400009161089f916112b1565b9061130a565b90505b919050565b6108b56112ad565b6001600160a01b03166108c66109e5565b6001600160a01b031614610921576040805162461bcd60e51b815260206004820181905260248201527f4f776e61626c653a2063616c6c6572206973206e6f7420746865206f776e6572604482015290519081900360640190fd5b6006546040516000916001600160a01b0316907f8be0079c531659141344cd1fd0a4f28419497f9722a3daafe3b4186f6b6457e0908390a3600680546001600160a01b0319169055565b3360009081526005602052604081206002810180548490811061098a57fe5b9060005260206000200154915050919050565b7f000000000000000000000000000000000000000000000000000000000000000081565b7f000000000000000000000000000000000000000000000000000000000000000081565b6006546001600160a01b031690565b670de0b6b3a764000081565b6005602052600090815260409020805460019091015482565b610a2281611371565b50565b336001600160a01b037f00000000000000000000000000000000000000000000000000000000000000001614610a8c5760405162461bcd60e51b8152600401808060200182810382526022815260200180611e296022913960400191505060405180910390fd5b610a9682826113f1565b5050565b7f00000000000000000000000000000000000000000000000000000000000000004311610af85760405162461bcd60e51b8152600401808060200182810382526042815260200180611d726042913960600191505060405180910390fd5b60026000541415610b3e576040805162461bcd60e51b815260206004820152601f6024820152600080516020611d06833981519152604482015290519081900360640190fd5b600260009081553381526005602052604090206001810154600b54610b629161107c565b600b55604080516000815260208101909152610b9f907f00000000000000000000000000000000000000000000000000000000000000009061141c565b610ba7610f97565b506001600055565b610bb7610eb1565b610bbf610f97565b610bc761154e565b565b60085481565b7f000000000000000000000000000000000000000000000000000000000000000081565b600a5481565b7f00000000000000000000000000000000000000000000000000000000000000004311610c575760405162461bcd60e51b8152600401808060200182810382526042815260200180611d726042913960600191505060405180910390fd5b60026000541415610c9d576040805162461bcd60e51b815260206004820152601f6024820152600080516020611d06833981519152604482015290519081900360640190fd5b6002600055610caa610eb1565b610cb2610f97565b6000610cbd3361086c565b905080610cca5750610d2c565b60408051600080825260208201909252610ce5918391611733565b336000908152600c6020526040902054600954610d019161107c565b600955336000908152600c6020526040812055600b54610d219082610e4e565b600b55610ba7610f97565b6001600055565b60025481565b610d416112ad565b6001600160a01b0316610d526109e5565b6001600160a01b031614610dad576040805162461bcd60e51b815260206004820181905260248201527f4f776e61626c653a2063616c6c6572206973206e6f7420746865206f776e6572604482015290519081900360640190fd5b6001600160a01b038116610df25760405162461bcd60e51b8152600401808060200182810382526026815260200180611d266026913960400191505060405180910390fd5b6006546040516001600160a01b038084169216907f8be0079c531659141344cd1fd0a4f28419497f9722a3daafe3b4186f6b6457e090600090a3600680546001600160a01b0319166001600160a01b0392909216919091179055565b600082820183811015610ea8576040805162461bcd60e51b815260206004820152601b60248201527f536166654d6174683a206164646974696f6e206f766572666c6f770000000000604482015290519081900360640190fd5b90505b92915050565b600754604080516370a0823160e01b815230600482015290516001600160a01b03909216916370a0823191602480820192602092909190829003018186803b158015610efc57600080fd5b505afa158015610f10573d6000803e3d6000fd5b505050506040513d6020811015610f2657600080fd5b505115610bc757600760009054906101000a90046001600160a01b03166001600160a01b031663e9fad8ee6040518163ffffffff1660e01b8152600401600060405180830381600087803b158015610f7d57600080fd5b505af1158015610f91573d6000803e3d6000fd5b50505050565b600954610fb4576000600a55670de0b6b3a7640000600855610bc7565b611059600b547f00000000000000000000000000000000000000000000000000000000000000006001600160a01b03166370a08231306040518263ffffffff1660e01b815260040180826001600160a01b0316815260200191505060206040518083038186803b15801561102757600080fd5b505afa15801561103b573d6000803e3d6000fd5b505050506040513d602081101561105157600080fd5b50519061107c565b600a8190556009546110779161089f90670de0b6b3a76400006112b1565b600855565b6000828211156110d3576040805162461bcd60e51b815260206004820152601e60248201527f536166654d6174683a207375627472616374696f6e206f766572666c6f770000604482015290519081900360640190fd5b50900390565b80158061115f575060408051636eb1769f60e11b81523060048201526001600160a01b03848116602483015291519185169163dd62ed3e91604480820192602092909190829003018186803b15801561113157600080fd5b505afa158015611145573d6000803e3d6000fd5b505050506040513d602081101561115b57600080fd5b5051155b61119a5760405162461bcd60e51b8152600401808060200182810382526036815260200180611e756036913960400191505060405180910390fd5b604080516001600160a01b038416602482015260448082018490528251808303909101815260649091019091526020810180516001600160e01b031663095ea7b360e01b1790526111ec90849061181c565b505050565b60008111611246576040805162461bcd60e51b815260206004820152601c60248201527f64656c65676174655374616b653a3a4e6f207374616b652073656e7400000000604482015290519081900360640190fd5b6001600160a01b0382166112a1576040805162461bcd60e51b815260206004820152601d60248201527f64656c65676174655374616b653a3a496e76616c6964207374616b6572000000604482015290519081900360640190fd5b610a96818360006119d4565b3390565b6000826112c057506000610eab565b828202828482816112cd57fe5b0414610ea85760405162461bcd60e51b8152600401808060200182810382526021815260200180611ddc6021913960400191505060405180910390fd5b6000808211611360576040805162461bcd60e51b815260206004820152601a60248201527f536166654d6174683a206469766973696f6e206279207a65726f000000000000604482015290519081900360640190fd5b81838161136957fe5b049392505050565b3381600061137e8361086c565b90507f00000000000000000000000000000000000000000000000000000000000000006113ab8284610e4e565b11156113e85760405162461bcd60e51b8152600401808060200182810382526028815260200180611db46028913960400191505060405180910390fd5b610f9184611b5f565b6001600160a01b03919091166000908152600d60205260409020805460ff1916911515919091179055565b3360009081526005602052604090208054431161146a5760405162461bcd60e51b8152600401808060200182810382526026815260200180611d4c6026913960400191505060405180910390fd5b60018101805460009091556114896001600160a01b0385163383611b6b565b60005b835181101561150c5760008360020182815481106114a657fe5b9060005260206000200154905060008460020183815481106114c457fe5b906000526020600020018190555061150333828785815181106114e357fe5b60200260200101516001600160a01b0316611b6b9092919063ffffffff16565b5060010161148c565b50604080513381526020810183905281517f548aea05c5e3b6ba34acdf7b3ad06c7bb667ed71d1761e2c177167be0a9eb059929181900390910190a150505050565b604080516370a0823160e01b815230600482015290516001600160a01b037f000000000000000000000000000000000000000000000000000000000000000016916370a08231916024808301926020929190829003018186803b1580156115b457600080fd5b505afa1580156115c8573d6000803e3d6000fd5b505050506040513d60208110156115de57600080fd5b505115610bc757600061165a600b547f00000000000000000000000000000000000000000000000000000000000000006001600160a01b03166370a08231306040518263ffffffff1660e01b815260040180826001600160a01b0316815260200191505060206040518083038186803b15801561102757600080fd5b600754909150611698906001600160a01b037f00000000000000000000000000000000000000000000000000000000000000008116911660006110d9565b6007546116d2906001600160a01b037f000000000000000000000000000000000000000000000000000000000000000081169116836110d9565b6007546040805163534a7e1d60e11b81526004810184905290516001600160a01b039092169163a694fc3a9160248082019260009290919082900301818387803b15801561171f57600080fd5b505af1158015610732573d6000803e3d6000fd5b61173d3383611bbd565b33600090815260056020526040902061175584611c18565b815560018101546117669085610e4e565b600182015560005b838110156117d8576117b583828151811061178557fe5b602002602001015183600201838154811061179c57fe5b9060005260206000200154610e4e90919063ffffffff16565b8260020182815481106117c457fe5b60009182526020909120015560010161176e565b50805460408051338152602081019290925280517fd9217a461a0f7f84171a8866118c3d92e943ba7c1ba89b819371f729b5cabcbc9281900390910190a150505050565b61182e826001600160a01b0316611ca5565b61187f576040805162461bcd60e51b815260206004820152601f60248201527f5361666545524332303a2063616c6c20746f206e6f6e2d636f6e747261637400604482015290519081900360640190fd5b60006060836001600160a01b0316836040518082805190602001908083835b602083106118bd5780518252601f19909201916020918201910161189e565b6001836020036101000a0380198251168184511680821785525050505050509050019150506000604051808303816000865af19150503d806000811461191f576040519150601f19603f3d011682016040523d82523d6000602084013e611924565b606091505b50915091508161197b576040805162461bcd60e51b815260206004820181905260248201527f5361666545524332303a206c6f772d6c6576656c2063616c6c206661696c6564604482015290519081900360640190fd5b805115610f915780806020019051602081101561199757600080fd5b5051610f915760405162461bcd60e51b815260040180806020018281038252602a815260200180611e4b602a913960400191505060405180910390fd5b60026000541415611a1a576040805162461bcd60e51b815260206004820152601f6024820152600080516020611d06833981519152604482015290519081900360640190fd5b6002600055611a27610eb1565b611a2f610f97565b611a7181611a3d5733611a3f565b825b6001600160a01b037f000000000000000000000000000000000000000000000000000000000000000016903086611cab565b600854600090611a8d9061089f86670de0b6b3a76400006112b1565b600954909150611a9d9082610e4e565b6009556001600160a01b0383166000908152600c6020526040902054611ac39082610e4e565b6001600160a01b0384166000908152600c6020526040902055600854611ae7610f97565b836001600160a01b03167f6381ea17a5324d29cc015352644672ead5185c1c61a0d3a521eda97e35cec97e868484600854611b218a61086c565b6040805195865260208601949094528484019290925260608401526080830152519081900360a00190a2611b5361154e565b50506001600055505050565b610a22813360016119d4565b604080516001600160a01b038416602482015260448082018490528251808303909101815260649091019091526020810180516001600160e01b031663a9059cbb60e01b1790526111ec90849061181c565b6001600160a01b03821660009081526005602052604090206002810154821415611be75750610a96565b60028101545b82811015610f9157600282018054600181810183556000928352602083209091019190915501611bed565b6000600154431115611c6a576000600354600154430381611c3557fe5b069050611c57600354611c51834361107c90919063ffffffff16565b90610e4e565b6001819055600284905591506108a89050565b600254611c779083610e4e565b60025550600154600454600254106108a857600354600154611c9891610e4e565b6001556000600255919050565b3b151590565b604080516001600160a01b0380861660248301528416604482015260648082018490528251808303909101815260849091019091526020810180516001600160e01b03166323b872dd60e01b179052610f9190859061181c56fe5265656e7472616e637947756172643a207265656e7472616e742063616c6c004f776e61626c653a206e6577206f776e657220697320746865207a65726f206164647265737366696e616c697a65457869743a3a547279696e6720746f206578697420746f6f206561726c796f6e6c79556e6c6f636b65643a3a63616e6e6f7420706572666f726d207468697320616374696f6e20756e74696c2074686520656e64206f6620746865206c6f636b6f6e6c79556e6465725374616b654c696d69743a3a5374616b65206c696d69742072656163686564536166654d6174683a206d756c7469706c69636174696f6e206f766572666c6f7765786974416e645472616e736665723a3a7265636569766572206973206e6f742077686974656c697374656443616c6c6572206973206e6f742074686520466163746f727920636f6e74726163745361666545524332303a204552433230206f7065726174696f6e20646964206e6f7420737563636565645361666545524332303a20617070726f76652066726f6d206e6f6e2d7a65726f20746f206e6f6e2d7a65726f20616c6c6f77616e6365a2646970667358221220cf448f19be37e3a90b0dd0e01d82b2663874beebe12b6dd436a6c01180adb1b764736f6c634300060c00337365745468726f74746c653a3a7468726f74746c6520726f756e6420636170206d757374206265206d6f7265207468616e20307365745468726f74746c653a3a7468726f74746c6520706172616d6574657273207765726520616c7265616479207365747365745468726f74746c653a3a7468726f74746c6520726f756e6420626c6f636b73206d757374206265206d6f7265207468616e20307365744c6f636b456e643a3a4c6f636b20656e64206e6565647320746f20626520696e20746865206675747572654c696d697465644175746f5374616b653a636f6e7374727563746f723a3a7374616b65206c696d69742073686f756c64206e6f742062652030",
  "source": "// SPDX-License-Identifier: MIT\n\npragma solidity 0.6.12;\n\nimport \"./../autostake-features/StakeTransfererAutoStake.sol\";\nimport \"./../autostake-features/StakeReceiverAutoStake.sol\";\nimport \"./../autostake-features/LimitedAutoStake.sol\";\n\ncontract CompoundingRewardsPoolStaker is LimitedAutoStake, StakeTransfererAutoStake, StakeReceiverAutoStake {\n\tconstructor(address token, uint256 _throttleRoundBlocks, uint256 _throttleRoundCap, uint256 stakeEnd, uint256 _stakeLimit) public LimitedAutoStake(token, _throttleRoundBlocks, _throttleRoundCap, stakeEnd, _stakeLimit) {\n\t}\n\n\tfunction stake(uint256 amount) public virtual override(AutoStake, LimitedAutoStake) {\n\t\tLimitedAutoStake.stake(amount);\n\t}\n\n\tfunction delegateStake(address staker, uint256 amount) onlyUnderStakeLimit(staker, amount) virtual override(StakeReceiverAutoStake) public {\n\t\tStakeReceiverAutoStake.delegateStake(staker, amount);\n\t}\n}",
  "sourcePath": "/Users/martindobrev/Code/custom-token/contracts/V2/CompoundingRewardsPoolStaker.sol",
  "compiler": {
    "name": "solc",
    "version": "0.6.12+commit.27d51765.Emscripten.clang",
    "optimizer": true,
    "runs": 200
  },
  "schemaVersion": "2.3.5",
  "updatedAt": "2022-02-16T15:12:31.197Z"
}