{
  "contractName": "CompoundingRewardsPoolFactory",
  "abi": [
    {
      "inputs": [
        {
          "internalType": "address",
          "name": "_treasury",
          "type": "address"
        },
        {
          "internalType": "address",
          "name": "_externalRewardToken",
          "type": "address"
        }
      ],
      "stateMutability": "nonpayable",
      "type": "constructor"
    },
    {
      "anonymous": false,
      "inputs": [
        {
          "indexed": true,
          "internalType": "address",
          "name": "_oldOwner",
          "type": "address"
        },
        {
          "indexed": true,
          "internalType": "address",
          "name": "_newOwner",
          "type": "address"
        }
      ],
      "name": "OwnershipTransferProposed",
      "type": "event"
    },
    {
      "anonymous": false,
      "inputs": [
        {
          "indexed": true,
          "internalType": "address",
          "name": "_newOwner",
          "type": "address"
        }
      ],
      "name": "OwnershipTransferred",
      "type": "event"
    },
    {
      "anonymous": false,
      "inputs": [
        {
          "indexed": false,
          "internalType": "address",
          "name": "transferer",
          "type": "address"
        },
        {
          "indexed": false,
          "internalType": "address",
          "name": "receiver",
          "type": "address"
        }
      ],
      "name": "ReceiverEnabled",
      "type": "event"
    },
    {
      "anonymous": false,
      "inputs": [
        {
          "indexed": false,
          "internalType": "address",
          "name": "rewardsToken",
          "type": "address"
        },
        {
          "indexed": false,
          "internalType": "uint256",
          "name": "amount",
          "type": "uint256"
        }
      ],
      "name": "RewardsWithdrawn",
      "type": "event"
    },
    {
      "inputs": [],
      "name": "acceptOwnership",
      "outputs": [],
      "stateMutability": "nonpayable",
      "type": "function"
    },
    {
      "inputs": [
        {
          "internalType": "uint256",
          "name": "_startBlock",
          "type": "uint256"
        },
        {
          "internalType": "uint256",
          "name": "_endBlock",
          "type": "uint256"
        },
        {
          "internalType": "uint256",
          "name": "_rewardPerBlock",
          "type": "uint256"
        }
      ],
      "name": "calculateRewardsAmount",
      "outputs": [
        {
          "internalType": "uint256",
          "name": "",
          "type": "uint256"
        }
      ],
      "stateMutability": "pure",
      "type": "function"
    },
    {
      "inputs": [
        {
          "internalType": "address",
          "name": "transferer",
          "type": "address"
        },
        {
          "internalType": "address[]",
          "name": "receivers",
          "type": "address[]"
        }
      ],
      "name": "enableReceivers",
      "outputs": [],
      "stateMutability": "nonpayable",
      "type": "function"
    },
    {
      "inputs": [],
      "name": "externalRewardToken",
      "outputs": [
        {
          "internalType": "address",
          "name": "",
          "type": "address"
        }
      ],
      "stateMutability": "view",
      "type": "function"
    },
    {
      "inputs": [],
      "name": "getRewardsPoolNumber",
      "outputs": [
        {
          "internalType": "uint256",
          "name": "",
          "type": "uint256"
        }
      ],
      "stateMutability": "view",
      "type": "function"
    },
    {
      "inputs": [],
      "name": "owner",
      "outputs": [
        {
          "internalType": "address",
          "name": "",
          "type": "address"
        }
      ],
      "stateMutability": "view",
      "type": "function"
    },
    {
      "inputs": [
        {
          "internalType": "uint256",
          "name": "",
          "type": "uint256"
        }
      ],
      "name": "rewardsPools",
      "outputs": [
        {
          "internalType": "address",
          "name": "",
          "type": "address"
        }
      ],
      "stateMutability": "view",
      "type": "function"
    },
    {
      "inputs": [
        {
          "internalType": "address",
          "name": "newOwner",
          "type": "address"
        }
      ],
      "name": "transferOwnership",
      "outputs": [],
      "stateMutability": "nonpayable",
      "type": "function"
    },
    {
      "inputs": [],
      "name": "treasury",
      "outputs": [
        {
          "internalType": "address",
          "name": "",
          "type": "address"
        }
      ],
      "stateMutability": "view",
      "type": "function"
    },
    {
      "inputs": [
        {
          "internalType": "address",
          "name": "rewardsPoolAddress",
          "type": "address"
        },
        {
          "internalType": "address",
          "name": "recipient",
          "type": "address"
        },
        {
          "internalType": "address",
          "name": "lpTokenContract",
          "type": "address"
        }
      ],
      "name": "withdrawLPRewards",
      "outputs": [],
      "stateMutability": "nonpayable",
      "type": "function"
    },
    {
      "inputs": [
        {
          "internalType": "address",
          "name": "_rewardsToken",
          "type": "address"
        }
      ],
      "name": "withdrawRewardsLeftovers",
      "outputs": [],
      "stateMutability": "nonpayable",
      "type": "function"
    },
    {
      "inputs": [
        {
          "internalType": "address",
          "name": "_stakingToken",
          "type": "address"
        },
        {
          "internalType": "uint256",
          "name": "_startBlock",
          "type": "uint256"
        },
        {
          "internalType": "uint256",
          "name": "_endBlock",
          "type": "uint256"
        },
        {
          "internalType": "uint256",
          "name": "_rewardPerBlock",
          "type": "uint256"
        },
        {
          "internalType": "uint256",
          "name": "_stakeLimit",
          "type": "uint256"
        },
        {
          "internalType": "uint256",
          "name": "_throttleRoundBlocks",
          "type": "uint256"
        },
        {
          "internalType": "uint256",
          "name": "_throttleRoundCap",
          "type": "uint256"
        },
        {
          "internalType": "uint256",
          "name": "_contractStakeLimit",
          "type": "uint256"
        }
      ],
      "name": "deploy",
      "outputs": [],
      "stateMutability": "nonpayable",
      "type": "function"
    }
  ],
  "bytecode": "0x60c060405234801561001057600080fd5b5060405161683e38038061683e8339818101604052604081101561003357600080fd5b508051602090910151600180546001600160a01b031916331790556001600160a01b0382166100935760405162461bcd60e51b81526004018080602001828103825260468152602001806167f86046913960600191505060405180910390fd5b6001600160a01b0381166100d85760405162461bcd60e51b815260040180806020018281038252604d8152602001806167ab604d913960600191505060405180910390fd5b6001600160601b0319606092831b8116608052911b1660a05260805160601c60a05160601c616687610124600039806106315280610b5b5250806106555280610b3a52506166876000f3fe60806040523480156200001157600080fd5b5060043610620000c45760003560e01c80638da5cb5b116200007b5780638da5cb5b1462000237578063a1717c021462000241578063b7b8fbd2146200024b578063bc31e5441462000274578063dc8afbc114620002c8578063f2fde38b14620002e857620000c4565b80630d50caf214620000c95780632bb4e2691462000184578063333609b614620001bf57806361d027b314620001e557806379ba509714620001ef5780637f27066714620001f9575b600080fd5b6200018260048036036040811015620000e157600080fd5b6001600160a01b0382351691908101906040810160208201356401000000008111156200010d57600080fd5b8201836020820111156200012057600080fd5b803590602001918460208302840111640100000000831117156200014357600080fd5b91908080602002602001604051908101604052809392919081815260200183836020028082843760009201919091525092955062000311945050505050565b005b62000182600480360360608110156200019c57600080fd5b506001600160a01b03813581169160208101358216916040909101351662000515565b620001c96200062f565b604080516001600160a01b039092168252519081900360200190f35b620001c962000653565b6200018262000677565b62000225600480360360608110156200021157600080fd5b508035906020810135906040013562000711565b60408051918252519081900360200190f35b620001c962000778565b6200022562000787565b62000182600480360360208110156200026357600080fd5b50356001600160a01b03166200078d565b6200018260048036036101008110156200028d57600080fd5b506001600160a01b038135169060208101359060408101359060608101359060808101359060a08101359060c08101359060e00135620008b6565b620001c960048036036020811015620002e057600080fd5b503562000d82565b62000182600480360360208110156200030057600080fd5b50356001600160a01b031662000daa565b6001546001600160a01b031633146200035c5760405162461bcd60e51b8152600401808060200182810382526027815260200180620065696027913960400191505060405180910390fd5b6001600160a01b038216620003a35760405162461bcd60e51b81526004018080602001828103825260278152602001806200645f6027913960400191505060405180910390fd5b8160005b82518110156200050f5760006001600160a01b0316838281518110620003c957fe5b60200260200101516001600160a01b03161415620004195760405162461bcd60e51b8152600401808060200182810382526025815260200180620063a96025913960400191505060405180910390fd5b816001600160a01b031663a861a7a38483815181106200043557fe5b602002602001015160016040518363ffffffff1660e01b815260040180836001600160a01b03168152602001821515815260200192505050600060405180830381600087803b1580156200048857600080fd5b505af11580156200049d573d6000803e3d6000fd5b505050507f49564019f9d19850e264e194f9d42848c8324fa8fc4261d7f6b2e7d987d3a0bb84848381518110620004d057fe5b602002602001015160405180836001600160a01b03168152602001826001600160a01b031681526020019250505060405180910390a1600101620003a7565b50505050565b6001546001600160a01b03163314620005605760405162461bcd60e51b8152600401808060200182810382526027815260200180620065696027913960400191505060405180910390fd5b6001600160a01b038316620005bc576040805162461bcd60e51b815260206004820152601b60248201527f73746172745374616b696e673a3a206e6f74206465706c6f7965640000000000604482015290519081900360640190fd5b6040805163a1002a0f60e01b81526001600160a01b03848116600483015283811660248301529151859283169163a1002a0f91604480830192600092919082900301818387803b1580156200061057600080fd5b505af115801562000625573d6000803e3d6000fd5b5050505050505050565b7f000000000000000000000000000000000000000000000000000000000000000081565b7f000000000000000000000000000000000000000000000000000000000000000081565b6002546001600160a01b03163314620006c25760405162461bcd60e51b8152600401808060200182810382526027815260200180620065426027913960400191505060405180910390fd5b600254600180546001600160a01b0319166001600160a01b0392831617908190556040519116907f04dba622d284ed0014ee4b9a6a68386be1a4c08a4913ae272de89199cc68616390600090a2565b6000808211620007535760405162461bcd60e51b81526004018080602001828103825260448152602001806200641b6044913960600191505060405180910390fd5b600062000761848662000ea5565b90506200076f838262000f08565b95945050505050565b6001546001600160a01b031681565b60005490565b6001546001600160a01b03163314620007d85760405162461bcd60e51b8152600401808060200182810382526027815260200180620065696027913960400191505060405180910390fd5b6000816001600160a01b03166370a08231306040518263ffffffff1660e01b815260040180826001600160a01b0316815260200191505060206040518083038186803b1580156200082857600080fd5b505afa1580156200083d573d6000803e3d6000fd5b505050506040513d60208110156200085457600080fd5b505190506200086e6001600160a01b038316338362000f6d565b604080516001600160a01b03841681526020810183905281517f8a43c4352486ec339f487f64af78ca5cbf06cd47833f073d3baf3a193e503161929181900390910190a15050565b6001546001600160a01b03163314620009015760405162461bcd60e51b8152600401808060200182810382526027815260200180620065696027913960400191505060405180910390fd5b6001600160a01b038816620009485760405162461bcd60e51b8152600401808060200182810382526052815260200180620066006052913960600191505060405180910390fd5b84620009865760405162461bcd60e51b815260040180806020018281038252604b815260200180620064d6604b913960600191505060405180910390fd5b83620009c45760405162461bcd60e51b8152600401808060200182810382526046815260200180620065ba6046913960600191505060405180910390fd5b8262000a025760405162461bcd60e51b8152600401808060200182810382526050815260200180620064866050913960600191505060405180910390fd5b8162000a405760405162461bcd60e51b815260040180806020018281038252604d815260200180620063ce604d913960600191505060405180910390fd5b6000888484898860405162000a559062001190565b6001600160a01b039095168552602085019390935260408085019290925260608401526080830191909152519081900360a001906000f08015801562000a9f573d6000803e3d6000fd5b506040805160018082528183019092529192506060919060208083019080368337019050509050898160008151811062000ad557fe5b6001600160a01b039290921660209283029190910190910152604080516001808252818301909252606091816020016020820280368337019050509050878160008151811062000b2157fe5b60200260200101818152505060008b8b8b8585600019897f00000000000000000000000000000000000000000000000000000000000000007f00000000000000000000000000000000000000000000000000000000000000008d60405162000b89906200119e565b808b6001600160a01b031681526020018a81526020018981526020018060200180602001888152602001876001600160a01b03168152602001866001600160a01b03168152602001856001600160a01b0316815260200184815260200183810383528a818151815260200191508051906020019060200280838360005b8381101562000c2057818101518382015260200162000c06565b50505050905001838103825289818151815260200191508051906020019060200280838360005b8381101562000c6157818101518382015260200162000c47565b505050509050019c50505050505050505050505050604051809103906000f08015801562000c93573d6000803e3d6000fd5b509050836001600160a01b0316634437152a826040518263ffffffff1660e01b815260040180826001600160a01b03168152602001915050600060405180830381600087803b15801562000ce657600080fd5b505af115801562000cfb573d6000803e3d6000fd5b50505050600062000d0e8c8c8c62000711565b905062000d266001600160a01b038e16838362000f6d565b5050600080546001810182559080527f290decd9548b62a8d60345a988386fc84ba6bc95484008f6362f93160ef3e5630180546001600160a01b0319166001600160a01b03949094169390931790925550505050505050505050565b6000818154811062000d9057fe5b6000918252602090912001546001600160a01b0316905081565b6001546001600160a01b0316331462000df55760405162461bcd60e51b8152600401808060200182810382526027815260200180620065696027913960400191505060405180910390fd5b6001600160a01b03811662000e51576040805162461bcd60e51b815260206004820152601d60248201527f43616e6e6f7420736574206f776e657220746f20302061646472657373000000604482015290519081900360640190fd5b600280546001600160a01b0319166001600160a01b038381169190911790915560015460405191169033907ff4e75b79500ab730f8a026ed3cba6d55331bcb64c9e9f60c548e371356e5e3c090600090a350565b60008282111562000efd576040805162461bcd60e51b815260206004820152601e60248201527f536166654d6174683a207375627472616374696f6e206f766572666c6f770000604482015290519081900360640190fd5b508082035b92915050565b60008262000f195750600062000f02565b8282028284828162000f2757fe5b041462000f665760405162461bcd60e51b8152600401808060200182810382526021815260200180620065216021913960400191505060405180910390fd5b9392505050565b604080516001600160a01b038416602482015260448082018490528251808303909101815260649091019091526020810180516001600160e01b031663a9059cbb60e01b17905262000fc190849062000fc6565b505050565b62000fda826001600160a01b03166200118a565b6200102c576040805162461bcd60e51b815260206004820152601f60248201527f5361666545524332303a2063616c6c20746f206e6f6e2d636f6e747261637400604482015290519081900360640190fd5b60006060836001600160a01b0316836040518082805190602001908083835b602083106200106c5780518252601f1990920191602091820191016200104b565b6001836020036101000a0380198251168184511680821785525050505050509050019150506000604051808303816000865af19150503d8060008114620010d0576040519150601f19603f3d011682016040523d82523d6000602084013e620010d5565b606091505b5091509150816200112d576040805162461bcd60e51b815260206004820181905260248201527f5361666545524332303a206c6f772d6c6576656c2063616c6c206661696c6564604482015290519081900360640190fd5b8051156200050f578080602001905160208110156200114b57600080fd5b50516200050f5760405162461bcd60e51b815260040180806020018281038252602a81526020018062006590602a913960400191505060405180910390fd5b3b151590565b61235180620011ad83390190565b612eab80620034fe8339019056fe610100604052670de0b6b3a76400006008553480156200001e57600080fd5b506040516200235138038062002351833981810160405260a08110156200004457600080fd5b50805160208201516040830151606084015160809094015160016000559293919290919084848484848484848480438111620000b25760405162461bcd60e51b815260040180806020018281038252602e815260200180620022ea602e913960400191505060405180910390fd5b6080526000620000c16200018e565b600680546001600160a01b0319166001600160a01b038316908117909155604051919250906000907f8be0079c531659141344cd1fd0a4f28419497f9722a3daafe3b4186f6b6457e0908290a35033606090811b60c05284901b6001600160601b03191660a0526200013583838362000192565b5050505080600014156200017b5760405162461bcd60e51b8152600401808060200182810382526039815260200180620023186039913960400191505060405180910390fd5b60e05250620002ee975050505050505050565b3390565b60008311620001d35760405162461bcd60e51b8152600401808060200182810382526036815260200180620022b46036913960400191505060405180910390fd5b60008211620002145760405162461bcd60e51b8152600401808060200182810382526033815260200180620022506033913960400191505060405180910390fd5b600354158015620002255750600454155b620002625760405162461bcd60e51b8152600401808060200182810382526031815260200180620022836031913960400191505060405180910390fd5b600383905560048290556200028481846200028c602090811b62000e4e17901c565b600155505050565b600082820183811015620002e7576040805162461bcd60e51b815260206004820152601b60248201527f536166654d6174683a206164646974696f6e206f766572666c6f770000000000604482015290519081900360640190fd5b9392505050565b60805160a05160601c60c05160601c60e051611ee062000370600039806106c2528061082f5280611382525080610a305280610bd15250806105e8528061099f5280610b7a5280610fbc528061156e52806115ef528061166e52806116a95280611a495250806104e552806109c35280610a9c5280610bfb5250611ee06000f3fe608060405234801561001057600080fd5b50600436106101da5760003560e01c806372f702f311610104578063b01eb660116100a2578063d4c3eea011610071578063d4c3eea014610434578063e9fad8ee1461043c578063ee483cdf14610444578063f2fde38b1461044c576101da565b8063b01eb66014610414578063b540652e1461041c578063c0a239e314610424578063c45a01551461042c576101da565b8063907af6c0116100de578063907af6c01461038257806394f664171461038a578063a694fc3a146103c9578063a861a7a3146103e6576101da565b806372f702f31461036a5780638587edbb146103725780638da5cb5b1461037a576101da565b80634437152a1161017c5780636eb957df1161014b5780636eb957df1461031757806370a082311461031f578063715018a6146103455780637211bbc91461034d576101da565b80634437152a146102bd57806345ef79af146102e35780634ff3306f146102eb57806366666aa9146102f3576101da565b8063363291dc116101b8578063363291dc146102475780633882f742146102815780633a98ef39146102895780633c323a1b14610291576101da565b80631877bb5c146101df5780631c1f9cc0146102175780632240e63c1461021f575b600080fd5b610205600480360360208110156101f557600080fd5b50356001600160a01b0316610472565b60408051918252519081900360200190f35b610205610484565b6102456004803603602081101561023557600080fd5b50356001600160a01b031661048a565b005b61026d6004803603602081101561025d57600080fd5b50356001600160a01b0316610690565b604080519115158252519081900360200190f35b6102056106a5565b6102056106ab565b610245600480360360408110156102a757600080fd5b506001600160a01b0381351690602001356106b1565b610245600480360360208110156102d357600080fd5b50356001600160a01b0316610739565b61020561082d565b610205610851565b6102fb610857565b604080516001600160a01b039092168252519081900360200190f35b610205610866565b6102056004803603602081101561033557600080fd5b50356001600160a01b031661086c565b6102456108ad565b6102056004803603602081101561036357600080fd5b503561096b565b6102fb61099d565b6102056109c1565b6102fb6109e5565b6102056109f4565b6103b0600480360360208110156103a057600080fd5b50356001600160a01b0316610a00565b6040805192835260208301919091528051918290030190f35b610245600480360360208110156103df57600080fd5b5035610a19565b610245600480360360408110156103fc57600080fd5b506001600160a01b0381351690602001351515610a25565b610245610a9a565b610245610baf565b610205610bc9565b6102fb610bcf565b610205610bf3565b610245610bf9565b610205610d33565b6102456004803603602081101561046257600080fd5b50356001600160a01b0316610d39565b600c6020526000908152604090205481565b60015481565b6001600160a01b0381166000908152600d6020526040902054819060ff166104e35760405162461bcd60e51b815260040180806020018281038252602c815260200180611dfd602c913960400191505060405180910390fd5b7f000000000000000000000000000000000000000000000000000000000000000043116105415760405162461bcd60e51b8152600401808060200182810382526042815260200180611d726042913960600191505060405180910390fd5b60026000541415610587576040805162461bcd60e51b815260206004820152601f6024820152600080516020611d06833981519152604482015290519081900360640190fd5b6002600055610594610eb1565b61059c610f97565b60006105a73361086c565b9050806105b45750610687565b336000908152600c60205260409020546009546105d09161107c565b600955336000908152600c60205260408120556106177f00000000000000000000000000000000000000000000000000000000000000006001600160a01b031684836110d9565b60408051633c323a1b60e01b81523360048201526024810183905290516001600160a01b03851691633c323a1b91604480830192600092919082900301818387803b15801561066557600080fd5b505af1158015610679573d6000803e3d6000fd5b50505050610685610f97565b505b50506001600055565b600d6020526000908152604090205460ff1681565b600b5481565b60095481565b818160006106be8361086c565b90507f00000000000000000000000000000000000000000000000000000000000000006106eb8284610e4e565b11156107285760405162461bcd60e51b8152600401808060200182810382526028815260200180611db46028913960400191505060405180910390fd5b61073285856111f1565b5050505050565b6107416112ad565b6001600160a01b03166107526109e5565b6001600160a01b0316146107ad576040805162461bcd60e51b815260206004820181905260248201527f4f776e61626c653a2063616c6c6572206973206e6f7420746865206f776e6572604482015290519081900360640190fd5b6007546001600160a01b03161561080b576040805162461bcd60e51b815260206004820152601760248201527f52657761726420706f6f6c20616c726561647920736574000000000000000000604482015290519081900360640190fd5b600780546001600160a01b0319166001600160a01b0392909216919091179055565b7f000000000000000000000000000000000000000000000000000000000000000081565b60045481565b6007546001600160a01b031681565b60035481565b6001600160a01b0381166000908152600c60205260408120546008546108a591670de0b6b3a76400009161089f916112b1565b9061130a565b90505b919050565b6108b56112ad565b6001600160a01b03166108c66109e5565b6001600160a01b031614610921576040805162461bcd60e51b815260206004820181905260248201527f4f776e61626c653a2063616c6c6572206973206e6f7420746865206f776e6572604482015290519081900360640190fd5b6006546040516000916001600160a01b0316907f8be0079c531659141344cd1fd0a4f28419497f9722a3daafe3b4186f6b6457e0908390a3600680546001600160a01b0319169055565b3360009081526005602052604081206002810180548490811061098a57fe5b9060005260206000200154915050919050565b7f000000000000000000000000000000000000000000000000000000000000000081565b7f000000000000000000000000000000000000000000000000000000000000000081565b6006546001600160a01b031690565b670de0b6b3a764000081565b6005602052600090815260409020805460019091015482565b610a2281611371565b50565b336001600160a01b037f00000000000000000000000000000000000000000000000000000000000000001614610a8c5760405162461bcd60e51b8152600401808060200182810382526022815260200180611e296022913960400191505060405180910390fd5b610a9682826113f1565b5050565b7f00000000000000000000000000000000000000000000000000000000000000004311610af85760405162461bcd60e51b8152600401808060200182810382526042815260200180611d726042913960600191505060405180910390fd5b60026000541415610b3e576040805162461bcd60e51b815260206004820152601f6024820152600080516020611d06833981519152604482015290519081900360640190fd5b600260009081553381526005602052604090206001810154600b54610b629161107c565b600b55604080516000815260208101909152610b9f907f00000000000000000000000000000000000000000000000000000000000000009061141c565b610ba7610f97565b506001600055565b610bb7610eb1565b610bbf610f97565b610bc761154e565b565b60085481565b7f000000000000000000000000000000000000000000000000000000000000000081565b600a5481565b7f00000000000000000000000000000000000000000000000000000000000000004311610c575760405162461bcd60e51b8152600401808060200182810382526042815260200180611d726042913960600191505060405180910390fd5b60026000541415610c9d576040805162461bcd60e51b815260206004820152601f6024820152600080516020611d06833981519152604482015290519081900360640190fd5b6002600055610caa610eb1565b610cb2610f97565b6000610cbd3361086c565b905080610cca5750610d2c565b60408051600080825260208201909252610ce5918391611733565b336000908152600c6020526040902054600954610d019161107c565b600955336000908152600c6020526040812055600b54610d219082610e4e565b600b55610ba7610f97565b6001600055565b60025481565b610d416112ad565b6001600160a01b0316610d526109e5565b6001600160a01b031614610dad576040805162461bcd60e51b815260206004820181905260248201527f4f776e61626c653a2063616c6c6572206973206e6f7420746865206f776e6572604482015290519081900360640190fd5b6001600160a01b038116610df25760405162461bcd60e51b8152600401808060200182810382526026815260200180611d266026913960400191505060405180910390fd5b6006546040516001600160a01b038084169216907f8be0079c531659141344cd1fd0a4f28419497f9722a3daafe3b4186f6b6457e090600090a3600680546001600160a01b0319166001600160a01b0392909216919091179055565b600082820183811015610ea8576040805162461bcd60e51b815260206004820152601b60248201527f536166654d6174683a206164646974696f6e206f766572666c6f770000000000604482015290519081900360640190fd5b90505b92915050565b600754604080516370a0823160e01b815230600482015290516001600160a01b03909216916370a0823191602480820192602092909190829003018186803b158015610efc57600080fd5b505afa158015610f10573d6000803e3d6000fd5b505050506040513d6020811015610f2657600080fd5b505115610bc757600760009054906101000a90046001600160a01b03166001600160a01b031663e9fad8ee6040518163ffffffff1660e01b8152600401600060405180830381600087803b158015610f7d57600080fd5b505af1158015610f91573d6000803e3d6000fd5b50505050565b600954610fb4576000600a55670de0b6b3a7640000600855610bc7565b611059600b547f00000000000000000000000000000000000000000000000000000000000000006001600160a01b03166370a08231306040518263ffffffff1660e01b815260040180826001600160a01b0316815260200191505060206040518083038186803b15801561102757600080fd5b505afa15801561103b573d6000803e3d6000fd5b505050506040513d602081101561105157600080fd5b50519061107c565b600a8190556009546110779161089f90670de0b6b3a76400006112b1565b600855565b6000828211156110d3576040805162461bcd60e51b815260206004820152601e60248201527f536166654d6174683a207375627472616374696f6e206f766572666c6f770000604482015290519081900360640190fd5b50900390565b80158061115f575060408051636eb1769f60e11b81523060048201526001600160a01b03848116602483015291519185169163dd62ed3e91604480820192602092909190829003018186803b15801561113157600080fd5b505afa158015611145573d6000803e3d6000fd5b505050506040513d602081101561115b57600080fd5b5051155b61119a5760405162461bcd60e51b8152600401808060200182810382526036815260200180611e756036913960400191505060405180910390fd5b604080516001600160a01b038416602482015260448082018490528251808303909101815260649091019091526020810180516001600160e01b031663095ea7b360e01b1790526111ec90849061181c565b505050565b60008111611246576040805162461bcd60e51b815260206004820152601c60248201527f64656c65676174655374616b653a3a4e6f207374616b652073656e7400000000604482015290519081900360640190fd5b6001600160a01b0382166112a1576040805162461bcd60e51b815260206004820152601d60248201527f64656c65676174655374616b653a3a496e76616c6964207374616b6572000000604482015290519081900360640190fd5b610a96818360006119d4565b3390565b6000826112c057506000610eab565b828202828482816112cd57fe5b0414610ea85760405162461bcd60e51b8152600401808060200182810382526021815260200180611ddc6021913960400191505060405180910390fd5b6000808211611360576040805162461bcd60e51b815260206004820152601a60248201527f536166654d6174683a206469766973696f6e206279207a65726f000000000000604482015290519081900360640190fd5b81838161136957fe5b049392505050565b3381600061137e8361086c565b90507f00000000000000000000000000000000000000000000000000000000000000006113ab8284610e4e565b11156113e85760405162461bcd60e51b8152600401808060200182810382526028815260200180611db46028913960400191505060405180910390fd5b610f9184611b5f565b6001600160a01b03919091166000908152600d60205260409020805460ff1916911515919091179055565b3360009081526005602052604090208054431161146a5760405162461bcd60e51b8152600401808060200182810382526026815260200180611d4c6026913960400191505060405180910390fd5b60018101805460009091556114896001600160a01b0385163383611b6b565b60005b835181101561150c5760008360020182815481106114a657fe5b9060005260206000200154905060008460020183815481106114c457fe5b906000526020600020018190555061150333828785815181106114e357fe5b60200260200101516001600160a01b0316611b6b9092919063ffffffff16565b5060010161148c565b50604080513381526020810183905281517f548aea05c5e3b6ba34acdf7b3ad06c7bb667ed71d1761e2c177167be0a9eb059929181900390910190a150505050565b604080516370a0823160e01b815230600482015290516001600160a01b037f000000000000000000000000000000000000000000000000000000000000000016916370a08231916024808301926020929190829003018186803b1580156115b457600080fd5b505afa1580156115c8573d6000803e3d6000fd5b505050506040513d60208110156115de57600080fd5b505115610bc757600061165a600b547f00000000000000000000000000000000000000000000000000000000000000006001600160a01b03166370a08231306040518263ffffffff1660e01b815260040180826001600160a01b0316815260200191505060206040518083038186803b15801561102757600080fd5b600754909150611698906001600160a01b037f00000000000000000000000000000000000000000000000000000000000000008116911660006110d9565b6007546116d2906001600160a01b037f000000000000000000000000000000000000000000000000000000000000000081169116836110d9565b6007546040805163534a7e1d60e11b81526004810184905290516001600160a01b039092169163a694fc3a9160248082019260009290919082900301818387803b15801561171f57600080fd5b505af1158015610732573d6000803e3d6000fd5b61173d3383611bbd565b33600090815260056020526040902061175584611c18565b815560018101546117669085610e4e565b600182015560005b838110156117d8576117b583828151811061178557fe5b602002602001015183600201838154811061179c57fe5b9060005260206000200154610e4e90919063ffffffff16565b8260020182815481106117c457fe5b60009182526020909120015560010161176e565b50805460408051338152602081019290925280517fd9217a461a0f7f84171a8866118c3d92e943ba7c1ba89b819371f729b5cabcbc9281900390910190a150505050565b61182e826001600160a01b0316611ca5565b61187f576040805162461bcd60e51b815260206004820152601f60248201527f5361666545524332303a2063616c6c20746f206e6f6e2d636f6e747261637400604482015290519081900360640190fd5b60006060836001600160a01b0316836040518082805190602001908083835b602083106118bd5780518252601f19909201916020918201910161189e565b6001836020036101000a0380198251168184511680821785525050505050509050019150506000604051808303816000865af19150503d806000811461191f576040519150601f19603f3d011682016040523d82523d6000602084013e611924565b606091505b50915091508161197b576040805162461bcd60e51b815260206004820181905260248201527f5361666545524332303a206c6f772d6c6576656c2063616c6c206661696c6564604482015290519081900360640190fd5b805115610f915780806020019051602081101561199757600080fd5b5051610f915760405162461bcd60e51b815260040180806020018281038252602a815260200180611e4b602a913960400191505060405180910390fd5b60026000541415611a1a576040805162461bcd60e51b815260206004820152601f6024820152600080516020611d06833981519152604482015290519081900360640190fd5b6002600055611a27610eb1565b611a2f610f97565b611a7181611a3d5733611a3f565b825b6001600160a01b037f000000000000000000000000000000000000000000000000000000000000000016903086611cab565b600854600090611a8d9061089f86670de0b6b3a76400006112b1565b600954909150611a9d9082610e4e565b6009556001600160a01b0383166000908152600c6020526040902054611ac39082610e4e565b6001600160a01b0384166000908152600c6020526040902055600854611ae7610f97565b836001600160a01b03167f6381ea17a5324d29cc015352644672ead5185c1c61a0d3a521eda97e35cec97e868484600854611b218a61086c565b6040805195865260208601949094528484019290925260608401526080830152519081900360a00190a2611b5361154e565b50506001600055505050565b610a22813360016119d4565b604080516001600160a01b038416602482015260448082018490528251808303909101815260649091019091526020810180516001600160e01b031663a9059cbb60e01b1790526111ec90849061181c565b6001600160a01b03821660009081526005602052604090206002810154821415611be75750610a96565b60028101545b82811015610f9157600282018054600181810183556000928352602083209091019190915501611bed565b6000600154431115611c6a576000600354600154430381611c3557fe5b069050611c57600354611c51834361107c90919063ffffffff16565b90610e4e565b6001819055600284905591506108a89050565b600254611c779083610e4e565b60025550600154600454600254106108a857600354600154611c9891610e4e565b6001556000600255919050565b3b151590565b604080516001600160a01b0380861660248301528416604482015260648082018490528251808303909101815260849091019091526020810180516001600160e01b03166323b872dd60e01b179052610f9190859061181c56fe5265656e7472616e637947756172643a207265656e7472616e742063616c6c004f776e61626c653a206e6577206f776e657220697320746865207a65726f206164647265737366696e616c697a65457869743a3a547279696e6720746f206578697420746f6f206561726c796f6e6c79556e6c6f636b65643a3a63616e6e6f7420706572666f726d207468697320616374696f6e20756e74696c2074686520656e64206f6620746865206c6f636b6f6e6c79556e6465725374616b654c696d69743a3a5374616b65206c696d69742072656163686564536166654d6174683a206d756c7469706c69636174696f6e206f766572666c6f7765786974416e645472616e736665723a3a7265636569766572206973206e6f742077686974656c697374656443616c6c6572206973206e6f742074686520466163746f727920636f6e74726163745361666545524332303a204552433230206f7065726174696f6e20646964206e6f7420737563636565645361666545524332303a20617070726f76652066726f6d206e6f6e2d7a65726f20746f206e6f6e2d7a65726f20616c6c6f77616e6365a2646970667358221220cf448f19be37e3a90b0dd0e01d82b2663874beebe12b6dd436a6c01180adb1b764736f6c634300060c00337365745468726f74746c653a3a7468726f74746c6520726f756e6420636170206d757374206265206d6f7265207468616e20307365745468726f74746c653a3a7468726f74746c6520706172616d6574657273207765726520616c7265616479207365747365745468726f74746c653a3a7468726f74746c6520726f756e6420626c6f636b73206d757374206265206d6f7265207468616e20307365744c6f636b456e643a3a4c6f636b20656e64206e6565647320746f20626520696e20746865206675747572654c696d697465644175746f5374616b653a636f6e7374727563746f723a3a7374616b65206c696d69742073686f756c64206e6f74206265203060e06040523480156200001157600080fd5b5060405162002eab38038062002eab83398181016040526101408110156200003857600080fd5b8151602083015160408085015160608601805192519496939591949391820192846401000000008211156200006c57600080fd5b9083019060208201858111156200008257600080fd5b8251866020820283011164010000000082111715620000a057600080fd5b82525081516020918201928201910280838360005b83811015620000cf578181015183820152602001620000b5565b5050505090500160405260200180516040519392919084640100000000821115620000f957600080fd5b9083019060208201858111156200010f57600080fd5b82518660208202830111640100000000821117156200012d57600080fd5b82525081516020918201928201910280838360005b838110156200015c57818101518382015260200162000142565b505050509190910160409081526020830151908301516060840151608085015160a0909501516001600055929650909450929150818380868d8d8d8d8d8d8a620001a562000483565b8611620001e45760405162461bcd60e51b815260040180806020018281038252603681526020018062002e756036913960400191505060405180910390fd5b620001ee62000483565b85116200022d5760405162461bcd60e51b815260040180806020018281038252603181526020018062002dbb6031913960400191505060405180910390fd5b83518351146200026f5760405162461bcd60e51b815260040180806020018281038252604f81526020018062002dec604f913960600191505060405180910390fd5b81620002ad5760405162461bcd60e51b815260040180806020018281038252603081526020018062002d3c6030913960400191505060405180910390fd5b80620002eb5760405162461bcd60e51b815260040180806020018281038252603a81526020018062002e3b603a913960400191505060405180910390fd5b600480546001600160a01b0319166001600160a01b03891617905582516200031b90600290602086019062000487565b506005869055600685905583516200033b906003906020870190620004d7565b50600554600755600980546001600160a01b03191633179055600a829055600b81905560005b600354811015620003ab57600880546001818101835560009283527ff3f7a9fe364faab93b216da50a3214154f22a0a2b415b23a84c8169e8b636ee3909101919091550162000361565b50505050506001600160a01b03841615159250620003fe9150505760405162461bcd60e51b815260040180806020018281038252604f81526020018062002d6c604f913960600191505060405180910390fd5b60601b6001600160601b0319166080526001600160a01b038116620004555760405162461bcd60e51b815260040180806020018281038252602181526020018062002d1b6021913960400191505060405180910390fd5b6001600160601b0319606091821b811660a05292901b90911660c05250620005759950505050505050505050565b4390565b828054828255906000526020600020908101928215620004c5579160200282015b82811115620004c5578251825591602001919060010190620004a8565b50620004d39291506200053d565b5090565b8280548282559060005260206000209081019282156200052f579160200282015b828111156200052f57825182546001600160a01b0319166001600160a01b03909116178255602090920191600190910190620004f8565b50620004d392915062000554565b5b80821115620004d357600081556001016200053e565b5b80821115620004d35780546001600160a01b031916815560010162000555565b60805160601c60a05160601c60c05160601c612752620005c960003980610ae65280610bdb5250806109e25280610a505280610b7a5280610c4952806114ea525080610c25528061193552506127526000f3fe608060405234801561001057600080fd5b50600436106101fa5760003560e01c806361d027b31161011a578063a694fc3a116100ad578063dd2da2201161007c578063dd2da22014610644578063df9d777f1461064c578063e9fad8ee14610678578063f27d026414610680578063fb58cad1146106ac576101fa565b8063a694fc3a146105d6578063a9f8d181146105f3578063b6d0dcd8146105fb578063ce41530214610618576101fa565b8063817b1cd2116100e9578063817b1cd2146105545780639c3705c71461055c578063a1002a0f14610582578063a1292aea146105b0576101fa565b806361d027b31461050157806370a082311461050957806372f702f31461052f578063791f39cd14610537576101fa565b8063333609b61161019257806350afa34b1161016157806350afa34b146104b857806356409b81146104d557806357b4f01f146104dd5780635ebaf1db146104f9576101fa565b8063333609b61461047c57806345ef79af146104a057806348cd4cb1146104a85780634e71d92d146104b0576101fa565b806320e67c76116101ce57806320e67c761461028657806325d5971f1461043a5780632d9e88e1146104575780632e1a7d4d1461045f576101fa565b806284c927146101ff57806303d1dae014610237578063083c63231461023f5780631959a00214610247575b600080fd5b6102256004803603602081101561021557600080fd5b50356001600160a01b03166106c9565b60408051918252519081900360200190f35b61022561072f565b610225610735565b61026d6004803603602081101561025d57600080fd5b50356001600160a01b031661073b565b6040805192835260208301919091528051918290030190f35b6104386004803603608081101561029c57600080fd5b813591908101906040810160208201356401000000008111156102be57600080fd5b8201836020820111156102d057600080fd5b803590602001918460208302840111640100000000831117156102f257600080fd5b919080806020026020016040519081016040528093929190818152602001838360200280828437600092019190915250929594936020810193503591505064010000000081111561034257600080fd5b82018360208201111561035457600080fd5b8035906020019184602083028401116401000000008311171561037657600080fd5b91908080602002602001604051908101604052809392919081815260200183836020028082843760009201919091525092959493602081019350359150506401000000008111156103c657600080fd5b8201836020820111156103d857600080fd5b803590602001918460208302840111640100000000831117156103fa57600080fd5b919080806020026020016040519081016040528093929190818152602001838360200280828437600092019190915250929550610754945050505050565b005b6104386004803603602081101561045057600080fd5b50356109d7565b610225610a81565b6104386004803603602081101561047557600080fd5b5035610a87565b610484610ae4565b604080516001600160a01b039092168252519081900360200190f35b610225610b08565b610225610b0e565b610438610b14565b610438600480360360208110156104ce57600080fd5b5035610b6f565b610484610c00565b6104e5610c0f565b604080519115158252519081900360200190f35b610484610c23565b610484610c47565b6102256004803603602081101561051f57600080fd5b50356001600160a01b0316610c6b565b610484610c89565b6102256004803603602081101561054d57600080fd5b5035610c98565b610225610cb6565b6102256004803603602081101561057257600080fd5b50356001600160a01b0316610cbc565b6104386004803603604081101561059857600080fd5b506001600160a01b0381358116916020013516610cce565b610225600480360360208110156105c657600080fd5b50356001600160a01b0316610f37565b610438600480360360208110156105ec57600080fd5b5035610f9d565b610225610fa6565b6104846004803603602081101561061157600080fd5b5035610fac565b6102256004803603604081101561062e57600080fd5b506001600160a01b038135169060200135610fd3565b610438611057565b6102256004803603604081101561066257600080fd5b506001600160a01b0381351690602001356111fd565b6104386113b4565b6102256004803603604081101561069657600080fd5b506001600160a01b038135169060200135611408565b610225600480360360208110156106c257600080fd5b5035611477565b60006001600160a01b0382166107105760405162461bcd60e51b815260040180806020018281038252602d815260200180612427602d913960400191505060405180910390fd5b506001600160a01b03166000908152600c602052604090206002015490565b600b5481565b60065481565b600c602052600090815260409020805460019091015482565b6009546001600160a01b0316331461079d5760405162461bcd60e51b81526004018080602001828103825260298152602001806126f46029913960400191505060405180910390fd5b6107a5611484565b84116107e25760405162461bcd60e51b81526004018080602001828103825260278152602001806126a36027913960400191505060405180910390fd5b6006548410156108235760405162461bcd60e51b81526004018080602001828103825260358152602001806124a36035913960400191505060405180910390fd5b6003548351146108645760405162461bcd60e51b81526004018080602001828103825260348152602001806125c96034913960400191505060405180910390fd5b61086c611057565b60005b835181101561094c5760006003828154811061088757fe5b60009182526020909120015483516001600160a01b0390911691508390839081106108ae57fe5b60200260200101518483815181106108c257fe5b6020026020010151111561091657610916338484815181106108e057fe5b60200260200101518685815181106108f457fe5b602002602001015103836001600160a01b03166114889092919063ffffffff16565b84828151811061092257fe5b60200260200101516002838154811061093757fe5b6000918252602090912001555060010161086f565b50836006819055507f137c92cc7579cc4d6a2b109467cd475c205d1c136363ca854cc46d72f840d5de84846040518083815260200180602001828103825283818151815260200191508051906020019060200280838360005b838110156109bd5781810151838201526020016109a5565b50505050905001935050505060405180910390a150505050565b336001600160a01b037f00000000000000000000000000000000000000000000000000000000000000001614610a3e5760405162461bcd60e51b815260040180806020018281038252602881526020018061247b6028913960400191505060405180910390fd5b600454610a75906001600160a01b03167f000000000000000000000000000000000000000000000000000000000000000083611488565b610a7e816114df565b50565b60035490565b60026000541415610acd576040805162461bcd60e51b815260206004820152601f6024820152600080516020612407833981519152604482015290519081900360640190fd5b6002600055610adc813361157c565b506001600055565b7f000000000000000000000000000000000000000000000000000000000000000081565b600a5481565b60055481565b60026000541415610b5a576040805162461bcd60e51b815260206004820152601f6024820152600080516020612407833981519152604482015290519081900360640190fd5b6002600055610b683361177e565b6001600055565b336001600160a01b037f00000000000000000000000000000000000000000000000000000000000000001614610bd65760405162461bcd60e51b815260040180806020018281038252602881526020018061247b6028913960400191505060405180910390fd5b610a7e7f000000000000000000000000000000000000000000000000000000000000000082611897565b6009546001600160a01b031681565b6000600554610c1c611484565b1015905090565b7f000000000000000000000000000000000000000000000000000000000000000081565b7f000000000000000000000000000000000000000000000000000000000000000081565b6001600160a01b03166000908152600c602052604090206001015490565b6004546001600160a01b031681565b60028181548110610ca557fe5b600091825260209091200154905081565b60015481565b600d6020526000908152604090205481565b60026000541415610d14576040805162461bcd60e51b815260206004820152601f6024820152600080516020612407833981519152604482015290519081900360640190fd5b60026000556009546001600160a01b03163314610d625760405162461bcd60e51b81526004018080602001828103825260298152602001806126f46029913960400191505060405180910390fd5b6000816001600160a01b03166370a08231306040518263ffffffff1660e01b815260040180826001600160a01b0316815260200191505060206040518083038186803b158015610db157600080fd5b505afa158015610dc5573d6000803e3d6000fd5b505050506040513d6020811015610ddb57600080fd5b5051905080610e1b5760405162461bcd60e51b815260040180806020018281038252603c815260200180612667603c913960400191505060405180910390fd5b6004546001600160a01b0383811691161415610e685760405162461bcd60e51b81526004018080602001828103825260368152602001806124d86036913960400191505060405180910390fd5b60035460005b81811015610ee15760038181548110610e8357fe5b6000918252602090912001546001600160a01b0385811691161415610ed95760405162461bcd60e51b815260040180806020018281038252603581526020018061250e6035913960400191505060405180910390fd5b600101610e6e565b50610ef66001600160a01b0384168584611488565b6040516001600160a01b0385169083907fdf1b625465761dd1a4330a9b3a21d4943183f301036528a3544f8d891fdce2c290600090a3505060016000555050565b60006001600160a01b038216610f7e5760405162461bcd60e51b815260040180806020018281038252602d815260200180612543602d913960400191505060405180910390fd5b506001600160a01b03166000908152600c602052604090206003015490565b610a7e8161192a565b60075481565b60038181548110610fb957fe5b6000918252602090912001546001600160a01b0316905081565b60006001600160a01b03831661101a5760405162461bcd60e51b81526004018080602001828103825260278152602001806126406027913960400191505060405180910390fd5b6001600160a01b0383166000908152600c602052604090206003810180548490811061104257fe5b90600052602060002001549150505b92915050565b6000611061611484565b9050600754811161107257506111fb565b6000600654821061108557600654611087565b815b60075490915081038061109c575050506111fb565b6001546110ad5750600755506111fb565b60035460005b818110156111f3576000600382815481106110ca57fe5b600091825260209182902001546040805163313ce56760e01b815290516001600160a01b039092169263313ce56792600480840193829003018186803b15801561111357600080fd5b505afa158015611127573d6000803e3d6000fd5b505050506040513d602081101561113d57600080fd5b50516002805460ff9092169250600a83900a9160009161117b918690811061116157fe5b9060005260206000200154876119b090919063ffffffff16565b9050600061119e60015461119885856119b090919063ffffffff16565b90611a10565b90506111ca81600887815481106111b157fe5b9060005260206000200154611a7790919063ffffffff16565b600886815481106111d757fe5b6000918252602090912001555050600190920191506110b39050565b505050600755505b565b600080611208611484565b90506000600654821061121d5760065461121f565b815b9050600061123860075483611ad190919063ffffffff16565b905060006003868154811061124957fe5b600091825260209182902001546040805163313ce56760e01b815290516001600160a01b039092169263313ce56792600480840193829003018186803b15801561129257600080fd5b505afa1580156112a6573d6000803e3d6000fd5b505050506040513d60208110156112bc57600080fd5b50516002805460ff9092169250600a83900a916000916112fa918a9081106112e057fe5b9060005260206000200154856119b090919063ffffffff16565b9050600061131760015461119885856119b090919063ffffffff16565b9050600061132c8260088c815481106111b157fe5b6001600160a01b038c166000908152600c6020526040812060018101549293509161135d90879061119890866119b0565b9050600061138d836002018e8154811061137357fe5b906000526020600020015483611ad190919063ffffffff16565b90506113a281846003018f815481106111b157fe5b9e9d5050505050505050505050505050565b600260005414156113fa576040805162461bcd60e51b815260206004820152601f6024820152600080516020612407833981519152604482015290519081900360640190fd5b6002600055610b6833611b2e565b60006001600160a01b03831661144f5760405162461bcd60e51b81526004018080602001828103825260278152602001806124546027913960400191505060405180910390fd5b6001600160a01b0383166000908152600c602052604090206002810180548490811061104257fe5b60088181548110610ca557fe5b4390565b604080516001600160a01b038416602482015260448082018490528251808303909101815260649091019091526020810180516001600160e01b031663a9059cbb60e01b1790526114da908490611ba4565b505050565b336001600160a01b037f000000000000000000000000000000000000000000000000000000000000000016146115465760405162461bcd60e51b815260040180806020018281038252602881526020018061247b6028913960400191505060405180910390fd5b6040805182815290517fa78b9f12a7da0df7ced737c5f83d0c05723bb5f43aab37e233b86271041484729181900360200190a150565b600082116115d1576040805162461bcd60e51b815260206004820152601b60248201527f57697468647261773a3a43616e6e6f7420776974686472617720300000000000604482015290519081900360640190fd5b6001600160a01b0381166000908152600c602052604090206115f1611057565b6115fa82611d5c565b60018101546116099084611ad1565b6001808301919091555461161d9084611ad1565b60015560035460005b818110156117215760006003828154811061163d57fe5b600091825260209182902001546040805163313ce56760e01b815290516001600160a01b039092169263313ce56792600480840193829003018186803b15801561168657600080fd5b505afa15801561169a573d6000803e3d6000fd5b505050506040513d60208110156116b057600080fd5b50516008805460ff9092169250600a83900a916000916116f891849161119891889081106116da57fe5b906000526020600020015489600101546119b090919063ffffffff16565b90508086600201858154811061170a57fe5b600091825260209091200155505050600101611626565b50600454611739906001600160a01b03168486611488565b6040805185815290516001600160a01b038516917f7084f5476618d8e60b11ef0d7d3f06914655adb8793e28ff7f018d4c76d505d5919081900360200190a250505050565b6001600160a01b0381166000908152600c6020526040902061179e611057565b6117a782611d5c565b60035460005b818110156118915760008360030182815481106117c657fe5b9060005260206000200154905060008460030183815481106117e457fe5b906000526020600020018190555061182085826003858154811061180457fe5b6000918252602090912001546001600160a01b03169190611488565b846001600160a01b03167f7e6632ca16a0ac6cf28448500b1a17d96c8b8163ad4c4a9b44ef5386cc02779e826003858154811061185957fe5b60009182526020918290200154604080519384526001600160a01b03909116918301919091528051918290030190a2506001016117ad565b50505050565b6118ac6001600160a01b038316333084611db5565b6001600160a01b0382166000908152600d60205260409020546118cf9082611a77565b6001600160a01b0383166000818152600d6020908152604091829020939093558051918252918101839052815133927f3ca3e2b750b23b0fb33120646ef2418edd82a6576afaa67069cfb626f08ca7dc928290030190a25050565b336001600160a01b037f000000000000000000000000000000000000000000000000000000000000000016146119a7576040805162461bcd60e51b815260206004820152601c60248201527f6f6e6c795374616b65723a3a696e636f7272656374207374616b657200000000604482015290519081900360640190fd5b610a7e81611e0f565b6000826119bf57506000611051565b828202828482816119cc57fe5b0414611a095760405162461bcd60e51b815260040180806020018281038252602181526020018061261f6021913960400191505060405180910390fd5b9392505050565b6000808211611a66576040805162461bcd60e51b815260206004820152601a60248201527f536166654d6174683a206469766973696f6e206279207a65726f000000000000604482015290519081900360640190fd5b818381611a6f57fe5b049392505050565b600082820183811015611a09576040805162461bcd60e51b815260206004820152601b60248201527f536166654d6174683a206164646974696f6e206f766572666c6f770000000000604482015290519081900360640190fd5b600082821115611b28576040805162461bcd60e51b815260206004820152601e60248201527f536166654d6174683a207375627472616374696f6e206f766572666c6f770000604482015290519081900360640190fd5b50900390565b6001600160a01b0381166000908152600c60205260409020611b4f8261177e565b611b5d81600101548361157c565b600181015460408051918252516001600160a01b038416917f920bb94eb3842a728db98228c375ff6b00c5bc5a54fac6736155517a0a20a61a919081900360200190a25050565b611bb6826001600160a01b0316611e66565b611c07576040805162461bcd60e51b815260206004820152601f60248201527f5361666545524332303a2063616c6c20746f206e6f6e2d636f6e747261637400604482015290519081900360640190fd5b60006060836001600160a01b0316836040518082805190602001908083835b60208310611c455780518252601f199092019160209182019101611c26565b6001836020036101000a0380198251168184511680821785525050505050509050019150506000604051808303816000865af19150503d8060008114611ca7576040519150601f19603f3d011682016040523d82523d6000602084013e611cac565b606091505b509150915081611d03576040805162461bcd60e51b815260206004820181905260248201527f5361666545524332303a206c6f772d6c6576656c2063616c6c206661696c6564604482015290519081900360640190fd5b80511561189157808060200190516020811015611d1f57600080fd5b50516118915760405162461bcd60e51b815260040180806020018281038252602a8152602001806126ca602a913960400191505060405180910390fd5b6001600160a01b0381166000908152600c60205260409020611d7d82611e6c565b611d8682611ecc565b6001810154611d955750610a7e565b60035460005b8181101561189157611dad8482611f2c565b600101611d9b565b604080516001600160a01b0380861660248301528416604482015260648082018490528251808303909101815260849091019091526020810180516001600160e01b03166323b872dd60e01b179052611891908590611ba4565b60026000541415611e55576040805162461bcd60e51b815260206004820152601f6024820152600080516020612407833981519152604482015290519081900360640190fd5b6002600055610adc81336001612084565b3b151590565b6001600160a01b0381166000908152600c6020526040902060035460028201541415611e985750610a7e565b60035460028201545b8181101561189157600283018054600181810183556000928352602083209091019190915501611ea1565b6001600160a01b0381166000908152600c6020526040902060038054908201541415611ef85750610a7e565b60038054908201545b8181101561189157600383018054600181810183556000928352602083209091019190915501611f01565b6001600160a01b0382166000908152600c602052604081206003805491929184908110611f5557fe5b600091825260209182902001546040805163313ce56760e01b815290516001600160a01b039092169263313ce56792600480840193829003018186803b158015611f9e57600080fd5b505afa158015611fb2573d6000803e3d6000fd5b505050506040513d6020811015611fc857600080fd5b50516008805460ff9092169250600a83900a916000916120109184916111989189908110611ff257fe5b906000526020600020015487600101546119b090919063ffffffff16565b9050600061202685600201878154811061137357fe5b9050801561207b57612041818660030188815481106111b157fe5b85600301878154811061205057fe5b90600052602060002001819055508185600201878154811061206e57fe5b6000918252602090912001555b50505050505050565b600061208e611484565b905060055481116120d05760405162461bcd60e51b81526004018080602001828103825260228152602001806125fd6022913960400191505060405180910390fd5b600654811115612127576040805162461bcd60e51b815260206004820152601b60248201527f5374616b653a3a5374616b696e67206861732066696e69736865640000000000604482015290519081900360640190fd5b6001600160a01b0383166000908152600c60205260409020600a5460018201548592879290916121579084611a77565b11156121945760405162461bcd60e51b81526004018080602001828103825260288152602001806125a16028913960400191505060405180910390fd5b600b546001546121a49084611a77565b11156121e15760405162461bcd60e51b81526004018080602001828103825260318152602001806125706031913960400191505060405180910390fd5b6000871161222e576040805162461bcd60e51b815260206004820152601560248201527405374616b653a3a43616e6e6f74207374616b65203605c1b604482015290519081900360640190fd5b6001600160a01b0386166000908152600c60205260409020600181015461225857612258876123e1565b612260611057565b61226987611d5c565b60018101546122789089611a77565b6001808301919091555461228c9089611a77565b60015560035460005b81811015612372576000600382815481106122ac57fe5b600091825260209182902001546040805163313ce56760e01b815290516001600160a01b039092169263313ce56792600480840193829003018186803b1580156122f557600080fd5b505afa158015612309573d6000803e3d6000fd5b505050506040513d602081101561231f57600080fd5b50516008805460ff9092169250600a83900a9160009161234991849161119891889081106116da57fe5b90508086600201858154811061235b57fe5b600091825260209091200155505050600101612295565b50612397876123815733612383565b885b6004546001600160a01b031690308c611db5565b604080518a815290516001600160a01b038a16917f9e71bc8eea02a63969f509818f2dafb9254532904319f9dbda79b67bd34a5f3d919081900360200190a2505050505050505050565b6001600160a01b0381166000908152600c60205260409020612401611484565b90555056fe5265656e7472616e637947756172643a207265656e7472616e742063616c6c0047657455736572526577617264446562744c656e6774683a3a496e76616c69642075736572206164647265737347657455736572526577617264446562743a3a496e76616c6964207573657220616464726573736f6e6c7954726561737572793a3a4e6f742063616c6c656420627920746865207472656173757279457874656e643a3a456e6420626c6f636b206d757374206265206166746572207468652063757272656e7420656e6420626c6f636b57697468647261774c50526577617264733a3a2063616e6e6f742077697468647261772066726f6d20746865204c5020746f6b656e7357697468647261774c50526577617264733a3a43616e6e6f742077697468647261772066726f6d20746f6b656e207265776172647347657455736572546f6b656e734f7765644c656e6774683a3a496e76616c6964207573657220616464726573736f6e6c79556e6465725374616b654c696d69743a3a436f6e7472616374205374616b65206c696d697420726561636865646f6e6c79556e6465725374616b654c696d69743a3a5374616b65206c696d69742072656163686564457874656e643a3a5265776172647320616d6f756e7473206c656e677468206973206c657373207468616e2065787065637465645374616b653a3a5374616b696e6720686173206e6f74207965742073746172746564536166654d6174683a206d756c7469706c69636174696f6e206f766572666c6f77476574557365724f776564546f6b656e733a3a496e76616c69642075736572206164647265737357697468647261774c50526577617264733a3a546865726520617265206e6f20726577617264732066726f6d206c697175696469747920706f6f6c73457874656e643a3a456e6420626c6f636b206d75737420626520696e20746865206675747572655361666545524332303a204552433230206f7065726174696f6e20646964206e6f74207375636365656443616c6c6572206973206e6f742052657761726473506f6f6c466163746f727920636f6e7472616374a2646970667358221220fb37df1fe8d0dc462486d06d82a125e9eb14cb812b376182675234ab9e9196cf64736f6c634300060c003373657454726561737572793a3a54726561737572792063616e6e6f742062652030436f6e7374727563746f723a3a5374616b65206c696d6974206e6565647320746f206265206d6f7265207468616e20304f6e655374616b6572466561747572653a3a73657453636f6e7374727563746f7274616b6572206e6577207374616b657220616464726573732063616e2774206265207a65726f2061646472657373436f6e7374727563746f723a3a54686520656e6420626c6f636b206d75737420626520696e20746865206675747572652e436f6e7374727563746f723a3a526577617264732070657220626c6f636b20616e64207265776172647320746f6b656e73206d7573742062652077697468207468652073616d65206c656e6774682e436f6e7374727563746f723a3a20436f6e7472616374205374616b65206c696d6974206e6565647320746f206265206d6f7265207468616e2030436f6e7374727563746f723a3a546865207374617274696e6720626c6f636b206d75737420626520696e20746865206675747572652e656e61626c655265636569766572733a3a52656365697665722063616e6e6f742062652030436f6d706f756e64696e6752657761726473506f6f6c466163746f72793a3a6465706c6f793a205468726f74746c6520726f756e6420636170206d757374206265206d6f7265207468616e203063616c63756c61746552657761726473416d6f756e743a3a20526577617264732070657220626c6f636b206d7573742062652067726561746572207468616e207a65726f656e61626c655265636569766572733a3a5472616e7366657265722063616e6e6f742062652030436f6d706f756e64696e6752657761726473506f6f6c466163746f72793a3a6465706c6f793a205468726f74746c6520726f756e6420626c6f636b73206d757374206265206d6f7265207468616e2030436f6d706f756e64696e6752657761726473506f6f6c466163746f72793a3a6465706c6f793a205265776172642070657220626c6f636b206d757374206265206d6f7265207468616e2030536166654d6174683a206d756c7469706c69636174696f6e206f766572666c6f7753656e64657220697320646966666572656e742066726f6d2070726f706f736564206f776e65726f6e6c794f776e65723a3a205468652063616c6c6572206973206e6f7420746865206f776e65725361666545524332303a204552433230206f7065726174696f6e20646964206e6f742073756363656564436f6d706f756e64696e6752657761726473506f6f6c466163746f72793a3a6465706c6f793a205374616b65206c696d6974206d757374206265206d6f7265207468616e2030436f6d706f756e64696e6752657761726473506f6f6c466163746f72793a3a6465706c6f793a205374616b696e6720746f6b656e20616464726573732063616e2774206265207a65726f2061646472657373a2646970667358221220da3d07b80fd0aafcbaca952a2e6efaca84786248206c75b7ce5c5cfb18af126864736f6c634300060c0033436f6d706f756e64696e6752657761726473506f6f6c466163746f72793a3a2045787465726e616c2072657761726420616464726573732063616e2774206265207a65726f2061646472657373436f6d706f756e64696e6752657761726473506f6f6c466163746f72793a3a20547265617375727920616464726573732063616e2774206265207a65726f2061646472657373",
  "source": "// SPDX-License-Identifier: MIT\npragma solidity 0.6.12;\n\nimport \"./../../interfaces/IERC20Detailed.sol\";\nimport \"./../../SafeERC20Detailed.sol\";\nimport \"./../CompoundingRewardsPool.sol\";\nimport \"./../CompoundingRewardsPoolStaker.sol\";\nimport \"./StakeTransferEnabledFactory.sol\";\n\ncontract CompoundingRewardsPoolFactory is AbstractPoolsFactory, StakeTransferEnabledFactory {\n\tusing SafeERC20Detailed for IERC20Detailed;\n\n\taddress public immutable treasury;\n\taddress public immutable externalRewardToken;\n\n\tconstructor(address _treasury, address _externalRewardToken) public {\n\t\trequire(\n            _treasury != address(0),\n            \"CompoundingRewardsPoolFactory:: Treasury address can't be zero address\"\n        );\n\n        require(\n            _externalRewardToken != address(0),\n            \"CompoundingRewardsPoolFactory:: External reward address can't be zero address\"\n        );\n\t\ttreasury = _treasury;\n\t\texternalRewardToken = _externalRewardToken;\n\t}\n\n\t/* ========== Permissioned FUNCTIONS ========== */\n\n\tfunction deploy(\n\t\taddress _stakingToken,\n\t\tuint256 _startBlock,\n\t\tuint256 _endBlock,\n\t\tuint256 _rewardPerBlock,\n\t\tuint256 _stakeLimit, \n\t\tuint256 _throttleRoundBlocks, \n\t\tuint256 _throttleRoundCap,\n\t\tuint256 _contractStakeLimit\n\t) external onlyOwner {\n\t\trequire(\n\t\t\t_stakingToken != address(0),\n\t\t\t\"CompoundingRewardsPoolFactory::deploy: Staking token address can't be zero address\"\n\t\t);\n\n\t\trequire(\n\t\t\t_rewardPerBlock != 0,\n\t\t\t\"CompoundingRewardsPoolFactory::deploy: Reward per block must be more than 0\"\n\t\t);\n\n\t\trequire(\n\t\t\t_stakeLimit != 0,\n\t\t\t\"CompoundingRewardsPoolFactory::deploy: Stake limit must be more than 0\"\n\t\t);\n\n\t\trequire(\n\t\t\t_throttleRoundBlocks != 0,\n\t\t\t\"CompoundingRewardsPoolFactory::deploy: Throttle round blocks must be more than 0\"\n\t\t);\n\n\t\trequire(\n\t\t\t_throttleRoundCap != 0,\n\t\t\t\"CompoundingRewardsPoolFactory::deploy: Throttle round cap must be more than 0\"\n\t\t);\n\n\t\tCompoundingRewardsPoolStaker autoStaker = new CompoundingRewardsPoolStaker(\n\t\t\t_stakingToken,\n\t\t\t_throttleRoundBlocks,\n\t\t\t_throttleRoundCap,\n\t\t\t_endBlock,\n\t\t\t_stakeLimit\n\t\t);\n\n\t\taddress[] memory rewardTokens = new address[](1);\n\t\trewardTokens[0] = _stakingToken;\n\n\t\tuint256[] memory rewardsPerBlock = new uint256[](1);\n\t\trewardsPerBlock[0] = _rewardPerBlock;\n\n\t\tCompoundingRewardsPool rewardsPool = new CompoundingRewardsPool(\n\t\t\t\tIERC20Detailed(_stakingToken),\n\t\t\t\t_startBlock,\n\t\t\t\t_endBlock,\n\t\t\t\trewardTokens,\n\t\t\t\trewardsPerBlock,\n\t\t\t\tuint256(-1),\n\t\t\t\taddress(autoStaker),\n\t\t\t\ttreasury,\n\t\t\t\texternalRewardToken,\n\t\t\t\t_contractStakeLimit\n\t\t\t);\n\n\t\tautoStaker.setPool(address(rewardsPool));\n\n\t\tuint256 rewardsAmount = calculateRewardsAmount(_startBlock, _endBlock, _rewardPerBlock);\n\t\tIERC20Detailed(_stakingToken).safeTransfer(address(rewardsPool), rewardsAmount);\n\n\t\trewardsPools.push(address(autoStaker));\n\n\t}\n}\n",
  "sourcePath": "/Users/martindobrev/Code/custom-token/contracts/V2/factories/CompoundingRewardsPoolFactory.sol",
  "compiler": {
    "name": "solc",
    "version": "0.6.12+commit.27d51765.Emscripten.clang",
    "optimizer": true,
    "runs": 200
  },
  "schemaVersion": "2.3.5",
  "updatedAt": "2022-02-16T15:12:31.200Z"
}