{
  "contractName": "CompoundingRewardsPool",
  "abi": [
    {
      "inputs": [
        {
          "internalType": "contract IERC20Detailed",
          "name": "_stakingToken",
          "type": "address"
        },
        {
          "internalType": "uint256",
          "name": "_startBlock",
          "type": "uint256"
        },
        {
          "internalType": "uint256",
          "name": "_endBlock",
          "type": "uint256"
        },
        {
          "internalType": "address[]",
          "name": "_rewardsTokens",
          "type": "address[]"
        },
        {
          "internalType": "uint256[]",
          "name": "_rewardPerBlock",
          "type": "uint256[]"
        },
        {
          "internalType": "uint256",
          "name": "_stakeLimit",
          "type": "uint256"
        },
        {
          "internalType": "address",
          "name": "_staker",
          "type": "address"
        },
        {
          "internalType": "address",
          "name": "_treasury",
          "type": "address"
        },
        {
          "internalType": "address",
          "name": "_externalRewardToken",
          "type": "address"
        },
        {
          "internalType": "uint256",
          "name": "_contractStakeLimit",
          "type": "uint256"
        }
      ],
      "stateMutability": "nonpayable",
      "type": "constructor"
    },
    {
      "anonymous": false,
      "inputs": [
        {
          "indexed": true,
          "internalType": "address",
          "name": "user",
          "type": "address"
        },
        {
          "indexed": false,
          "internalType": "uint256",
          "name": "amount",
          "type": "uint256"
        },
        {
          "indexed": false,
          "internalType": "address",
          "name": "token",
          "type": "address"
        }
      ],
      "name": "Claimed",
      "type": "event"
    },
    {
      "anonymous": false,
      "inputs": [
        {
          "indexed": true,
          "internalType": "address",
          "name": "user",
          "type": "address"
        },
        {
          "indexed": false,
          "internalType": "uint256",
          "name": "amount",
          "type": "uint256"
        }
      ],
      "name": "Exited",
      "type": "event"
    },
    {
      "anonymous": false,
      "inputs": [
        {
          "indexed": false,
          "internalType": "uint256",
          "name": "newEndBlock",
          "type": "uint256"
        },
        {
          "indexed": false,
          "internalType": "uint256[]",
          "name": "newRewardsPerBlock",
          "type": "uint256[]"
        }
      ],
      "name": "Extended",
      "type": "event"
    },
    {
      "anonymous": false,
      "inputs": [
        {
          "indexed": true,
          "internalType": "address",
          "name": "from",
          "type": "address"
        },
        {
          "indexed": false,
          "internalType": "address",
          "name": "token",
          "type": "address"
        },
        {
          "indexed": false,
          "internalType": "uint256",
          "name": "reward",
          "type": "uint256"
        }
      ],
      "name": "ExternalRewardsAdded",
      "type": "event"
    },
    {
      "anonymous": false,
      "inputs": [
        {
          "indexed": false,
          "internalType": "address",
          "name": "receiver",
          "type": "address"
        }
      ],
      "name": "ExternalRewardsClaimed",
      "type": "event"
    },
    {
      "anonymous": false,
      "inputs": [
        {
          "indexed": false,
          "internalType": "uint256",
          "name": "amount",
          "type": "uint256"
        }
      ],
      "name": "StakeWithdrawn",
      "type": "event"
    },
    {
      "anonymous": false,
      "inputs": [
        {
          "indexed": true,
          "internalType": "address",
          "name": "user",
          "type": "address"
        },
        {
          "indexed": false,
          "internalType": "uint256",
          "name": "amount",
          "type": "uint256"
        }
      ],
      "name": "Staked",
      "type": "event"
    },
    {
      "anonymous": false,
      "inputs": [
        {
          "indexed": true,
          "internalType": "uint256",
          "name": "rewardsAmount",
          "type": "uint256"
        },
        {
          "indexed": true,
          "internalType": "address",
          "name": "recipient",
          "type": "address"
        }
      ],
      "name": "WithdrawLPRewards",
      "type": "event"
    },
    {
      "anonymous": false,
      "inputs": [
        {
          "indexed": true,
          "internalType": "address",
          "name": "user",
          "type": "address"
        },
        {
          "indexed": false,
          "internalType": "uint256",
          "name": "amount",
          "type": "uint256"
        }
      ],
      "name": "Withdrawn",
      "type": "event"
    },
    {
      "inputs": [
        {
          "internalType": "uint256",
          "name": "",
          "type": "uint256"
        }
      ],
      "name": "accumulatedRewardMultiplier",
      "outputs": [
        {
          "internalType": "uint256",
          "name": "",
          "type": "uint256"
        }
      ],
      "stateMutability": "view",
      "type": "function"
    },
    {
      "inputs": [
        {
          "internalType": "address",
          "name": "_userAddress",
          "type": "address"
        }
      ],
      "name": "balanceOf",
      "outputs": [
        {
          "internalType": "uint256",
          "name": "",
          "type": "uint256"
        }
      ],
      "stateMutability": "view",
      "type": "function"
    },
    {
      "inputs": [],
      "name": "claim",
      "outputs": [],
      "stateMutability": "nonpayable",
      "type": "function"
    },
    {
      "inputs": [],
      "name": "contractStakeLimit",
      "outputs": [
        {
          "internalType": "uint256",
          "name": "",
          "type": "uint256"
        }
      ],
      "stateMutability": "view",
      "type": "function"
    },
    {
      "inputs": [],
      "name": "endBlock",
      "outputs": [
        {
          "internalType": "uint256",
          "name": "",
          "type": "uint256"
        }
      ],
      "stateMutability": "view",
      "type": "function"
    },
    {
      "inputs": [],
      "name": "exit",
      "outputs": [],
      "stateMutability": "nonpayable",
      "type": "function"
    },
    {
      "inputs": [
        {
          "internalType": "uint256",
          "name": "_endBlock",
          "type": "uint256"
        },
        {
          "internalType": "uint256[]",
          "name": "_rewardsPerBlock",
          "type": "uint256[]"
        },
        {
          "internalType": "uint256[]",
          "name": "_currentRemainingRewards",
          "type": "uint256[]"
        },
        {
          "internalType": "uint256[]",
          "name": "_newRemainingRewards",
          "type": "uint256[]"
        }
      ],
      "name": "extend",
      "outputs": [],
      "stateMutability": "nonpayable",
      "type": "function"
    },
    {
      "inputs": [],
      "name": "externalRewardToken",
      "outputs": [
        {
          "internalType": "address",
          "name": "",
          "type": "address"
        }
      ],
      "stateMutability": "view",
      "type": "function"
    },
    {
      "inputs": [
        {
          "internalType": "address",
          "name": "",
          "type": "address"
        }
      ],
      "name": "externalRewards",
      "outputs": [
        {
          "internalType": "uint256",
          "name": "",
          "type": "uint256"
        }
      ],
      "stateMutability": "view",
      "type": "function"
    },
    {
      "inputs": [],
      "name": "getRewardTokensCount",
      "outputs": [
        {
          "internalType": "uint256",
          "name": "",
          "type": "uint256"
        }
      ],
      "stateMutability": "view",
      "type": "function"
    },
    {
      "inputs": [
        {
          "internalType": "address",
          "name": "_userAddress",
          "type": "address"
        },
        {
          "internalType": "uint256",
          "name": "tokenIndex",
          "type": "uint256"
        }
      ],
      "name": "getUserAccumulatedReward",
      "outputs": [
        {
          "internalType": "uint256",
          "name": "",
          "type": "uint256"
        }
      ],
      "stateMutability": "view",
      "type": "function"
    },
    {
      "inputs": [
        {
          "internalType": "address",
          "name": "_userAddress",
          "type": "address"
        },
        {
          "internalType": "uint256",
          "name": "_index",
          "type": "uint256"
        }
      ],
      "name": "getUserOwedTokens",
      "outputs": [
        {
          "internalType": "uint256",
          "name": "",
          "type": "uint256"
        }
      ],
      "stateMutability": "view",
      "type": "function"
    },
    {
      "inputs": [
        {
          "internalType": "address",
          "name": "_userAddress",
          "type": "address"
        },
        {
          "internalType": "uint256",
          "name": "_index",
          "type": "uint256"
        }
      ],
      "name": "getUserRewardDebt",
      "outputs": [
        {
          "internalType": "uint256",
          "name": "",
          "type": "uint256"
        }
      ],
      "stateMutability": "view",
      "type": "function"
    },
    {
      "inputs": [
        {
          "internalType": "address",
          "name": "_userAddress",
          "type": "address"
        }
      ],
      "name": "getUserRewardDebtLength",
      "outputs": [
        {
          "internalType": "uint256",
          "name": "",
          "type": "uint256"
        }
      ],
      "stateMutability": "view",
      "type": "function"
    },
    {
      "inputs": [
        {
          "internalType": "address",
          "name": "_userAddress",
          "type": "address"
        }
      ],
      "name": "getUserTokensOwedLength",
      "outputs": [
        {
          "internalType": "uint256",
          "name": "",
          "type": "uint256"
        }
      ],
      "stateMutability": "view",
      "type": "function"
    },
    {
      "inputs": [],
      "name": "hasStakingStarted",
      "outputs": [
        {
          "internalType": "bool",
          "name": "",
          "type": "bool"
        }
      ],
      "stateMutability": "view",
      "type": "function"
    },
    {
      "inputs": [],
      "name": "lastRewardBlock",
      "outputs": [
        {
          "internalType": "uint256",
          "name": "",
          "type": "uint256"
        }
      ],
      "stateMutability": "view",
      "type": "function"
    },
    {
      "inputs": [
        {
          "internalType": "uint256",
          "name": "reward",
          "type": "uint256"
        }
      ],
      "name": "notifyExternalReward",
      "outputs": [],
      "stateMutability": "nonpayable",
      "type": "function"
    },
    {
      "inputs": [
        {
          "internalType": "uint256",
          "name": "",
          "type": "uint256"
        }
      ],
      "name": "rewardPerBlock",
      "outputs": [
        {
          "internalType": "uint256",
          "name": "",
          "type": "uint256"
        }
      ],
      "stateMutability": "view",
      "type": "function"
    },
    {
      "inputs": [],
      "name": "rewardsPoolFactory",
      "outputs": [
        {
          "internalType": "address",
          "name": "",
          "type": "address"
        }
      ],
      "stateMutability": "view",
      "type": "function"
    },
    {
      "inputs": [
        {
          "internalType": "uint256",
          "name": "",
          "type": "uint256"
        }
      ],
      "name": "rewardsTokens",
      "outputs": [
        {
          "internalType": "address",
          "name": "",
          "type": "address"
        }
      ],
      "stateMutability": "view",
      "type": "function"
    },
    {
      "inputs": [],
      "name": "stakeLimit",
      "outputs": [
        {
          "internalType": "uint256",
          "name": "",
          "type": "uint256"
        }
      ],
      "stateMutability": "view",
      "type": "function"
    },
    {
      "inputs": [],
      "name": "staker",
      "outputs": [
        {
          "internalType": "address",
          "name": "",
          "type": "address"
        }
      ],
      "stateMutability": "view",
      "type": "function"
    },
    {
      "inputs": [],
      "name": "stakingToken",
      "outputs": [
        {
          "internalType": "contract IERC20Detailed",
          "name": "",
          "type": "address"
        }
      ],
      "stateMutability": "view",
      "type": "function"
    },
    {
      "inputs": [],
      "name": "startBlock",
      "outputs": [
        {
          "internalType": "uint256",
          "name": "",
          "type": "uint256"
        }
      ],
      "stateMutability": "view",
      "type": "function"
    },
    {
      "inputs": [],
      "name": "totalStaked",
      "outputs": [
        {
          "internalType": "uint256",
          "name": "",
          "type": "uint256"
        }
      ],
      "stateMutability": "view",
      "type": "function"
    },
    {
      "inputs": [],
      "name": "treasury",
      "outputs": [
        {
          "internalType": "address",
          "name": "",
          "type": "address"
        }
      ],
      "stateMutability": "view",
      "type": "function"
    },
    {
      "inputs": [],
      "name": "updateRewardMultipliers",
      "outputs": [],
      "stateMutability": "nonpayable",
      "type": "function"
    },
    {
      "inputs": [
        {
          "internalType": "address",
          "name": "",
          "type": "address"
        }
      ],
      "name": "userInfo",
      "outputs": [
        {
          "internalType": "uint256",
          "name": "firstStakedBlockNumber",
          "type": "uint256"
        },
        {
          "internalType": "uint256",
          "name": "amountStaked",
          "type": "uint256"
        }
      ],
      "stateMutability": "view",
      "type": "function"
    },
    {
      "inputs": [
        {
          "internalType": "uint256",
          "name": "_tokenAmount",
          "type": "uint256"
        }
      ],
      "name": "withdraw",
      "outputs": [],
      "stateMutability": "nonpayable",
      "type": "function"
    },
    {
      "inputs": [
        {
          "internalType": "address",
          "name": "recipient",
          "type": "address"
        },
        {
          "internalType": "address",
          "name": "lpTokenContract",
          "type": "address"
        }
      ],
      "name": "withdrawLPRewards",
      "outputs": [],
      "stateMutability": "nonpayable",
      "type": "function"
    },
    {
      "inputs": [
        {
          "internalType": "uint256",
          "name": "amount",
          "type": "uint256"
        }
      ],
      "name": "withdrawStake",
      "outputs": [],
      "stateMutability": "nonpayable",
      "type": "function"
    },
    {
      "inputs": [
        {
          "internalType": "uint256",
          "name": "_tokenAmount",
          "type": "uint256"
        }
      ],
      "name": "stake",
      "outputs": [],
      "stateMutability": "nonpayable",
      "type": "function"
    }
  ],
  "bytecode": "0x60e06040523480156200001157600080fd5b5060405162002eab38038062002eab83398181016040526101408110156200003857600080fd5b8151602083015160408085015160608601805192519496939591949391820192846401000000008211156200006c57600080fd5b9083019060208201858111156200008257600080fd5b8251866020820283011164010000000082111715620000a057600080fd5b82525081516020918201928201910280838360005b83811015620000cf578181015183820152602001620000b5565b5050505090500160405260200180516040519392919084640100000000821115620000f957600080fd5b9083019060208201858111156200010f57600080fd5b82518660208202830111640100000000821117156200012d57600080fd5b82525081516020918201928201910280838360005b838110156200015c57818101518382015260200162000142565b505050509190910160409081526020830151908301516060840151608085015160a0909501516001600055929650909450929150818380868d8d8d8d8d8d8a620001a562000483565b8611620001e45760405162461bcd60e51b815260040180806020018281038252603681526020018062002e756036913960400191505060405180910390fd5b620001ee62000483565b85116200022d5760405162461bcd60e51b815260040180806020018281038252603181526020018062002dbb6031913960400191505060405180910390fd5b83518351146200026f5760405162461bcd60e51b815260040180806020018281038252604f81526020018062002dec604f913960600191505060405180910390fd5b81620002ad5760405162461bcd60e51b815260040180806020018281038252603081526020018062002d3c6030913960400191505060405180910390fd5b80620002eb5760405162461bcd60e51b815260040180806020018281038252603a81526020018062002e3b603a913960400191505060405180910390fd5b600480546001600160a01b0319166001600160a01b03891617905582516200031b90600290602086019062000487565b506005869055600685905583516200033b906003906020870190620004d7565b50600554600755600980546001600160a01b03191633179055600a829055600b81905560005b600354811015620003ab57600880546001818101835560009283527ff3f7a9fe364faab93b216da50a3214154f22a0a2b415b23a84c8169e8b636ee3909101919091550162000361565b50505050506001600160a01b03841615159250620003fe9150505760405162461bcd60e51b815260040180806020018281038252604f81526020018062002d6c604f913960600191505060405180910390fd5b60601b6001600160601b0319166080526001600160a01b038116620004555760405162461bcd60e51b815260040180806020018281038252602181526020018062002d1b6021913960400191505060405180910390fd5b6001600160601b0319606091821b811660a05292901b90911660c05250620005759950505050505050505050565b4390565b828054828255906000526020600020908101928215620004c5579160200282015b82811115620004c5578251825591602001919060010190620004a8565b50620004d39291506200053d565b5090565b8280548282559060005260206000209081019282156200052f579160200282015b828111156200052f57825182546001600160a01b0319166001600160a01b03909116178255602090920191600190910190620004f8565b50620004d392915062000554565b5b80821115620004d357600081556001016200053e565b5b80821115620004d35780546001600160a01b031916815560010162000555565b60805160601c60a05160601c60c05160601c612752620005c960003980610ae65280610bdb5250806109e25280610a505280610b7a5280610c4952806114ea525080610c25528061193552506127526000f3fe608060405234801561001057600080fd5b50600436106101fa5760003560e01c806361d027b31161011a578063a694fc3a116100ad578063dd2da2201161007c578063dd2da22014610644578063df9d777f1461064c578063e9fad8ee14610678578063f27d026414610680578063fb58cad1146106ac576101fa565b8063a694fc3a146105d6578063a9f8d181146105f3578063b6d0dcd8146105fb578063ce41530214610618576101fa565b8063817b1cd2116100e9578063817b1cd2146105545780639c3705c71461055c578063a1002a0f14610582578063a1292aea146105b0576101fa565b806361d027b31461050157806370a082311461050957806372f702f31461052f578063791f39cd14610537576101fa565b8063333609b61161019257806350afa34b1161016157806350afa34b146104b857806356409b81146104d557806357b4f01f146104dd5780635ebaf1db146104f9576101fa565b8063333609b61461047c57806345ef79af146104a057806348cd4cb1146104a85780634e71d92d146104b0576101fa565b806320e67c76116101ce57806320e67c761461028657806325d5971f1461043a5780632d9e88e1146104575780632e1a7d4d1461045f576101fa565b806284c927146101ff57806303d1dae014610237578063083c63231461023f5780631959a00214610247575b600080fd5b6102256004803603602081101561021557600080fd5b50356001600160a01b03166106c9565b60408051918252519081900360200190f35b61022561072f565b610225610735565b61026d6004803603602081101561025d57600080fd5b50356001600160a01b031661073b565b6040805192835260208301919091528051918290030190f35b6104386004803603608081101561029c57600080fd5b813591908101906040810160208201356401000000008111156102be57600080fd5b8201836020820111156102d057600080fd5b803590602001918460208302840111640100000000831117156102f257600080fd5b919080806020026020016040519081016040528093929190818152602001838360200280828437600092019190915250929594936020810193503591505064010000000081111561034257600080fd5b82018360208201111561035457600080fd5b8035906020019184602083028401116401000000008311171561037657600080fd5b91908080602002602001604051908101604052809392919081815260200183836020028082843760009201919091525092959493602081019350359150506401000000008111156103c657600080fd5b8201836020820111156103d857600080fd5b803590602001918460208302840111640100000000831117156103fa57600080fd5b919080806020026020016040519081016040528093929190818152602001838360200280828437600092019190915250929550610754945050505050565b005b6104386004803603602081101561045057600080fd5b50356109d7565b610225610a81565b6104386004803603602081101561047557600080fd5b5035610a87565b610484610ae4565b604080516001600160a01b039092168252519081900360200190f35b610225610b08565b610225610b0e565b610438610b14565b610438600480360360208110156104ce57600080fd5b5035610b6f565b610484610c00565b6104e5610c0f565b604080519115158252519081900360200190f35b610484610c23565b610484610c47565b6102256004803603602081101561051f57600080fd5b50356001600160a01b0316610c6b565b610484610c89565b6102256004803603602081101561054d57600080fd5b5035610c98565b610225610cb6565b6102256004803603602081101561057257600080fd5b50356001600160a01b0316610cbc565b6104386004803603604081101561059857600080fd5b506001600160a01b0381358116916020013516610cce565b610225600480360360208110156105c657600080fd5b50356001600160a01b0316610f37565b610438600480360360208110156105ec57600080fd5b5035610f9d565b610225610fa6565b6104846004803603602081101561061157600080fd5b5035610fac565b6102256004803603604081101561062e57600080fd5b506001600160a01b038135169060200135610fd3565b610438611057565b6102256004803603604081101561066257600080fd5b506001600160a01b0381351690602001356111fd565b6104386113b4565b6102256004803603604081101561069657600080fd5b506001600160a01b038135169060200135611408565b610225600480360360208110156106c257600080fd5b5035611477565b60006001600160a01b0382166107105760405162461bcd60e51b815260040180806020018281038252602d815260200180612427602d913960400191505060405180910390fd5b506001600160a01b03166000908152600c602052604090206002015490565b600b5481565b60065481565b600c602052600090815260409020805460019091015482565b6009546001600160a01b0316331461079d5760405162461bcd60e51b81526004018080602001828103825260298152602001806126f46029913960400191505060405180910390fd5b6107a5611484565b84116107e25760405162461bcd60e51b81526004018080602001828103825260278152602001806126a36027913960400191505060405180910390fd5b6006548410156108235760405162461bcd60e51b81526004018080602001828103825260358152602001806124a36035913960400191505060405180910390fd5b6003548351146108645760405162461bcd60e51b81526004018080602001828103825260348152602001806125c96034913960400191505060405180910390fd5b61086c611057565b60005b835181101561094c5760006003828154811061088757fe5b60009182526020909120015483516001600160a01b0390911691508390839081106108ae57fe5b60200260200101518483815181106108c257fe5b6020026020010151111561091657610916338484815181106108e057fe5b60200260200101518685815181106108f457fe5b602002602001015103836001600160a01b03166114889092919063ffffffff16565b84828151811061092257fe5b60200260200101516002838154811061093757fe5b6000918252602090912001555060010161086f565b50836006819055507f137c92cc7579cc4d6a2b109467cd475c205d1c136363ca854cc46d72f840d5de84846040518083815260200180602001828103825283818151815260200191508051906020019060200280838360005b838110156109bd5781810151838201526020016109a5565b50505050905001935050505060405180910390a150505050565b336001600160a01b037f00000000000000000000000000000000000000000000000000000000000000001614610a3e5760405162461bcd60e51b815260040180806020018281038252602881526020018061247b6028913960400191505060405180910390fd5b600454610a75906001600160a01b03167f000000000000000000000000000000000000000000000000000000000000000083611488565b610a7e816114df565b50565b60035490565b60026000541415610acd576040805162461bcd60e51b815260206004820152601f6024820152600080516020612407833981519152604482015290519081900360640190fd5b6002600055610adc813361157c565b506001600055565b7f000000000000000000000000000000000000000000000000000000000000000081565b600a5481565b60055481565b60026000541415610b5a576040805162461bcd60e51b815260206004820152601f6024820152600080516020612407833981519152604482015290519081900360640190fd5b6002600055610b683361177e565b6001600055565b336001600160a01b037f00000000000000000000000000000000000000000000000000000000000000001614610bd65760405162461bcd60e51b815260040180806020018281038252602881526020018061247b6028913960400191505060405180910390fd5b610a7e7f000000000000000000000000000000000000000000000000000000000000000082611897565b6009546001600160a01b031681565b6000600554610c1c611484565b1015905090565b7f000000000000000000000000000000000000000000000000000000000000000081565b7f000000000000000000000000000000000000000000000000000000000000000081565b6001600160a01b03166000908152600c602052604090206001015490565b6004546001600160a01b031681565b60028181548110610ca557fe5b600091825260209091200154905081565b60015481565b600d6020526000908152604090205481565b60026000541415610d14576040805162461bcd60e51b815260206004820152601f6024820152600080516020612407833981519152604482015290519081900360640190fd5b60026000556009546001600160a01b03163314610d625760405162461bcd60e51b81526004018080602001828103825260298152602001806126f46029913960400191505060405180910390fd5b6000816001600160a01b03166370a08231306040518263ffffffff1660e01b815260040180826001600160a01b0316815260200191505060206040518083038186803b158015610db157600080fd5b505afa158015610dc5573d6000803e3d6000fd5b505050506040513d6020811015610ddb57600080fd5b5051905080610e1b5760405162461bcd60e51b815260040180806020018281038252603c815260200180612667603c913960400191505060405180910390fd5b6004546001600160a01b0383811691161415610e685760405162461bcd60e51b81526004018080602001828103825260368152602001806124d86036913960400191505060405180910390fd5b60035460005b81811015610ee15760038181548110610e8357fe5b6000918252602090912001546001600160a01b0385811691161415610ed95760405162461bcd60e51b815260040180806020018281038252603581526020018061250e6035913960400191505060405180910390fd5b600101610e6e565b50610ef66001600160a01b0384168584611488565b6040516001600160a01b0385169083907fdf1b625465761dd1a4330a9b3a21d4943183f301036528a3544f8d891fdce2c290600090a3505060016000555050565b60006001600160a01b038216610f7e5760405162461bcd60e51b815260040180806020018281038252602d815260200180612543602d913960400191505060405180910390fd5b506001600160a01b03166000908152600c602052604090206003015490565b610a7e8161192a565b60075481565b60038181548110610fb957fe5b6000918252602090912001546001600160a01b0316905081565b60006001600160a01b03831661101a5760405162461bcd60e51b81526004018080602001828103825260278152602001806126406027913960400191505060405180910390fd5b6001600160a01b0383166000908152600c602052604090206003810180548490811061104257fe5b90600052602060002001549150505b92915050565b6000611061611484565b9050600754811161107257506111fb565b6000600654821061108557600654611087565b815b60075490915081038061109c575050506111fb565b6001546110ad5750600755506111fb565b60035460005b818110156111f3576000600382815481106110ca57fe5b600091825260209182902001546040805163313ce56760e01b815290516001600160a01b039092169263313ce56792600480840193829003018186803b15801561111357600080fd5b505afa158015611127573d6000803e3d6000fd5b505050506040513d602081101561113d57600080fd5b50516002805460ff9092169250600a83900a9160009161117b918690811061116157fe5b9060005260206000200154876119b090919063ffffffff16565b9050600061119e60015461119885856119b090919063ffffffff16565b90611a10565b90506111ca81600887815481106111b157fe5b9060005260206000200154611a7790919063ffffffff16565b600886815481106111d757fe5b6000918252602090912001555050600190920191506110b39050565b505050600755505b565b600080611208611484565b90506000600654821061121d5760065461121f565b815b9050600061123860075483611ad190919063ffffffff16565b905060006003868154811061124957fe5b600091825260209182902001546040805163313ce56760e01b815290516001600160a01b039092169263313ce56792600480840193829003018186803b15801561129257600080fd5b505afa1580156112a6573d6000803e3d6000fd5b505050506040513d60208110156112bc57600080fd5b50516002805460ff9092169250600a83900a916000916112fa918a9081106112e057fe5b9060005260206000200154856119b090919063ffffffff16565b9050600061131760015461119885856119b090919063ffffffff16565b9050600061132c8260088c815481106111b157fe5b6001600160a01b038c166000908152600c6020526040812060018101549293509161135d90879061119890866119b0565b9050600061138d836002018e8154811061137357fe5b906000526020600020015483611ad190919063ffffffff16565b90506113a281846003018f815481106111b157fe5b9e9d5050505050505050505050505050565b600260005414156113fa576040805162461bcd60e51b815260206004820152601f6024820152600080516020612407833981519152604482015290519081900360640190fd5b6002600055610b6833611b2e565b60006001600160a01b03831661144f5760405162461bcd60e51b81526004018080602001828103825260278152602001806124546027913960400191505060405180910390fd5b6001600160a01b0383166000908152600c602052604090206002810180548490811061104257fe5b60088181548110610ca557fe5b4390565b604080516001600160a01b038416602482015260448082018490528251808303909101815260649091019091526020810180516001600160e01b031663a9059cbb60e01b1790526114da908490611ba4565b505050565b336001600160a01b037f000000000000000000000000000000000000000000000000000000000000000016146115465760405162461bcd60e51b815260040180806020018281038252602881526020018061247b6028913960400191505060405180910390fd5b6040805182815290517fa78b9f12a7da0df7ced737c5f83d0c05723bb5f43aab37e233b86271041484729181900360200190a150565b600082116115d1576040805162461bcd60e51b815260206004820152601b60248201527f57697468647261773a3a43616e6e6f7420776974686472617720300000000000604482015290519081900360640190fd5b6001600160a01b0381166000908152600c602052604090206115f1611057565b6115fa82611d5c565b60018101546116099084611ad1565b6001808301919091555461161d9084611ad1565b60015560035460005b818110156117215760006003828154811061163d57fe5b600091825260209182902001546040805163313ce56760e01b815290516001600160a01b039092169263313ce56792600480840193829003018186803b15801561168657600080fd5b505afa15801561169a573d6000803e3d6000fd5b505050506040513d60208110156116b057600080fd5b50516008805460ff9092169250600a83900a916000916116f891849161119891889081106116da57fe5b906000526020600020015489600101546119b090919063ffffffff16565b90508086600201858154811061170a57fe5b600091825260209091200155505050600101611626565b50600454611739906001600160a01b03168486611488565b6040805185815290516001600160a01b038516917f7084f5476618d8e60b11ef0d7d3f06914655adb8793e28ff7f018d4c76d505d5919081900360200190a250505050565b6001600160a01b0381166000908152600c6020526040902061179e611057565b6117a782611d5c565b60035460005b818110156118915760008360030182815481106117c657fe5b9060005260206000200154905060008460030183815481106117e457fe5b906000526020600020018190555061182085826003858154811061180457fe5b6000918252602090912001546001600160a01b03169190611488565b846001600160a01b03167f7e6632ca16a0ac6cf28448500b1a17d96c8b8163ad4c4a9b44ef5386cc02779e826003858154811061185957fe5b60009182526020918290200154604080519384526001600160a01b03909116918301919091528051918290030190a2506001016117ad565b50505050565b6118ac6001600160a01b038316333084611db5565b6001600160a01b0382166000908152600d60205260409020546118cf9082611a77565b6001600160a01b0383166000818152600d6020908152604091829020939093558051918252918101839052815133927f3ca3e2b750b23b0fb33120646ef2418edd82a6576afaa67069cfb626f08ca7dc928290030190a25050565b336001600160a01b037f000000000000000000000000000000000000000000000000000000000000000016146119a7576040805162461bcd60e51b815260206004820152601c60248201527f6f6e6c795374616b65723a3a696e636f7272656374207374616b657200000000604482015290519081900360640190fd5b610a7e81611e0f565b6000826119bf57506000611051565b828202828482816119cc57fe5b0414611a095760405162461bcd60e51b815260040180806020018281038252602181526020018061261f6021913960400191505060405180910390fd5b9392505050565b6000808211611a66576040805162461bcd60e51b815260206004820152601a60248201527f536166654d6174683a206469766973696f6e206279207a65726f000000000000604482015290519081900360640190fd5b818381611a6f57fe5b049392505050565b600082820183811015611a09576040805162461bcd60e51b815260206004820152601b60248201527f536166654d6174683a206164646974696f6e206f766572666c6f770000000000604482015290519081900360640190fd5b600082821115611b28576040805162461bcd60e51b815260206004820152601e60248201527f536166654d6174683a207375627472616374696f6e206f766572666c6f770000604482015290519081900360640190fd5b50900390565b6001600160a01b0381166000908152600c60205260409020611b4f8261177e565b611b5d81600101548361157c565b600181015460408051918252516001600160a01b038416917f920bb94eb3842a728db98228c375ff6b00c5bc5a54fac6736155517a0a20a61a919081900360200190a25050565b611bb6826001600160a01b0316611e66565b611c07576040805162461bcd60e51b815260206004820152601f60248201527f5361666545524332303a2063616c6c20746f206e6f6e2d636f6e747261637400604482015290519081900360640190fd5b60006060836001600160a01b0316836040518082805190602001908083835b60208310611c455780518252601f199092019160209182019101611c26565b6001836020036101000a0380198251168184511680821785525050505050509050019150506000604051808303816000865af19150503d8060008114611ca7576040519150601f19603f3d011682016040523d82523d6000602084013e611cac565b606091505b509150915081611d03576040805162461bcd60e51b815260206004820181905260248201527f5361666545524332303a206c6f772d6c6576656c2063616c6c206661696c6564604482015290519081900360640190fd5b80511561189157808060200190516020811015611d1f57600080fd5b50516118915760405162461bcd60e51b815260040180806020018281038252602a8152602001806126ca602a913960400191505060405180910390fd5b6001600160a01b0381166000908152600c60205260409020611d7d82611e6c565b611d8682611ecc565b6001810154611d955750610a7e565b60035460005b8181101561189157611dad8482611f2c565b600101611d9b565b604080516001600160a01b0380861660248301528416604482015260648082018490528251808303909101815260849091019091526020810180516001600160e01b03166323b872dd60e01b179052611891908590611ba4565b60026000541415611e55576040805162461bcd60e51b815260206004820152601f6024820152600080516020612407833981519152604482015290519081900360640190fd5b6002600055610adc81336001612084565b3b151590565b6001600160a01b0381166000908152600c6020526040902060035460028201541415611e985750610a7e565b60035460028201545b8181101561189157600283018054600181810183556000928352602083209091019190915501611ea1565b6001600160a01b0381166000908152600c6020526040902060038054908201541415611ef85750610a7e565b60038054908201545b8181101561189157600383018054600181810183556000928352602083209091019190915501611f01565b6001600160a01b0382166000908152600c602052604081206003805491929184908110611f5557fe5b600091825260209182902001546040805163313ce56760e01b815290516001600160a01b039092169263313ce56792600480840193829003018186803b158015611f9e57600080fd5b505afa158015611fb2573d6000803e3d6000fd5b505050506040513d6020811015611fc857600080fd5b50516008805460ff9092169250600a83900a916000916120109184916111989189908110611ff257fe5b906000526020600020015487600101546119b090919063ffffffff16565b9050600061202685600201878154811061137357fe5b9050801561207b57612041818660030188815481106111b157fe5b85600301878154811061205057fe5b90600052602060002001819055508185600201878154811061206e57fe5b6000918252602090912001555b50505050505050565b600061208e611484565b905060055481116120d05760405162461bcd60e51b81526004018080602001828103825260228152602001806125fd6022913960400191505060405180910390fd5b600654811115612127576040805162461bcd60e51b815260206004820152601b60248201527f5374616b653a3a5374616b696e67206861732066696e69736865640000000000604482015290519081900360640190fd5b6001600160a01b0383166000908152600c60205260409020600a5460018201548592879290916121579084611a77565b11156121945760405162461bcd60e51b81526004018080602001828103825260288152602001806125a16028913960400191505060405180910390fd5b600b546001546121a49084611a77565b11156121e15760405162461bcd60e51b81526004018080602001828103825260318152602001806125706031913960400191505060405180910390fd5b6000871161222e576040805162461bcd60e51b815260206004820152601560248201527405374616b653a3a43616e6e6f74207374616b65203605c1b604482015290519081900360640190fd5b6001600160a01b0386166000908152600c60205260409020600181015461225857612258876123e1565b612260611057565b61226987611d5c565b60018101546122789089611a77565b6001808301919091555461228c9089611a77565b60015560035460005b81811015612372576000600382815481106122ac57fe5b600091825260209182902001546040805163313ce56760e01b815290516001600160a01b039092169263313ce56792600480840193829003018186803b1580156122f557600080fd5b505afa158015612309573d6000803e3d6000fd5b505050506040513d602081101561231f57600080fd5b50516008805460ff9092169250600a83900a9160009161234991849161119891889081106116da57fe5b90508086600201858154811061235b57fe5b600091825260209091200155505050600101612295565b50612397876123815733612383565b885b6004546001600160a01b031690308c611db5565b604080518a815290516001600160a01b038a16917f9e71bc8eea02a63969f509818f2dafb9254532904319f9dbda79b67bd34a5f3d919081900360200190a2505050505050505050565b6001600160a01b0381166000908152600c60205260409020612401611484565b90555056fe5265656e7472616e637947756172643a207265656e7472616e742063616c6c0047657455736572526577617264446562744c656e6774683a3a496e76616c69642075736572206164647265737347657455736572526577617264446562743a3a496e76616c6964207573657220616464726573736f6e6c7954726561737572793a3a4e6f742063616c6c656420627920746865207472656173757279457874656e643a3a456e6420626c6f636b206d757374206265206166746572207468652063757272656e7420656e6420626c6f636b57697468647261774c50526577617264733a3a2063616e6e6f742077697468647261772066726f6d20746865204c5020746f6b656e7357697468647261774c50526577617264733a3a43616e6e6f742077697468647261772066726f6d20746f6b656e207265776172647347657455736572546f6b656e734f7765644c656e6774683a3a496e76616c6964207573657220616464726573736f6e6c79556e6465725374616b654c696d69743a3a436f6e7472616374205374616b65206c696d697420726561636865646f6e6c79556e6465725374616b654c696d69743a3a5374616b65206c696d69742072656163686564457874656e643a3a5265776172647320616d6f756e7473206c656e677468206973206c657373207468616e2065787065637465645374616b653a3a5374616b696e6720686173206e6f74207965742073746172746564536166654d6174683a206d756c7469706c69636174696f6e206f766572666c6f77476574557365724f776564546f6b656e733a3a496e76616c69642075736572206164647265737357697468647261774c50526577617264733a3a546865726520617265206e6f20726577617264732066726f6d206c697175696469747920706f6f6c73457874656e643a3a456e6420626c6f636b206d75737420626520696e20746865206675747572655361666545524332303a204552433230206f7065726174696f6e20646964206e6f74207375636365656443616c6c6572206973206e6f742052657761726473506f6f6c466163746f727920636f6e7472616374a2646970667358221220fb37df1fe8d0dc462486d06d82a125e9eb14cb812b376182675234ab9e9196cf64736f6c634300060c003373657454726561737572793a3a54726561737572792063616e6e6f742062652030436f6e7374727563746f723a3a5374616b65206c696d6974206e6565647320746f206265206d6f7265207468616e20304f6e655374616b6572466561747572653a3a73657453636f6e7374727563746f7274616b6572206e6577207374616b657220616464726573732063616e2774206265207a65726f2061646472657373436f6e7374727563746f723a3a54686520656e6420626c6f636b206d75737420626520696e20746865206675747572652e436f6e7374727563746f723a3a526577617264732070657220626c6f636b20616e64207265776172647320746f6b656e73206d7573742062652077697468207468652073616d65206c656e6774682e436f6e7374727563746f723a3a20436f6e7472616374205374616b65206c696d6974206e6565647320746f206265206d6f7265207468616e2030436f6e7374727563746f723a3a546865207374617274696e6720626c6f636b206d75737420626520696e20746865206675747572652e",
  "source": "// SPDX-License-Identifier: MIT\n\npragma solidity 0.6.12;\n\nimport \"./../RewardsPoolBase.sol\";\nimport \"./../pool-features/OneStakerFeature.sol\";\nimport \"./../pool-features/TreasuryOperatedFeature.sol\";\n\ncontract CompoundingRewardsPool is RewardsPoolBase, OneStakerFeature, TreasuryOperatedFeature {\n\tconstructor(\n\t\tIERC20Detailed _stakingToken,\n\t\tuint256 _startBlock,\n\t\tuint256 _endBlock,\n\t\taddress[] memory _rewardsTokens,\n\t\tuint256[] memory _rewardPerBlock,\n\t\tuint256 _stakeLimit,\n\t\taddress _staker,\n\t\taddress _treasury,\n\t\taddress _externalRewardToken,\n\t\tuint256 _contractStakeLimit\n\t) public RewardsPoolBase(_stakingToken, _startBlock, _endBlock, _rewardsTokens, _rewardPerBlock, _stakeLimit, _contractStakeLimit) OneStakerFeature(_staker) TreasuryOperatedFeature(_externalRewardToken, _treasury) {\n\t}\n\n\tfunction stake(uint256 _tokenAmount) public override(RewardsPoolBase, OneStakerFeature) {\n\t\tOneStakerFeature.stake(_tokenAmount);\n\t}\n}",
  "sourcePath": "/Users/martindobrev/Code/custom-token/contracts/V2/CompoundingRewardsPool.sol",
  "compiler": {
    "name": "solc",
    "version": "0.6.12+commit.27d51765.Emscripten.clang",
    "optimizer": true,
    "runs": 200
  },
  "schemaVersion": "2.3.5",
  "updatedAt": "2022-02-16T15:12:31.197Z"
}