{
  "contractName": "LimitedAutoStake",
  "abi": [
    {
      "inputs": [
        {
          "internalType": "address",
          "name": "token",
          "type": "address"
        },
        {
          "internalType": "uint256",
          "name": "_throttleRoundBlocks",
          "type": "uint256"
        },
        {
          "internalType": "uint256",
          "name": "_throttleRoundCap",
          "type": "uint256"
        },
        {
          "internalType": "uint256",
          "name": "stakeEnd",
          "type": "uint256"
        },
        {
          "internalType": "uint256",
          "name": "_stakeLimit",
          "type": "uint256"
        }
      ],
      "stateMutability": "nonpayable",
      "type": "constructor"
    },
    {
      "anonymous": false,
      "inputs": [
        {
          "indexed": false,
          "internalType": "address",
          "name": "user",
          "type": "address"
        },
        {
          "indexed": false,
          "internalType": "uint256",
          "name": "stake",
          "type": "uint256"
        }
      ],
      "name": "ExitCompleted",
      "type": "event"
    },
    {
      "anonymous": false,
      "inputs": [
        {
          "indexed": false,
          "internalType": "address",
          "name": "user",
          "type": "address"
        },
        {
          "indexed": false,
          "internalType": "uint256",
          "name": "exitBlock",
          "type": "uint256"
        }
      ],
      "name": "ExitRequested",
      "type": "event"
    },
    {
      "anonymous": false,
      "inputs": [
        {
          "indexed": true,
          "internalType": "address",
          "name": "previousOwner",
          "type": "address"
        },
        {
          "indexed": true,
          "internalType": "address",
          "name": "newOwner",
          "type": "address"
        }
      ],
      "name": "OwnershipTransferred",
      "type": "event"
    },
    {
      "anonymous": false,
      "inputs": [
        {
          "indexed": true,
          "internalType": "address",
          "name": "user",
          "type": "address"
        },
        {
          "indexed": false,
          "internalType": "uint256",
          "name": "amount",
          "type": "uint256"
        },
        {
          "indexed": false,
          "internalType": "uint256",
          "name": "sharesIssued",
          "type": "uint256"
        },
        {
          "indexed": false,
          "internalType": "uint256",
          "name": "oldShareVaule",
          "type": "uint256"
        },
        {
          "indexed": false,
          "internalType": "uint256",
          "name": "newShareValue",
          "type": "uint256"
        },
        {
          "indexed": false,
          "internalType": "uint256",
          "name": "balanceOf",
          "type": "uint256"
        }
      ],
      "name": "Staked",
      "type": "event"
    },
    {
      "inputs": [
        {
          "internalType": "address",
          "name": "who",
          "type": "address"
        }
      ],
      "name": "balanceOf",
      "outputs": [
        {
          "internalType": "uint256",
          "name": "",
          "type": "uint256"
        }
      ],
      "stateMutability": "view",
      "type": "function"
    },
    {
      "inputs": [],
      "name": "completeExit",
      "outputs": [],
      "stateMutability": "nonpayable",
      "type": "function"
    },
    {
      "inputs": [],
      "name": "exit",
      "outputs": [],
      "stateMutability": "nonpayable",
      "type": "function"
    },
    {
      "inputs": [
        {
          "internalType": "address",
          "name": "",
          "type": "address"
        }
      ],
      "name": "exitInfo",
      "outputs": [
        {
          "internalType": "uint256",
          "name": "exitBlock",
          "type": "uint256"
        },
        {
          "internalType": "uint256",
          "name": "exitStake",
          "type": "uint256"
        }
      ],
      "stateMutability": "view",
      "type": "function"
    },
    {
      "inputs": [],
      "name": "exitStake",
      "outputs": [
        {
          "internalType": "uint256",
          "name": "",
          "type": "uint256"
        }
      ],
      "stateMutability": "view",
      "type": "function"
    },
    {
      "inputs": [],
      "name": "factory",
      "outputs": [
        {
          "internalType": "address",
          "name": "",
          "type": "address"
        }
      ],
      "stateMutability": "view",
      "type": "function"
    },
    {
      "inputs": [
        {
          "internalType": "uint256",
          "name": "tokenIndex",
          "type": "uint256"
        }
      ],
      "name": "getPendingReward",
      "outputs": [
        {
          "internalType": "uint256",
          "name": "",
          "type": "uint256"
        }
      ],
      "stateMutability": "view",
      "type": "function"
    },
    {
      "inputs": [],
      "name": "lockEndBlock",
      "outputs": [
        {
          "internalType": "uint256",
          "name": "",
          "type": "uint256"
        }
      ],
      "stateMutability": "view",
      "type": "function"
    },
    {
      "inputs": [],
      "name": "nextAvailableExitBlock",
      "outputs": [
        {
          "internalType": "uint256",
          "name": "",
          "type": "uint256"
        }
      ],
      "stateMutability": "view",
      "type": "function"
    },
    {
      "inputs": [],
      "name": "nextAvailableRoundExitVolume",
      "outputs": [
        {
          "internalType": "uint256",
          "name": "",
          "type": "uint256"
        }
      ],
      "stateMutability": "view",
      "type": "function"
    },
    {
      "inputs": [],
      "name": "owner",
      "outputs": [
        {
          "internalType": "address",
          "name": "",
          "type": "address"
        }
      ],
      "stateMutability": "view",
      "type": "function"
    },
    {
      "inputs": [],
      "name": "refreshAutoStake",
      "outputs": [],
      "stateMutability": "nonpayable",
      "type": "function"
    },
    {
      "inputs": [],
      "name": "renounceOwnership",
      "outputs": [],
      "stateMutability": "nonpayable",
      "type": "function"
    },
    {
      "inputs": [],
      "name": "rewardPool",
      "outputs": [
        {
          "internalType": "contract IRewardsPoolBase",
          "name": "",
          "type": "address"
        }
      ],
      "stateMutability": "view",
      "type": "function"
    },
    {
      "inputs": [
        {
          "internalType": "address",
          "name": "pool",
          "type": "address"
        }
      ],
      "name": "setPool",
      "outputs": [],
      "stateMutability": "nonpayable",
      "type": "function"
    },
    {
      "inputs": [
        {
          "internalType": "address",
          "name": "",
          "type": "address"
        }
      ],
      "name": "share",
      "outputs": [
        {
          "internalType": "uint256",
          "name": "",
          "type": "uint256"
        }
      ],
      "stateMutability": "view",
      "type": "function"
    },
    {
      "inputs": [],
      "name": "stakeLimit",
      "outputs": [
        {
          "internalType": "uint256",
          "name": "",
          "type": "uint256"
        }
      ],
      "stateMutability": "view",
      "type": "function"
    },
    {
      "inputs": [],
      "name": "stakingToken",
      "outputs": [
        {
          "internalType": "contract IERC20Detailed",
          "name": "",
          "type": "address"
        }
      ],
      "stateMutability": "view",
      "type": "function"
    },
    {
      "inputs": [],
      "name": "throttleRoundBlocks",
      "outputs": [
        {
          "internalType": "uint256",
          "name": "",
          "type": "uint256"
        }
      ],
      "stateMutability": "view",
      "type": "function"
    },
    {
      "inputs": [],
      "name": "throttleRoundCap",
      "outputs": [
        {
          "internalType": "uint256",
          "name": "",
          "type": "uint256"
        }
      ],
      "stateMutability": "view",
      "type": "function"
    },
    {
      "inputs": [],
      "name": "totalShares",
      "outputs": [
        {
          "internalType": "uint256",
          "name": "",
          "type": "uint256"
        }
      ],
      "stateMutability": "view",
      "type": "function"
    },
    {
      "inputs": [],
      "name": "totalValue",
      "outputs": [
        {
          "internalType": "uint256",
          "name": "",
          "type": "uint256"
        }
      ],
      "stateMutability": "view",
      "type": "function"
    },
    {
      "inputs": [
        {
          "internalType": "address",
          "name": "newOwner",
          "type": "address"
        }
      ],
      "name": "transferOwnership",
      "outputs": [],
      "stateMutability": "nonpayable",
      "type": "function"
    },
    {
      "inputs": [],
      "name": "unit",
      "outputs": [
        {
          "internalType": "uint256",
          "name": "",
          "type": "uint256"
        }
      ],
      "stateMutability": "view",
      "type": "function"
    },
    {
      "inputs": [],
      "name": "valuePerShare",
      "outputs": [
        {
          "internalType": "uint256",
          "name": "",
          "type": "uint256"
        }
      ],
      "stateMutability": "view",
      "type": "function"
    },
    {
      "inputs": [
        {
          "internalType": "uint256",
          "name": "amount",
          "type": "uint256"
        }
      ],
      "name": "stake",
      "outputs": [],
      "stateMutability": "nonpayable",
      "type": "function"
    }
  ],
  "bytecode": "0x610100604052670de0b6b3a76400006008553480156200001e57600080fd5b5060405162001df438038062001df4833981810160405260a08110156200004457600080fd5b5080516020820151604083015160608401516080909401516001600055929391929091908484848480438111620000ad5760405162461bcd60e51b815260040180806020018281038252602e81526020018062001d8d602e913960400191505060405180910390fd5b6080526000620000bc62000184565b600680546001600160a01b0319166001600160a01b038316908117909155604051919250906000907f8be0079c531659141344cd1fd0a4f28419497f9722a3daafe3b4186f6b6457e0908290a35033606090811b60c05284901b6001600160601b03191660a0526200013083838362000188565b505050508060001415620001765760405162461bcd60e51b815260040180806020018281038252603981526020018062001dbb6039913960400191505060405180910390fd5b60e05250620002e492505050565b3390565b60008311620001c95760405162461bcd60e51b815260040180806020018281038252603681526020018062001d576036913960400191505060405180910390fd5b600082116200020a5760405162461bcd60e51b815260040180806020018281038252603381526020018062001cf36033913960400191505060405180910390fd5b6003541580156200021b5750600454155b620002585760405162461bcd60e51b815260040180806020018281038252603181526020018062001d266031913960400191505060405180910390fd5b600383905560048290556200027a818462000282602090811b62000ace17901c565b600155505050565b600082820183811015620002dd576040805162461bcd60e51b815260206004820152601b60248201527f536166654d6174683a206164646974696f6e206f766572666c6f770000000000604482015290519081900360640190fd5b9392505050565b60805160a05160601c60c05160601c60e0516119a16200035260003980610486528061068152508061083f5250806105f652806107e85280610db85280610f785280610ff9528061107852806110b352806112b452508061061a52806106f8528061086952506119a16000f3fe608060405234801561001057600080fd5b506004361061018e5760003560e01c80638587edbb116100de578063b540652e11610097578063d4c3eea011610071578063d4c3eea01461032e578063e9fad8ee14610336578063ee483cdf1461033e578063f2fde38b146103465761018e565b8063b540652e14610316578063c0a239e31461031e578063c45a0155146103265761018e565b80638587edbb1461029a5780638da5cb5b146102a2578063907af6c0146102aa57806394f66417146102b2578063a694fc3a146102f1578063b01eb6601461030e5761018e565b80634ff3306f1161014b57806370a082311161012557806370a0823114610247578063715018a61461026d5780637211bbc91461027557806372f702f3146102925761018e565b80634ff3306f1461021357806366666aa91461021b5780636eb957df1461023f5761018e565b80631877bb5c146101935780631c1f9cc0146101cb5780633882f742146101d35780633a98ef39146101db5780634437152a146101e357806345ef79af1461020b575b600080fd5b6101b9600480360360208110156101a957600080fd5b50356001600160a01b031661036c565b60408051918252519081900360200190f35b6101b961037e565b6101b9610384565b6101b961038a565b610209600480360360208110156101f957600080fd5b50356001600160a01b0316610390565b005b6101b9610484565b6101b96104a8565b6102236104ae565b604080516001600160a01b039092168252519081900360200190f35b6101b96104bd565b6101b96004803603602081101561025d57600080fd5b50356001600160a01b03166104c3565b610209610504565b6101b96004803603602081101561028b57600080fd5b50356105c2565b6102236105f4565b6101b9610618565b61022361063c565b6101b961064b565b6102d8600480360360208110156102c857600080fd5b50356001600160a01b0316610657565b6040805192835260208301919091528051918290030190f35b6102096004803603602081101561030757600080fd5b5035610670565b6102096106f6565b61020961081d565b6101b9610837565b61022361083d565b6101b9610861565b610209610867565b6101b96109b3565b6102096004803603602081101561035c57600080fd5b50356001600160a01b03166109b9565b600c6020526000908152604090205481565b60015481565b600b5481565b60095481565b610398610b31565b6001600160a01b03166103a961063c565b6001600160a01b031614610404576040805162461bcd60e51b815260206004820181905260248201527f4f776e61626c653a2063616c6c6572206973206e6f7420746865206f776e6572604482015290519081900360640190fd5b6007546001600160a01b031615610462576040805162461bcd60e51b815260206004820152601760248201527f52657761726420706f6f6c20616c726561647920736574000000000000000000604482015290519081900360640190fd5b600780546001600160a01b0319166001600160a01b0392909216919091179055565b7f000000000000000000000000000000000000000000000000000000000000000081565b60045481565b6007546001600160a01b031681565b60035481565b6001600160a01b0381166000908152600c60205260408120546008546104fc91670de0b6b3a7640000916104f691610b35565b90610b8e565b90505b919050565b61050c610b31565b6001600160a01b031661051d61063c565b6001600160a01b031614610578576040805162461bcd60e51b815260206004820181905260248201527f4f776e61626c653a2063616c6c6572206973206e6f7420746865206f776e6572604482015290519081900360640190fd5b6006546040516000916001600160a01b0316907f8be0079c531659141344cd1fd0a4f28419497f9722a3daafe3b4186f6b6457e0908390a3600680546001600160a01b0319169055565b336000908152600560205260408120600281018054849081106105e157fe5b9060005260206000200154915050919050565b7f000000000000000000000000000000000000000000000000000000000000000081565b7f000000000000000000000000000000000000000000000000000000000000000081565b6006546001600160a01b031690565b670de0b6b3a764000081565b6005602052600090815260409020805460019091015482565b3381600061067d836104c3565b90507f00000000000000000000000000000000000000000000000000000000000000006106aa8284610ace565b11156106e75760405162461bcd60e51b81526004018080602001828103825260288152602001806118c36028913960400191505060405180910390fd5b6106f084610bf5565b50505050565b7f000000000000000000000000000000000000000000000000000000000000000043116107545760405162461bcd60e51b81526004018080602001828103825260428152602001806118816042913960600191505060405180910390fd5b600260005414156107ac576040805162461bcd60e51b815260206004820152601f60248201527f5265656e7472616e637947756172643a207265656e7472616e742063616c6c00604482015290519081900360640190fd5b600260009081553381526005602052604090206001810154600b546107d091610c04565b600b5560408051600081526020810190915261080d907f000000000000000000000000000000000000000000000000000000000000000090610c61565b610815610d93565b506001600055565b610825610e78565b61082d610d93565b610835610f58565b565b60085481565b7f000000000000000000000000000000000000000000000000000000000000000081565b600a5481565b7f000000000000000000000000000000000000000000000000000000000000000043116108c55760405162461bcd60e51b81526004018080602001828103825260428152602001806118816042913960600191505060405180910390fd5b6002600054141561091d576040805162461bcd60e51b815260206004820152601f60248201527f5265656e7472616e637947756172643a207265656e7472616e742063616c6c00604482015290519081900360640190fd5b600260005561092a610e78565b610932610d93565b600061093d336104c3565b90508061094a57506109ac565b60408051600080825260208201909252610965918391611144565b336000908152600c602052604090205460095461098191610c04565b600955336000908152600c6020526040812055600b546109a19082610ace565b600b55610815610d93565b6001600055565b60025481565b6109c1610b31565b6001600160a01b03166109d261063c565b6001600160a01b031614610a2d576040805162461bcd60e51b815260206004820181905260248201527f4f776e61626c653a2063616c6c6572206973206e6f7420746865206f776e6572604482015290519081900360640190fd5b6001600160a01b038116610a725760405162461bcd60e51b81526004018080602001828103825260268152602001806118356026913960400191505060405180910390fd5b6006546040516001600160a01b038084169216907f8be0079c531659141344cd1fd0a4f28419497f9722a3daafe3b4186f6b6457e090600090a3600680546001600160a01b0319166001600160a01b0392909216919091179055565b600082820183811015610b28576040805162461bcd60e51b815260206004820152601b60248201527f536166654d6174683a206164646974696f6e206f766572666c6f770000000000604482015290519081900360640190fd5b90505b92915050565b3390565b600082610b4457506000610b2b565b82820282848281610b5157fe5b0414610b285760405162461bcd60e51b81526004018080602001828103825260218152602001806118eb6021913960400191505060405180910390fd5b6000808211610be4576040805162461bcd60e51b815260206004820152601a60248201527f536166654d6174683a206469766973696f6e206279207a65726f000000000000604482015290519081900360640190fd5b818381610bed57fe5b049392505050565b610c018133600161122d565b50565b600082821115610c5b576040805162461bcd60e51b815260206004820152601e60248201527f536166654d6174683a207375627472616374696f6e206f766572666c6f770000604482015290519081900360640190fd5b50900390565b33600090815260056020526040902080544311610caf5760405162461bcd60e51b815260040180806020018281038252602681526020018061185b6026913960400191505060405180910390fd5b6001810180546000909155610cce6001600160a01b03851633836113ca565b60005b8351811015610d51576000836002018281548110610ceb57fe5b906000526020600020015490506000846002018381548110610d0957fe5b9060005260206000200181905550610d483382878581518110610d2857fe5b60200260200101516001600160a01b03166113ca9092919063ffffffff16565b50600101610cd1565b50604080513381526020810183905281517f548aea05c5e3b6ba34acdf7b3ad06c7bb667ed71d1761e2c177167be0a9eb059929181900390910190a150505050565b600954610db0576000600a55670de0b6b3a7640000600855610835565b610e55600b547f00000000000000000000000000000000000000000000000000000000000000006001600160a01b03166370a08231306040518263ffffffff1660e01b815260040180826001600160a01b0316815260200191505060206040518083038186803b158015610e2357600080fd5b505afa158015610e37573d6000803e3d6000fd5b505050506040513d6020811015610e4d57600080fd5b505190610c04565b600a819055600954610e73916104f690670de0b6b3a7640000610b35565b600855565b600754604080516370a0823160e01b815230600482015290516001600160a01b03909216916370a0823191602480820192602092909190829003018186803b158015610ec357600080fd5b505afa158015610ed7573d6000803e3d6000fd5b505050506040513d6020811015610eed57600080fd5b50511561083557600760009054906101000a90046001600160a01b03166001600160a01b031663e9fad8ee6040518163ffffffff1660e01b8152600401600060405180830381600087803b158015610f4457600080fd5b505af11580156106f0573d6000803e3d6000fd5b604080516370a0823160e01b815230600482015290516001600160a01b037f000000000000000000000000000000000000000000000000000000000000000016916370a08231916024808301926020929190829003018186803b158015610fbe57600080fd5b505afa158015610fd2573d6000803e3d6000fd5b505050506040513d6020811015610fe857600080fd5b505115610835576000611064600b547f00000000000000000000000000000000000000000000000000000000000000006001600160a01b03166370a08231306040518263ffffffff1660e01b815260040180826001600160a01b0316815260200191505060206040518083038186803b158015610e2357600080fd5b6007549091506110a2906001600160a01b037f0000000000000000000000000000000000000000000000000000000000000000811691166000611421565b6007546110dc906001600160a01b037f00000000000000000000000000000000000000000000000000000000000000008116911683611421565b6007546040805163534a7e1d60e11b81526004810184905290516001600160a01b039092169163a694fc3a9160248082019260009290919082900301818387803b15801561112957600080fd5b505af115801561113d573d6000803e3d6000fd5b5050505050565b61114e3383611534565b33600090815260056020526040902061116684611593565b815560018101546111779085610ace565b600182015560005b838110156111e9576111c683828151811061119657fe5b60200260200101518360020183815481106111ad57fe5b9060005260206000200154610ace90919063ffffffff16565b8260020182815481106111d557fe5b60009182526020909120015560010161117f565b50805460408051338152602081019290925280517fd9217a461a0f7f84171a8866118c3d92e943ba7c1ba89b819371f729b5cabcbc9281900390910190a150505050565b60026000541415611285576040805162461bcd60e51b815260206004820152601f60248201527f5265656e7472616e637947756172643a207265656e7472616e742063616c6c00604482015290519081900360640190fd5b6002600055611292610e78565b61129a610d93565b6112dc816112a857336112aa565b825b6001600160a01b037f000000000000000000000000000000000000000000000000000000000000000016903086611620565b6008546000906112f8906104f686670de0b6b3a7640000610b35565b6009549091506113089082610ace565b6009556001600160a01b0383166000908152600c602052604090205461132e9082610ace565b6001600160a01b0384166000908152600c6020526040902055600854611352610d93565b836001600160a01b03167f6381ea17a5324d29cc015352644672ead5185c1c61a0d3a521eda97e35cec97e86848460085461138c8a6104c3565b6040805195865260208601949094528484019290925260608401526080830152519081900360a00190a26113be610f58565b50506001600055505050565b604080516001600160a01b038416602482015260448082018490528251808303909101815260649091019091526020810180516001600160e01b031663a9059cbb60e01b17905261141c908490611676565b505050565b8015806114a7575060408051636eb1769f60e11b81523060048201526001600160a01b03848116602483015291519185169163dd62ed3e91604480820192602092909190829003018186803b15801561147957600080fd5b505afa15801561148d573d6000803e3d6000fd5b505050506040513d60208110156114a357600080fd5b5051155b6114e25760405162461bcd60e51b81526004018080602001828103825260368152602001806119366036913960400191505060405180910390fd5b604080516001600160a01b038416602482015260448082018490528251808303909101815260649091019091526020810180516001600160e01b031663095ea7b360e01b17905261141c908490611676565b6001600160a01b0382166000908152600560205260409020600281015482141561155e575061158f565b60028101545b828110156106f057600282018054600181810183556000928352602083209091019190915501611564565b5050565b60006001544311156115e55760006003546001544303816115b057fe5b0690506115d26003546115cc8343610c0490919063ffffffff16565b90610ace565b6001819055600284905591506104ff9050565b6002546115f29083610ace565b60025550600154600454600254106104ff5760035460015461161391610ace565b6001556000600255919050565b604080516001600160a01b0380861660248301528416604482015260648082018490528251808303909101815260849091019091526020810180516001600160e01b03166323b872dd60e01b1790526106f09085905b611688826001600160a01b031661182e565b6116d9576040805162461bcd60e51b815260206004820152601f60248201527f5361666545524332303a2063616c6c20746f206e6f6e2d636f6e747261637400604482015290519081900360640190fd5b60006060836001600160a01b0316836040518082805190602001908083835b602083106117175780518252601f1990920191602091820191016116f8565b6001836020036101000a0380198251168184511680821785525050505050509050019150506000604051808303816000865af19150503d8060008114611779576040519150601f19603f3d011682016040523d82523d6000602084013e61177e565b606091505b5091509150816117d5576040805162461bcd60e51b815260206004820181905260248201527f5361666545524332303a206c6f772d6c6576656c2063616c6c206661696c6564604482015290519081900360640190fd5b8051156106f0578080602001905160208110156117f157600080fd5b50516106f05760405162461bcd60e51b815260040180806020018281038252602a81526020018061190c602a913960400191505060405180910390fd5b3b15159056fe4f776e61626c653a206e6577206f776e657220697320746865207a65726f206164647265737366696e616c697a65457869743a3a547279696e6720746f206578697420746f6f206561726c796f6e6c79556e6c6f636b65643a3a63616e6e6f7420706572666f726d207468697320616374696f6e20756e74696c2074686520656e64206f6620746865206c6f636b6f6e6c79556e6465725374616b654c696d69743a3a5374616b65206c696d69742072656163686564536166654d6174683a206d756c7469706c69636174696f6e206f766572666c6f775361666545524332303a204552433230206f7065726174696f6e20646964206e6f7420737563636565645361666545524332303a20617070726f76652066726f6d206e6f6e2d7a65726f20746f206e6f6e2d7a65726f20616c6c6f77616e6365a2646970667358221220929593cc71033c98308a5d4d12414bae6e16e26e7b177956c0bbf2c9f843777864736f6c634300060c00337365745468726f74746c653a3a7468726f74746c6520726f756e6420636170206d757374206265206d6f7265207468616e20307365745468726f74746c653a3a7468726f74746c6520706172616d6574657273207765726520616c7265616479207365747365745468726f74746c653a3a7468726f74746c6520726f756e6420626c6f636b73206d757374206265206d6f7265207468616e20307365744c6f636b456e643a3a4c6f636b20656e64206e6565647320746f20626520696e20746865206675747572654c696d697465644175746f5374616b653a636f6e7374727563746f723a3a7374616b65206c696d69742073686f756c64206e6f742062652030",
  "source": "// SPDX-License-Identifier: MIT\n\npragma solidity 0.6.12;\n\nimport \"openzeppelin-solidity/contracts/math/SafeMath.sol\";\nimport \"./AutoStake.sol\";\n\ncontract LimitedAutoStake is AutoStake {\n\tusing SafeMath for uint256;\n\n\tuint256 public immutable stakeLimit;\n\n\tconstructor(address token, uint256 _throttleRoundBlocks, uint256 _throttleRoundCap, uint256 stakeEnd, uint256 _stakeLimit) public AutoStake(token, _throttleRoundBlocks, _throttleRoundCap, stakeEnd) {\n\t\trequire(_stakeLimit != 0 , \"LimitedAutoStake:constructor::stake limit should not be 0\");\n\t\tstakeLimit = _stakeLimit;\n\t}\n\n\tmodifier onlyUnderStakeLimit(address staker, uint256 newStake) {\n\t\tuint256 currentStake = balanceOf(staker);\n\t\trequire(currentStake.add(newStake) <= stakeLimit, \"onlyUnderStakeLimit::Stake limit reached\");\n\t\t_;\n\t}\n\n\tfunction stake(uint256 amount) public virtual override(AutoStake) onlyUnderStakeLimit(msg.sender, amount) {\n\t\tAutoStake.stake(amount);\n\t}\n\n}",
  "sourcePath": "/Users/martindobrev/Code/custom-token/contracts/autostake-features/LimitedAutoStake.sol",
  "compiler": {
    "name": "solc",
    "version": "0.6.12+commit.27d51765.Emscripten.clang",
    "optimizer": true,
    "runs": 200
  },
  "schemaVersion": "2.3.5",
  "updatedAt": "2022-02-16T15:12:31.206Z"
}