{
  "contractName": "LiquidityMiningCampaign",
  "abi": [
    {
      "inputs": [
        {
          "internalType": "contract IERC20Detailed",
          "name": "_stakingToken",
          "type": "address"
        },
        {
          "internalType": "uint256",
          "name": "_startBlock",
          "type": "uint256"
        },
        {
          "internalType": "uint256",
          "name": "_endBlock",
          "type": "uint256"
        },
        {
          "internalType": "address[]",
          "name": "_rewardsTokens",
          "type": "address[]"
        },
        {
          "internalType": "uint256[]",
          "name": "_rewardPerBlock",
          "type": "uint256[]"
        },
        {
          "internalType": "address",
          "name": "_albtAddress",
          "type": "address"
        },
        {
          "internalType": "uint256",
          "name": "_stakeLimit",
          "type": "uint256"
        },
        {
          "internalType": "uint256",
          "name": "_contractStakeLimit",
          "type": "uint256"
        }
      ],
      "stateMutability": "nonpayable",
      "type": "constructor"
    },
    {
      "anonymous": false,
      "inputs": [
        {
          "indexed": true,
          "internalType": "address",
          "name": "_userAddress",
          "type": "address"
        },
        {
          "indexed": false,
          "internalType": "uint256",
          "name": "_bonusAmount",
          "type": "uint256"
        }
      ],
      "name": "BonusTransferred",
      "type": "event"
    },
    {
      "anonymous": false,
      "inputs": [
        {
          "indexed": true,
          "internalType": "address",
          "name": "user",
          "type": "address"
        },
        {
          "indexed": false,
          "internalType": "uint256",
          "name": "amount",
          "type": "uint256"
        },
        {
          "indexed": false,
          "internalType": "address",
          "name": "token",
          "type": "address"
        }
      ],
      "name": "Claimed",
      "type": "event"
    },
    {
      "anonymous": false,
      "inputs": [
        {
          "indexed": true,
          "internalType": "address",
          "name": "user",
          "type": "address"
        },
        {
          "indexed": false,
          "internalType": "uint256",
          "name": "amount",
          "type": "uint256"
        }
      ],
      "name": "Exited",
      "type": "event"
    },
    {
      "anonymous": false,
      "inputs": [
        {
          "indexed": true,
          "internalType": "address",
          "name": "_userAddress",
          "type": "address"
        }
      ],
      "name": "ExitedAndUnlocked",
      "type": "event"
    },
    {
      "anonymous": false,
      "inputs": [
        {
          "indexed": false,
          "internalType": "uint256",
          "name": "newEndBlock",
          "type": "uint256"
        },
        {
          "indexed": false,
          "internalType": "uint256[]",
          "name": "newRewardsPerBlock",
          "type": "uint256[]"
        }
      ],
      "name": "Extended",
      "type": "event"
    },
    {
      "anonymous": false,
      "inputs": [
        {
          "indexed": true,
          "internalType": "address",
          "name": "user",
          "type": "address"
        },
        {
          "indexed": false,
          "internalType": "uint256",
          "name": "amount",
          "type": "uint256"
        }
      ],
      "name": "Staked",
      "type": "event"
    },
    {
      "anonymous": false,
      "inputs": [
        {
          "indexed": true,
          "internalType": "address",
          "name": "_userAddress",
          "type": "address"
        },
        {
          "indexed": false,
          "internalType": "uint256",
          "name": "_tokenAmount",
          "type": "uint256"
        },
        {
          "indexed": false,
          "internalType": "address",
          "name": "_lockScheme",
          "type": "address"
        }
      ],
      "name": "StakedAndLocked",
      "type": "event"
    },
    {
      "anonymous": false,
      "inputs": [
        {
          "indexed": true,
          "internalType": "uint256",
          "name": "rewardsAmount",
          "type": "uint256"
        },
        {
          "indexed": true,
          "internalType": "address",
          "name": "recipient",
          "type": "address"
        }
      ],
      "name": "WithdrawLPRewards",
      "type": "event"
    },
    {
      "anonymous": false,
      "inputs": [
        {
          "indexed": true,
          "internalType": "address",
          "name": "user",
          "type": "address"
        },
        {
          "indexed": false,
          "internalType": "uint256",
          "name": "amount",
          "type": "uint256"
        }
      ],
      "name": "Withdrawn",
      "type": "event"
    },
    {
      "inputs": [
        {
          "internalType": "uint256",
          "name": "",
          "type": "uint256"
        }
      ],
      "name": "accumulatedRewardMultiplier",
      "outputs": [
        {
          "internalType": "uint256",
          "name": "",
          "type": "uint256"
        }
      ],
      "stateMutability": "view",
      "type": "function"
    },
    {
      "inputs": [
        {
          "internalType": "address",
          "name": "_userAddress",
          "type": "address"
        }
      ],
      "name": "balanceOf",
      "outputs": [
        {
          "internalType": "uint256",
          "name": "",
          "type": "uint256"
        }
      ],
      "stateMutability": "view",
      "type": "function"
    },
    {
      "inputs": [],
      "name": "claim",
      "outputs": [],
      "stateMutability": "nonpayable",
      "type": "function"
    },
    {
      "inputs": [],
      "name": "contractStakeLimit",
      "outputs": [
        {
          "internalType": "uint256",
          "name": "",
          "type": "uint256"
        }
      ],
      "stateMutability": "view",
      "type": "function"
    },
    {
      "inputs": [],
      "name": "endBlock",
      "outputs": [
        {
          "internalType": "uint256",
          "name": "",
          "type": "uint256"
        }
      ],
      "stateMutability": "view",
      "type": "function"
    },
    {
      "inputs": [
        {
          "internalType": "uint256",
          "name": "_endBlock",
          "type": "uint256"
        },
        {
          "internalType": "uint256[]",
          "name": "_rewardsPerBlock",
          "type": "uint256[]"
        },
        {
          "internalType": "uint256[]",
          "name": "_currentRemainingRewards",
          "type": "uint256[]"
        },
        {
          "internalType": "uint256[]",
          "name": "_newRemainingRewards",
          "type": "uint256[]"
        }
      ],
      "name": "extend",
      "outputs": [],
      "stateMutability": "nonpayable",
      "type": "function"
    },
    {
      "inputs": [],
      "name": "getRewardTokensCount",
      "outputs": [
        {
          "internalType": "uint256",
          "name": "",
          "type": "uint256"
        }
      ],
      "stateMutability": "view",
      "type": "function"
    },
    {
      "inputs": [
        {
          "internalType": "address",
          "name": "_userAddress",
          "type": "address"
        },
        {
          "internalType": "uint256",
          "name": "tokenIndex",
          "type": "uint256"
        }
      ],
      "name": "getUserAccumulatedReward",
      "outputs": [
        {
          "internalType": "uint256",
          "name": "",
          "type": "uint256"
        }
      ],
      "stateMutability": "view",
      "type": "function"
    },
    {
      "inputs": [
        {
          "internalType": "address",
          "name": "_userAddress",
          "type": "address"
        },
        {
          "internalType": "uint256",
          "name": "_index",
          "type": "uint256"
        }
      ],
      "name": "getUserOwedTokens",
      "outputs": [
        {
          "internalType": "uint256",
          "name": "",
          "type": "uint256"
        }
      ],
      "stateMutability": "view",
      "type": "function"
    },
    {
      "inputs": [
        {
          "internalType": "address",
          "name": "_userAddress",
          "type": "address"
        },
        {
          "internalType": "uint256",
          "name": "_index",
          "type": "uint256"
        }
      ],
      "name": "getUserRewardDebt",
      "outputs": [
        {
          "internalType": "uint256",
          "name": "",
          "type": "uint256"
        }
      ],
      "stateMutability": "view",
      "type": "function"
    },
    {
      "inputs": [
        {
          "internalType": "address",
          "name": "_userAddress",
          "type": "address"
        }
      ],
      "name": "getUserRewardDebtLength",
      "outputs": [
        {
          "internalType": "uint256",
          "name": "",
          "type": "uint256"
        }
      ],
      "stateMutability": "view",
      "type": "function"
    },
    {
      "inputs": [
        {
          "internalType": "address",
          "name": "_userAddress",
          "type": "address"
        }
      ],
      "name": "getUserTokensOwedLength",
      "outputs": [
        {
          "internalType": "uint256",
          "name": "",
          "type": "uint256"
        }
      ],
      "stateMutability": "view",
      "type": "function"
    },
    {
      "inputs": [],
      "name": "hasStakingStarted",
      "outputs": [
        {
          "internalType": "bool",
          "name": "",
          "type": "bool"
        }
      ],
      "stateMutability": "view",
      "type": "function"
    },
    {
      "inputs": [],
      "name": "lastRewardBlock",
      "outputs": [
        {
          "internalType": "uint256",
          "name": "",
          "type": "uint256"
        }
      ],
      "stateMutability": "view",
      "type": "function"
    },
    {
      "inputs": [
        {
          "internalType": "uint256",
          "name": "",
          "type": "uint256"
        }
      ],
      "name": "lockSchemes",
      "outputs": [
        {
          "internalType": "address",
          "name": "",
          "type": "address"
        }
      ],
      "stateMutability": "view",
      "type": "function"
    },
    {
      "inputs": [
        {
          "internalType": "address",
          "name": "",
          "type": "address"
        }
      ],
      "name": "lockSchemesExist",
      "outputs": [
        {
          "internalType": "bool",
          "name": "",
          "type": "bool"
        }
      ],
      "stateMutability": "view",
      "type": "function"
    },
    {
      "inputs": [
        {
          "internalType": "address",
          "name": "",
          "type": "address"
        }
      ],
      "name": "receiversWhitelist",
      "outputs": [
        {
          "internalType": "bool",
          "name": "",
          "type": "bool"
        }
      ],
      "stateMutability": "view",
      "type": "function"
    },
    {
      "inputs": [
        {
          "internalType": "uint256",
          "name": "",
          "type": "uint256"
        }
      ],
      "name": "rewardPerBlock",
      "outputs": [
        {
          "internalType": "uint256",
          "name": "",
          "type": "uint256"
        }
      ],
      "stateMutability": "view",
      "type": "function"
    },
    {
      "inputs": [],
      "name": "rewardToken",
      "outputs": [
        {
          "internalType": "address",
          "name": "",
          "type": "address"
        }
      ],
      "stateMutability": "view",
      "type": "function"
    },
    {
      "inputs": [],
      "name": "rewardsPoolFactory",
      "outputs": [
        {
          "internalType": "address",
          "name": "",
          "type": "address"
        }
      ],
      "stateMutability": "view",
      "type": "function"
    },
    {
      "inputs": [
        {
          "internalType": "uint256",
          "name": "",
          "type": "uint256"
        }
      ],
      "name": "rewardsTokens",
      "outputs": [
        {
          "internalType": "address",
          "name": "",
          "type": "address"
        }
      ],
      "stateMutability": "view",
      "type": "function"
    },
    {
      "inputs": [],
      "name": "stakeLimit",
      "outputs": [
        {
          "internalType": "uint256",
          "name": "",
          "type": "uint256"
        }
      ],
      "stateMutability": "view",
      "type": "function"
    },
    {
      "inputs": [],
      "name": "stakingToken",
      "outputs": [
        {
          "internalType": "contract IERC20Detailed",
          "name": "",
          "type": "address"
        }
      ],
      "stateMutability": "view",
      "type": "function"
    },
    {
      "inputs": [],
      "name": "startBlock",
      "outputs": [
        {
          "internalType": "uint256",
          "name": "",
          "type": "uint256"
        }
      ],
      "stateMutability": "view",
      "type": "function"
    },
    {
      "inputs": [],
      "name": "totalStaked",
      "outputs": [
        {
          "internalType": "uint256",
          "name": "",
          "type": "uint256"
        }
      ],
      "stateMutability": "view",
      "type": "function"
    },
    {
      "inputs": [],
      "name": "updateRewardMultipliers",
      "outputs": [],
      "stateMutability": "nonpayable",
      "type": "function"
    },
    {
      "inputs": [
        {
          "internalType": "address",
          "name": "",
          "type": "address"
        }
      ],
      "name": "userAccruedRewards",
      "outputs": [
        {
          "internalType": "uint256",
          "name": "",
          "type": "uint256"
        }
      ],
      "stateMutability": "view",
      "type": "function"
    },
    {
      "inputs": [
        {
          "internalType": "address",
          "name": "",
          "type": "address"
        }
      ],
      "name": "userInfo",
      "outputs": [
        {
          "internalType": "uint256",
          "name": "firstStakedBlockNumber",
          "type": "uint256"
        },
        {
          "internalType": "uint256",
          "name": "amountStaked",
          "type": "uint256"
        }
      ],
      "stateMutability": "view",
      "type": "function"
    },
    {
      "inputs": [
        {
          "internalType": "uint256",
          "name": "_tokenAmount",
          "type": "uint256"
        }
      ],
      "name": "withdraw",
      "outputs": [],
      "stateMutability": "nonpayable",
      "type": "function"
    },
    {
      "inputs": [
        {
          "internalType": "address",
          "name": "recipient",
          "type": "address"
        },
        {
          "internalType": "address",
          "name": "lpTokenContract",
          "type": "address"
        }
      ],
      "name": "withdrawLPRewards",
      "outputs": [],
      "stateMutability": "nonpayable",
      "type": "function"
    },
    {
      "inputs": [
        {
          "internalType": "uint256",
          "name": "_tokenAmount",
          "type": "uint256"
        },
        {
          "internalType": "address",
          "name": "_lockScheme",
          "type": "address"
        }
      ],
      "name": "stakeAndLock",
      "outputs": [],
      "stateMutability": "nonpayable",
      "type": "function"
    },
    {
      "inputs": [],
      "name": "exitAndUnlock",
      "outputs": [],
      "stateMutability": "nonpayable",
      "type": "function"
    },
    {
      "inputs": [
        {
          "internalType": "address",
          "name": "receiver",
          "type": "address"
        },
        {
          "internalType": "bool",
          "name": "whitelisted",
          "type": "bool"
        }
      ],
      "name": "setReceiverWhitelisted",
      "outputs": [],
      "stateMutability": "nonpayable",
      "type": "function"
    },
    {
      "inputs": [
        {
          "internalType": "address",
          "name": "_stakePool",
          "type": "address"
        }
      ],
      "name": "exitAndStake",
      "outputs": [],
      "stateMutability": "nonpayable",
      "type": "function"
    },
    {
      "inputs": [],
      "name": "exit",
      "outputs": [],
      "stateMutability": "nonpayable",
      "type": "function"
    },
    {
      "inputs": [
        {
          "internalType": "uint256",
          "name": "_tokenAmount",
          "type": "uint256"
        }
      ],
      "name": "stake",
      "outputs": [],
      "stateMutability": "nonpayable",
      "type": "function"
    },
    {
      "inputs": [
        {
          "internalType": "address",
          "name": "transferTo",
          "type": "address"
        }
      ],
      "name": "exitAndTransfer",
      "outputs": [],
      "stateMutability": "nonpayable",
      "type": "function"
    },
    {
      "inputs": [
        {
          "internalType": "address[]",
          "name": "_lockSchemes",
          "type": "address[]"
        }
      ],
      "name": "setLockSchemes",
      "outputs": [],
      "stateMutability": "nonpayable",
      "type": "function"
    }
  ],
  "bytecode": "0x60a06040523480156200001157600080fd5b5060405162003a5c38038062003a5c83398181016040526101008110156200003857600080fd5b8151602083015160408085015160608601805192519496939591949391820192846401000000008211156200006c57600080fd5b9083019060208201858111156200008257600080fd5b8251866020820283011164010000000082111715620000a057600080fd5b82525081516020918201928201910280838360005b83811015620000cf578181015183820152602001620000b5565b5050505090500160405260200180516040519392919084640100000000821115620000f957600080fd5b9083019060208201858111156200010f57600080fd5b82518660208202830111640100000000821117156200012d57600080fd5b82525081516020918201928201910280838360005b838110156200015c57818101518382015260200162000142565b5050505091909101604090815260208301519083015160609093015160018055909450919250889050878787878686620001956200044a565b8611620001d45760405162461bcd60e51b8152600401808060200182810382526036815260200180620039e56036913960400191505060405180910390fd5b620001de6200044a565b85116200021d5760405162461bcd60e51b81526004018080602001828103825260318152602001806200392b6031913960400191505060405180910390fd5b83518351146200025f5760405162461bcd60e51b815260040180806020018281038252604f8152602001806200395c604f913960600191505060405180910390fd5b816200029d5760405162461bcd60e51b8152600401808060200182810382526030815260200180620038fb6030913960400191505060405180910390fd5b80620002db5760405162461bcd60e51b815260040180806020018281038252603a815260200180620039ab603a913960400191505060405180910390fd5b600580546001600160a01b0319166001600160a01b03891617905582516200030b9060039060208601906200044e565b506006869055600785905583516200032b9060049060208701906200049e565b50600654600855600a80546001600160a01b03191633179055600b829055600c81905560005b6004548110156200039b57600980546001818101835560009283527f6e1540171b6c0c960b71a7020d9f60077f6af931a8bbf590da0223dacf75c7af909101919091550162000351565b505050505050505084600081518110620003b157fe5b60200260200101516001600160a01b0316836001600160a01b0316146200040a5760405162461bcd60e51b815260040180806020018281038252604181526020018062003a1b6041913960600191505060405180910390fd5b846000815181106200041857fe5b60200260200101516001600160a01b03166080816001600160a01b031660601b8152505050505050505050506200053c565b4390565b8280548282559060005260206000209081019282156200048c579160200282015b828111156200048c5782518255916020019190600101906200046f565b506200049a92915062000504565b5090565b828054828255906000526020600020908101928215620004f6579160200282015b82811115620004f657825182546001600160a01b0319166001600160a01b03909116178255602090920191600190910190620004bf565b506200049a9291506200051b565b5b808211156200049a576000815560010162000505565b5b808211156200049a5780546001600160a01b03191681556001016200051c565b60805160601c6133976200056460003980611716528061199a5280611f8152506133976000f3fe608060405234801561001057600080fd5b50600436106102315760003560e01c806370a0823111610130578063b6d0dcd8116100b8578063df9d777f1161007c578063df9d777f146107e3578063e9fad8ee1461080f578063f27d026414610817578063f7c618c114610843578063fb58cad11461084b57610231565b8063b6d0dcd8146106d4578063bb9c9eb4146106f1578063c8523c1d1461070e578063ce415302146107af578063dd2da220146107db57610231565b8063a1002a0f116100ff578063a1002a0f1461062d578063a1292aea1461065b578063a694fc3a14610681578063a861a7a31461069e578063a9f8d181146106cc57610231565b806370a08231146105da57806372f702f314610600578063791f39cd14610608578063817b1cd21461062557610231565b80633411ef51116101be57806348cd4cb11161018257806348cd4cb1146105785780634e71d92d1461058057806356409b811461058857806357b4f01f146105ac5780635999e473146105b457610231565b80633411ef51146104f0578063363291dc146104f8578063408651be1461051e57806345ef79af146105445780634715a9491461054c57610231565b8063205acb3111610205578063205acb31146102bd57806320e67c76146102f75780632240e63c146104a55780632d9e88e1146104cb5780632e1a7d4d146104d357610231565b806284c9271461023657806303d1dae01461026e578063083c6323146102765780631959a0021461027e575b600080fd5b61025c6004803603602081101561024c57600080fd5b50356001600160a01b0316610868565b60408051918252519081900360200190f35b61025c6108ce565b61025c6108d4565b6102a46004803603602081101561029457600080fd5b50356001600160a01b03166108da565b6040805192835260208301919091528051918290030190f35b6102e3600480360360208110156102d357600080fd5b50356001600160a01b03166108f3565b604080519115158252519081900360200190f35b6104a36004803603608081101561030d57600080fd5b81359190810190604081016020820135600160201b81111561032e57600080fd5b82018360208201111561034057600080fd5b803590602001918460208302840111600160201b8311171561036157600080fd5b9190808060200260200160405190810160405280939291908181526020018383602002808284376000920191909152509295949360208101935035915050600160201b8111156103b057600080fd5b8201836020820111156103c257600080fd5b803590602001918460208302840111600160201b831117156103e357600080fd5b9190808060200260200160405190810160405280939291908181526020018383602002808284376000920191909152509295949360208101935035915050600160201b81111561043257600080fd5b82018360208201111561044457600080fd5b803590602001918460208302840111600160201b8311171561046557600080fd5b919080806020026020016040519081016040528093929190818152602001838360200280828437600092019190915250929550610908945050505050565b005b6104a3600480360360208110156104bb57600080fd5b50356001600160a01b0316610b8b565b61025c610bc2565b6104a3600480360360208110156104e957600080fd5b5035610bc8565b6104a3610bff565b6102e36004803603602081101561050e57600080fd5b50356001600160a01b0316610c59565b61025c6004803603602081101561053457600080fd5b50356001600160a01b0316610c6e565b61025c610c80565b6104a36004803603604081101561056257600080fd5b50803590602001356001600160a01b0316610c86565b61025c610ce4565b6104a3610cea565b610590610d21565b604080516001600160a01b039092168252519081900360200190f35b6102e3610d30565b6104a3600480360360208110156105ca57600080fd5b50356001600160a01b0316610d44565b61025c600480360360208110156105f057600080fd5b50356001600160a01b0316610da0565b610590610dbe565b61025c6004803603602081101561061e57600080fd5b5035610dcd565b61025c610deb565b6104a36004803603604081101561064357600080fd5b506001600160a01b0381358116916020013516610df1565b61025c6004803603602081101561067157600080fd5b50356001600160a01b0316611059565b6104a36004803603602081101561069757600080fd5b50356110bf565b6104a3600480360360408110156106b457600080fd5b506001600160a01b03813516906020013515156110f6565b61025c61114d565b610590600480360360208110156106ea57600080fd5b5035611153565b6105906004803603602081101561070757600080fd5b503561117a565b6104a36004803603602081101561072457600080fd5b810190602081018135600160201b81111561073e57600080fd5b82018360208201111561075057600080fd5b803590602001918460208302840111600160201b8311171561077157600080fd5b919080806020026020016040519081016040528093929190818152602001838360200280828437600092019190915250929550611187945050505050565b61025c600480360360408110156107c557600080fd5b506001600160a01b0381351690602001356112bb565b6104a361133f565b61025c600480360360408110156107f957600080fd5b506001600160a01b0381351690602001356114e5565b6104a361169c565b61025c6004803603604081101561082d57600080fd5b506001600160a01b0381351690602001356116a5565b610590611714565b61025c6004803603602081101561086157600080fd5b5035611738565b60006001600160a01b0382166108af5760405162461bcd60e51b815260040180806020018281038252602d815260200180612f43602d913960400191505060405180910390fd5b506001600160a01b03166000908152600d602052604090206002015490565b600c5481565b60075481565b600d602052600090815260409020805460019091015482565b60106020526000908152604090205460ff1681565b600a546001600160a01b031633146109515760405162461bcd60e51b81526004018080602001828103825260298152602001806133036029913960400191505060405180910390fd5b610959611745565b84116109965760405162461bcd60e51b81526004018080602001828103825260278152602001806132b26027913960400191505060405180910390fd5b6007548410156109d75760405162461bcd60e51b8152600401808060200182810382526035815260200180612fce6035913960400191505060405180910390fd5b600454835114610a185760405162461bcd60e51b81526004018080602001828103825260348152602001806131ac6034913960400191505060405180910390fd5b610a2061133f565b60005b8351811015610b0057600060048281548110610a3b57fe5b60009182526020909120015483516001600160a01b039091169150839083908110610a6257fe5b6020026020010151848381518110610a7657fe5b60200260200101511115610aca57610aca33848481518110610a9457fe5b6020026020010151868581518110610aa857fe5b602002602001015103836001600160a01b03166117499092919063ffffffff16565b848281518110610ad657fe5b602002602001015160038381548110610aeb57fe5b60009182526020909120015550600101610a23565b50836007819055507f137c92cc7579cc4d6a2b109467cd475c205d1c136363ca854cc46d72f840d5de84846040518083815260200180602001828103825283818151815260200191508051906020019060200280838360005b83811015610b71578181015183820152602001610b59565b50505050905001935050505060405180910390a150505050565b60405162461bcd60e51b8152600401808060200182810382526037815260200180612f976037913960400191505060405180910390fd5b60045490565b60405162461bcd60e51b815260040180806020018281038252603f81526020018061309b603f913960400191505060405180910390fd5b60026001541415610c45576040805162461bcd60e51b815260206004820152601f6024820152600080516020612f23833981519152604482015290519081900360640190fd5b6002600155610c53336117a0565b60018055565b60006020819052908152604090205460ff1681565b600f6020526000908152604090205481565b600b5481565b60026001541415610ccc576040805162461bcd60e51b815260206004820152601f6024820152600080516020612f23833981519152604482015290519081900360640190fd5b6002600155610cdc338383611a1d565b505060018055565b60065481565b60405162461bcd60e51b815260040180806020018281038252603c815260200180613133603c913960400191505060405180910390fd5b600a546001600160a01b031681565b6000600654610d3d611745565b1015905090565b60026001541415610d8a576040805162461bcd60e51b815260206004820152601f6024820152600080516020612f23833981519152604482015290519081900360640190fd5b6002600155610d993382611ccd565b5060018055565b6001600160a01b03166000908152600d602052604090206001015490565b6005546001600160a01b031681565b60038181548110610dda57fe5b600091825260209091200154905081565b60025481565b60026001541415610e37576040805162461bcd60e51b815260206004820152601f6024820152600080516020612f23833981519152604482015290519081900360640190fd5b6002600155600a546001600160a01b03163314610e855760405162461bcd60e51b81526004018080602001828103825260298152602001806133036029913960400191505060405180910390fd5b6000816001600160a01b03166370a08231306040518263ffffffff1660e01b815260040180826001600160a01b0316815260200191505060206040518083038186803b158015610ed457600080fd5b505afa158015610ee8573d6000803e3d6000fd5b505050506040513d6020811015610efe57600080fd5b5051905080610f3e5760405162461bcd60e51b815260040180806020018281038252603c815260200180613276603c913960400191505060405180910390fd5b6005546001600160a01b0383811691161415610f8b5760405162461bcd60e51b81526004018080602001828103825260368152602001806130036036913960400191505060405180910390fd5b60045460005b818110156110045760048181548110610fa657fe5b6000918252602090912001546001600160a01b0385811691161415610ffc5760405162461bcd60e51b81526004018080602001828103825260358152602001806130396035913960400191505060405180910390fd5b600101610f91565b506110196001600160a01b0384168584611749565b6040516001600160a01b0385169083907fdf1b625465761dd1a4330a9b3a21d4943183f301036528a3544f8d891fdce2c290600090a35050600180555050565b60006001600160a01b0382166110a05760405162461bcd60e51b815260040180806020018281038252602d81526020018061306e602d913960400191505060405180910390fd5b506001600160a01b03166000908152600d602052604090206003015490565b60405162461bcd60e51b815260040180806020018281038252603d81526020018061316f603d913960400191505060405180910390fd5b600a546001600160a01b0316331461113f5760405162461bcd60e51b81526004018080602001828103825260298152602001806133036029913960400191505060405180910390fd5b6111498282612021565b5050565b60085481565b6004818154811061116057fe5b6000918252602090912001546001600160a01b0316905081565b600e818154811061116057fe5b600a546001600160a01b031633146111d05760405162461bcd60e51b81526004018080602001828103825260298152602001806133036029913960400191505060405180910390fd5b60005b815181101561114957601060008383815181106111ec57fe5b6020908102919091018101516001600160a01b031682528101919091526040016000205460ff166112b357600e82828151811061122557fe5b60209081029190910181015182546001808201855560009485529284200180546001600160a01b0319166001600160a01b039092169190911790558351909160109185908590811061127357fe5b60200260200101516001600160a01b03166001600160a01b0316815260200190815260200160002060006101000a81548160ff0219169083151502179055505b6001016111d3565b60006001600160a01b0383166113025760405162461bcd60e51b815260040180806020018281038252602781526020018061324f6027913960400191505060405180910390fd5b6001600160a01b0383166000908152600d602052604090206003810180548490811061132a57fe5b90600052602060002001549150505b92915050565b6000611349611745565b9050600854811161135a57506114e3565b6000600754821061136d5760075461136f565b815b600854909150810380611384575050506114e3565b6002546113955750600855506114e3565b60045460005b818110156114db576000600482815481106113b257fe5b600091825260209182902001546040805163313ce56760e01b815290516001600160a01b039092169263313ce56792600480840193829003018186803b1580156113fb57600080fd5b505afa15801561140f573d6000803e3d6000fd5b505050506040513d602081101561142557600080fd5b50516003805460ff9092169250600a83900a91600091611463918690811061144957fe5b90600052602060002001548761204c90919063ffffffff16565b90506000611486600254611480858561204c90919063ffffffff16565b906120ac565b90506114b2816009878154811061149957fe5b906000526020600020015461211390919063ffffffff16565b600986815481106114bf57fe5b60009182526020909120015550506001909201915061139b9050565b505050600855505b565b6000806114f0611745565b90506000600754821061150557600754611507565b815b905060006115206008548361216d90919063ffffffff16565b905060006004868154811061153157fe5b600091825260209182902001546040805163313ce56760e01b815290516001600160a01b039092169263313ce56792600480840193829003018186803b15801561157a57600080fd5b505afa15801561158e573d6000803e3d6000fd5b505050506040513d60208110156115a457600080fd5b50516003805460ff9092169250600a83900a916000916115e2918a9081106115c857fe5b90600052602060002001548561204c90919063ffffffff16565b905060006115ff600254611480858561204c90919063ffffffff16565b905060006116148260098c8154811061149957fe5b6001600160a01b038c166000908152600d60205260408120600181015492935091611645908790611480908661204c565b90506000611675836002018e8154811061165b57fe5b90600052602060002001548361216d90919063ffffffff16565b905061168a81846003018f8154811061149957fe5b9e9d5050505050505050505050505050565b6114e3336117a0565b60006001600160a01b0383166116ec5760405162461bcd60e51b8152600401808060200182810382526027815260200180612f706027913960400191505060405180910390fd5b6001600160a01b0383166000908152600d602052604090206002810180548490811061132a57fe5b7f000000000000000000000000000000000000000000000000000000000000000081565b60098181548110610dda57fe5b4390565b604080516001600160a01b038416602482015260448082018490528251808303909101815260649091019091526020810180516001600160e01b031663a9059cbb60e01b17905261179b9084906121ca565b505050565b6001600160a01b0381166000908152600d6020526040902060018101546117c75750611a1a565b6117cf61133f565b6117d882612388565b6001600160a01b0382166000908152600f602052604081205460038301805461181e929190849061180557fe5b906000526020600020015461216d90919063ffffffff16565b600e5490915060005b818110156119cb57600061185d8685600e858154811061184357fe5b6000918252602090912001546001600160a01b03166123e1565b905080156118e457600e828154811061187257fe5b600091825260208220015460408051638c6cf61160e01b81526001600160a01b038a811660048301526024820186905291519190921692638c6cf611926044808201939182900301818387803b1580156118cb57600080fd5b505af11580156118df573d6000803e3d6000fd5b505050505b6000600e83815481106118f357fe5b9060005260206000200160009054906101000a90046001600160a01b03166001600160a01b031663b42652e9886040518263ffffffff1660e01b815260040180826001600160a01b03168152602001915050602060405180830381600087803b15801561195f57600080fd5b505af1158015611973573d6000803e3d6000fd5b505050506040513d602081101561198957600080fd5b505190506119c16001600160a01b037f0000000000000000000000000000000000000000000000000000000000000000168883611749565b5050600101611827565b506119d58461248e565b6001600160a01b0384166000818152600f6020526040808220829055517f73d36a08b171571d289bbb4c400b9c74176d5be660fae67a23ed20ba1120d5839190a25050505b50565b6001600160a01b038316611a78576040805162461bcd60e51b815260206004820152601d60248201527f5f7374616b65416e644c6f636b3a3a496e76616c6964207374616b6572000000604482015290519081900360640190fd5b60008211611acd576040805162461bcd60e51b815260206004820152601c60248201527f7374616b65416e644c6f636b3a3a43616e6e6f74207374616b65203000000000604482015290519081900360640190fd5b6001600160a01b0383166000908152600d6020526040812090611aee61133f565b611af785612388565b81600301600081548110611b0757fe5b6000918252602082200154600e54909250905b81811015611be6576001600160a01b0387166000908152600f6020526040812054611b59908990611b4c90879061216d565b600e858154811061184357fe5b9050600e8281548110611b6857fe5b600091825260208220015460408051638c6cf61160e01b81526001600160a01b038c811660048301526024820186905291519190921692638c6cf611926044808201939182900301818387803b158015611bc157600080fd5b505af1158015611bd5573d6000803e3d6000fd5b505060019093019250611b1a915050565b506001600160a01b0386166000908152600f60205260409020829055611c0e85876001612504565b836001600160a01b031663282d3fdf87876040518363ffffffff1660e01b815260040180836001600160a01b0316815260200182815260200192505050600060405180830381600087803b158015611c6557600080fd5b505af1158015611c79573d6000803e3d6000fd5b5050604080518881526001600160a01b0388811660208301528251908b1694507f5ae9eac9eae389addf073e8e829ae488ab31d186b6234575446951ba6e53390e93509081900390910190a2505050505050565b6001600160a01b038116600090815260208190526040902054819060ff16611d265760405162461bcd60e51b815260040180806020018281038252602c815260200180613223602c913960400191505060405180910390fd5b6001600160a01b0383166000908152600d602052604090206001810154611d4d575061179b565b611d5561133f565b611d5e84612388565b6001600160a01b0384166000908152600f6020526040812054600383018054611d8b929190849061180557fe5b600e546001600160a01b0387166000908152600f602052604081208190559192509080805b83811015611f0f576000611dcc8a87600e858154811061184357fe5b90508015611e5357600e8281548110611de157fe5b600091825260208220015460408051638c6cf61160e01b81526001600160a01b038e811660048301526024820186905291519190921692638c6cf611926044808201939182900301818387803b158015611e3a57600080fd5b505af1158015611e4e573d6000803e3d6000fd5b505050505b600e8281548110611e6057fe5b9060005260206000200160009054906101000a90046001600160a01b03166001600160a01b031663b42652e98b6040518263ffffffff1660e01b815260040180826001600160a01b03168152602001915050602060405180830381600087803b158015611ecc57600080fd5b505af1158015611ee0573d6000803e3d6000fd5b505050506040513d6020811015611ef657600080fd5b50519350611f048385612113565b925050600101611db0565b50611f3d85600301600081548110611f2357fe5b90600052602060002001548261211390919063ffffffff16565b9050611f4d85600101548961287d565b600085600301600081548110611f5f57fe5b600091825260209091200155611f7488612a5f565b611fa86001600160a01b037f0000000000000000000000000000000000000000000000000000000000000000168883612b72565b866001600160a01b0316633c323a1b89836040518363ffffffff1660e01b815260040180836001600160a01b0316815260200182815260200192505050600060405180830381600087803b158015611fff57600080fd5b505af1158015612013573d6000803e3d6000fd5b505050505050505050505050565b6001600160a01b03919091166000908152602081905260409020805460ff1916911515919091179055565b60008261205b57506000611339565b8282028284828161206857fe5b04146120a55760405162461bcd60e51b81526004018080602001828103825260218152602001806132026021913960400191505060405180910390fd5b9392505050565b6000808211612102576040805162461bcd60e51b815260206004820152601a60248201527f536166654d6174683a206469766973696f6e206279207a65726f000000000000604482015290519081900360640190fd5b81838161210b57fe5b049392505050565b6000828201838110156120a5576040805162461bcd60e51b815260206004820152601b60248201527f536166654d6174683a206164646974696f6e206f766572666c6f770000000000604482015290519081900360640190fd5b6000828211156121c4576040805162461bcd60e51b815260206004820152601e60248201527f536166654d6174683a207375627472616374696f6e206f766572666c6f770000604482015290519081900360640190fd5b50900390565b6121dc826001600160a01b0316612c85565b61222d576040805162461bcd60e51b815260206004820152601f60248201527f5361666545524332303a2063616c6c20746f206e6f6e2d636f6e747261637400604482015290519081900360640190fd5b60006060836001600160a01b0316836040518082805190602001908083835b6020831061226b5780518252601f19909201916020918201910161224c565b6001836020036101000a0380198251168184511680821785525050505050509050019150506000604051808303816000865af19150503d80600081146122cd576040519150601f19603f3d011682016040523d82523d6000602084013e6122d2565b606091505b509150915081612329576040805162461bcd60e51b815260206004820181905260248201527f5361666545524332303a206c6f772d6c6576656c2063616c6c206661696c6564604482015290519081900360640190fd5b8051156123825780806020019051602081101561234557600080fd5b50516123825760405162461bcd60e51b815260040180806020018281038252602a8152602001806132d9602a913960400191505060405180910390fd5b50505050565b6001600160a01b0381166000908152600d602052604090206123a982612c8b565b6123b282612ceb565b60018101546123c15750611a1a565b60045460005b81811015612382576123d98482612d4b565b6001016123c7565b6000600254600014156123f6575060006120a5565b6000826001600160a01b03166322b0039a866040518263ffffffff1660e01b815260040180826001600160a01b0316815260200191505060206040518083038186803b15801561244557600080fd5b505afa158015612459573d6000803e3d6000fd5b505050506040513d602081101561246f57600080fd5b505160025490915061248590611480868461204c565b95945050505050565b6001600160a01b0381166000908152600d602052604090206124af82612a5f565b6124bd81600101548361287d565b600181015460408051918252516001600160a01b038416917f920bb94eb3842a728db98228c375ff6b00c5bc5a54fac6736155517a0a20a61a919081900360200190a25050565b600061250e611745565b905060065481116125505760405162461bcd60e51b81526004018080602001828103825260228152602001806131e06022913960400191505060405180910390fd5b6007548111156125a7576040805162461bcd60e51b815260206004820152601b60248201527f5374616b653a3a5374616b696e67206861732066696e69736865640000000000604482015290519081900360640190fd5b6001600160a01b0383166000908152600d60205260409020600b5460018201548592879290916125d79084612113565b11156126145760405162461bcd60e51b815260040180806020018281038252602881526020018061310b6028913960400191505060405180910390fd5b600c546002546126249084612113565b11156126615760405162461bcd60e51b81526004018080602001828103825260318152602001806130da6031913960400191505060405180910390fd5b600087116126ae576040805162461bcd60e51b815260206004820152601560248201527405374616b653a3a43616e6e6f74207374616b65203605c1b604482015290519081900360640190fd5b6001600160a01b0386166000908152600d6020526040902060018101546126d8576126d887612ea3565b6126e061133f565b6126e987612388565b60018101546126f89089612113565b600182015560025461270a9089612113565b60025560045460005b8181101561280e5760006004828154811061272a57fe5b600091825260209182902001546040805163313ce56760e01b815290516001600160a01b039092169263313ce56792600480840193829003018186803b15801561277357600080fd5b505afa158015612787573d6000803e3d6000fd5b505050506040513d602081101561279d57600080fd5b50516009805460ff9092169250600a83900a916000916127e591849161148091889081106127c757fe5b9060005260206000200154896001015461204c90919063ffffffff16565b9050808660020185815481106127f757fe5b600091825260209091200155505050600101612713565b506128338761281d573361281f565b885b6005546001600160a01b031690308c612ec8565b604080518a815290516001600160a01b038a16917f9e71bc8eea02a63969f509818f2dafb9254532904319f9dbda79b67bd34a5f3d919081900360200190a2505050505050505050565b600082116128d2576040805162461bcd60e51b815260206004820152601b60248201527f57697468647261773a3a43616e6e6f7420776974686472617720300000000000604482015290519081900360640190fd5b6001600160a01b0381166000908152600d602052604090206128f261133f565b6128fb82612388565b600181015461290a908461216d565b600182015560025461291c908461216d565b60025560045460005b81811015612a025760006004828154811061293c57fe5b600091825260209182902001546040805163313ce56760e01b815290516001600160a01b039092169263313ce56792600480840193829003018186803b15801561298557600080fd5b505afa158015612999573d6000803e3d6000fd5b505050506040513d60208110156129af57600080fd5b50516009805460ff9092169250600a83900a916000916129d991849161148091889081106127c757fe5b9050808660020185815481106129eb57fe5b600091825260209091200155505050600101612925565b50600554612a1a906001600160a01b03168486611749565b6040805185815290516001600160a01b038516917f7084f5476618d8e60b11ef0d7d3f06914655adb8793e28ff7f018d4c76d505d5919081900360200190a250505050565b6001600160a01b0381166000908152600d60205260409020612a7f61133f565b612a8882612388565b60045460005b81811015612382576000836003018281548110612aa757fe5b906000526020600020015490506000846003018381548110612ac557fe5b9060005260206000200181905550612b01858260048581548110612ae557fe5b6000918252602090912001546001600160a01b03169190611749565b846001600160a01b03167f7e6632ca16a0ac6cf28448500b1a17d96c8b8163ad4c4a9b44ef5386cc02779e8260048581548110612b3a57fe5b60009182526020918290200154604080519384526001600160a01b03909116918301919091528051918290030190a250600101612a8e565b801580612bf8575060408051636eb1769f60e11b81523060048201526001600160a01b03848116602483015291519185169163dd62ed3e91604480820192602092909190829003018186803b158015612bca57600080fd5b505afa158015612bde573d6000803e3d6000fd5b505050506040513d6020811015612bf457600080fd5b5051155b612c335760405162461bcd60e51b815260040180806020018281038252603681526020018061332c6036913960400191505060405180910390fd5b604080516001600160a01b038416602482015260448082018490528251808303909101815260649091019091526020810180516001600160e01b031663095ea7b360e01b17905261179b9084906121ca565b3b151590565b6001600160a01b0381166000908152600d6020526040902060045460028201541415612cb75750611a1a565b60045460028201545b8181101561238257600283018054600181810183556000928352602083209091019190915501612cc0565b6001600160a01b0381166000908152600d6020526040902060045460038201541415612d175750611a1a565b60045460038201545b8181101561238257600383018054600181810183556000928352602083209091019190915501612d20565b6001600160a01b0382166000908152600d602052604081206004805491929184908110612d7457fe5b600091825260209182902001546040805163313ce56760e01b815290516001600160a01b039092169263313ce56792600480840193829003018186803b158015612dbd57600080fd5b505afa158015612dd1573d6000803e3d6000fd5b505050506040513d6020811015612de757600080fd5b50516009805460ff9092169250600a83900a91600091612e2f9184916114809189908110612e1157fe5b9060005260206000200154876001015461204c90919063ffffffff16565b90506000612e4585600201878154811061165b57fe5b90508015612e9a57612e608186600301888154811061149957fe5b856003018781548110612e6f57fe5b906000526020600020018190555081856002018781548110612e8d57fe5b6000918252602090912001555b50505050505050565b6001600160a01b0381166000908152600d60205260409020612ec3611745565b905550565b604080516001600160a01b0380861660248301528416604482015260648082018490528251808303909101815260849091019091526020810180516001600160e01b03166323b872dd60e01b1790526123829085906121ca56fe5265656e7472616e637947756172643a207265656e7472616e742063616c6c0047657455736572526577617264446562744c656e6774683a3a496e76616c69642075736572206164647265737347657455736572526577617264446562743a3a496e76616c6964207573657220616464726573734c69717569646974794d696e696e6743616d706169676e3a3a6578697420616e64207472616e7366657220697320666f7262696464656e457874656e643a3a456e6420626c6f636b206d757374206265206166746572207468652063757272656e7420656e6420626c6f636b57697468647261774c50526577617264733a3a2063616e6e6f742077697468647261772066726f6d20746865204c5020746f6b656e7357697468647261774c50526577617264733a3a43616e6e6f742077697468647261772066726f6d20746f6b656e207265776172647347657455736572546f6b656e734f7765644c656e6774683a3a496e76616c6964207573657220616464726573734f6e6c7945786974466561747572653a3a63616e6e6f742077697468647261772066726f6d207468697320636f6e74726163742e204f6e6c7920657869742e6f6e6c79556e6465725374616b654c696d69743a3a436f6e7472616374205374616b65206c696d697420726561636865646f6e6c79556e6465725374616b654c696d69743a3a5374616b65206c696d697420726561636865644f6e6c7945786974466561747572653a3a63616e6e6f7420636c61696d2066726f6d207468697320636f6e74726163742e204f6e6c7920657869742e4c69717569646974794d696e696e6743616d706169676e3a3a7374616b696e6720776974686f7574206c6f636b696e6720697320666f7262696464656e457874656e643a3a5265776172647320616d6f756e7473206c656e677468206973206c657373207468616e2065787065637465645374616b653a3a5374616b696e6720686173206e6f74207965742073746172746564536166654d6174683a206d756c7469706c69636174696f6e206f766572666c6f7765786974416e645472616e736665723a3a7265636569766572206973206e6f742077686974656c6973746564476574557365724f776564546f6b656e733a3a496e76616c69642075736572206164647265737357697468647261774c50526577617264733a3a546865726520617265206e6f20726577617264732066726f6d206c697175696469747920706f6f6c73457874656e643a3a456e6420626c6f636b206d75737420626520696e20746865206675747572655361666545524332303a204552433230206f7065726174696f6e20646964206e6f74207375636365656443616c6c6572206973206e6f742052657761726473506f6f6c466163746f727920636f6e74726163745361666545524332303a20617070726f76652066726f6d206e6f6e2d7a65726f20746f206e6f6e2d7a65726f20616c6c6f77616e6365a264697066735822122038bbfbc09f52aeeda1c1c74be051492823bf71f2dec1931b6fde611b4e068c9c64736f6c634300060c0033436f6e7374727563746f723a3a5374616b65206c696d6974206e6565647320746f206265206d6f7265207468616e2030436f6e7374727563746f723a3a54686520656e6420626c6f636b206d75737420626520696e20746865206675747572652e436f6e7374727563746f723a3a526577617264732070657220626c6f636b20616e64207265776172647320746f6b656e73206d7573742062652077697468207468652073616d65206c656e6774682e436f6e7374727563746f723a3a20436f6e7472616374205374616b65206c696d6974206e6565647320746f206265206d6f7265207468616e2030436f6e7374727563746f723a3a546865207374617274696e6720626c6f636b206d75737420626520696e20746865206675747572652e636f6e7374727563746f723a3a2054686520666972737420726577617264206164647265737320697320646966666572656e742066726f6d2074686520414c4254",
  "source": "// SPDX-License-Identifier: MIT\npragma solidity 0.6.12;\n\nimport \"openzeppelin-solidity/contracts/math/Math.sol\";\nimport \"openzeppelin-solidity/contracts/math/SafeMath.sol\";\nimport \"openzeppelin-solidity/contracts/utils/ReentrancyGuard.sol\";\nimport \"./interfaces/IERC20Detailed.sol\";\nimport \"./SafeERC20Detailed.sol\";\nimport \"./RewardsPoolBase.sol\";\nimport \"./LockScheme.sol\";\nimport \"./StakeTransferer.sol\";\nimport \"./StakeReceiver.sol\";\nimport \"./pool-features/OnlyExitFeature.sol\";\n\n\ncontract LiquidityMiningCampaign is StakeTransferer, OnlyExitFeature  {\n\tusing SafeMath for uint256;\n\tusing SafeERC20Detailed for IERC20Detailed;\n\n\taddress public immutable rewardToken;\n\taddress[] public lockSchemes;\n\tmapping(address => uint256) public userAccruedRewards;\n\tmapping(address => bool) public lockSchemesExist;\n\n\tevent StakedAndLocked(address indexed _userAddress, uint256 _tokenAmount, address _lockScheme);\n\tevent ExitedAndUnlocked(address indexed _userAddress);\n\tevent BonusTransferred(address indexed _userAddress, uint256 _bonusAmount);\n\n\tconstructor(\n\t\tIERC20Detailed _stakingToken,\n\t\tuint256 _startBlock,\n\t\tuint256 _endBlock,\n\t\taddress[] memory _rewardsTokens,\n\t\tuint256[] memory _rewardPerBlock,\n\t\taddress _albtAddress,\n\t\tuint256 _stakeLimit,\n\t\tuint256 _contractStakeLimit) public RewardsPoolBase(_stakingToken, _startBlock, _endBlock, _rewardsTokens, _rewardPerBlock,_stakeLimit,_contractStakeLimit) \n\t{\n\t\trequire(_albtAddress == _rewardsTokens[0], \"constructor:: The first reward address is different from the ALBT\");\n\t\trewardToken = _rewardsTokens[0];\n\t}\n\n\tfunction stakeAndLock( uint256 _tokenAmount, address _lockScheme) external nonReentrant{\n\t\t_stakeAndLock(msg.sender,_tokenAmount, _lockScheme);\n\t}\n\n\t/** @dev Stakes LP tokens to the campaing and lockes them to a specific lockScheme contract to earn bonuses\n\t@param _userAddress the address of the staker\n\t@param _tokenAmount the amount to be staked\n\t@param _lockScheme the address of the lock scheme \n\t */\n\tfunction _stakeAndLock(address _userAddress ,uint256 _tokenAmount, address _lockScheme) internal {\n\t\trequire(_userAddress != address(0x0), \"_stakeAndLock::Invalid staker\");\n\t\trequire(_tokenAmount > 0, \"stakeAndLock::Cannot stake 0\");\n\n\t\tUserInfo storage user = userInfo[_userAddress];\n\n\t\tuint256 userRewards = 0;\n\n\t\tupdateRewardMultipliers();\n\t\tupdateUserAccruedReward(_userAddress);\n\n\t\tuserRewards = user.tokensOwed[0];\n\t\tuint256 lockSchemesLenght = lockSchemes.length;\n\n\t\tfor (uint256 i = 0; i < lockSchemesLenght; i++) {\n\n\t\t\tuint256 additionalRewards = calculateProportionalRewards(_userAddress, userRewards.sub(userAccruedRewards[_userAddress]), lockSchemes[i]);\n\t\t\tLockScheme(lockSchemes[i]).updateUserAccruedRewards(_userAddress, additionalRewards);\n\t\t}\n\t\tuserAccruedRewards[_userAddress]\t= userRewards;\n\t\t_stake(_tokenAmount, _userAddress, true);\n\n\t\tLockScheme(_lockScheme).lock(_userAddress, _tokenAmount);\n\n\t\temit StakedAndLocked( _userAddress, _tokenAmount, _lockScheme);\n\t}\n\n\tfunction exitAndUnlock() public nonReentrant {\n\t\t_exitAndUnlock(msg.sender);\n\t}\n\n\t/** @dev Exits the current campaing and claims the bonuses\n\t@param _userAddress the address of the staker\n\t */\n\tfunction _exitAndUnlock(address _userAddress) internal {\n\t\t\tUserInfo storage user = userInfo[_userAddress];\n\n\t\tif (user.amountStaked == 0) {\n\t\t\treturn;\n\t\t}\n\n\t\tupdateRewardMultipliers();\n\t\tupdateUserAccruedReward(_userAddress);\n\n\t\tuint256 finalRewards = user.tokensOwed[0].sub(userAccruedRewards[_userAddress]);\n\t\tuint256 lockSchemesLenght = lockSchemes.length;\n\t\n\t\tfor (uint256 i = 0; i < lockSchemesLenght; i++) {\n\t\t\tuint256 additionalRewards = calculateProportionalRewards(_userAddress, finalRewards, lockSchemes[i]);\n\n\t\t\tif(additionalRewards > 0) {\n\t\t\t\tLockScheme(lockSchemes[i]).updateUserAccruedRewards(_userAddress, additionalRewards);\n\t\t\t}\n\n\t\t\tuint256 bonus = LockScheme(lockSchemes[i]).exit(_userAddress);\n\t\t\tIERC20Detailed(rewardToken).safeTransfer(_userAddress, bonus);\n\t\t}\n\n\t\t_exit(_userAddress);\n\t\tuserAccruedRewards[_userAddress] = 0;\n\n\t\temit ExitedAndUnlocked(_userAddress);\n\t}\n\n\n\tfunction setReceiverWhitelisted(address receiver, bool whitelisted) override(StakeTransferer) onlyFactory public {\n\t\tStakeTransferer.setReceiverWhitelisted(receiver, whitelisted);\n\t}\n\tfunction exitAndStake(address _stakePool) external nonReentrant {\n\t\t\t_exitAndStake(msg.sender, _stakePool);\n\t}\n\n\t/** @dev Exits the current campaing, claims the bonus and stake all rewards to ALBT staking contract\n\t@param _userAddress the address of the staker\n\t@param _stakePool the address of the pool where the tokens will be staked\n\t */\n\tfunction _exitAndStake(address _userAddress,address _stakePool) internal onlyWhitelistedReceiver(_stakePool) {\n\t\t\t\n\t\tUserInfo storage user = userInfo[_userAddress];\n\t\t\n\t\tif (user.amountStaked == 0) {\n\t\t\treturn;\n\t\t}\n\n\t\tupdateRewardMultipliers();\n\t\tupdateUserAccruedReward(_userAddress);\n\n\t\tuint256 finalRewards = user.tokensOwed[0].sub(userAccruedRewards[_userAddress]);\n\t\tuint256 lockSchemesLenght = lockSchemes.length;\n\n\t\tuserAccruedRewards[_userAddress] = 0;\n\t\tuint256 userBonus;\n\t\tuint256 amountToStake;\n\t\tfor (uint256 i = 0; i < lockSchemesLenght; i++) {\n\n\t\t\tuint256 additionalRewards = calculateProportionalRewards(_userAddress, finalRewards, lockSchemes[i]);\n\t\t\tif(additionalRewards > 0) {\n\t\t\t\tLockScheme(lockSchemes[i]).updateUserAccruedRewards(_userAddress, additionalRewards);\n\t\t\t}\n\t\t\tuserBonus = LockScheme(lockSchemes[i]).exit(_userAddress);\n\t\t\tamountToStake = amountToStake.add(userBonus);\n\t\t}\n\n\t\tamountToStake = amountToStake.add(user.tokensOwed[0]);\n\t\t_withdraw(user.amountStaked, _userAddress);\n\t\tuser.tokensOwed[0] = 0;\n\t\t_claim(_userAddress);\n\n\t\tIERC20Detailed(rewardToken).safeApprove(_stakePool, amountToStake);\n\t\tStakeReceiver(_stakePool).delegateStake(_userAddress, amountToStake);\n\t}\n\n\t/** @dev Function calculating the proportional rewards between all lock schemes where the user has locked tokens\n\t@param _userAddress the address of the staker\n\t@param _accruedRewards all unAccruedRewards that needs to be split\n\t@param _lockScheme the address of the lock scheme\n\t */\n\tfunction calculateProportionalRewards(address _userAddress, uint256 _accruedRewards, address _lockScheme) internal view returns (uint256) {\n\t\tif(totalStaked == 0) {\n\t\t\treturn 0;\n\t\t}\n\t\t\t\n\t\tuint256 userLockedStake = LockScheme(_lockScheme).getUserLockedStake(_userAddress);\n\t\treturn _accruedRewards.mul(userLockedStake).div(totalStaked);\n\t}\n\n\t\n\tfunction exit() public override {\n\t\t_exitAndUnlock(msg.sender);\n\t}\n\n\tfunction stake(uint256 _tokenAmount) public override {\n\t\trevert(\"LiquidityMiningCampaign::staking without locking is forbidden\");\n\t}\n\n\tfunction exitAndTransfer(address transferTo) public override {\n\t\trevert(\"LiquidityMiningCampaign::exit and transfer is forbidden\");\n\t}\n\n\t/** @dev Sets all schemes that are part of the current LMC\n\t@param _lockSchemes the address of the staker\n\t */\n\tfunction setLockSchemes(address[] memory _lockSchemes) external onlyFactory {\n\n\t\tfor (uint256 i = 0; i < _lockSchemes.length; i++) {\n\t\t\tif(!lockSchemesExist[_lockSchemes[i]]) {\n\t\t\t\tlockSchemes.push(_lockSchemes[i]);\n\t\t\t\tlockSchemesExist[_lockSchemes[i]] = true;\n\t\t\t}\n\t\t}\n\t}\n}",
  "sourcePath": "/Users/martindobrev/Code/custom-token/contracts/LiquidityMiningCampaign.sol",
  "compiler": {
    "name": "solc",
    "version": "0.6.12+commit.27d51765.Emscripten.clang",
    "optimizer": true,
    "runs": 200
  },
  "schemaVersion": "2.3.5",
  "updatedAt": "2022-02-16T15:12:31.148Z"
}