{
  "contractName": "LockScheme",
  "abi": [
    {
      "inputs": [
        {
          "internalType": "uint256",
          "name": "_lockPeriod",
          "type": "uint256"
        },
        {
          "internalType": "uint256",
          "name": "_rampUpPeriod",
          "type": "uint256"
        },
        {
          "internalType": "uint256",
          "name": "_bonusPercent",
          "type": "uint256"
        },
        {
          "internalType": "address",
          "name": "_lmcContract",
          "type": "address"
        }
      ],
      "stateMutability": "nonpayable",
      "type": "constructor"
    },
    {
      "anonymous": false,
      "inputs": [
        {
          "indexed": true,
          "internalType": "address",
          "name": "_userAddress",
          "type": "address"
        },
        {
          "indexed": false,
          "internalType": "uint256",
          "name": "bonus",
          "type": "uint256"
        },
        {
          "indexed": false,
          "internalType": "bool",
          "name": "isBonusForreied",
          "type": "bool"
        }
      ],
      "name": "Exit",
      "type": "event"
    },
    {
      "anonymous": false,
      "inputs": [
        {
          "indexed": true,
          "internalType": "address",
          "name": "_userAddress",
          "type": "address"
        },
        {
          "indexed": false,
          "internalType": "uint256",
          "name": "_amountLocked",
          "type": "uint256"
        },
        {
          "indexed": false,
          "internalType": "uint256",
          "name": "_additionalReward",
          "type": "uint256"
        }
      ],
      "name": "Lock",
      "type": "event"
    },
    {
      "inputs": [],
      "name": "bonusPercent",
      "outputs": [
        {
          "internalType": "uint256",
          "name": "",
          "type": "uint256"
        }
      ],
      "stateMutability": "view",
      "type": "function"
    },
    {
      "inputs": [],
      "name": "forfeitedBonuses",
      "outputs": [
        {
          "internalType": "uint256",
          "name": "",
          "type": "uint256"
        }
      ],
      "stateMutability": "view",
      "type": "function"
    },
    {
      "inputs": [],
      "name": "lmcContract",
      "outputs": [
        {
          "internalType": "address",
          "name": "",
          "type": "address"
        }
      ],
      "stateMutability": "view",
      "type": "function"
    },
    {
      "inputs": [],
      "name": "lockPeriod",
      "outputs": [
        {
          "internalType": "uint256",
          "name": "",
          "type": "uint256"
        }
      ],
      "stateMutability": "view",
      "type": "function"
    },
    {
      "inputs": [],
      "name": "rampUpPeriod",
      "outputs": [
        {
          "internalType": "uint256",
          "name": "",
          "type": "uint256"
        }
      ],
      "stateMutability": "view",
      "type": "function"
    },
    {
      "inputs": [
        {
          "internalType": "address",
          "name": "",
          "type": "address"
        }
      ],
      "name": "userInfo",
      "outputs": [
        {
          "internalType": "uint256",
          "name": "balance",
          "type": "uint256"
        },
        {
          "internalType": "uint256",
          "name": "accruedReward",
          "type": "uint256"
        },
        {
          "internalType": "uint256",
          "name": "lockInitialStakeBlock",
          "type": "uint256"
        }
      ],
      "stateMutability": "view",
      "type": "function"
    },
    {
      "inputs": [
        {
          "internalType": "address",
          "name": "_userAddress",
          "type": "address"
        },
        {
          "internalType": "uint256",
          "name": "_amountToLock",
          "type": "uint256"
        }
      ],
      "name": "lock",
      "outputs": [],
      "stateMutability": "nonpayable",
      "type": "function"
    },
    {
      "inputs": [
        {
          "internalType": "address",
          "name": "_userAddress",
          "type": "address"
        }
      ],
      "name": "exit",
      "outputs": [
        {
          "internalType": "uint256",
          "name": "bonus",
          "type": "uint256"
        }
      ],
      "stateMutability": "nonpayable",
      "type": "function"
    },
    {
      "inputs": [
        {
          "internalType": "address",
          "name": "_userAddress",
          "type": "address"
        },
        {
          "internalType": "uint256",
          "name": "_rewards",
          "type": "uint256"
        }
      ],
      "name": "updateUserAccruedRewards",
      "outputs": [],
      "stateMutability": "nonpayable",
      "type": "function"
    },
    {
      "inputs": [
        {
          "internalType": "address",
          "name": "_userAddress",
          "type": "address"
        }
      ],
      "name": "getUserBonus",
      "outputs": [
        {
          "internalType": "uint256",
          "name": "bonus",
          "type": "uint256"
        }
      ],
      "stateMutability": "view",
      "type": "function"
    },
    {
      "inputs": [
        {
          "internalType": "address",
          "name": "_userAddress",
          "type": "address"
        }
      ],
      "name": "getUserAccruedReward",
      "outputs": [
        {
          "internalType": "uint256",
          "name": "",
          "type": "uint256"
        }
      ],
      "stateMutability": "view",
      "type": "function"
    },
    {
      "inputs": [
        {
          "internalType": "address",
          "name": "_userAddress",
          "type": "address"
        }
      ],
      "name": "getUserLockedStake",
      "outputs": [
        {
          "internalType": "uint256",
          "name": "",
          "type": "uint256"
        }
      ],
      "stateMutability": "view",
      "type": "function"
    },
    {
      "inputs": [
        {
          "internalType": "address",
          "name": "_userAddress",
          "type": "address"
        }
      ],
      "name": "hasUserRampUpEnded",
      "outputs": [
        {
          "internalType": "bool",
          "name": "",
          "type": "bool"
        }
      ],
      "stateMutability": "view",
      "type": "function"
    }
  ],
  "bytecode": "0x61010060405234801561001157600080fd5b50604051610ba6380380610ba68339818101604052608081101561003457600080fd5b508051602082015160408301516060909301516001600055919290916001600160a01b0381166100955760405162461bcd60e51b8152600401808060200182810382526021815260200180610b856021913960400191505060405180910390fd5b838311156100d45760405162461bcd60e51b815260040180806020018281038252602a815260200180610b5b602a913960400191505060405180910390fd5b608084905260a083905260c0829052606081901b6001600160601b03191660e0526001600160a01b0316610a07610154600039806102e4528061045352806104fb52806105a852508061064e528061078b528061089652508061037152806107af52806107f052508061042f52806106e5528061083c5250610a076000f3fe608060405234801561001057600080fd5b50600436106100cf5760003560e01c80638c6cf6111161008c578063becf3add11610066578063becf3add1461022a578063d107911114610232578063f884b5c91461023a578063ff3fa15b14610274576100cf565b80638c6cf611146101d0578063a94d1f50146101fc578063b42652e914610204576100cf565b80631959a002146100d457806322b0039a14610118578063282d3fdf146101505780633fd8b02f1461017e5780637005e21f1461018657806383a43772146101aa575b600080fd5b6100fa600480360360208110156100ea57600080fd5b50356001600160a01b031661029a565b60408051938452602084019290925282820152519081900360600190f35b61013e6004803603602081101561012e57600080fd5b50356001600160a01b03166102ba565b60408051918252519081900360200190f35b61017c6004803603604081101561016657600080fd5b506001600160a01b0381351690602001356102d9565b005b61013e61042d565b61018e610451565b604080516001600160a01b039092168252519081900360200190f35b61013e600480360360208110156101c057600080fd5b50356001600160a01b0316610475565b61017c600480360360408110156101e657600080fd5b506001600160a01b038135169060200135610493565b61013e610595565b61013e6004803603602081101561021a57600080fd5b50356001600160a01b031661059b565b61013e610789565b61013e6107ad565b6102606004803603602081101561025057600080fd5b50356001600160a01b03166107d1565b604080519115158252519081900360200190f35b61013e6004803603602081101561028a57600080fd5b50356001600160a01b0316610816565b600260208190526000918252604090912080546001820154919092015483565b6001600160a01b0381166000908152600260205260409020545b919050565b336001600160a01b037f000000000000000000000000000000000000000000000000000000000000000016146103405760405162461bcd60e51b81526004018080602001828103825260278152602001806109866027913960400191505060405180910390fd5b6001600160a01b03821660009081526002602081905260409091209081015461036a574360028201555b60028101547f0000000000000000000000000000000000000000000000000000000000000000014381116103cf5760405162461bcd60e51b81526004018080602001828103825260258152602001806109ad6025913960400191505060405180910390fd5b81546103db9084610924565b8255600182015460408051858152602081019290925280516001600160a01b038716927f49eaf4942f1237055eb4cfa5f31c9dfe50d5b4ade01e021f7de8be2fbbde557b92908290030190a250505050565b7f000000000000000000000000000000000000000000000000000000000000000081565b7f000000000000000000000000000000000000000000000000000000000000000081565b6001600160a01b031660009081526002602052604090206001015490565b600260005414156104eb576040805162461bcd60e51b815260206004820152601f60248201527f5265656e7472616e637947756172643a207265656e7472616e742063616c6c00604482015290519081900360640190fd5b6002600055336001600160a01b037f000000000000000000000000000000000000000000000000000000000000000016146105575760405162461bcd60e51b81526004018080602001828103825260278152602001806109866027913960400191505060405180910390fd5b6001600160a01b038216600090815260026020526040902080541561058b5760018101546105859083610924565b60018201555b5050600160005550565b60015481565b6000336001600160a01b037f000000000000000000000000000000000000000000000000000000000000000016146106045760405162461bcd60e51b81526004018080602001828103825260278152602001806109866027913960400191505060405180910390fd5b6001600160a01b0382166000908152600260205260408120805461062d576000925050506102d4565b73__PercentageCalculator__________________6354b4c28182600101547f00000000000000000000000000000000000000000000000000000000000000006040518363ffffffff1660e01b8152600401808381526020018281526020019250505060206040518083038186803b1580156106a857600080fd5b505af41580156106bc573d6000803e3d6000fd5b505050506040513d60208110156106d257600080fd5b50516002820154909350600090610709907f0000000000000000000000000000000000000000000000000000000000000000610924565b90508043101561072c576001546107209085610924565b60019081556000945092505b600060018301819055808355600283015560408051858152841515602082015281516001600160a01b038816927f50b652bf9592103738226e458011e77a50cee8c4d8cd0fb5191b13e7404cbc8d928290030190a2505050919050565b7f000000000000000000000000000000000000000000000000000000000000000081565b7f000000000000000000000000000000000000000000000000000000000000000081565b6001600160a01b031660009081526002602081905260409091200154437f00000000000000000000000000000000000000000000000000000000000000009091011090565b6001600160a01b03811660009081526002602081905260408220908101548290610860907f0000000000000000000000000000000000000000000000000000000000000000610924565b905080431015610875576000925050506102d4565b73__PercentageCalculator__________________6354b4c28183600101547f00000000000000000000000000000000000000000000000000000000000000006040518363ffffffff1660e01b8152600401808381526020018281526020019250505060206040518083038186803b1580156108f057600080fd5b505af4158015610904573d6000803e3d6000fd5b505050506040513d602081101561091a57600080fd5b5051949350505050565b60008282018381101561097e576040805162461bcd60e51b815260206004820152601b60248201527f536166654d6174683a206164646974696f6e206f766572666c6f770000000000604482015290519081900360640190fd5b939250505056fe6f6e6c794c6d633a3a43616c6c6572206973206e6f7420746865204c4d4320636f6e74726163746c6f636b3a3a5468652072616d7020757020706572696f64206861732066696e6973686564a26469706673582212205d5f75cdc609a7dd2034840faa6c803baac1447afd659c46546d16e6ce79d3ba64736f6c634300060c0033636f6e7374727563746f723a3a20506572696f647320617265206e6f742070726f7065726c7920736574636f6e7374727563746f723a3a20496e76616c6964204c4d432061646472657373",
  "source": "// SPDX-License-Identifier: MIT\npragma solidity 0.6.12;\n\nimport \"openzeppelin-solidity/contracts/math/Math.sol\";\nimport \"openzeppelin-solidity/contracts/math/SafeMath.sol\";\nimport \"./interfaces/IERC20Detailed.sol\";\nimport \"./SafeERC20Detailed.sol\";\nimport \"./PercentageCalculator.sol\";\nimport \"openzeppelin-solidity/contracts/utils/ReentrancyGuard.sol\";\n\ncontract LockScheme is ReentrancyGuard {\n\n\tusing SafeMath for uint256;\n\tusing SafeERC20Detailed for IERC20Detailed;\n\n\tuint256 public immutable lockPeriod; // The period of blocks that the stake is locked for this contract\n\tuint256 public immutable rampUpPeriod; // The period since the beginning of the lock that additions can be considered the same position.Might be 0 for the 0% lock periods\n\tuint256 public immutable bonusPercent; // saved in thousands = ex 3% = 3000\n\taddress public immutable lmcContract; // The address of the lmc contract\n\tuint256 public forfeitedBonuses;\n\n\tstruct UserInfo {\n\t\tuint256 balance; // IOU Balance for this lock contract\n\t\tuint256 accruedReward; // Reward accrued by an address from previous additions\n\t\tuint256 lockInitialStakeBlock;\n\t}\n\n\tmapping(address => UserInfo) public userInfo;\n\n\tevent Lock(address indexed _userAddress, uint256 _amountLocked, uint256 _additionalReward);\n\tevent Exit(address indexed _userAddress, uint256 bonus, bool isBonusForreied);\n\n\tmodifier onlyLmc() {\n\t\t  require(\n\t\t\tmsg.sender == lmcContract,\n\t\t\t\"onlyLmc::Caller is not the LMC contract\"\n\t\t);\n\t\t_;\n\t}\n\n\tconstructor(\n\t\tuint256 _lockPeriod,\n\t\tuint256 _rampUpPeriod,\n\t\tuint256 _bonusPercent,\n\t\taddress _lmcContract\n\t) public {\n\n\t\trequire(_lmcContract != address(0x0), \"constructor:: Invalid LMC address\");\n\t\trequire(_rampUpPeriod <= _lockPeriod, \"constructor:: Periods are not properly set\");\n\t\tlockPeriod = _lockPeriod;\n\t\trampUpPeriod = _rampUpPeriod;\n\t\tbonusPercent = _bonusPercent;\n\t\tlmcContract = _lmcContract;\n\t}\n\n\t/** @dev Locks the tokens into the current scheme, and updates user information\n\t@param _userAddress address of the staker\n\t@param _amountToLock the amount to be locked\n\t */\n\tfunction lock(address _userAddress, uint256 _amountToLock) public onlyLmc {\n\n\t\tUserInfo storage user = userInfo[_userAddress];\n\n\t\tif(user.lockInitialStakeBlock == 0) {\n\t\t\tuser.lockInitialStakeBlock = block.number;\n\t\t}\n\t\t\n\t\tuint256 userLockStartBlock = user.lockInitialStakeBlock + rampUpPeriod;\n\n\t\trequire(userLockStartBlock > block.number , \"lock::The ramp up period has finished\");\n\n\t\tuser.balance = user.balance.add(_amountToLock);\n\n\t\temit Lock(_userAddress, _amountToLock, user.accruedReward);\n\t}\n\n\t/** @dev Exits the current lock scheme, calculates the bonus, updates user information\n\t@param _userAddress address of the user\n\t@return bonus the bonus of the user\n\t */\n\tfunction exit(address _userAddress) public onlyLmc returns(uint256 bonus) {\n\n\t\tbool isBonusForfeited = false;\n\t\tUserInfo storage user = userInfo[_userAddress];\n\t\tif(user.balance == 0) {\n\t\t\treturn 0;\n\t\t \n\t\t}\n\t\tbonus = PercentageCalculator.percentageCalc(user.accruedReward,bonusPercent);\n\t\tuint256 userLockEnd = user.lockInitialStakeBlock.add(lockPeriod);\n\n\t\tif(block.number < userLockEnd) {\n\t\t\tforfeitedBonuses = forfeitedBonuses.add(bonus);\n\t\t\tbonus = 0;\n\t\t\tisBonusForfeited = true;\n\n\t\t}\n\n\t\tuser.accruedReward = 0;\n\t\tuser.balance = 0;\n\t\tuser.lockInitialStakeBlock = 0;\n\t\n\t\temit Exit(_userAddress, bonus, isBonusForfeited);\n\n\t\treturn bonus;\n\t}\n\t\t\n\t/** @dev Updates the accrued rewards of the user\n\t@param _userAddress address of the user\n\t@param _rewards the rewards that will be added\n\t */\n\tfunction updateUserAccruedRewards(address _userAddress, uint256 _rewards) public nonReentrant onlyLmc {\n\t\tUserInfo storage user = userInfo[_userAddress];\n\t\tif(user.balance > 0) {\n\t\t\tuser.accruedReward = user.accruedReward.add(_rewards);\n\t\t}\n\t}\n\n\tfunction getUserBonus(address _userAddress) public view returns(uint256 bonus) {\n\t\tUserInfo storage user = userInfo[_userAddress];\n\t\tuint256 userLockEnd = user.lockInitialStakeBlock.add(lockPeriod);\n\n\t\tif(block.number < userLockEnd) {\n\t\t\treturn 0;\n\t\t}\n\n\t\treturn PercentageCalculator.percentageCalc(user.accruedReward,bonusPercent);\n\t}\n\n\tfunction getUserAccruedReward(address _userAddress) public view returns( uint256 ) {\n\t\tUserInfo storage user = userInfo[_userAddress];\n\t\treturn user.accruedReward;\n\t}\n\n\tfunction getUserLockedStake(address _userAddress) public view returns(uint256) {\n\t\tUserInfo storage user = userInfo[_userAddress];\n\t\treturn user.balance;\n\t}\n\n\t/** @dev Returns whether the rampup period for a given user has ended\n\t@param _userAddress address of the user\n\t@return has the rapm up period has ended or not\n\t */\n\tfunction hasUserRampUpEnded(address _userAddress) public view returns(bool) {\n\t\tUserInfo storage user = userInfo[_userAddress];\n\t\tuint256 userLockStartBlock = user.lockInitialStakeBlock + rampUpPeriod;\n\t\treturn userLockStartBlock < block.number;\n\t}\n\n}\n",
  "sourcePath": "/Users/martindobrev/Code/custom-token/contracts/LockScheme.sol",
  "compiler": {
    "name": "solc",
    "version": "0.6.12+commit.27d51765.Emscripten.clang",
    "optimizer": true,
    "runs": 200
  },
  "schemaVersion": "2.3.5",
  "updatedAt": "2022-02-16T15:12:31.156Z"
}