{
  "contractName": "NonCompoundingRewardsPoolFactory",
  "abi": [
    {
      "inputs": [
        {
          "internalType": "address",
          "name": "_treasury",
          "type": "address"
        },
        {
          "internalType": "address",
          "name": "_externalRewardToken",
          "type": "address"
        }
      ],
      "stateMutability": "nonpayable",
      "type": "constructor"
    },
    {
      "anonymous": false,
      "inputs": [
        {
          "indexed": true,
          "internalType": "address",
          "name": "_oldOwner",
          "type": "address"
        },
        {
          "indexed": true,
          "internalType": "address",
          "name": "_newOwner",
          "type": "address"
        }
      ],
      "name": "OwnershipTransferProposed",
      "type": "event"
    },
    {
      "anonymous": false,
      "inputs": [
        {
          "indexed": true,
          "internalType": "address",
          "name": "_newOwner",
          "type": "address"
        }
      ],
      "name": "OwnershipTransferred",
      "type": "event"
    },
    {
      "anonymous": false,
      "inputs": [
        {
          "indexed": false,
          "internalType": "address",
          "name": "transferer",
          "type": "address"
        },
        {
          "indexed": false,
          "internalType": "address",
          "name": "receiver",
          "type": "address"
        }
      ],
      "name": "ReceiverEnabled",
      "type": "event"
    },
    {
      "anonymous": false,
      "inputs": [
        {
          "indexed": true,
          "internalType": "address",
          "name": "rewardsPoolAddress",
          "type": "address"
        },
        {
          "indexed": true,
          "internalType": "address",
          "name": "stakingToken",
          "type": "address"
        }
      ],
      "name": "RewardsPoolDeployed",
      "type": "event"
    },
    {
      "anonymous": false,
      "inputs": [
        {
          "indexed": false,
          "internalType": "address",
          "name": "rewardsToken",
          "type": "address"
        },
        {
          "indexed": false,
          "internalType": "uint256",
          "name": "amount",
          "type": "uint256"
        }
      ],
      "name": "RewardsWithdrawn",
      "type": "event"
    },
    {
      "inputs": [],
      "name": "acceptOwnership",
      "outputs": [],
      "stateMutability": "nonpayable",
      "type": "function"
    },
    {
      "inputs": [
        {
          "internalType": "uint256",
          "name": "_startBlock",
          "type": "uint256"
        },
        {
          "internalType": "uint256",
          "name": "_endBlock",
          "type": "uint256"
        },
        {
          "internalType": "uint256",
          "name": "_rewardPerBlock",
          "type": "uint256"
        }
      ],
      "name": "calculateRewardsAmount",
      "outputs": [
        {
          "internalType": "uint256",
          "name": "",
          "type": "uint256"
        }
      ],
      "stateMutability": "pure",
      "type": "function"
    },
    {
      "inputs": [
        {
          "internalType": "address",
          "name": "transferer",
          "type": "address"
        },
        {
          "internalType": "address[]",
          "name": "receivers",
          "type": "address[]"
        }
      ],
      "name": "enableReceivers",
      "outputs": [],
      "stateMutability": "nonpayable",
      "type": "function"
    },
    {
      "inputs": [],
      "name": "externalRewardToken",
      "outputs": [
        {
          "internalType": "address",
          "name": "",
          "type": "address"
        }
      ],
      "stateMutability": "view",
      "type": "function"
    },
    {
      "inputs": [],
      "name": "getRewardsPoolNumber",
      "outputs": [
        {
          "internalType": "uint256",
          "name": "",
          "type": "uint256"
        }
      ],
      "stateMutability": "view",
      "type": "function"
    },
    {
      "inputs": [],
      "name": "owner",
      "outputs": [
        {
          "internalType": "address",
          "name": "",
          "type": "address"
        }
      ],
      "stateMutability": "view",
      "type": "function"
    },
    {
      "inputs": [
        {
          "internalType": "uint256",
          "name": "",
          "type": "uint256"
        }
      ],
      "name": "rewardsPools",
      "outputs": [
        {
          "internalType": "address",
          "name": "",
          "type": "address"
        }
      ],
      "stateMutability": "view",
      "type": "function"
    },
    {
      "inputs": [
        {
          "internalType": "address",
          "name": "newOwner",
          "type": "address"
        }
      ],
      "name": "transferOwnership",
      "outputs": [],
      "stateMutability": "nonpayable",
      "type": "function"
    },
    {
      "inputs": [],
      "name": "treasury",
      "outputs": [
        {
          "internalType": "address",
          "name": "",
          "type": "address"
        }
      ],
      "stateMutability": "view",
      "type": "function"
    },
    {
      "inputs": [
        {
          "internalType": "address",
          "name": "rewardsPoolAddress",
          "type": "address"
        },
        {
          "internalType": "address",
          "name": "recipient",
          "type": "address"
        },
        {
          "internalType": "address",
          "name": "lpTokenContract",
          "type": "address"
        }
      ],
      "name": "withdrawLPRewards",
      "outputs": [],
      "stateMutability": "nonpayable",
      "type": "function"
    },
    {
      "inputs": [
        {
          "internalType": "address",
          "name": "_rewardsToken",
          "type": "address"
        }
      ],
      "name": "withdrawRewardsLeftovers",
      "outputs": [],
      "stateMutability": "nonpayable",
      "type": "function"
    },
    {
      "inputs": [
        {
          "internalType": "address",
          "name": "_stakingToken",
          "type": "address"
        },
        {
          "internalType": "uint256",
          "name": "_startBlock",
          "type": "uint256"
        },
        {
          "internalType": "uint256",
          "name": "_endBlock",
          "type": "uint256"
        },
        {
          "internalType": "address[]",
          "name": "_rewardsTokens",
          "type": "address[]"
        },
        {
          "internalType": "uint256[]",
          "name": "_rewardPerBlock",
          "type": "uint256[]"
        },
        {
          "internalType": "uint256",
          "name": "_stakeLimit",
          "type": "uint256"
        },
        {
          "internalType": "uint256",
          "name": "_throttleRoundBlocks",
          "type": "uint256"
        },
        {
          "internalType": "uint256",
          "name": "_throttleRoundCap",
          "type": "uint256"
        },
        {
          "internalType": "uint256",
          "name": "_contractStakeLimit",
          "type": "uint256"
        }
      ],
      "name": "deploy",
      "outputs": [],
      "stateMutability": "nonpayable",
      "type": "function"
    }
  ],
  "bytecode": "0x60c060405234801561001057600080fd5b506040516154883803806154888339818101604052604081101561003357600080fd5b508051602090910151600180546001600160a01b031916331790556001600160a01b0382166100935760405162461bcd60e51b815260040180806020018281038252604981526020018061543f6049913960600191505060405180910390fd5b6001600160a01b0381166100d85760405162461bcd60e51b81526004018080602001828103825260508152602001806153ef6050913960600191505060405180910390fd5b6001600160601b0319606092831b8116608052911b1660a05260805160601c60a05160601c6152cb610124600039806106d752806108f25250806108d15280610bbc52506152cb6000f3fe60806040523480156200001157600080fd5b5060043610620000c45760003560e01c80637f270667116200007b5780637f27066714620002f35780638da5cb5b1462000331578063a1717c02146200033b578063b7b8fbd21462000345578063dc8afbc1146200036e578063f2fde38b146200038e57620000c4565b80630d50caf214620000c95780632bb4e2691462000184578063333609b614620001bf57806354d6424d14620001e557806361d027b314620002df57806379ba509714620002e9575b600080fd5b6200018260048036036040811015620000e157600080fd5b6001600160a01b0382351691908101906040810160208201356401000000008111156200010d57600080fd5b8201836020820111156200012057600080fd5b803590602001918460208302840111640100000000831117156200014357600080fd5b919080806020026020016040519081016040528093929190818152602001838360200280828437600092019190915250929550620003b7945050505050565b005b62000182600480360360608110156200019c57600080fd5b506001600160a01b038135811691602081013582169160409091013516620005bb565b620001c9620006d5565b604080516001600160a01b039092168252519081900360200190f35b620001826004803603610120811015620001fe57600080fd5b6001600160a01b0382351691602081013591604082013591908101906080810160608201356401000000008111156200023657600080fd5b8201836020820111156200024957600080fd5b803590602001918460208302840111640100000000831117156200026c57600080fd5b9193909290916020810190356401000000008111156200028b57600080fd5b8201836020820111156200029e57600080fd5b80359060200191846020830284011164010000000083111715620002c157600080fd5b919350915080359060208101359060408101359060600135620006f9565b620001c962000bba565b6200018262000bde565b6200031f600480360360608110156200030b57600080fd5b508035906020810135906040013562000c78565b60408051918252519081900360200190f35b620001c962000cdf565b6200031f62000cee565b62000182600480360360208110156200035d57600080fd5b50356001600160a01b031662000cf4565b620001c9600480360360208110156200038657600080fd5b503562000e1d565b6200018260048036036020811015620003a657600080fd5b50356001600160a01b031662000e45565b6001546001600160a01b03163314620004025760405162461bcd60e51b8152600401808060200182810382526027815260200180620051386027913960400191505060405180910390fd5b6001600160a01b038216620004495760405162461bcd60e51b815260040180806020018281038252602781526020018062004fdb6027913960400191505060405180910390fd5b8160005b8251811015620005b55760006001600160a01b03168382815181106200046f57fe5b60200260200101516001600160a01b03161415620004bf5760405162461bcd60e51b815260040180806020018281038252602581526020018062004ece6025913960400191505060405180910390fd5b816001600160a01b031663a861a7a3848381518110620004db57fe5b602002602001015160016040518363ffffffff1660e01b815260040180836001600160a01b03168152602001821515815260200192505050600060405180830381600087803b1580156200052e57600080fd5b505af115801562000543573d6000803e3d6000fd5b505050507f49564019f9d19850e264e194f9d42848c8324fa8fc4261d7f6b2e7d987d3a0bb848483815181106200057657fe5b602002602001015160405180836001600160a01b03168152602001826001600160a01b031681526020019250505060405180910390a16001016200044d565b50505050565b6001546001600160a01b03163314620006065760405162461bcd60e51b8152600401808060200182810382526027815260200180620051386027913960400191505060405180910390fd5b6001600160a01b03831662000662576040805162461bcd60e51b815260206004820152601b60248201527f73746172745374616b696e673a3a206e6f74206465706c6f7965640000000000604482015290519081900360640190fd5b6040805163a1002a0f60e01b81526001600160a01b03848116600483015283811660248301529151859283169163a1002a0f91604480830192600092919082900301818387803b158015620006b657600080fd5b505af1158015620006cb573d6000803e3d6000fd5b5050505050505050565b7f000000000000000000000000000000000000000000000000000000000000000081565b6001546001600160a01b03163314620007445760405162461bcd60e51b8152600401808060200182810382526027815260200180620051386027913960400191505060405180910390fd5b6001600160a01b038b166200078b5760405162461bcd60e51b81526004018080602001828103825260558152602001806200509a6055913960600191505060405180910390fd5b86620007c95760405162461bcd60e51b815260040180806020018281038252605081526020018062004ef36050913960600191505060405180910390fd5b868514620008095760405162461bcd60e51b81526004018080602001828103825260678152602001806200515f6067913960800191505060405180910390fd5b83620008475760405162461bcd60e51b8152600401808060200182810382526049815260200180620050ef6049913960600191505060405180910390fd5b82620008855760405162461bcd60e51b8152600401808060200182810382526053815260200180620051c66053913960600191505060405180910390fd5b81620008c35760405162461bcd60e51b8152600401808060200182810382526050815260200180620050026050913960600191505060405180910390fd5b60008b8b8b8b8b8b8b8b8b8b7f00000000000000000000000000000000000000000000000000000000000000007f00000000000000000000000000000000000000000000000000000000000000008d60405162000920906200122b565b808e6001600160a01b031681526020018d81526020018c81526020018060200180602001898152602001888152602001878152602001866001600160a01b03168152602001856001600160a01b0316815260200184815260200183810383528d8d82818152602001925060200280828437600083820152601f01601f191690910184810383528b8152602090810191508c908c0280828437600081840152601f19601f8201169050808301925050509f50505050505050505050505050505050604051809103906000f080158015620009fd573d6000803e3d6000fd5b50905060005b8881101562000b325760008a8a8381811062000a1b57fe5b905060200201356001600160a01b03166001600160a01b0316141562000a735760405162461bcd60e51b8152600401808060200182810382526053815260200180620052436053913960600191505060405180910390fd5b87878281811062000a8057fe5b905060200201356000141562000ac85760405162461bcd60e51b815260040180806020018281038252605481526020018062004f436054913960600191505060405180910390fd5b600062000aea8d8d8b8b8681811062000add57fe5b9050602002013562000c78565b905062000b2883828d8d8681811062000aff57fe5b905060200201356001600160a01b03166001600160a01b031662000f409092919063ffffffff16565b5060010162000a03565b50600080546001810182558180527f290decd9548b62a8d60345a988386fc84ba6bc95484008f6362f93160ef3e5630180546001600160a01b0319166001600160a01b03848116918217909255604051918f169290917f0beb358d424af29f69271ee3de8255f28779b3af5cd0b8f8e785aa39c76677009190a3505050505050505050505050565b7f000000000000000000000000000000000000000000000000000000000000000081565b6002546001600160a01b0316331462000c295760405162461bcd60e51b8152600401808060200182810382526027815260200180620050736027913960400191505060405180910390fd5b600254600180546001600160a01b0319166001600160a01b0392831617908190556040519116907f04dba622d284ed0014ee4b9a6a68386be1a4c08a4913ae272de89199cc68616390600090a2565b600080821162000cba5760405162461bcd60e51b815260040180806020018281038252604481526020018062004f976044913960600191505060405180910390fd5b600062000cc8848662000f99565b905062000cd6838262000ffc565b95945050505050565b6001546001600160a01b031681565b60005490565b6001546001600160a01b0316331462000d3f5760405162461bcd60e51b8152600401808060200182810382526027815260200180620051386027913960400191505060405180910390fd5b6000816001600160a01b03166370a08231306040518263ffffffff1660e01b815260040180826001600160a01b0316815260200191505060206040518083038186803b15801562000d8f57600080fd5b505afa15801562000da4573d6000803e3d6000fd5b505050506040513d602081101562000dbb57600080fd5b5051905062000dd56001600160a01b038316338362000f40565b604080516001600160a01b03841681526020810183905281517f8a43c4352486ec339f487f64af78ca5cbf06cd47833f073d3baf3a193e503161929181900390910190a15050565b6000818154811062000e2b57fe5b6000918252602090912001546001600160a01b0316905081565b6001546001600160a01b0316331462000e905760405162461bcd60e51b8152600401808060200182810382526027815260200180620051386027913960400191505060405180910390fd5b6001600160a01b03811662000eec576040805162461bcd60e51b815260206004820152601d60248201527f43616e6e6f7420736574206f776e657220746f20302061646472657373000000604482015290519081900360640190fd5b600280546001600160a01b0319166001600160a01b038381169190911790915560015460405191169033907ff4e75b79500ab730f8a026ed3cba6d55331bcb64c9e9f60c548e371356e5e3c090600090a350565b604080516001600160a01b038416602482015260448082018490528251808303909101815260649091019091526020810180516001600160e01b031663a9059cbb60e01b17905262000f9490849062001061565b505050565b60008282111562000ff1576040805162461bcd60e51b815260206004820152601e60248201527f536166654d6174683a207375627472616374696f6e206f766572666c6f770000604482015290519081900360640190fd5b508082035b92915050565b6000826200100d5750600062000ff6565b828202828482816200101b57fe5b04146200105a5760405162461bcd60e51b8152600401808060200182810382526021815260200180620050526021913960400191505060405180910390fd5b9392505050565b62001075826001600160a01b031662001225565b620010c7576040805162461bcd60e51b815260206004820152601f60248201527f5361666545524332303a2063616c6c20746f206e6f6e2d636f6e747261637400604482015290519081900360640190fd5b60006060836001600160a01b0316836040518082805190602001908083835b60208310620011075780518252601f199092019160209182019101620010e6565b6001836020036101000a0380198251168184511680821785525050505050509050019150506000604051808303816000865af19150503d80600081146200116b576040519150601f19603f3d011682016040523d82523d6000602084013e62001170565b606091505b509150915081620011c8576040805162461bcd60e51b815260206004820181905260248201527f5361666545524332303a206c6f772d6c6576656c2063616c6c206661696c6564604482015290519081900360640190fd5b805115620005b557808060200190516020811015620011e657600080fd5b5051620005b55760405162461bcd60e51b815260040180806020018281038252602a81526020018062005219602a913960400191505060405180910390fd5b3b151590565b613c94806200123a8339019056fe60e06040523480156200001157600080fd5b5060405162003c9438038062003c9483398181016040526101608110156200003857600080fd5b8151602083015160408085015160608601805192519496939591949391820192846401000000008211156200006c57600080fd5b9083019060208201858111156200008257600080fd5b8251866020820283011164010000000082111715620000a057600080fd5b82525081516020918201928201910280838360005b83811015620000cf578181015183820152602001620000b5565b5050505090500160405260200180516040519392919084640100000000821115620000f957600080fd5b9083019060208201858111156200010f57600080fd5b82518660208202830111640100000000821117156200012d57600080fd5b82525081516020918201928201910280838360005b838110156200015c57818101518382015260200162000142565b505050509190910160409081526020830151908301516060840151608085015160a086015160c090960151600160005593975091955093909250908183808b8e8e828e8e8e8a620001ac6200047f565b8611620001eb5760405162461bcd60e51b815260040180806020018281038252603681526020018062003c5e6036913960400191505060405180910390fd5b620001f56200047f565b8511620002345760405162461bcd60e51b815260040180806020018281038252603181526020018062003b406031913960400191505060405180910390fd5b8351835114620002765760405162461bcd60e51b815260040180806020018281038252604f81526020018062003b71604f913960600191505060405180910390fd5b81620002b45760405162461bcd60e51b815260040180806020018281038252603081526020018062003adf6030913960400191505060405180910390fd5b80620002f25760405162461bcd60e51b815260040180806020018281038252603a81526020018062003c24603a913960400191505060405180910390fd5b600480546001600160a01b0319166001600160a01b038916179055825162000322906002906020860190620005df565b50600586905560068590558351620003429060039060208701906200062f565b50600554600755600980546001600160a01b03191633179055600a829055600b81905560005b600354811015620003b257600880546001818101835560009283527ff3f7a9fe364faab93b216da50a3214154f22a0a2b415b23a84c8169e8b636ee3909101919091550162000368565b5050505050505050438111620003fa5760405162461bcd60e51b815260040180806020018281038252602e81526020018062003bf6602e913960400191505060405180910390fd5b6080526001600160a01b038116620004445760405162461bcd60e51b815260040180806020018281038252602181526020018062003abe6021913960400191505060405180910390fd5b6001600160601b0319606091821b811660a05292901b90911660c052506200046e85858b62000483565b5050505050505050505050620006cd565b4390565b60008311620004c45760405162461bcd60e51b815260040180806020018281038252603681526020018062003bc06036913960400191505060405180910390fd5b60008211620005055760405162461bcd60e51b815260040180806020018281038252603381526020018062003a8b6033913960400191505060405180910390fd5b600f54158015620005165750601054155b620005535760405162461bcd60e51b815260040180806020018281038252603181526020018062003b0f6031913960400191505060405180910390fd5b600f83905560108290556200057581846200057d602090811b6200183917901c565b600d55505050565b600082820183811015620005d8576040805162461bcd60e51b815260206004820152601b60248201527f536166654d6174683a206164646974696f6e206f766572666c6f770000000000604482015290519081900360640190fd5b9392505050565b8280548282559060005260206000209081019282156200061d579160200282015b828111156200061d57825182559160200191906001019062000600565b506200062b92915062000695565b5090565b82805482825590600052602060002090810192821562000687579160200282015b828111156200068757825182546001600160a01b0319166001600160a01b0390911617825560209092019160019091019062000650565b506200062b929150620006ac565b5b808211156200062b576000815560010162000696565b5b808211156200062b5780546001600160a01b0319168155600101620006ad565b60805160a05160601c60c05160601c6133546200073760003980610c8d5280610e0c52806120115280612059528061209f525080610be05280610c4e5280610dab5280610e565280611ace525080610b6d5280610f0352806120ec528061232852506133546000f3fe608060405234801561001057600080fd5b50600436106102735760003560e01c806370a0823111610151578063a861a7a3116100c3578063dd2da22011610087578063dd2da220146107c6578063df9d777f146107ce578063e9fad8ee146107fa578063ee483cdf14610802578063f27d02641461080a578063fb58cad11461083657610273565b8063a861a7a31461073f578063a9f8d1811461076d578063b01eb66014610775578063b6d0dcd81461077d578063ce4153021461079a57610273565b80638587edbb116101155780638587edbb1461067a57806394f66417146106825780639c3705c7146106a8578063a1002a0f146106ce578063a1292aea146106fc578063a694fc3a1461072257610273565b806370a082311461060a5780637211bbc91461063057806372f702f31461064d578063791f39cd14610655578063817b1cd21461067257610273565b8063363291dc116101ea5780634ff3306f116101ae5780634ff3306f146105c557806350afa34b146105cd57806356409b81146105ea57806357b4f01f146105f257806361d027b3146105fa5780636eb957df1461060257610273565b8063363291dc146105475780633c323a1b1461058157806345ef79af146105ad57806348cd4cb1146105b55780634e71d92d146105bd57610273565b806320e67c761161023c57806320e67c76146103075780632240e63c146104bb57806325d5971f146104e15780632d9e88e1146104fe5780632e1a7d4d14610506578063333609b61461052357610273565b806284c9271461027857806303d1dae0146102b0578063083c6323146102b85780631959a002146102c05780631c1f9cc0146102ff575b600080fd5b61029e6004803603602081101561028e57600080fd5b50356001600160a01b0316610853565b60408051918252519081900360200190f35b61029e6108bd565b61029e6108c3565b6102e6600480360360208110156102d657600080fd5b50356001600160a01b03166108c9565b6040805192835260208301919091528051918290030190f35b61029e6108e2565b6104b96004803603608081101561031d57600080fd5b8135919081019060408101602082013564010000000081111561033f57600080fd5b82018360208201111561035157600080fd5b8035906020019184602083028401116401000000008311171561037357600080fd5b91908080602002602001604051908101604052809392919081815260200183836020028082843760009201919091525092959493602081019350359150506401000000008111156103c357600080fd5b8201836020820111156103d557600080fd5b803590602001918460208302840111640100000000831117156103f757600080fd5b919080806020026020016040519081016040528093929190818152602001838360200280828437600092019190915250929594936020810193503591505064010000000081111561044757600080fd5b82018360208201111561045957600080fd5b8035906020019184602083028401116401000000008311171561047b57600080fd5b9190808060200260200160405190810160405280939291908181526020018383602002808284376000920191909152509295506108e8945050505050565b005b6104b9600480360360208110156104d157600080fd5b50356001600160a01b0316610b6b565b6104b9600480360360208110156104f757600080fd5b5035610bd5565b61029e610c7c565b6104b96004803603602081101561051c57600080fd5b5035610c82565b61052b610c8b565b604080516001600160a01b039092168252519081900360200190f35b61056d6004803603602081101561055d57600080fd5b50356001600160a01b0316610caf565b604080519115158252519081900360200190f35b6104b96004803603604081101561059757600080fd5b506001600160a01b038135169060200135610cc4565b61029e610d84565b61029e610d8a565b6104b9610d90565b61029e610d9a565b6104b9600480360360208110156105e357600080fd5b5035610da0565b61052b610e31565b61056d610e40565b61052b610e54565b61029e610e78565b61029e6004803603602081101561062057600080fd5b50356001600160a01b0316610e7e565b61029e6004803603602081101561064657600080fd5b5035610e9c565b61052b610ece565b61029e6004803603602081101561066b57600080fd5b5035610edd565b61029e610efb565b61029e610f01565b6102e66004803603602081101561069857600080fd5b50356001600160a01b0316610f25565b61029e600480360360208110156106be57600080fd5b50356001600160a01b0316610f3e565b6104b9600480360360408110156106e457600080fd5b506001600160a01b0381358116916020013516610f50565b61029e6004803603602081101561071257600080fd5b50356001600160a01b03166111b9565b6104b96004803603602081101561073857600080fd5b503561121f565b6104b96004803603604081101561075557600080fd5b506001600160a01b038135169060200135151561127e565b61029e6112d1565b6104b96112d7565b61052b6004803603602081101561079357600080fd5b50356113a8565b61029e600480360360408110156107b057600080fd5b506001600160a01b0381351690602001356113cf565b6104b9611453565b61029e600480360360408110156107e457600080fd5b506001600160a01b0381351690602001356115f8565b6104b96117af565b61029e6117b7565b61029e6004803603604081101561082057600080fd5b506001600160a01b0381351690602001356117bd565b61029e6004803603602081101561084c57600080fd5b503561182c565b60006001600160a01b03821661089a5760405162461bcd60e51b815260040180806020018281038252602d815260200180612ee4602d913960400191505060405180910390fd5b506001600160a01b0381166000908152600c60205260409020600201545b919050565b600b5481565b60065481565b600c602052600090815260409020805460019091015482565b600d5481565b6009546001600160a01b031633146109315760405162461bcd60e51b81526004018080602001828103825260298152602001806132c06029913960400191505060405180910390fd5b61093961189a565b84116109765760405162461bcd60e51b815260040180806020018281038252602781526020018061326f6027913960400191505060405180910390fd5b6006548410156109b75760405162461bcd60e51b8152600401808060200182810382526035815260200180612f606035913960400191505060405180910390fd5b6003548351146109f85760405162461bcd60e51b81526004018080602001828103825260348152602001806131696034913960400191505060405180910390fd5b610a00611453565b60005b8351811015610ae057600060038281548110610a1b57fe5b60009182526020909120015483516001600160a01b039091169150839083908110610a4257fe5b6020026020010151848381518110610a5657fe5b60200260200101511115610aaa57610aaa33848481518110610a7457fe5b6020026020010151868581518110610a8857fe5b602002602001015103836001600160a01b031661189e9092919063ffffffff16565b848281518110610ab657fe5b602002602001015160028381548110610acb57fe5b60009182526020909120015550600101610a03565b50836006819055507f137c92cc7579cc4d6a2b109467cd475c205d1c136363ca854cc46d72f840d5de84846040518083815260200180602001828103825283818151815260200191508051906020019060200280838360005b83811015610b51578181015183820152602001610b39565b50505050905001935050505060405180910390a150505050565b7f00000000000000000000000000000000000000000000000000000000000000004311610bc95760405162461bcd60e51b81526004018080602001828103825260428152602001806130266042913960600191505060405180910390fd5b610bd2816118f0565b50565b336001600160a01b037f00000000000000000000000000000000000000000000000000000000000000001614610c3c5760405162461bcd60e51b8152600401808060200182810382526028815260200180612f386028913960400191505060405180910390fd5b600454610c73906001600160a01b03167f00000000000000000000000000000000000000000000000000000000000000008361189e565b610bd281611ac3565b60035490565b610bd281611b60565b7f000000000000000000000000000000000000000000000000000000000000000081565b60126020526000908152604090205460ff1681565b60008111610d19576040805162461bcd60e51b815260206004820152601c60248201527f64656c65676174655374616b653a3a4e6f207374616b652073656e7400000000604482015290519081900360640190fd5b6001600160a01b038216610d74576040805162461bcd60e51b815260206004820152601d60248201527f64656c65676174655374616b653a3a496e76616c6964207374616b6572000000604482015290519081900360640190fd5b610d8081836000611b97565b5050565b600a5481565b60055481565b610d98611f12565b565b60105481565b336001600160a01b037f00000000000000000000000000000000000000000000000000000000000000001614610e075760405162461bcd60e51b8152600401808060200182810382526028815260200180612f386028913960400191505060405180910390fd5b610bd27f000000000000000000000000000000000000000000000000000000000000000082611f49565b6009546001600160a01b031681565b6000600554610e4d61189a565b1015905090565b7f000000000000000000000000000000000000000000000000000000000000000081565b600f5481565b6001600160a01b03166000908152600c602052604090206001015490565b33600090815260116020526040812060028101805484908110610ebb57fe5b9060005260206000200154915050919050565b6004546001600160a01b031681565b60028181548110610eea57fe5b600091825260209091200154905081565b60015481565b7f000000000000000000000000000000000000000000000000000000000000000081565b6011602052600090815260409020805460019091015482565b60136020526000908152604090205481565b60026000541415610f96576040805162461bcd60e51b815260206004820152601f6024820152600080516020612ec4833981519152604482015290519081900360640190fd5b60026000556009546001600160a01b03163314610fe45760405162461bcd60e51b81526004018080602001828103825260298152602001806132c06029913960400191505060405180910390fd5b6000816001600160a01b03166370a08231306040518263ffffffff1660e01b815260040180826001600160a01b0316815260200191505060206040518083038186803b15801561103357600080fd5b505afa158015611047573d6000803e3d6000fd5b505050506040513d602081101561105d57600080fd5b505190508061109d5760405162461bcd60e51b815260040180806020018281038252603c815260200180613233603c913960400191505060405180910390fd5b6004546001600160a01b03838116911614156110ea5760405162461bcd60e51b8152600401808060200182810382526036815260200180612fbb6036913960400191505060405180910390fd5b60035460005b81811015611163576003818154811061110557fe5b6000918252602090912001546001600160a01b038581169116141561115b5760405162461bcd60e51b8152600401808060200182810382526035815260200180612ff16035913960400191505060405180910390fd5b6001016110f0565b506111786001600160a01b038416858461189e565b6040516001600160a01b0385169083907fdf1b625465761dd1a4330a9b3a21d4943183f301036528a3544f8d891fdce2c290600090a3505060016000555050565b60006001600160a01b0382166112005760405162461bcd60e51b815260040180806020018281038252602d815260200180613068602d913960400191505060405180910390fd5b506001600160a01b03166000908152600c602052604090206003015490565b60026000541415611265576040805162461bcd60e51b815260206004820152601f6024820152600080516020612ec4833981519152604482015290519081900360640190fd5b600260005561127681336001611b97565b506001600055565b6009546001600160a01b031633146112c75760405162461bcd60e51b81526004018080602001828103825260298152602001806132c06029913960400191505060405180910390fd5b610d808282611fdc565b60075481565b33600090815260116020526040812060028101805491929182906112f757fe5b906000526020600020015490506000600360008154811061131457fe5b60009182526020918290200154604080516370a0823160e01b815230600482015290516001600160a01b03909216926370a0823192602480840193829003018186803b15801561136357600080fd5b505afa158015611377573d6000803e3d6000fd5b505050506040513d602081101561138d57600080fd5b5051905061139b8282612007565b6113a36120ea565b505050565b600381815481106113b557fe5b6000918252602090912001546001600160a01b0316905081565b60006001600160a01b0383166114165760405162461bcd60e51b815260040180806020018281038252602781526020018061320c6027913960400191505060405180910390fd5b6001600160a01b0383166000908152600c602052604090206003810180548490811061143e57fe5b90600052602060002001549150505b92915050565b600061145d61189a565b9050600754811161146e5750610d98565b6000600654821061148157600654611483565b815b60075490915081038061149857505050610d98565b6001546114a9575060075550610d98565b60035460005b818110156115ef576000600382815481106114c657fe5b600091825260209182902001546040805163313ce56760e01b815290516001600160a01b039092169263313ce56792600480840193829003018186803b15801561150f57600080fd5b505afa158015611523573d6000803e3d6000fd5b505050506040513d602081101561153957600080fd5b50516002805460ff9092169250600a83900a91600091611577918690811061155d57fe5b90600052602060002001548761220990919063ffffffff16565b9050600061159a600154611594858561220990919063ffffffff16565b90612262565b90506115c681600887815481106115ad57fe5b906000526020600020015461183990919063ffffffff16565b600886815481106115d357fe5b6000918252602090912001555050600190920191506114af9050565b50505060075550565b60008061160361189a565b9050600060065482106116185760065461161a565b815b90506000611633600754836122c990919063ffffffff16565b905060006003868154811061164457fe5b600091825260209182902001546040805163313ce56760e01b815290516001600160a01b039092169263313ce56792600480840193829003018186803b15801561168d57600080fd5b505afa1580156116a1573d6000803e3d6000fd5b505050506040513d60208110156116b757600080fd5b50516002805460ff9092169250600a83900a916000916116f5918a9081106116db57fe5b90600052602060002001548561220990919063ffffffff16565b90506000611712600154611594858561220990919063ffffffff16565b905060006117278260088c815481106115ad57fe5b6001600160a01b038c166000908152600c602052604081206001810154929350916117589087906115949086612209565b90506000611788836002018e8154811061176e57fe5b9060005260206000200154836122c990919063ffffffff16565b905061179d81846003018f815481106115ad57fe5b9e9d5050505050505050505050505050565b610d98612326565b600e5481565b60006001600160a01b0383166118045760405162461bcd60e51b8152600401808060200182810382526027815260200180612f116027913960400191505060405180910390fd5b6001600160a01b0383166000908152600c602052604090206002810180548490811061143e57fe5b60088181548110610eea57fe5b600082820183811015611893576040805162461bcd60e51b815260206004820152601b60248201527f536166654d6174683a206164646974696f6e206f766572666c6f770000000000604482015290519081900360640190fd5b9392505050565b4390565b604080516001600160a01b038416602482015260448082018490528251808303909101815260649091019091526020810180516001600160e01b031663a9059cbb60e01b1790526113a39084906124d0565b6001600160a01b038116600090815260126020526040902054819060ff166119495760405162461bcd60e51b815260040180806020018281038252602c8152602001806131e0602c913960400191505060405180910390fd5b6002600054141561198f576040805162461bcd60e51b815260206004820152601f6024820152600080516020612ec4833981519152604482015290519081900360640190fd5b60026000908155338152600c6020526040902060018101546119b15750611aba565b6119b9611453565b60018101546119c733612688565b6119d0336126e1565b600060018301556004546119ee906001600160a01b031685836127f4565b60408051633c323a1b60e01b81523360048201526024810183905290516001600160a01b03861691633c323a1b91604480830192600092919082900301818387803b158015611a3c57600080fd5b505af1158015611a50573d6000803e3d6000fd5b5050600154611a6292509050826122c9565b60015560005b600354811015611ab6576000836003018281548110611a8357fe5b90600052602060002001819055506000836002018281548110611aa257fe5b600091825260209091200155600101611a68565b5050505b50506001600055565b336001600160a01b037f00000000000000000000000000000000000000000000000000000000000000001614611b2a5760405162461bcd60e51b8152600401808060200182810382526028815260200180612f386028913960400191505060405180910390fd5b6040805182815290517fa78b9f12a7da0df7ced737c5f83d0c05723bb5f43aab37e233b86271041484729181900360200190a150565b60405162461bcd60e51b815260040180806020018281038252603f815260200180613095603f913960400191505060405180910390fd5b6000611ba161189a565b90506005548111611be35760405162461bcd60e51b815260040180806020018281038252602281526020018061319d6022913960400191505060405180910390fd5b600654811115611c3a576040805162461bcd60e51b815260206004820152601b60248201527f5374616b653a3a5374616b696e67206861732066696e69736865640000000000604482015290519081900360640190fd5b6001600160a01b0383166000908152600c60205260409020600a546001820154859287929091611c6a9084611839565b1115611ca75760405162461bcd60e51b81526004018080602001828103825260288152602001806131056028913960400191505060405180910390fd5b600b54600154611cb79084611839565b1115611cf45760405162461bcd60e51b81526004018080602001828103825260318152602001806130d46031913960400191505060405180910390fd5b60008711611d41576040805162461bcd60e51b815260206004820152601560248201527405374616b653a3a43616e6e6f74207374616b65203605c1b604482015290519081900360640190fd5b6001600160a01b0386166000908152600c602052604090206001810154611d6b57611d6b87612907565b611d73611453565b611d7c87612688565b6001810154611d8b9089611839565b60018083019190915554611d9f9089611839565b60015560035460005b81811015611ea357600060038281548110611dbf57fe5b600091825260209182902001546040805163313ce56760e01b815290516001600160a01b039092169263313ce56792600480840193829003018186803b158015611e0857600080fd5b505afa158015611e1c573d6000803e3d6000fd5b505050506040513d6020811015611e3257600080fd5b50516008805460ff9092169250600a83900a91600091611e7a9184916115949188908110611e5c57fe5b9060005260206000200154896001015461220990919063ffffffff16565b905080866002018581548110611e8c57fe5b600091825260209091200155505050600101611da8565b50611ec887611eb25733611eb4565b885b6004546001600160a01b031690308c61292c565b604080518a815290516001600160a01b038a16917f9e71bc8eea02a63969f509818f2dafb9254532904319f9dbda79b67bd34a5f3d919081900360200190a2505050505050505050565b60405162461bcd60e51b815260040180806020018281038252603c81526020018061312d603c913960400191505060405180910390fd5b611f5e6001600160a01b03831633308461292c565b6001600160a01b038216600090815260136020526040902054611f819082611839565b6001600160a01b038316600081815260136020908152604091829020939093558051918252918101839052815133927f3ca3e2b750b23b0fb33120646ef2418edd82a6576afaa67069cfb626f08ca7dc928290030190a25050565b6001600160a01b03919091166000908152601260205260409020805460ff1916911515919091179055565b6001600160a01b037f0000000000000000000000000000000000000000000000000000000000000000166000908152601360205260408120549061204f836115948685612209565b6001600160a01b037f00000000000000000000000000000000000000000000000000000000000000001660009081526013602052604090205490915061209590826122c9565b6001600160a01b037f0000000000000000000000000000000000000000000000000000000000000000166000818152601360205260409020919091556120dc90338361189e565b6120e4612986565b50505050565b7f000000000000000000000000000000000000000000000000000000000000000043116121485760405162461bcd60e51b81526004018080602001828103825260428152602001806130266042913960600191505060405180910390fd5b6002600054141561218e576040805162461bcd60e51b815260206004820152601f6024820152600080516020612ec4833981519152604482015290519081900360640190fd5b60026000556004546003805460408051602080840282018101909252828152612202946001600160a01b031693909290918301828280156121f857602002820191906000526020600020905b81546001600160a01b031681526001909101906020018083116121da575b50505050506129bb565b6001600055565b6000826122185750600061144d565b8282028284828161222557fe5b04146118935760405162461bcd60e51b81526004018080602001828103825260218152602001806131bf6021913960400191505060405180910390fd5b60008082116122b8576040805162461bcd60e51b815260206004820152601a60248201527f536166654d6174683a206469766973696f6e206279207a65726f000000000000604482015290519081900360640190fd5b8183816122c157fe5b049392505050565b600082821115612320576040805162461bcd60e51b815260206004820152601e60248201527f536166654d6174683a207375627472616374696f6e206f766572666c6f770000604482015290519081900360640190fd5b50900390565b7f000000000000000000000000000000000000000000000000000000000000000043116123845760405162461bcd60e51b81526004018080602001828103825260428152602001806130266042913960600191505060405180910390fd5b600260005414156123ca576040805162461bcd60e51b815260206004820152601f6024820152600080516020612ec4833981519152604482015290519081900360640190fd5b60026000908155338152600c602052604090206123e5611453565b60018101546123f45750612202565b6123fd33612688565b61246381600101546003805490508360030180548060200260200160405190810160405280929190818152602001828054801561245957602002820191906000526020600020905b815481526020019060010190808311612445575b5050505050612aed565b6001808201549054612474916122c9565b600190815560009082018190555b600354811015611aba57600082600301828154811061249d57fe5b906000526020600020018190555060008260020182815481106124bc57fe5b600091825260209091200155600101612482565b6124e2826001600160a01b0316612bbd565b612533576040805162461bcd60e51b815260206004820152601f60248201527f5361666545524332303a2063616c6c20746f206e6f6e2d636f6e747261637400604482015290519081900360640190fd5b60006060836001600160a01b0316836040518082805190602001908083835b602083106125715780518252601f199092019160209182019101612552565b6001836020036101000a0380198251168184511680821785525050505050509050019150506000604051808303816000865af19150503d80600081146125d3576040519150601f19603f3d011682016040523d82523d6000602084013e6125d8565b606091505b50915091508161262f576040805162461bcd60e51b815260206004820181905260248201527f5361666545524332303a206c6f772d6c6576656c2063616c6c206661696c6564604482015290519081900360640190fd5b8051156120e45780806020019051602081101561264b57600080fd5b50516120e45760405162461bcd60e51b815260040180806020018281038252602a815260200180613296602a913960400191505060405180910390fd5b6001600160a01b0381166000908152600c602052604090206126a982612bc3565b6126b282612c23565b60018101546126c15750610bd2565b60035460005b818110156120e4576126d98482612c83565b6001016126c7565b6001600160a01b0381166000908152600c60205260409020612701611453565b61270a82612688565b60035460005b818110156120e457600083600301828154811061272957fe5b90600052602060002001549050600084600301838154811061274757fe5b906000526020600020018190555061278385826003858154811061276757fe5b6000918252602090912001546001600160a01b0316919061189e565b846001600160a01b03167f7e6632ca16a0ac6cf28448500b1a17d96c8b8163ad4c4a9b44ef5386cc02779e82600385815481106127bc57fe5b60009182526020918290200154604080519384526001600160a01b03909116918301919091528051918290030190a250600101612710565b80158061287a575060408051636eb1769f60e11b81523060048201526001600160a01b03848116602483015291519185169163dd62ed3e91604480820192602092909190829003018186803b15801561284c57600080fd5b505afa158015612860573d6000803e3d6000fd5b505050506040513d602081101561287657600080fd5b5051155b6128b55760405162461bcd60e51b81526004018080602001828103825260368152602001806132e96036913960400191505060405180910390fd5b604080516001600160a01b038416602482015260448082018490528251808303909101815260649091019091526020810180516001600160e01b031663095ea7b360e01b1790526113a39084906124d0565b6001600160a01b0381166000908152600c6020526040902061292761189a565b905550565b604080516001600160a01b0380861660248301528416604482015260648082018490528251808303909101815260849091019091526020810180516001600160e01b03166323b872dd60e01b1790526120e49085906124d0565b6040805133815290517fb926cf6e0741528b1fa5617945fc3cf155c845682fe4057a501526892348a6c29181900360200190a1565b33600090815260116020526040902080544311612a095760405162461bcd60e51b8152600401808060200182810382526026815260200180612f956026913960400191505060405180910390fd5b6001810180546000909155612a286001600160a01b038516338361189e565b60005b8351811015612aab576000836002018281548110612a4557fe5b906000526020600020015490506000846002018381548110612a6357fe5b9060005260206000200181905550612aa23382878581518110612a8257fe5b60200260200101516001600160a01b031661189e9092919063ffffffff16565b50600101612a2b565b50604080513381526020810183905281517f548aea05c5e3b6ba34acdf7b3ad06c7bb667ed71d1761e2c177167be0a9eb059929181900390910190a150505050565b612af73383612ddb565b336000908152601160205260409020612b0f84612e36565b81556001810154612b209085611839565b600182015560005b83811015612b7957612b56838281518110612b3f57fe5b60200260200101518360020183815481106115ad57fe5b826002018281548110612b6557fe5b600091825260209091200155600101612b28565b50805460408051338152602081019290925280517fd9217a461a0f7f84171a8866118c3d92e943ba7c1ba89b819371f729b5cabcbc9281900390910190a150505050565b3b151590565b6001600160a01b0381166000908152600c6020526040902060035460028201541415612bef5750610bd2565b60035460028201545b818110156120e457600283018054600181810183556000928352602083209091019190915501612bf8565b6001600160a01b0381166000908152600c6020526040902060038054908201541415612c4f5750610bd2565b60038054908201545b818110156120e457600383018054600181810183556000928352602083209091019190915501612c58565b6001600160a01b0382166000908152600c602052604081206003805491929184908110612cac57fe5b600091825260209182902001546040805163313ce56760e01b815290516001600160a01b039092169263313ce56792600480840193829003018186803b158015612cf557600080fd5b505afa158015612d09573d6000803e3d6000fd5b505050506040513d6020811015612d1f57600080fd5b50516008805460ff9092169250600a83900a91600091612d679184916115949189908110612d4957fe5b9060005260206000200154876001015461220990919063ffffffff16565b90506000612d7d85600201878154811061176e57fe5b90508015612dd257612d98818660030188815481106115ad57fe5b856003018781548110612da757fe5b906000526020600020018190555081856002018781548110612dc557fe5b6000918252602090912001555b50505050505050565b6001600160a01b03821660009081526011602052604090206002810154821415612e055750610d80565b60028101545b828110156120e457600282018054600181810183556000928352602083209091019190915501612e0b565b6000600d54431115612e88576000600f54600d54430381612e5357fe5b069050612e75600f54612e6f83436122c990919063ffffffff16565b90611839565b600d819055600e84905591506108b89050565b600e54612e959083611839565b600e5550600d54601054600e54106108b857600f54600d54612eb691611839565b600d556000600e5591905056fe5265656e7472616e637947756172643a207265656e7472616e742063616c6c0047657455736572526577617264446562744c656e6774683a3a496e76616c69642075736572206164647265737347657455736572526577617264446562743a3a496e76616c6964207573657220616464726573736f6e6c7954726561737572793a3a4e6f742063616c6c656420627920746865207472656173757279457874656e643a3a456e6420626c6f636b206d757374206265206166746572207468652063757272656e7420656e6420626c6f636b66696e616c697a65457869743a3a547279696e6720746f206578697420746f6f206561726c7957697468647261774c50526577617264733a3a2063616e6e6f742077697468647261772066726f6d20746865204c5020746f6b656e7357697468647261774c50526577617264733a3a43616e6e6f742077697468647261772066726f6d20746f6b656e20726577617264736f6e6c79556e6c6f636b65643a3a63616e6e6f7420706572666f726d207468697320616374696f6e20756e74696c2074686520656e64206f6620746865206c6f636b47657455736572546f6b656e734f7765644c656e6774683a3a496e76616c6964207573657220616464726573734f6e6c7945786974466561747572653a3a63616e6e6f742077697468647261772066726f6d207468697320636f6e74726163742e204f6e6c7920657869742e6f6e6c79556e6465725374616b654c696d69743a3a436f6e7472616374205374616b65206c696d697420726561636865646f6e6c79556e6465725374616b654c696d69743a3a5374616b65206c696d697420726561636865644f6e6c7945786974466561747572653a3a63616e6e6f7420636c61696d2066726f6d207468697320636f6e74726163742e204f6e6c7920657869742e457874656e643a3a5265776172647320616d6f756e7473206c656e677468206973206c657373207468616e2065787065637465645374616b653a3a5374616b696e6720686173206e6f74207965742073746172746564536166654d6174683a206d756c7469706c69636174696f6e206f766572666c6f7765786974416e645472616e736665723a3a7265636569766572206973206e6f742077686974656c6973746564476574557365724f776564546f6b656e733a3a496e76616c69642075736572206164647265737357697468647261774c50526577617264733a3a546865726520617265206e6f20726577617264732066726f6d206c697175696469747920706f6f6c73457874656e643a3a456e6420626c6f636b206d75737420626520696e20746865206675747572655361666545524332303a204552433230206f7065726174696f6e20646964206e6f74207375636365656443616c6c6572206973206e6f742052657761726473506f6f6c466163746f727920636f6e74726163745361666545524332303a20617070726f76652066726f6d206e6f6e2d7a65726f20746f206e6f6e2d7a65726f20616c6c6f77616e6365a264697066735822122067e420ea71b6574245458e86490a91fd53870c52e9f148993afeba176d29313264736f6c634300060c00337365745468726f74746c653a3a7468726f74746c6520726f756e6420636170206d757374206265206d6f7265207468616e203073657454726561737572793a3a54726561737572792063616e6e6f742062652030436f6e7374727563746f723a3a5374616b65206c696d6974206e6565647320746f206265206d6f7265207468616e20307365745468726f74746c653a3a7468726f74746c6520706172616d6574657273207765726520616c726561647920736574436f6e7374727563746f723a3a54686520656e6420626c6f636b206d75737420626520696e20746865206675747572652e436f6e7374727563746f723a3a526577617264732070657220626c6f636b20616e64207265776172647320746f6b656e73206d7573742062652077697468207468652073616d65206c656e6774682e7365745468726f74746c653a3a7468726f74746c6520726f756e6420626c6f636b73206d757374206265206d6f7265207468616e20307365744c6f636b456e643a3a4c6f636b20656e64206e6565647320746f20626520696e2074686520667574757265436f6e7374727563746f723a3a20436f6e7472616374205374616b65206c696d6974206e6565647320746f206265206d6f7265207468616e2030436f6e7374727563746f723a3a546865207374617274696e6720626c6f636b206d75737420626520696e20746865206675747572652e656e61626c655265636569766572733a3a52656365697665722063616e6e6f7420626520304e6f6e436f6d706f756e64696e6752657761726473506f6f6c466163746f72793a3a6465706c6f793a2052657761726473546f6b656e7320617272617920636f756c64206e6f7420626520656d7074794e6f6e436f6d706f756e64696e6752657761726473506f6f6c466163746f72793a3a6465706c6f793a205265776172642070657220626c6f636b206d7573742062652067726561746572207468616e207a65726f63616c63756c61746552657761726473416d6f756e743a3a20526577617264732070657220626c6f636b206d7573742062652067726561746572207468616e207a65726f656e61626c655265636569766572733a3a5472616e7366657265722063616e6e6f7420626520304e6f6e436f6d706f756e64696e6752657761726473506f6f6c466163746f72793a3a6465706c6f793a205468726f74746c6520726f756e6420636170206d757374206265206d6f7265207468616e2030536166654d6174683a206d756c7469706c69636174696f6e206f766572666c6f7753656e64657220697320646966666572656e742066726f6d2070726f706f736564206f776e65724e6f6e436f6d706f756e64696e6752657761726473506f6f6c466163746f72793a3a6465706c6f793a205374616b696e6720746f6b656e20616464726573732063616e2774206265207a65726f20616464726573734e6f6e436f6d706f756e64696e6752657761726473506f6f6c466163746f72793a3a6465706c6f793a205374616b65206c696d6974206d757374206265206d6f7265207468616e20306f6e6c794f776e65723a3a205468652063616c6c6572206973206e6f7420746865206f776e65724e6f6e436f6d706f756e64696e6752657761726473506f6f6c466163746f72793a3a6465706c6f793a2052657761726473546f6b656e7320616e6420526577617264506572426c6f636b2073686f756c6420686176652061206d61746368696e672073697a65734e6f6e436f6d706f756e64696e6752657761726473506f6f6c466163746f72793a3a6465706c6f793a205468726f74746c6520726f756e6420626c6f636b73206d757374206265206d6f7265207468616e20305361666545524332303a204552433230206f7065726174696f6e20646964206e6f7420737563636565644e6f6e436f6d706f756e64696e6752657761726473506f6f6c466163746f72793a3a6465706c6f793a2052657761726420746f6b656e206164647265737320636f756c64206e6f7420626520696e76616c6964a2646970667358221220c2983689111b3d584c78fd95162198e14d0c3cbed91fdf98dbb3d0205aa7815c64736f6c634300060c00334e6f6e436f6d706f756e64696e6752657761726473506f6f6c466163746f72793a3a2045787465726e616c2072657761726420616464726573732063616e2774206265207a65726f20616464726573734e6f6e436f6d706f756e64696e6752657761726473506f6f6c466163746f72793a3a20547265617375727920616464726573732063616e2774206265207a65726f2061646472657373",
  "source": "// SPDX-License-Identifier: MIT\npragma solidity 0.6.12;\n\nimport \"openzeppelin-solidity/contracts/math/Math.sol\";\nimport \"openzeppelin-solidity/contracts/math/SafeMath.sol\";\nimport \"./../../interfaces/IERC20Detailed.sol\";\nimport \"./../../SafeERC20Detailed.sol\";\nimport \"./../NonCompoundingRewardsPool.sol\";\nimport \"./StakeTransferEnabledFactory.sol\";\n\ncontract NonCompoundingRewardsPoolFactory is AbstractPoolsFactory, StakeTransferEnabledFactory {\n\tusing SafeMath for uint256;\n\tusing SafeERC20Detailed for IERC20Detailed;\n\n\taddress public immutable treasury;\n\taddress public immutable externalRewardToken;\n\n\tconstructor(address _treasury, address _externalRewardToken) public {\n\t\trequire(\n\t\t\t_treasury != address(0),\n\t\t\t\"NonCompoundingRewardsPoolFactory:: Treasury address can't be zero address\"\n\t\t);\n\n\t\trequire(\n\t\t\t_externalRewardToken != address(0),\n\t\t\t\"NonCompoundingRewardsPoolFactory:: External reward address can't be zero address\"\n\t\t);\n\t\ttreasury = _treasury;\n\t\texternalRewardToken = _externalRewardToken;\n\t}\n\n\tevent RewardsPoolDeployed(\n\t\taddress indexed rewardsPoolAddress,\n\t\taddress indexed stakingToken\n\t);\n\n\t/* ========== Permissioned FUNCTIONS ========== */\n\n\t/** @dev Deploy a reward pool base contract for the staking token, with the given parameters.\n\t * @param _stakingToken The address of the token being staked\n\t * @param _startBlock The start block of the rewards pool\n\t * @param _endBlock The end block of the rewards pool\n\t * @param _rewardsTokens The addresses of the tokens the rewards will be paid in\n\t * @param _rewardPerBlock Rewards per block\n\t * @param _stakeLimit The stake limit per user\n\t */\n\tfunction deploy(\n\t\taddress _stakingToken,\n\t\tuint256 _startBlock,\n\t\tuint256 _endBlock,\n\t\taddress[] calldata _rewardsTokens,\n\t\tuint256[] calldata _rewardPerBlock,\n\t\tuint256 _stakeLimit,\n\t\tuint256 _throttleRoundBlocks,\n\t\tuint256 _throttleRoundCap,\n\t\tuint256 _contractStakeLimit\n\t) external onlyOwner {\n\t\trequire(\n\t\t\t_stakingToken != address(0),\n\t\t\t\"NonCompoundingRewardsPoolFactory::deploy: Staking token address can't be zero address\"\n\t\t);\n\t\trequire(\n\t\t\t_rewardsTokens.length != 0,\n\t\t\t\"NonCompoundingRewardsPoolFactory::deploy: RewardsTokens array could not be empty\"\n\t\t);\n\t\trequire(\n\t\t\t_rewardsTokens.length == _rewardPerBlock.length,\n\t\t\t\"NonCompoundingRewardsPoolFactory::deploy: RewardsTokens and RewardPerBlock should have a matching sizes\"\n\t\t);\n\n\t\trequire(\n\t\t\t_stakeLimit != 0,\n\t\t\t\"NonCompoundingRewardsPoolFactory::deploy: Stake limit must be more than 0\"\n\t\t);\n\n\t\trequire(\n\t\t\t_throttleRoundBlocks != 0,\n\t\t\t\"NonCompoundingRewardsPoolFactory::deploy: Throttle round blocks must be more than 0\"\n\t\t);\n\n\t\trequire(\n\t\t\t_throttleRoundCap != 0,\n\t\t\t\"NonCompoundingRewardsPoolFactory::deploy: Throttle round cap must be more than 0\"\n\t\t);\n\n\t\taddress rewardPool =\n\t\t\taddress(\n\t\t\t\tnew NonCompoundingRewardsPool(\n\t\t\t\t\tIERC20Detailed(_stakingToken),\n\t\t\t\t\t_startBlock,\n\t\t\t\t\t_endBlock,\n\t\t\t\t\t_rewardsTokens,\n\t\t\t\t\t_rewardPerBlock,\n\t\t\t\t\t_stakeLimit, \n\t\t\t\t\t_throttleRoundBlocks,\n\t\t\t\t\t_throttleRoundCap,\n\t\t\t\t\ttreasury,\n\t\t\t\t\texternalRewardToken,\n\t\t\t\t\t_contractStakeLimit\n\t\t\t\t)\n\t\t\t);\n\n\t\tfor (uint256 i = 0; i < _rewardsTokens.length; i++) {\n\n\t\t\trequire(\n\t\t\t\t_rewardsTokens[i] != address(0),\n\t\t\t\t\"NonCompoundingRewardsPoolFactory::deploy: Reward token address could not be invalid\"\n\t\t\t);\n\t\t\trequire(\n\t\t\t\t_rewardPerBlock[i] != 0,\n\t\t\t\t\"NonCompoundingRewardsPoolFactory::deploy: Reward per block must be greater than zero\"\n\t\t\t);\n\n\t\t\tuint256 rewardsAmount =\n\t\t\t\tcalculateRewardsAmount(\n\t\t\t\t\t_startBlock,\n\t\t\t\t\t_endBlock,\n\t\t\t\t\t_rewardPerBlock[i]\n\t\t\t\t);\n\t\t\tIERC20Detailed(_rewardsTokens[i]).safeTransfer(\n\t\t\t\trewardPool,\n\t\t\t\trewardsAmount\n\t\t\t);\n\t\t}\n\t\trewardsPools.push(rewardPool);\n\n\t\temit RewardsPoolDeployed(rewardPool, _stakingToken);\n\t}\n\n}\n",
  "sourcePath": "/Users/martindobrev/Code/custom-token/contracts/V2/factories/NonCompoundingRewardsPoolFactory.sol",
  "compiler": {
    "name": "solc",
    "version": "0.6.12+commit.27d51765.Emscripten.clang",
    "optimizer": true,
    "runs": 200
  },
  "schemaVersion": "2.3.5",
  "updatedAt": "2022-02-16T15:12:31.202Z"
}