{
  "contractName": "OneStakerRewardsPoolMock",
  "abi": [
    {
      "inputs": [
        {
          "internalType": "contract IERC20Detailed",
          "name": "_stakingToken",
          "type": "address"
        },
        {
          "internalType": "uint256",
          "name": "_startBlock",
          "type": "uint256"
        },
        {
          "internalType": "uint256",
          "name": "_endBlock",
          "type": "uint256"
        },
        {
          "internalType": "address[]",
          "name": "_rewardsTokens",
          "type": "address[]"
        },
        {
          "internalType": "uint256[]",
          "name": "_rewardPerBlock",
          "type": "uint256[]"
        },
        {
          "internalType": "uint256",
          "name": "_stakeLimit",
          "type": "uint256"
        },
        {
          "internalType": "address",
          "name": "_staker",
          "type": "address"
        },
        {
          "internalType": "uint256",
          "name": "_contractStakeLimit",
          "type": "uint256"
        }
      ],
      "stateMutability": "nonpayable",
      "type": "constructor"
    },
    {
      "anonymous": false,
      "inputs": [
        {
          "indexed": true,
          "internalType": "address",
          "name": "user",
          "type": "address"
        },
        {
          "indexed": false,
          "internalType": "uint256",
          "name": "amount",
          "type": "uint256"
        },
        {
          "indexed": false,
          "internalType": "address",
          "name": "token",
          "type": "address"
        }
      ],
      "name": "Claimed",
      "type": "event"
    },
    {
      "anonymous": false,
      "inputs": [
        {
          "indexed": true,
          "internalType": "address",
          "name": "user",
          "type": "address"
        },
        {
          "indexed": false,
          "internalType": "uint256",
          "name": "amount",
          "type": "uint256"
        }
      ],
      "name": "Exited",
      "type": "event"
    },
    {
      "anonymous": false,
      "inputs": [
        {
          "indexed": false,
          "internalType": "uint256",
          "name": "newEndBlock",
          "type": "uint256"
        },
        {
          "indexed": false,
          "internalType": "uint256[]",
          "name": "newRewardsPerBlock",
          "type": "uint256[]"
        }
      ],
      "name": "Extended",
      "type": "event"
    },
    {
      "anonymous": false,
      "inputs": [
        {
          "indexed": true,
          "internalType": "address",
          "name": "user",
          "type": "address"
        },
        {
          "indexed": false,
          "internalType": "uint256",
          "name": "amount",
          "type": "uint256"
        }
      ],
      "name": "Staked",
      "type": "event"
    },
    {
      "anonymous": false,
      "inputs": [
        {
          "indexed": true,
          "internalType": "uint256",
          "name": "rewardsAmount",
          "type": "uint256"
        },
        {
          "indexed": true,
          "internalType": "address",
          "name": "recipient",
          "type": "address"
        }
      ],
      "name": "WithdrawLPRewards",
      "type": "event"
    },
    {
      "anonymous": false,
      "inputs": [
        {
          "indexed": true,
          "internalType": "address",
          "name": "user",
          "type": "address"
        },
        {
          "indexed": false,
          "internalType": "uint256",
          "name": "amount",
          "type": "uint256"
        }
      ],
      "name": "Withdrawn",
      "type": "event"
    },
    {
      "inputs": [
        {
          "internalType": "uint256",
          "name": "",
          "type": "uint256"
        }
      ],
      "name": "accumulatedRewardMultiplier",
      "outputs": [
        {
          "internalType": "uint256",
          "name": "",
          "type": "uint256"
        }
      ],
      "stateMutability": "view",
      "type": "function"
    },
    {
      "inputs": [
        {
          "internalType": "address",
          "name": "_userAddress",
          "type": "address"
        }
      ],
      "name": "balanceOf",
      "outputs": [
        {
          "internalType": "uint256",
          "name": "",
          "type": "uint256"
        }
      ],
      "stateMutability": "view",
      "type": "function"
    },
    {
      "inputs": [],
      "name": "claim",
      "outputs": [],
      "stateMutability": "nonpayable",
      "type": "function"
    },
    {
      "inputs": [],
      "name": "contractStakeLimit",
      "outputs": [
        {
          "internalType": "uint256",
          "name": "",
          "type": "uint256"
        }
      ],
      "stateMutability": "view",
      "type": "function"
    },
    {
      "inputs": [],
      "name": "endBlock",
      "outputs": [
        {
          "internalType": "uint256",
          "name": "",
          "type": "uint256"
        }
      ],
      "stateMutability": "view",
      "type": "function"
    },
    {
      "inputs": [],
      "name": "exit",
      "outputs": [],
      "stateMutability": "nonpayable",
      "type": "function"
    },
    {
      "inputs": [
        {
          "internalType": "uint256",
          "name": "_endBlock",
          "type": "uint256"
        },
        {
          "internalType": "uint256[]",
          "name": "_rewardsPerBlock",
          "type": "uint256[]"
        },
        {
          "internalType": "uint256[]",
          "name": "_currentRemainingRewards",
          "type": "uint256[]"
        },
        {
          "internalType": "uint256[]",
          "name": "_newRemainingRewards",
          "type": "uint256[]"
        }
      ],
      "name": "extend",
      "outputs": [],
      "stateMutability": "nonpayable",
      "type": "function"
    },
    {
      "inputs": [],
      "name": "getRewardTokensCount",
      "outputs": [
        {
          "internalType": "uint256",
          "name": "",
          "type": "uint256"
        }
      ],
      "stateMutability": "view",
      "type": "function"
    },
    {
      "inputs": [
        {
          "internalType": "address",
          "name": "_userAddress",
          "type": "address"
        },
        {
          "internalType": "uint256",
          "name": "tokenIndex",
          "type": "uint256"
        }
      ],
      "name": "getUserAccumulatedReward",
      "outputs": [
        {
          "internalType": "uint256",
          "name": "",
          "type": "uint256"
        }
      ],
      "stateMutability": "view",
      "type": "function"
    },
    {
      "inputs": [
        {
          "internalType": "address",
          "name": "_userAddress",
          "type": "address"
        },
        {
          "internalType": "uint256",
          "name": "_index",
          "type": "uint256"
        }
      ],
      "name": "getUserOwedTokens",
      "outputs": [
        {
          "internalType": "uint256",
          "name": "",
          "type": "uint256"
        }
      ],
      "stateMutability": "view",
      "type": "function"
    },
    {
      "inputs": [
        {
          "internalType": "address",
          "name": "_userAddress",
          "type": "address"
        },
        {
          "internalType": "uint256",
          "name": "_index",
          "type": "uint256"
        }
      ],
      "name": "getUserRewardDebt",
      "outputs": [
        {
          "internalType": "uint256",
          "name": "",
          "type": "uint256"
        }
      ],
      "stateMutability": "view",
      "type": "function"
    },
    {
      "inputs": [
        {
          "internalType": "address",
          "name": "_userAddress",
          "type": "address"
        }
      ],
      "name": "getUserRewardDebtLength",
      "outputs": [
        {
          "internalType": "uint256",
          "name": "",
          "type": "uint256"
        }
      ],
      "stateMutability": "view",
      "type": "function"
    },
    {
      "inputs": [
        {
          "internalType": "address",
          "name": "_userAddress",
          "type": "address"
        }
      ],
      "name": "getUserTokensOwedLength",
      "outputs": [
        {
          "internalType": "uint256",
          "name": "",
          "type": "uint256"
        }
      ],
      "stateMutability": "view",
      "type": "function"
    },
    {
      "inputs": [],
      "name": "hasStakingStarted",
      "outputs": [
        {
          "internalType": "bool",
          "name": "",
          "type": "bool"
        }
      ],
      "stateMutability": "view",
      "type": "function"
    },
    {
      "inputs": [],
      "name": "lastRewardBlock",
      "outputs": [
        {
          "internalType": "uint256",
          "name": "",
          "type": "uint256"
        }
      ],
      "stateMutability": "view",
      "type": "function"
    },
    {
      "inputs": [
        {
          "internalType": "uint256",
          "name": "",
          "type": "uint256"
        }
      ],
      "name": "rewardPerBlock",
      "outputs": [
        {
          "internalType": "uint256",
          "name": "",
          "type": "uint256"
        }
      ],
      "stateMutability": "view",
      "type": "function"
    },
    {
      "inputs": [],
      "name": "rewardsPoolFactory",
      "outputs": [
        {
          "internalType": "address",
          "name": "",
          "type": "address"
        }
      ],
      "stateMutability": "view",
      "type": "function"
    },
    {
      "inputs": [
        {
          "internalType": "uint256",
          "name": "",
          "type": "uint256"
        }
      ],
      "name": "rewardsTokens",
      "outputs": [
        {
          "internalType": "address",
          "name": "",
          "type": "address"
        }
      ],
      "stateMutability": "view",
      "type": "function"
    },
    {
      "inputs": [],
      "name": "stakeLimit",
      "outputs": [
        {
          "internalType": "uint256",
          "name": "",
          "type": "uint256"
        }
      ],
      "stateMutability": "view",
      "type": "function"
    },
    {
      "inputs": [],
      "name": "staker",
      "outputs": [
        {
          "internalType": "address",
          "name": "",
          "type": "address"
        }
      ],
      "stateMutability": "view",
      "type": "function"
    },
    {
      "inputs": [],
      "name": "stakingToken",
      "outputs": [
        {
          "internalType": "contract IERC20Detailed",
          "name": "",
          "type": "address"
        }
      ],
      "stateMutability": "view",
      "type": "function"
    },
    {
      "inputs": [],
      "name": "startBlock",
      "outputs": [
        {
          "internalType": "uint256",
          "name": "",
          "type": "uint256"
        }
      ],
      "stateMutability": "view",
      "type": "function"
    },
    {
      "inputs": [],
      "name": "totalStaked",
      "outputs": [
        {
          "internalType": "uint256",
          "name": "",
          "type": "uint256"
        }
      ],
      "stateMutability": "view",
      "type": "function"
    },
    {
      "inputs": [],
      "name": "updateRewardMultipliers",
      "outputs": [],
      "stateMutability": "nonpayable",
      "type": "function"
    },
    {
      "inputs": [
        {
          "internalType": "address",
          "name": "",
          "type": "address"
        }
      ],
      "name": "userInfo",
      "outputs": [
        {
          "internalType": "uint256",
          "name": "firstStakedBlockNumber",
          "type": "uint256"
        },
        {
          "internalType": "uint256",
          "name": "amountStaked",
          "type": "uint256"
        }
      ],
      "stateMutability": "view",
      "type": "function"
    },
    {
      "inputs": [
        {
          "internalType": "uint256",
          "name": "_tokenAmount",
          "type": "uint256"
        }
      ],
      "name": "withdraw",
      "outputs": [],
      "stateMutability": "nonpayable",
      "type": "function"
    },
    {
      "inputs": [
        {
          "internalType": "address",
          "name": "recipient",
          "type": "address"
        },
        {
          "internalType": "address",
          "name": "lpTokenContract",
          "type": "address"
        }
      ],
      "name": "withdrawLPRewards",
      "outputs": [],
      "stateMutability": "nonpayable",
      "type": "function"
    },
    {
      "inputs": [
        {
          "internalType": "uint256",
          "name": "_tokenAmount",
          "type": "uint256"
        }
      ],
      "name": "stake",
      "outputs": [],
      "stateMutability": "nonpayable",
      "type": "function"
    }
  ],
  "bytecode": "0x60a06040523480156200001157600080fd5b5060405162002a5438038062002a5483398181016040526101008110156200003857600080fd5b8151602083015160408085015160608601805192519496939591949391820192846401000000008211156200006c57600080fd5b9083019060208201858111156200008257600080fd5b8251866020820283011164010000000082111715620000a057600080fd5b82525081516020918201928201910280838360005b83811015620000cf578181015183820152602001620000b5565b5050505090500160405260200180516040519392919084640100000000821115620000f957600080fd5b9083019060208201858111156200010f57600080fd5b82518660208202830111640100000000821117156200012d57600080fd5b82525081516020918201928201910280838360005b838110156200015c57818101518382015260200162000142565b50505050919091016040908152602083015190830151606090930151600160005590945091925082905088888888888887620001976200040f565b8611620001d65760405162461bcd60e51b815260040180806020018281038252603681526020018062002a1e6036913960400191505060405180910390fd5b620001e06200040f565b85116200021f5760405162461bcd60e51b8152600401808060200182810382526031815260200180620029646031913960400191505060405180910390fd5b8351835114620002615760405162461bcd60e51b815260040180806020018281038252604f81526020018062002995604f913960600191505060405180910390fd5b816200029f5760405162461bcd60e51b8152600401808060200182810382526030815260200180620028e56030913960400191505060405180910390fd5b80620002dd5760405162461bcd60e51b815260040180806020018281038252603a815260200180620029e4603a913960400191505060405180910390fd5b600480546001600160a01b0319166001600160a01b03891617905582516200030d90600290602086019062000413565b506005869055600685905583516200032d90600390602087019062000463565b50600554600755600980546001600160a01b03191633179055600a829055600b81905560005b6003548110156200039d57600880546001818101835560009283527ff3f7a9fe364faab93b216da50a3214154f22a0a2b415b23a84c8169e8b636ee3909101919091550162000353565b50505050506001600160a01b03841615159250620003f09150505760405162461bcd60e51b815260040180806020018281038252604f81526020018062002915604f913960600191505060405180910390fd5b60601b6001600160601b03191660805250620005019650505050505050565b4390565b82805482825590600052602060002090810192821562000451579160200282015b828111156200045157825182559160200191906001019062000434565b506200045f929150620004c9565b5090565b828054828255906000526020600020908101928215620004bb579160200282015b82811115620004bb57825182546001600160a01b0319166001600160a01b0390911617825560209092019160019091019062000484565b506200045f929150620004e0565b5b808211156200045f5760008155600101620004ca565b5b808211156200045f5780546001600160a01b0319168155600101620004e1565b60805160601c6123c16200052460003980610a1f52806115cc52506123c16000f3fe608060405234801561001057600080fd5b50600436106101c35760003560e01c806372f702f3116100f9578063b6d0dcd811610097578063df9d777f11610071578063df9d777f146105a5578063e9fad8ee146105d1578063f27d0264146105d9578063fb58cad114610605576101c3565b8063b6d0dcd814610554578063ce41530214610571578063dd2da2201461059d576101c3565b8063a1002a0f116100d3578063a1002a0f146104db578063a1292aea14610509578063a694fc3a1461052f578063a9f8d1811461054c576101c3565b806372f702f3146104ae578063791f39cd146104b6578063817b1cd2146104d3576101c3565b806345ef79af1161016657806356409b811161014057806356409b811461044057806357b4f01f146104645780635ebaf1db1461048057806370a0823114610488576101c3565b806345ef79af1461042857806348cd4cb1146104305780634e71d92d14610438576101c3565b80631959a002116101a25780631959a0021461021057806320e67c761461024f5780632d9e88e1146104035780632e1a7d4d1461040b576101c3565b806284c927146101c857806303d1dae014610200578063083c632314610208575b600080fd5b6101ee600480360360208110156101de57600080fd5b50356001600160a01b0316610622565b60408051918252519081900360200190f35b6101ee610688565b6101ee61068e565b6102366004803603602081101561022657600080fd5b50356001600160a01b0316610694565b6040805192835260208301919091528051918290030190f35b6104016004803603608081101561026557600080fd5b8135919081019060408101602082013564010000000081111561028757600080fd5b82018360208201111561029957600080fd5b803590602001918460208302840111640100000000831117156102bb57600080fd5b919080806020026020016040519081016040528093929190818152602001838360200280828437600092019190915250929594936020810193503591505064010000000081111561030b57600080fd5b82018360208201111561031d57600080fd5b8035906020019184602083028401116401000000008311171561033f57600080fd5b919080806020026020016040519081016040528093929190818152602001838360200280828437600092019190915250929594936020810193503591505064010000000081111561038f57600080fd5b8201836020820111156103a157600080fd5b803590602001918460208302840111640100000000831117156103c357600080fd5b9190808060200260200160405190810160405280939291908181526020018383602002808284376000920191909152509295506106ad945050505050565b005b6101ee610930565b6104016004803603602081101561042157600080fd5b5035610936565b6101ee610993565b6101ee610999565b61040161099f565b6104486109fa565b604080516001600160a01b039092168252519081900360200190f35b61046c610a09565b604080519115158252519081900360200190f35b610448610a1d565b6101ee6004803603602081101561049e57600080fd5b50356001600160a01b0316610a41565b610448610a5f565b6101ee600480360360208110156104cc57600080fd5b5035610a6e565b6101ee610a8c565b610401600480360360408110156104f157600080fd5b506001600160a01b0381358116916020013516610a92565b6101ee6004803603602081101561051f57600080fd5b50356001600160a01b0316610cfb565b6104016004803603602081101561054557600080fd5b5035610d61565b6101ee610d6d565b6104486004803603602081101561056a57600080fd5b5035610d73565b6101ee6004803603604081101561058757600080fd5b506001600160a01b038135169060200135610d9a565b610401610e1e565b6101ee600480360360408110156105bb57600080fd5b506001600160a01b038135169060200135610fc4565b61040161117b565b6101ee600480360360408110156105ef57600080fd5b506001600160a01b0381351690602001356111cf565b6101ee6004803603602081101561061b57600080fd5b503561123e565b60006001600160a01b0382166106695760405162461bcd60e51b815260040180806020018281038252602d8152602001806120be602d913960400191505060405180910390fd5b506001600160a01b03166000908152600c602052604090206002015490565b600b5481565b60065481565b600c602052600090815260409020805460019091015482565b6009546001600160a01b031633146106f65760405162461bcd60e51b81526004018080602001828103825260298152602001806123636029913960400191505060405180910390fd5b6106fe61124b565b841161073b5760405162461bcd60e51b81526004018080602001828103825260278152602001806123126027913960400191505060405180910390fd5b60065484101561077c5760405162461bcd60e51b81526004018080602001828103825260358152602001806121126035913960400191505060405180910390fd5b6003548351146107bd5760405162461bcd60e51b81526004018080602001828103825260348152602001806122386034913960400191505060405180910390fd5b6107c5610e1e565b60005b83518110156108a5576000600382815481106107e057fe5b60009182526020909120015483516001600160a01b03909116915083908390811061080757fe5b602002602001015184838151811061081b57fe5b6020026020010151111561086f5761086f3384848151811061083957fe5b602002602001015186858151811061084d57fe5b602002602001015103836001600160a01b031661124f9092919063ffffffff16565b84828151811061087b57fe5b60200260200101516002838154811061089057fe5b600091825260209091200155506001016107c8565b50836006819055507f137c92cc7579cc4d6a2b109467cd475c205d1c136363ca854cc46d72f840d5de84846040518083815260200180602001828103825283818151815260200191508051906020019060200280838360005b838110156109165781810151838201526020016108fe565b50505050905001935050505060405180910390a150505050565b60035490565b6002600054141561097c576040805162461bcd60e51b815260206004820152601f602482015260008051602061209e833981519152604482015290519081900360640190fd5b600260005561098b81336112a6565b506001600055565b600a5481565b60055481565b600260005414156109e5576040805162461bcd60e51b815260206004820152601f602482015260008051602061209e833981519152604482015290519081900360640190fd5b60026000556109f3336114a8565b6001600055565b6009546001600160a01b031681565b6000600554610a1661124b565b1015905090565b7f000000000000000000000000000000000000000000000000000000000000000081565b6001600160a01b03166000908152600c602052604090206001015490565b6004546001600160a01b031681565b60028181548110610a7b57fe5b600091825260209091200154905081565b60015481565b60026000541415610ad8576040805162461bcd60e51b815260206004820152601f602482015260008051602061209e833981519152604482015290519081900360640190fd5b60026000556009546001600160a01b03163314610b265760405162461bcd60e51b81526004018080602001828103825260298152602001806123636029913960400191505060405180910390fd5b6000816001600160a01b03166370a08231306040518263ffffffff1660e01b815260040180826001600160a01b0316815260200191505060206040518083038186803b158015610b7557600080fd5b505afa158015610b89573d6000803e3d6000fd5b505050506040513d6020811015610b9f57600080fd5b5051905080610bdf5760405162461bcd60e51b815260040180806020018281038252603c8152602001806122d6603c913960400191505060405180910390fd5b6004546001600160a01b0383811691161415610c2c5760405162461bcd60e51b81526004018080602001828103825260368152602001806121476036913960400191505060405180910390fd5b60035460005b81811015610ca55760038181548110610c4757fe5b6000918252602090912001546001600160a01b0385811691161415610c9d5760405162461bcd60e51b815260040180806020018281038252603581526020018061217d6035913960400191505060405180910390fd5b600101610c32565b50610cba6001600160a01b038416858461124f565b6040516001600160a01b0385169083907fdf1b625465761dd1a4330a9b3a21d4943183f301036528a3544f8d891fdce2c290600090a3505060016000555050565b60006001600160a01b038216610d425760405162461bcd60e51b815260040180806020018281038252602d8152602001806121b2602d913960400191505060405180910390fd5b506001600160a01b03166000908152600c602052604090206003015490565b610d6a816115c1565b50565b60075481565b60038181548110610d8057fe5b6000918252602090912001546001600160a01b0316905081565b60006001600160a01b038316610de15760405162461bcd60e51b81526004018080602001828103825260278152602001806122af6027913960400191505060405180910390fd5b6001600160a01b0383166000908152600c6020526040902060038101805484908110610e0957fe5b90600052602060002001549150505b92915050565b6000610e2861124b565b90506007548111610e395750610fc2565b60006006548210610e4c57600654610e4e565b815b600754909150810380610e6357505050610fc2565b600154610e74575060075550610fc2565b60035460005b81811015610fba57600060038281548110610e9157fe5b600091825260209182902001546040805163313ce56760e01b815290516001600160a01b039092169263313ce56792600480840193829003018186803b158015610eda57600080fd5b505afa158015610eee573d6000803e3d6000fd5b505050506040513d6020811015610f0457600080fd5b50516002805460ff9092169250600a83900a91600091610f429186908110610f2857fe5b90600052602060002001548761164790919063ffffffff16565b90506000610f65600154610f5f858561164790919063ffffffff16565b906116a7565b9050610f918160088781548110610f7857fe5b906000526020600020015461170e90919063ffffffff16565b60088681548110610f9e57fe5b600091825260209091200155505060019092019150610e7a9050565b505050600755505b565b600080610fcf61124b565b905060006006548210610fe457600654610fe6565b815b90506000610fff6007548361176890919063ffffffff16565b905060006003868154811061101057fe5b600091825260209182902001546040805163313ce56760e01b815290516001600160a01b039092169263313ce56792600480840193829003018186803b15801561105957600080fd5b505afa15801561106d573d6000803e3d6000fd5b505050506040513d602081101561108357600080fd5b50516002805460ff9092169250600a83900a916000916110c1918a9081106110a757fe5b90600052602060002001548561164790919063ffffffff16565b905060006110de600154610f5f858561164790919063ffffffff16565b905060006110f38260088c81548110610f7857fe5b6001600160a01b038c166000908152600c60205260408120600181015492935091611124908790610f5f9086611647565b90506000611154836002018e8154811061113a57fe5b90600052602060002001548361176890919063ffffffff16565b905061116981846003018f81548110610f7857fe5b9e9d5050505050505050505050505050565b600260005414156111c1576040805162461bcd60e51b815260206004820152601f602482015260008051602061209e833981519152604482015290519081900360640190fd5b60026000556109f3336117c5565b60006001600160a01b0383166112165760405162461bcd60e51b81526004018080602001828103825260278152602001806120eb6027913960400191505060405180910390fd5b6001600160a01b0383166000908152600c6020526040902060028101805484908110610e0957fe5b60088181548110610a7b57fe5b4390565b604080516001600160a01b038416602482015260448082018490528251808303909101815260649091019091526020810180516001600160e01b031663a9059cbb60e01b1790526112a190849061183b565b505050565b600082116112fb576040805162461bcd60e51b815260206004820152601b60248201527f57697468647261773a3a43616e6e6f7420776974686472617720300000000000604482015290519081900360640190fd5b6001600160a01b0381166000908152600c6020526040902061131b610e1e565b611324826119f3565b60018101546113339084611768565b600180830191909155546113479084611768565b60015560035460005b8181101561144b5760006003828154811061136757fe5b600091825260209182902001546040805163313ce56760e01b815290516001600160a01b039092169263313ce56792600480840193829003018186803b1580156113b057600080fd5b505afa1580156113c4573d6000803e3d6000fd5b505050506040513d60208110156113da57600080fd5b50516008805460ff9092169250600a83900a91600091611422918491610f5f918890811061140457fe5b9060005260206000200154896001015461164790919063ffffffff16565b90508086600201858154811061143457fe5b600091825260209091200155505050600101611350565b50600454611463906001600160a01b0316848661124f565b6040805185815290516001600160a01b038516917f7084f5476618d8e60b11ef0d7d3f06914655adb8793e28ff7f018d4c76d505d5919081900360200190a250505050565b6001600160a01b0381166000908152600c602052604090206114c8610e1e565b6114d1826119f3565b60035460005b818110156115bb5760008360030182815481106114f057fe5b90600052602060002001549050600084600301838154811061150e57fe5b906000526020600020018190555061154a85826003858154811061152e57fe5b6000918252602090912001546001600160a01b0316919061124f565b846001600160a01b03167f7e6632ca16a0ac6cf28448500b1a17d96c8b8163ad4c4a9b44ef5386cc02779e826003858154811061158357fe5b60009182526020918290200154604080519384526001600160a01b03909116918301919091528051918290030190a2506001016114d7565b50505050565b336001600160a01b037f0000000000000000000000000000000000000000000000000000000000000000161461163e576040805162461bcd60e51b815260206004820152601c60248201527f6f6e6c795374616b65723a3a696e636f7272656374207374616b657200000000604482015290519081900360640190fd5b610d6a81611a4c565b60008261165657506000610e18565b8282028284828161166357fe5b04146116a05760405162461bcd60e51b815260040180806020018281038252602181526020018061228e6021913960400191505060405180910390fd5b9392505050565b60008082116116fd576040805162461bcd60e51b815260206004820152601a60248201527f536166654d6174683a206469766973696f6e206279207a65726f000000000000604482015290519081900360640190fd5b81838161170657fe5b049392505050565b6000828201838110156116a0576040805162461bcd60e51b815260206004820152601b60248201527f536166654d6174683a206164646974696f6e206f766572666c6f770000000000604482015290519081900360640190fd5b6000828211156117bf576040805162461bcd60e51b815260206004820152601e60248201527f536166654d6174683a207375627472616374696f6e206f766572666c6f770000604482015290519081900360640190fd5b50900390565b6001600160a01b0381166000908152600c602052604090206117e6826114a8565b6117f48160010154836112a6565b600181015460408051918252516001600160a01b038416917f920bb94eb3842a728db98228c375ff6b00c5bc5a54fac6736155517a0a20a61a919081900360200190a25050565b61184d826001600160a01b0316611aa3565b61189e576040805162461bcd60e51b815260206004820152601f60248201527f5361666545524332303a2063616c6c20746f206e6f6e2d636f6e747261637400604482015290519081900360640190fd5b60006060836001600160a01b0316836040518082805190602001908083835b602083106118dc5780518252601f1990920191602091820191016118bd565b6001836020036101000a0380198251168184511680821785525050505050509050019150506000604051808303816000865af19150503d806000811461193e576040519150601f19603f3d011682016040523d82523d6000602084013e611943565b606091505b50915091508161199a576040805162461bcd60e51b815260206004820181905260248201527f5361666545524332303a206c6f772d6c6576656c2063616c6c206661696c6564604482015290519081900360640190fd5b8051156115bb578080602001905160208110156119b657600080fd5b50516115bb5760405162461bcd60e51b815260040180806020018281038252602a815260200180612339602a913960400191505060405180910390fd5b6001600160a01b0381166000908152600c60205260409020611a1482611aa9565b611a1d82611b09565b6001810154611a2c5750610d6a565b60035460005b818110156115bb57611a448482611b69565b600101611a32565b60026000541415611a92576040805162461bcd60e51b815260206004820152601f602482015260008051602061209e833981519152604482015290519081900360640190fd5b600260005561098b81336001611cc1565b3b151590565b6001600160a01b0381166000908152600c6020526040902060035460028201541415611ad55750610d6a565b60035460028201545b818110156115bb57600283018054600181810183556000928352602083209091019190915501611ade565b6001600160a01b0381166000908152600c6020526040902060038054908201541415611b355750610d6a565b60038054908201545b818110156115bb57600383018054600181810183556000928352602083209091019190915501611b3e565b6001600160a01b0382166000908152600c602052604081206003805491929184908110611b9257fe5b600091825260209182902001546040805163313ce56760e01b815290516001600160a01b039092169263313ce56792600480840193829003018186803b158015611bdb57600080fd5b505afa158015611bef573d6000803e3d6000fd5b505050506040513d6020811015611c0557600080fd5b50516008805460ff9092169250600a83900a91600091611c4d918491610f5f9189908110611c2f57fe5b9060005260206000200154876001015461164790919063ffffffff16565b90506000611c6385600201878154811061113a57fe5b90508015611cb857611c7e81866003018881548110610f7857fe5b856003018781548110611c8d57fe5b906000526020600020018190555081856002018781548110611cab57fe5b6000918252602090912001555b50505050505050565b6000611ccb61124b565b90506005548111611d0d5760405162461bcd60e51b815260040180806020018281038252602281526020018061226c6022913960400191505060405180910390fd5b600654811115611d64576040805162461bcd60e51b815260206004820152601b60248201527f5374616b653a3a5374616b696e67206861732066696e69736865640000000000604482015290519081900360640190fd5b6001600160a01b0383166000908152600c60205260409020600a546001820154859287929091611d94908461170e565b1115611dd15760405162461bcd60e51b81526004018080602001828103825260288152602001806122106028913960400191505060405180910390fd5b600b54600154611de1908461170e565b1115611e1e5760405162461bcd60e51b81526004018080602001828103825260318152602001806121df6031913960400191505060405180910390fd5b60008711611e6b576040805162461bcd60e51b815260206004820152601560248201527405374616b653a3a43616e6e6f74207374616b65203605c1b604482015290519081900360640190fd5b6001600160a01b0386166000908152600c602052604090206001810154611e9557611e958761201e565b611e9d610e1e565b611ea6876119f3565b6001810154611eb5908961170e565b60018083019190915554611ec9908961170e565b60015560035460005b81811015611faf57600060038281548110611ee957fe5b600091825260209182902001546040805163313ce56760e01b815290516001600160a01b039092169263313ce56792600480840193829003018186803b158015611f3257600080fd5b505afa158015611f46573d6000803e3d6000fd5b505050506040513d6020811015611f5c57600080fd5b50516008805460ff9092169250600a83900a91600091611f86918491610f5f918890811061140457fe5b905080866002018581548110611f9857fe5b600091825260209091200155505050600101611ed2565b50611fd487611fbe5733611fc0565b885b6004546001600160a01b031690308c612043565b604080518a815290516001600160a01b038a16917f9e71bc8eea02a63969f509818f2dafb9254532904319f9dbda79b67bd34a5f3d919081900360200190a2505050505050505050565b6001600160a01b0381166000908152600c6020526040902061203e61124b565b905550565b604080516001600160a01b0380861660248301528416604482015260648082018490528251808303909101815260849091019091526020810180516001600160e01b03166323b872dd60e01b1790526115bb90859061183b56fe5265656e7472616e637947756172643a207265656e7472616e742063616c6c0047657455736572526577617264446562744c656e6774683a3a496e76616c69642075736572206164647265737347657455736572526577617264446562743a3a496e76616c696420757365722061646472657373457874656e643a3a456e6420626c6f636b206d757374206265206166746572207468652063757272656e7420656e6420626c6f636b57697468647261774c50526577617264733a3a2063616e6e6f742077697468647261772066726f6d20746865204c5020746f6b656e7357697468647261774c50526577617264733a3a43616e6e6f742077697468647261772066726f6d20746f6b656e207265776172647347657455736572546f6b656e734f7765644c656e6774683a3a496e76616c6964207573657220616464726573736f6e6c79556e6465725374616b654c696d69743a3a436f6e7472616374205374616b65206c696d697420726561636865646f6e6c79556e6465725374616b654c696d69743a3a5374616b65206c696d69742072656163686564457874656e643a3a5265776172647320616d6f756e7473206c656e677468206973206c657373207468616e2065787065637465645374616b653a3a5374616b696e6720686173206e6f74207965742073746172746564536166654d6174683a206d756c7469706c69636174696f6e206f766572666c6f77476574557365724f776564546f6b656e733a3a496e76616c69642075736572206164647265737357697468647261774c50526577617264733a3a546865726520617265206e6f20726577617264732066726f6d206c697175696469747920706f6f6c73457874656e643a3a456e6420626c6f636b206d75737420626520696e20746865206675747572655361666545524332303a204552433230206f7065726174696f6e20646964206e6f74207375636365656443616c6c6572206973206e6f742052657761726473506f6f6c466163746f727920636f6e7472616374a2646970667358221220e0cb05a7a5cd30788fe10095cc992a8b53d7cd8052e74730bd91237525cdb5e164736f6c634300060c0033436f6e7374727563746f723a3a5374616b65206c696d6974206e6565647320746f206265206d6f7265207468616e20304f6e655374616b6572466561747572653a3a73657453636f6e7374727563746f7274616b6572206e6577207374616b657220616464726573732063616e2774206265207a65726f2061646472657373436f6e7374727563746f723a3a54686520656e6420626c6f636b206d75737420626520696e20746865206675747572652e436f6e7374727563746f723a3a526577617264732070657220626c6f636b20616e64207265776172647320746f6b656e73206d7573742062652077697468207468652073616d65206c656e6774682e436f6e7374727563746f723a3a20436f6e7472616374205374616b65206c696d6974206e6565647320746f206265206d6f7265207468616e2030436f6e7374727563746f723a3a546865207374617274696e6720626c6f636b206d75737420626520696e20746865206675747572652e",
  "source": "// SPDX-License-Identifier: MIT\n\npragma solidity 0.6.12;\n\nimport \"./../RewardsPoolBase.sol\";\nimport \"./../pool-features/OneStakerFeature.sol\";\n\ncontract OneStakerRewardsPoolMock is RewardsPoolBase, OneStakerFeature {\n\tconstructor(\n        IERC20Detailed _stakingToken,\n        uint256 _startBlock,\n        uint256 _endBlock,\n        address[] memory _rewardsTokens,\n        uint256[] memory _rewardPerBlock,\n\t\tuint256 _stakeLimit,\n\t\taddress _staker,\n\t\tuint256 _contractStakeLimit\n    ) public RewardsPoolBase(_stakingToken, _startBlock, _endBlock, _rewardsTokens, _rewardPerBlock, _stakeLimit,_contractStakeLimit) OneStakerFeature(_staker) {\n\t}\n\n\tfunction stake(uint256 _tokenAmount) public override(RewardsPoolBase, OneStakerFeature) {\n\t\tOneStakerFeature.stake(_tokenAmount);\n\t}\n}",
  "sourcePath": "/Users/martindobrev/Code/custom-token/contracts/mocks/OneStakerRewardsPoolMock.sol",
  "compiler": {
    "name": "solc",
    "version": "0.6.12+commit.27d51765.Emscripten.clang",
    "optimizer": true,
    "runs": 200
  },
  "schemaVersion": "2.3.5",
  "updatedAt": "2022-02-16T15:12:31.214Z"
}