{
  "contractName": "OnlyExitRewardsPoolMock",
  "abi": [
    {
      "inputs": [
        {
          "internalType": "contract IERC20Detailed",
          "name": "_stakingToken",
          "type": "address"
        },
        {
          "internalType": "uint256",
          "name": "_startBlock",
          "type": "uint256"
        },
        {
          "internalType": "uint256",
          "name": "_endBlock",
          "type": "uint256"
        },
        {
          "internalType": "address[]",
          "name": "_rewardsTokens",
          "type": "address[]"
        },
        {
          "internalType": "uint256[]",
          "name": "_rewardPerBlock",
          "type": "uint256[]"
        },
        {
          "internalType": "uint256",
          "name": "_stakeLimit",
          "type": "uint256"
        },
        {
          "internalType": "uint256",
          "name": "_contractStakeLimit",
          "type": "uint256"
        }
      ],
      "stateMutability": "nonpayable",
      "type": "constructor"
    },
    {
      "anonymous": false,
      "inputs": [
        {
          "indexed": true,
          "internalType": "address",
          "name": "user",
          "type": "address"
        },
        {
          "indexed": false,
          "internalType": "uint256",
          "name": "amount",
          "type": "uint256"
        },
        {
          "indexed": false,
          "internalType": "address",
          "name": "token",
          "type": "address"
        }
      ],
      "name": "Claimed",
      "type": "event"
    },
    {
      "anonymous": false,
      "inputs": [
        {
          "indexed": true,
          "internalType": "address",
          "name": "user",
          "type": "address"
        },
        {
          "indexed": false,
          "internalType": "uint256",
          "name": "amount",
          "type": "uint256"
        }
      ],
      "name": "Exited",
      "type": "event"
    },
    {
      "anonymous": false,
      "inputs": [
        {
          "indexed": false,
          "internalType": "uint256",
          "name": "newEndBlock",
          "type": "uint256"
        },
        {
          "indexed": false,
          "internalType": "uint256[]",
          "name": "newRewardsPerBlock",
          "type": "uint256[]"
        }
      ],
      "name": "Extended",
      "type": "event"
    },
    {
      "anonymous": false,
      "inputs": [
        {
          "indexed": true,
          "internalType": "address",
          "name": "user",
          "type": "address"
        },
        {
          "indexed": false,
          "internalType": "uint256",
          "name": "amount",
          "type": "uint256"
        }
      ],
      "name": "Staked",
      "type": "event"
    },
    {
      "anonymous": false,
      "inputs": [
        {
          "indexed": true,
          "internalType": "uint256",
          "name": "rewardsAmount",
          "type": "uint256"
        },
        {
          "indexed": true,
          "internalType": "address",
          "name": "recipient",
          "type": "address"
        }
      ],
      "name": "WithdrawLPRewards",
      "type": "event"
    },
    {
      "anonymous": false,
      "inputs": [
        {
          "indexed": true,
          "internalType": "address",
          "name": "user",
          "type": "address"
        },
        {
          "indexed": false,
          "internalType": "uint256",
          "name": "amount",
          "type": "uint256"
        }
      ],
      "name": "Withdrawn",
      "type": "event"
    },
    {
      "inputs": [
        {
          "internalType": "uint256",
          "name": "",
          "type": "uint256"
        }
      ],
      "name": "accumulatedRewardMultiplier",
      "outputs": [
        {
          "internalType": "uint256",
          "name": "",
          "type": "uint256"
        }
      ],
      "stateMutability": "view",
      "type": "function"
    },
    {
      "inputs": [
        {
          "internalType": "address",
          "name": "_userAddress",
          "type": "address"
        }
      ],
      "name": "balanceOf",
      "outputs": [
        {
          "internalType": "uint256",
          "name": "",
          "type": "uint256"
        }
      ],
      "stateMutability": "view",
      "type": "function"
    },
    {
      "inputs": [],
      "name": "contractStakeLimit",
      "outputs": [
        {
          "internalType": "uint256",
          "name": "",
          "type": "uint256"
        }
      ],
      "stateMutability": "view",
      "type": "function"
    },
    {
      "inputs": [],
      "name": "endBlock",
      "outputs": [
        {
          "internalType": "uint256",
          "name": "",
          "type": "uint256"
        }
      ],
      "stateMutability": "view",
      "type": "function"
    },
    {
      "inputs": [],
      "name": "exit",
      "outputs": [],
      "stateMutability": "nonpayable",
      "type": "function"
    },
    {
      "inputs": [
        {
          "internalType": "uint256",
          "name": "_endBlock",
          "type": "uint256"
        },
        {
          "internalType": "uint256[]",
          "name": "_rewardsPerBlock",
          "type": "uint256[]"
        },
        {
          "internalType": "uint256[]",
          "name": "_currentRemainingRewards",
          "type": "uint256[]"
        },
        {
          "internalType": "uint256[]",
          "name": "_newRemainingRewards",
          "type": "uint256[]"
        }
      ],
      "name": "extend",
      "outputs": [],
      "stateMutability": "nonpayable",
      "type": "function"
    },
    {
      "inputs": [],
      "name": "getRewardTokensCount",
      "outputs": [
        {
          "internalType": "uint256",
          "name": "",
          "type": "uint256"
        }
      ],
      "stateMutability": "view",
      "type": "function"
    },
    {
      "inputs": [
        {
          "internalType": "address",
          "name": "_userAddress",
          "type": "address"
        },
        {
          "internalType": "uint256",
          "name": "tokenIndex",
          "type": "uint256"
        }
      ],
      "name": "getUserAccumulatedReward",
      "outputs": [
        {
          "internalType": "uint256",
          "name": "",
          "type": "uint256"
        }
      ],
      "stateMutability": "view",
      "type": "function"
    },
    {
      "inputs": [
        {
          "internalType": "address",
          "name": "_userAddress",
          "type": "address"
        },
        {
          "internalType": "uint256",
          "name": "_index",
          "type": "uint256"
        }
      ],
      "name": "getUserOwedTokens",
      "outputs": [
        {
          "internalType": "uint256",
          "name": "",
          "type": "uint256"
        }
      ],
      "stateMutability": "view",
      "type": "function"
    },
    {
      "inputs": [
        {
          "internalType": "address",
          "name": "_userAddress",
          "type": "address"
        },
        {
          "internalType": "uint256",
          "name": "_index",
          "type": "uint256"
        }
      ],
      "name": "getUserRewardDebt",
      "outputs": [
        {
          "internalType": "uint256",
          "name": "",
          "type": "uint256"
        }
      ],
      "stateMutability": "view",
      "type": "function"
    },
    {
      "inputs": [
        {
          "internalType": "address",
          "name": "_userAddress",
          "type": "address"
        }
      ],
      "name": "getUserRewardDebtLength",
      "outputs": [
        {
          "internalType": "uint256",
          "name": "",
          "type": "uint256"
        }
      ],
      "stateMutability": "view",
      "type": "function"
    },
    {
      "inputs": [
        {
          "internalType": "address",
          "name": "_userAddress",
          "type": "address"
        }
      ],
      "name": "getUserTokensOwedLength",
      "outputs": [
        {
          "internalType": "uint256",
          "name": "",
          "type": "uint256"
        }
      ],
      "stateMutability": "view",
      "type": "function"
    },
    {
      "inputs": [],
      "name": "hasStakingStarted",
      "outputs": [
        {
          "internalType": "bool",
          "name": "",
          "type": "bool"
        }
      ],
      "stateMutability": "view",
      "type": "function"
    },
    {
      "inputs": [],
      "name": "lastRewardBlock",
      "outputs": [
        {
          "internalType": "uint256",
          "name": "",
          "type": "uint256"
        }
      ],
      "stateMutability": "view",
      "type": "function"
    },
    {
      "inputs": [
        {
          "internalType": "uint256",
          "name": "",
          "type": "uint256"
        }
      ],
      "name": "rewardPerBlock",
      "outputs": [
        {
          "internalType": "uint256",
          "name": "",
          "type": "uint256"
        }
      ],
      "stateMutability": "view",
      "type": "function"
    },
    {
      "inputs": [],
      "name": "rewardsPoolFactory",
      "outputs": [
        {
          "internalType": "address",
          "name": "",
          "type": "address"
        }
      ],
      "stateMutability": "view",
      "type": "function"
    },
    {
      "inputs": [
        {
          "internalType": "uint256",
          "name": "",
          "type": "uint256"
        }
      ],
      "name": "rewardsTokens",
      "outputs": [
        {
          "internalType": "address",
          "name": "",
          "type": "address"
        }
      ],
      "stateMutability": "view",
      "type": "function"
    },
    {
      "inputs": [
        {
          "internalType": "uint256",
          "name": "_tokenAmount",
          "type": "uint256"
        }
      ],
      "name": "stake",
      "outputs": [],
      "stateMutability": "nonpayable",
      "type": "function"
    },
    {
      "inputs": [],
      "name": "stakeLimit",
      "outputs": [
        {
          "internalType": "uint256",
          "name": "",
          "type": "uint256"
        }
      ],
      "stateMutability": "view",
      "type": "function"
    },
    {
      "inputs": [],
      "name": "stakingToken",
      "outputs": [
        {
          "internalType": "contract IERC20Detailed",
          "name": "",
          "type": "address"
        }
      ],
      "stateMutability": "view",
      "type": "function"
    },
    {
      "inputs": [],
      "name": "startBlock",
      "outputs": [
        {
          "internalType": "uint256",
          "name": "",
          "type": "uint256"
        }
      ],
      "stateMutability": "view",
      "type": "function"
    },
    {
      "inputs": [],
      "name": "totalStaked",
      "outputs": [
        {
          "internalType": "uint256",
          "name": "",
          "type": "uint256"
        }
      ],
      "stateMutability": "view",
      "type": "function"
    },
    {
      "inputs": [],
      "name": "updateRewardMultipliers",
      "outputs": [],
      "stateMutability": "nonpayable",
      "type": "function"
    },
    {
      "inputs": [
        {
          "internalType": "address",
          "name": "",
          "type": "address"
        }
      ],
      "name": "userInfo",
      "outputs": [
        {
          "internalType": "uint256",
          "name": "firstStakedBlockNumber",
          "type": "uint256"
        },
        {
          "internalType": "uint256",
          "name": "amountStaked",
          "type": "uint256"
        }
      ],
      "stateMutability": "view",
      "type": "function"
    },
    {
      "inputs": [
        {
          "internalType": "address",
          "name": "recipient",
          "type": "address"
        },
        {
          "internalType": "address",
          "name": "lpTokenContract",
          "type": "address"
        }
      ],
      "name": "withdrawLPRewards",
      "outputs": [],
      "stateMutability": "nonpayable",
      "type": "function"
    },
    {
      "inputs": [
        {
          "internalType": "uint256",
          "name": "_tokenAmount",
          "type": "uint256"
        }
      ],
      "name": "withdraw",
      "outputs": [],
      "stateMutability": "nonpayable",
      "type": "function"
    },
    {
      "inputs": [],
      "name": "claim",
      "outputs": [],
      "stateMutability": "nonpayable",
      "type": "function"
    }
  ],
  "bytecode": "0x60806040523480156200001157600080fd5b506040516200291e3803806200291e833981810160405260e08110156200003757600080fd5b8151602083015160408085015160608601805192519496939591949391820192846401000000008211156200006b57600080fd5b9083019060208201858111156200008157600080fd5b82518660208202830111640100000000821117156200009f57600080fd5b82525081516020918201928201910280838360005b83811015620000ce578181015183820152602001620000b4565b5050505090500160405260200180516040519392919084640100000000821115620000f857600080fd5b9083019060208201858111156200010e57600080fd5b82518660208202830111640100000000821117156200012c57600080fd5b82525081516020918201928201910280838360005b838110156200015b57818101518382015260200162000141565b50505050919091016040908152602083015192015160016000559193509091508790508686868686866200018e620003a9565b8611620001cd5760405162461bcd60e51b8152600401808060200182810382526036815260200180620028e86036913960400191505060405180910390fd5b620001d7620003a9565b8511620002165760405162461bcd60e51b81526004018080602001828103825260318152602001806200282e6031913960400191505060405180910390fd5b8351835114620002585760405162461bcd60e51b815260040180806020018281038252604f8152602001806200285f604f913960600191505060405180910390fd5b81620002965760405162461bcd60e51b8152600401808060200182810382526030815260200180620027fe6030913960400191505060405180910390fd5b80620002d45760405162461bcd60e51b815260040180806020018281038252603a815260200180620028ae603a913960400191505060405180910390fd5b600480546001600160a01b0319166001600160a01b038916179055825162000304906002906020860190620003ad565b5060058690556006859055835162000324906003906020870190620003fd565b50600554600755600980546001600160a01b03191633179055600a829055600b81905560005b6003548110156200039457600880546001818101835560009283527ff3f7a9fe364faab93b216da50a3214154f22a0a2b415b23a84c8169e8b636ee390910191909155016200034a565b5050505050505050505050505050506200049b565b4390565b828054828255906000526020600020908101928215620003eb579160200282015b82811115620003eb578251825591602001919060010190620003ce565b50620003f992915062000463565b5090565b82805482825590600052602060002090810192821562000455579160200282015b828111156200045557825182546001600160a01b0319166001600160a01b039091161782556020909201916001909101906200041e565b50620003f99291506200047a565b5b80821115620003f9576000815560010162000464565b5b80821115620003f95780546001600160a01b03191681556001016200047b565b61235380620004ab6000396000f3fe608060405234801561001057600080fd5b50600436106101a85760003560e01c806372f702f3116100f9578063b6d0dcd811610097578063df9d777f11610071578063df9d777f14610582578063e9fad8ee146105ae578063f27d0264146105b6578063fb58cad1146105e2576101a8565b8063b6d0dcd814610531578063ce4153021461054e578063dd2da2201461057a576101a8565b8063a1002a0f116100d3578063a1002a0f146104b8578063a1292aea146104e6578063a694fc3a1461050c578063a9f8d18114610529576101a8565b806372f702f31461048b578063791f39cd14610493578063817b1cd2146104b0576101a8565b80632e1a7d4d116101665780634e71d92d116101405780634e71d92d1461041d57806356409b811461042557806357b4f01f1461044957806370a0823114610465576101a8565b80632e1a7d4d146103f057806345ef79af1461040d57806348cd4cb114610415576101a8565b806284c927146101ad57806303d1dae0146101e5578063083c6323146101ed5780631959a002146101f557806320e67c76146102345780632d9e88e1146103e8575b600080fd5b6101d3600480360360208110156101c357600080fd5b50356001600160a01b03166105ff565b60408051918252519081900360200190f35b6101d3610665565b6101d361066b565b61021b6004803603602081101561020b57600080fd5b50356001600160a01b0316610671565b6040805192835260208301919091528051918290030190f35b6103e66004803603608081101561024a57600080fd5b8135919081019060408101602082013564010000000081111561026c57600080fd5b82018360208201111561027e57600080fd5b803590602001918460208302840111640100000000831117156102a057600080fd5b91908080602002602001604051908101604052809392919081815260200183836020028082843760009201919091525092959493602081019350359150506401000000008111156102f057600080fd5b82018360208201111561030257600080fd5b8035906020019184602083028401116401000000008311171561032457600080fd5b919080806020026020016040519081016040528093929190818152602001838360200280828437600092019190915250929594936020810193503591505064010000000081111561037457600080fd5b82018360208201111561038657600080fd5b803590602001918460208302840111640100000000831117156103a857600080fd5b91908080602002602001604051908101604052809392919081815260200183836020028082843760009201919091525092955061068a945050505050565b005b6101d361090d565b6103e66004803603602081101561040657600080fd5b5035610913565b6101d361091f565b6101d3610925565b6103e661092b565b61042d610935565b604080516001600160a01b039092168252519081900360200190f35b610451610944565b604080519115158252519081900360200190f35b6101d36004803603602081101561047b57600080fd5b50356001600160a01b0316610958565b61042d610976565b6101d3600480360360208110156104a957600080fd5b5035610985565b6101d36109a3565b6103e6600480360360408110156104ce57600080fd5b506001600160a01b03813581169160200135166109a9565b6101d3600480360360208110156104fc57600080fd5b50356001600160a01b0316610c24565b6103e66004803603602081101561052257600080fd5b5035610c8a565b6101d3610cfb565b61042d6004803603602081101561054757600080fd5b5035610d01565b6101d36004803603604081101561056457600080fd5b506001600160a01b038135169060200135610d28565b6103e6610dac565b6101d36004803603604081101561059857600080fd5b506001600160a01b038135169060200135610f51565b6103e6611108565b6101d3600480360360408110156105cc57600080fd5b506001600160a01b038135169060200135611175565b6101d3600480360360208110156105f857600080fd5b50356111e4565b60006001600160a01b0382166106465760405162461bcd60e51b815260040180806020018281038252602d815260200180611fd5602d913960400191505060405180910390fd5b506001600160a01b03166000908152600c602052604090206002015490565b600b5481565b60065481565b600c602052600090815260409020805460019091015482565b6009546001600160a01b031633146106d35760405162461bcd60e51b81526004018080602001828103825260298152602001806122f56029913960400191505060405180910390fd5b6106db6111f1565b84116107185760405162461bcd60e51b81526004018080602001828103825260278152602001806122a46027913960400191505060405180910390fd5b6006548410156107595760405162461bcd60e51b81526004018080602001828103825260358152602001806120296035913960400191505060405180910390fd5b60035483511461079a5760405162461bcd60e51b81526004018080602001828103825260348152602001806121ca6034913960400191505060405180910390fd5b6107a2610dac565b60005b8351811015610882576000600382815481106107bd57fe5b60009182526020909120015483516001600160a01b0390911691508390839081106107e457fe5b60200260200101518483815181106107f857fe5b6020026020010151111561084c5761084c3384848151811061081657fe5b602002602001015186858151811061082a57fe5b602002602001015103836001600160a01b03166111f59092919063ffffffff16565b84828151811061085857fe5b60200260200101516002838154811061086d57fe5b600091825260209091200155506001016107a5565b50836006819055507f137c92cc7579cc4d6a2b109467cd475c205d1c136363ca854cc46d72f840d5de84846040518083815260200180602001828103825283818151815260200191508051906020019060200280838360005b838110156108f35781810151838201526020016108db565b50505050905001935050505060405180910390a150505050565b60035490565b61091c8161124c565b50565b600a5481565b60055481565b610933611283565b565b6009546001600160a01b031681565b60006005546109516111f1565b1015905090565b6001600160a01b03166000908152600c602052604090206001015490565b6004546001600160a01b031681565b6002818154811061099257fe5b600091825260209091200154905081565b60015481565b60026000541415610a01576040805162461bcd60e51b815260206004820152601f60248201527f5265656e7472616e637947756172643a207265656e7472616e742063616c6c00604482015290519081900360640190fd5b60026000556009546001600160a01b03163314610a4f5760405162461bcd60e51b81526004018080602001828103825260298152602001806122f56029913960400191505060405180910390fd5b6000816001600160a01b03166370a08231306040518263ffffffff1660e01b815260040180826001600160a01b0316815260200191505060206040518083038186803b158015610a9e57600080fd5b505afa158015610ab2573d6000803e3d6000fd5b505050506040513d6020811015610ac857600080fd5b5051905080610b085760405162461bcd60e51b815260040180806020018281038252603c815260200180612268603c913960400191505060405180910390fd5b6004546001600160a01b0383811691161415610b555760405162461bcd60e51b815260040180806020018281038252603681526020018061205e6036913960400191505060405180910390fd5b60035460005b81811015610bce5760038181548110610b7057fe5b6000918252602090912001546001600160a01b0385811691161415610bc65760405162461bcd60e51b81526004018080602001828103825260358152602001806120946035913960400191505060405180910390fd5b600101610b5b565b50610be36001600160a01b03841685846111f5565b6040516001600160a01b0385169083907fdf1b625465761dd1a4330a9b3a21d4943183f301036528a3544f8d891fdce2c290600090a3505060016000555050565b60006001600160a01b038216610c6b5760405162461bcd60e51b815260040180806020018281038252602d8152602001806120c9602d913960400191505060405180910390fd5b506001600160a01b03166000908152600c602052604090206003015490565b60026000541415610ce2576040805162461bcd60e51b815260206004820152601f60248201527f5265656e7472616e637947756172643a207265656e7472616e742063616c6c00604482015290519081900360640190fd5b6002600055610cf3813360016112ba565b506001600055565b60075481565b60038181548110610d0e57fe5b6000918252602090912001546001600160a01b0316905081565b60006001600160a01b038316610d6f5760405162461bcd60e51b81526004018080602001828103825260278152602001806122416027913960400191505060405180910390fd5b6001600160a01b0383166000908152600c6020526040902060038101805484908110610d9757fe5b90600052602060002001549150505b92915050565b6000610db66111f1565b90506007548111610dc75750610933565b60006006548210610dda57600654610ddc565b815b600754909150810380610df157505050610933565b600154610e02575060075550610933565b60035460005b81811015610f4857600060038281548110610e1f57fe5b600091825260209182902001546040805163313ce56760e01b815290516001600160a01b039092169263313ce56792600480840193829003018186803b158015610e6857600080fd5b505afa158015610e7c573d6000803e3d6000fd5b505050506040513d6020811015610e9257600080fd5b50516002805460ff9092169250600a83900a91600091610ed09186908110610eb657fe5b90600052602060002001548761163590919063ffffffff16565b90506000610ef3600154610eed858561163590919063ffffffff16565b90611695565b9050610f1f8160088781548110610f0657fe5b90600052602060002001546116fc90919063ffffffff16565b60088681548110610f2c57fe5b600091825260209091200155505060019092019150610e089050565b50505060075550565b600080610f5c6111f1565b905060006006548210610f7157600654610f73565b815b90506000610f8c6007548361175690919063ffffffff16565b9050600060038681548110610f9d57fe5b600091825260209182902001546040805163313ce56760e01b815290516001600160a01b039092169263313ce56792600480840193829003018186803b158015610fe657600080fd5b505afa158015610ffa573d6000803e3d6000fd5b505050506040513d602081101561101057600080fd5b50516002805460ff9092169250600a83900a9160009161104e918a90811061103457fe5b90600052602060002001548561163590919063ffffffff16565b9050600061106b600154610eed858561163590919063ffffffff16565b905060006110808260088c81548110610f0657fe5b6001600160a01b038c166000908152600c602052604081206001810154929350916110b1908790610eed9086611635565b905060006110e1836002018e815481106110c757fe5b90600052602060002001548361175690919063ffffffff16565b90506110f681846003018f81548110610f0657fe5b9e9d5050505050505050505050505050565b60026000541415611160576040805162461bcd60e51b815260206004820152601f60248201527f5265656e7472616e637947756172643a207265656e7472616e742063616c6c00604482015290519081900360640190fd5b600260005561116e336117b3565b6001600055565b60006001600160a01b0383166111bc5760405162461bcd60e51b81526004018080602001828103825260278152602001806120026027913960400191505060405180910390fd5b6001600160a01b0383166000908152600c6020526040902060028101805484908110610d9757fe5b6008818154811061099257fe5b4390565b604080516001600160a01b038416602482015260448082018490528251808303909101815260649091019091526020810180516001600160e01b031663a9059cbb60e01b179052611247908490611829565b505050565b60405162461bcd60e51b815260040180806020018281038252603f8152602001806120f6603f913960400191505060405180910390fd5b60405162461bcd60e51b815260040180806020018281038252603c81526020018061218e603c913960400191505060405180910390fd5b60006112c46111f1565b905060055481116113065760405162461bcd60e51b81526004018080602001828103825260228152602001806121fe6022913960400191505060405180910390fd5b60065481111561135d576040805162461bcd60e51b815260206004820152601b60248201527f5374616b653a3a5374616b696e67206861732066696e69736865640000000000604482015290519081900360640190fd5b6001600160a01b0383166000908152600c60205260409020600a54600182015485928792909161138d90846116fc565b11156113ca5760405162461bcd60e51b81526004018080602001828103825260288152602001806121666028913960400191505060405180910390fd5b600b546001546113da90846116fc565b11156114175760405162461bcd60e51b81526004018080602001828103825260318152602001806121356031913960400191505060405180910390fd5b60008711611464576040805162461bcd60e51b815260206004820152601560248201527405374616b653a3a43616e6e6f74207374616b65203605c1b604482015290519081900360640190fd5b6001600160a01b0386166000908152600c60205260409020600181015461148e5761148e876119e7565b611496610dac565b61149f87611a0c565b60018101546114ae90896116fc565b600180830191909155546114c290896116fc565b60015560035460005b818110156115c6576000600382815481106114e257fe5b600091825260209182902001546040805163313ce56760e01b815290516001600160a01b039092169263313ce56792600480840193829003018186803b15801561152b57600080fd5b505afa15801561153f573d6000803e3d6000fd5b505050506040513d602081101561155557600080fd5b50516008805460ff9092169250600a83900a9160009161159d918491610eed918890811061157f57fe5b9060005260206000200154896001015461163590919063ffffffff16565b9050808660020185815481106115af57fe5b6000918252602090912001555050506001016114cb565b506115eb876115d557336115d7565b885b6004546001600160a01b031690308c611a65565b604080518a815290516001600160a01b038a16917f9e71bc8eea02a63969f509818f2dafb9254532904319f9dbda79b67bd34a5f3d919081900360200190a2505050505050505050565b60008261164457506000610da6565b8282028284828161165157fe5b041461168e5760405162461bcd60e51b81526004018080602001828103825260218152602001806122206021913960400191505060405180910390fd5b9392505050565b60008082116116eb576040805162461bcd60e51b815260206004820152601a60248201527f536166654d6174683a206469766973696f6e206279207a65726f000000000000604482015290519081900360640190fd5b8183816116f457fe5b049392505050565b60008282018381101561168e576040805162461bcd60e51b815260206004820152601b60248201527f536166654d6174683a206164646974696f6e206f766572666c6f770000000000604482015290519081900360640190fd5b6000828211156117ad576040805162461bcd60e51b815260206004820152601e60248201527f536166654d6174683a207375627472616374696f6e206f766572666c6f770000604482015290519081900360640190fd5b50900390565b6001600160a01b0381166000908152600c602052604090206117d482611abf565b6117e2816001015483611bd2565b600181015460408051918252516001600160a01b038416917f920bb94eb3842a728db98228c375ff6b00c5bc5a54fac6736155517a0a20a61a919081900360200190a25050565b61183b826001600160a01b0316611db6565b61188c576040805162461bcd60e51b815260206004820152601f60248201527f5361666545524332303a2063616c6c20746f206e6f6e2d636f6e747261637400604482015290519081900360640190fd5b60006060836001600160a01b0316836040518082805190602001908083835b602083106118ca5780518252601f1990920191602091820191016118ab565b6001836020036101000a0380198251168184511680821785525050505050509050019150506000604051808303816000865af19150503d806000811461192c576040519150601f19603f3d011682016040523d82523d6000602084013e611931565b606091505b509150915081611988576040805162461bcd60e51b815260206004820181905260248201527f5361666545524332303a206c6f772d6c6576656c2063616c6c206661696c6564604482015290519081900360640190fd5b8051156119e1578080602001905160208110156119a457600080fd5b50516119e15760405162461bcd60e51b815260040180806020018281038252602a8152602001806122cb602a913960400191505060405180910390fd5b50505050565b6001600160a01b0381166000908152600c60205260409020611a076111f1565b905550565b6001600160a01b0381166000908152600c60205260409020611a2d82611dbc565b611a3682611e1c565b6001810154611a45575061091c565b60035460005b818110156119e157611a5d8482611e7c565b600101611a4b565b604080516001600160a01b0380861660248301528416604482015260648082018490528251808303909101815260849091019091526020810180516001600160e01b03166323b872dd60e01b1790526119e1908590611829565b6001600160a01b0381166000908152600c60205260409020611adf610dac565b611ae882611a0c565b60035460005b818110156119e1576000836003018281548110611b0757fe5b906000526020600020015490506000846003018381548110611b2557fe5b9060005260206000200181905550611b61858260038581548110611b4557fe5b6000918252602090912001546001600160a01b031691906111f5565b846001600160a01b03167f7e6632ca16a0ac6cf28448500b1a17d96c8b8163ad4c4a9b44ef5386cc02779e8260038581548110611b9a57fe5b60009182526020918290200154604080519384526001600160a01b03909116918301919091528051918290030190a250600101611aee565b60008211611c27576040805162461bcd60e51b815260206004820152601b60248201527f57697468647261773a3a43616e6e6f7420776974686472617720300000000000604482015290519081900360640190fd5b6001600160a01b0381166000908152600c60205260409020611c47610dac565b611c5082611a0c565b6001810154611c5f9084611756565b60018083019190915554611c739084611756565b60015560035460005b81811015611d5957600060038281548110611c9357fe5b600091825260209182902001546040805163313ce56760e01b815290516001600160a01b039092169263313ce56792600480840193829003018186803b158015611cdc57600080fd5b505afa158015611cf0573d6000803e3d6000fd5b505050506040513d6020811015611d0657600080fd5b50516008805460ff9092169250600a83900a91600091611d30918491610eed918890811061157f57fe5b905080866002018581548110611d4257fe5b600091825260209091200155505050600101611c7c565b50600454611d71906001600160a01b031684866111f5565b6040805185815290516001600160a01b038516917f7084f5476618d8e60b11ef0d7d3f06914655adb8793e28ff7f018d4c76d505d5919081900360200190a250505050565b3b151590565b6001600160a01b0381166000908152600c6020526040902060035460028201541415611de8575061091c565b60035460028201545b818110156119e157600283018054600181810183556000928352602083209091019190915501611df1565b6001600160a01b0381166000908152600c6020526040902060038054908201541415611e48575061091c565b60038054908201545b818110156119e157600383018054600181810183556000928352602083209091019190915501611e51565b6001600160a01b0382166000908152600c602052604081206003805491929184908110611ea557fe5b600091825260209182902001546040805163313ce56760e01b815290516001600160a01b039092169263313ce56792600480840193829003018186803b158015611eee57600080fd5b505afa158015611f02573d6000803e3d6000fd5b505050506040513d6020811015611f1857600080fd5b50516008805460ff9092169250600a83900a91600091611f60918491610eed9189908110611f4257fe5b9060005260206000200154876001015461163590919063ffffffff16565b90506000611f768560020187815481106110c757fe5b90508015611fcb57611f9181866003018881548110610f0657fe5b856003018781548110611fa057fe5b906000526020600020018190555081856002018781548110611fbe57fe5b6000918252602090912001555b5050505050505056fe47657455736572526577617264446562744c656e6774683a3a496e76616c69642075736572206164647265737347657455736572526577617264446562743a3a496e76616c696420757365722061646472657373457874656e643a3a456e6420626c6f636b206d757374206265206166746572207468652063757272656e7420656e6420626c6f636b57697468647261774c50526577617264733a3a2063616e6e6f742077697468647261772066726f6d20746865204c5020746f6b656e7357697468647261774c50526577617264733a3a43616e6e6f742077697468647261772066726f6d20746f6b656e207265776172647347657455736572546f6b656e734f7765644c656e6774683a3a496e76616c6964207573657220616464726573734f6e6c7945786974466561747572653a3a63616e6e6f742077697468647261772066726f6d207468697320636f6e74726163742e204f6e6c7920657869742e6f6e6c79556e6465725374616b654c696d69743a3a436f6e7472616374205374616b65206c696d697420726561636865646f6e6c79556e6465725374616b654c696d69743a3a5374616b65206c696d697420726561636865644f6e6c7945786974466561747572653a3a63616e6e6f7420636c61696d2066726f6d207468697320636f6e74726163742e204f6e6c7920657869742e457874656e643a3a5265776172647320616d6f756e7473206c656e677468206973206c657373207468616e2065787065637465645374616b653a3a5374616b696e6720686173206e6f74207965742073746172746564536166654d6174683a206d756c7469706c69636174696f6e206f766572666c6f77476574557365724f776564546f6b656e733a3a496e76616c69642075736572206164647265737357697468647261774c50526577617264733a3a546865726520617265206e6f20726577617264732066726f6d206c697175696469747920706f6f6c73457874656e643a3a456e6420626c6f636b206d75737420626520696e20746865206675747572655361666545524332303a204552433230206f7065726174696f6e20646964206e6f74207375636365656443616c6c6572206973206e6f742052657761726473506f6f6c466163746f727920636f6e7472616374a264697066735822122034f23e785e777bf5f618da36a076cc22f03db00c8d92ec22e8804d5f73d8199a64736f6c634300060c0033436f6e7374727563746f723a3a5374616b65206c696d6974206e6565647320746f206265206d6f7265207468616e2030436f6e7374727563746f723a3a54686520656e6420626c6f636b206d75737420626520696e20746865206675747572652e436f6e7374727563746f723a3a526577617264732070657220626c6f636b20616e64207265776172647320746f6b656e73206d7573742062652077697468207468652073616d65206c656e6774682e436f6e7374727563746f723a3a20436f6e7472616374205374616b65206c696d6974206e6565647320746f206265206d6f7265207468616e2030436f6e7374727563746f723a3a546865207374617274696e6720626c6f636b206d75737420626520696e20746865206675747572652e",
  "source": "// SPDX-License-Identifier: MIT\n\npragma solidity 0.6.12;\n\nimport \"./../RewardsPoolBase.sol\";\nimport \"./../pool-features/OnlyExitFeature.sol\";\n\ncontract OnlyExitRewardsPoolMock is RewardsPoolBase, OnlyExitFeature {\n\tconstructor(\n        IERC20Detailed _stakingToken,\n        uint256 _startBlock,\n        uint256 _endBlock,\n        address[] memory _rewardsTokens,\n        uint256[] memory _rewardPerBlock,\n\t\tuint256 _stakeLimit,\n\t\tuint256 _contractStakeLimit\n    ) public RewardsPoolBase(_stakingToken, _startBlock, _endBlock, _rewardsTokens, _rewardPerBlock, _stakeLimit,_contractStakeLimit) {\n\n\t}\n\n\tfunction withdraw(uint256 _tokenAmount) public virtual override(OnlyExitFeature, RewardsPoolBase) {\n\t\tOnlyExitFeature.withdraw(_tokenAmount);\n\t}\n\n\tfunction claim() public virtual override(OnlyExitFeature, RewardsPoolBase) {\n\t\tOnlyExitFeature.claim();\n\t}\n}",
  "sourcePath": "/Users/martindobrev/Code/custom-token/contracts/mocks/OnlyExitRewardsPoolMock.sol",
  "compiler": {
    "name": "solc",
    "version": "0.6.12+commit.27d51765.Emscripten.clang",
    "optimizer": true,
    "runs": 200
  },
  "schemaVersion": "2.3.5",
  "updatedAt": "2022-02-16T15:12:31.215Z"
}