{
  "contractName": "PercentageCalculator",
  "abi": [
    {
      "inputs": [
        {
          "internalType": "uint256",
          "name": "_amount",
          "type": "uint256"
        },
        {
          "internalType": "uint256",
          "name": "_percentage",
          "type": "uint256"
        }
      ],
      "name": "percentageCalc",
      "outputs": [
        {
          "internalType": "uint256",
          "name": "",
          "type": "uint256"
        }
      ],
      "stateMutability": "pure",
      "type": "function"
    }
  ],
  "bytecode": "0x610147610026600b82828239805160001a60731461001957fe5b30600052607381538281f3fe73000000000000000000000000000000000000000030146080604052600436106100355760003560e01c806354b4c2811461003a575b600080fd5b61005d6004803603604081101561005057600080fd5b508035906020013561006f565b60408051918252519081900360200190f35b6000620186a061007f8484610090565b8161008657fe5b0490505b92915050565b60008261009f5750600061008a565b828202828482816100ac57fe5b04146100e95760405162461bcd60e51b81526004018080602001828103825260218152602001806100f16021913960400191505060405180910390fd5b939250505056fe536166654d6174683a206d756c7469706c69636174696f6e206f766572666c6f77a2646970667358221220b544e74214bf222bfdd6bfb013a0cf052222f8f21d513437eabe03cb7417512664736f6c634300060c0033",
  "source": "// SPDX-License-Identifier: MIT\npragma solidity 0.6.12;\n\nimport \"openzeppelin-solidity/contracts/math/Math.sol\";\nimport \"openzeppelin-solidity/contracts/math/SafeMath.sol\";\n\nlibrary PercentageCalculator {\n\tusing SafeMath for uint256;\n\n\t/*\n\tNote: Percentages will be provided in thousands to represent 3 digits after the decimal point.\n\tThe division is made by 100000 \n\t*/ \n\tfunction percentageCalc(uint256 _amount, uint256 _percentage) public pure returns(uint256) {\n\t\treturn _amount.mul(_percentage)/(100_000);\n\t}\n}",
  "sourcePath": "/Users/martindobrev/Code/custom-token/contracts/PercentageCalculator.sol",
  "compiler": {
    "name": "solc",
    "version": "0.6.12+commit.27d51765.Emscripten.clang",
    "optimizer": true,
    "runs": 200
  },
  "schemaVersion": "2.3.5",
  "updatedAt": "2022-02-16T15:12:31.158Z"
}