{
  "contractName": "RewardsPoolFactory",
  "abi": [
    {
      "anonymous": false,
      "inputs": [
        {
          "indexed": true,
          "internalType": "address",
          "name": "_oldOwner",
          "type": "address"
        },
        {
          "indexed": true,
          "internalType": "address",
          "name": "_newOwner",
          "type": "address"
        }
      ],
      "name": "OwnershipTransferProposed",
      "type": "event"
    },
    {
      "anonymous": false,
      "inputs": [
        {
          "indexed": true,
          "internalType": "address",
          "name": "_newOwner",
          "type": "address"
        }
      ],
      "name": "OwnershipTransferred",
      "type": "event"
    },
    {
      "anonymous": false,
      "inputs": [
        {
          "indexed": true,
          "internalType": "address",
          "name": "rewardsPoolAddress",
          "type": "address"
        },
        {
          "indexed": true,
          "internalType": "address",
          "name": "stakingToken",
          "type": "address"
        }
      ],
      "name": "RewardsPoolDeployed",
      "type": "event"
    },
    {
      "anonymous": false,
      "inputs": [
        {
          "indexed": false,
          "internalType": "address",
          "name": "rewardsToken",
          "type": "address"
        },
        {
          "indexed": false,
          "internalType": "uint256",
          "name": "amount",
          "type": "uint256"
        }
      ],
      "name": "RewardsWithdrawn",
      "type": "event"
    },
    {
      "inputs": [],
      "name": "acceptOwnership",
      "outputs": [],
      "stateMutability": "nonpayable",
      "type": "function"
    },
    {
      "inputs": [
        {
          "internalType": "uint256",
          "name": "_startBlock",
          "type": "uint256"
        },
        {
          "internalType": "uint256",
          "name": "_endBlock",
          "type": "uint256"
        },
        {
          "internalType": "uint256",
          "name": "_rewardPerBlock",
          "type": "uint256"
        }
      ],
      "name": "calculateRewardsAmount",
      "outputs": [
        {
          "internalType": "uint256",
          "name": "",
          "type": "uint256"
        }
      ],
      "stateMutability": "pure",
      "type": "function"
    },
    {
      "inputs": [],
      "name": "getRewardsPoolNumber",
      "outputs": [
        {
          "internalType": "uint256",
          "name": "",
          "type": "uint256"
        }
      ],
      "stateMutability": "view",
      "type": "function"
    },
    {
      "inputs": [],
      "name": "owner",
      "outputs": [
        {
          "internalType": "address",
          "name": "",
          "type": "address"
        }
      ],
      "stateMutability": "view",
      "type": "function"
    },
    {
      "inputs": [
        {
          "internalType": "uint256",
          "name": "",
          "type": "uint256"
        }
      ],
      "name": "rewardsPools",
      "outputs": [
        {
          "internalType": "address",
          "name": "",
          "type": "address"
        }
      ],
      "stateMutability": "view",
      "type": "function"
    },
    {
      "inputs": [
        {
          "internalType": "address",
          "name": "newOwner",
          "type": "address"
        }
      ],
      "name": "transferOwnership",
      "outputs": [],
      "stateMutability": "nonpayable",
      "type": "function"
    },
    {
      "inputs": [
        {
          "internalType": "address",
          "name": "rewardsPoolAddress",
          "type": "address"
        },
        {
          "internalType": "address",
          "name": "recipient",
          "type": "address"
        },
        {
          "internalType": "address",
          "name": "lpTokenContract",
          "type": "address"
        }
      ],
      "name": "withdrawLPRewards",
      "outputs": [],
      "stateMutability": "nonpayable",
      "type": "function"
    },
    {
      "inputs": [
        {
          "internalType": "address",
          "name": "_rewardsToken",
          "type": "address"
        }
      ],
      "name": "withdrawRewardsLeftovers",
      "outputs": [],
      "stateMutability": "nonpayable",
      "type": "function"
    },
    {
      "inputs": [
        {
          "internalType": "address",
          "name": "_stakingToken",
          "type": "address"
        },
        {
          "internalType": "uint256",
          "name": "_startBlock",
          "type": "uint256"
        },
        {
          "internalType": "uint256",
          "name": "_endBlock",
          "type": "uint256"
        },
        {
          "internalType": "address[]",
          "name": "_rewardsTokens",
          "type": "address[]"
        },
        {
          "internalType": "uint256[]",
          "name": "_rewardPerBlock",
          "type": "uint256[]"
        },
        {
          "internalType": "uint256",
          "name": "_stakeLimit",
          "type": "uint256"
        },
        {
          "internalType": "uint256",
          "name": "_contractStakeLimit",
          "type": "uint256"
        }
      ],
      "name": "deploy",
      "outputs": [],
      "stateMutability": "nonpayable",
      "type": "function"
    },
    {
      "inputs": [
        {
          "internalType": "uint256",
          "name": "_endBlock",
          "type": "uint256"
        },
        {
          "internalType": "uint256[]",
          "name": "_rewardsPerBlock",
          "type": "uint256[]"
        },
        {
          "internalType": "address",
          "name": "_rewardsPoolAddress",
          "type": "address"
        }
      ],
      "name": "extendRewardPool",
      "outputs": [],
      "stateMutability": "nonpayable",
      "type": "function"
    }
  ],
  "bytecode": "0x608060405234801561001057600080fd5b50600180546001600160a01b03191633179055613e9d806100326000396000f3fe60806040523480156200001157600080fd5b5060043610620000ac5760003560e01c8063986c1d0e116200006f578063986c1d0e1462000249578063a1717c021462000304578063b7b8fbd2146200030e578063dc8afbc11462000337578063f2fde38b146200035757620000ac565b80632bb4e26914620000b157806379ba509714620000ee5780637f27066714620000f857806382cca89914620001365780638da5cb5b1462000223575b600080fd5b620000ec60048036036060811015620000c957600080fd5b506001600160a01b03813581169160208101358216916040909101351662000380565b005b620000ec6200049a565b62000124600480360360608110156200011057600080fd5b508035906020810135906040013562000534565b60408051918252519081900360200190f35b620000ec600480360360e08110156200014e57600080fd5b6001600160a01b0382351691602081013591604082013591908101906080810160608201356401000000008111156200018657600080fd5b8201836020820111156200019957600080fd5b80359060200191846020830284011164010000000083111715620001bc57600080fd5b919390929091602081019035640100000000811115620001db57600080fd5b820183602082011115620001ee57600080fd5b803590602001918460208302840111640100000000831117156200021157600080fd5b9193509150803590602001356200059b565b6200022d6200096a565b604080516001600160a01b039092168252519081900360200190f35b620000ec600480360360608110156200026157600080fd5b813591908101906040810160208201356401000000008111156200028457600080fd5b8201836020820111156200029757600080fd5b80359060200191846020830284011164010000000083111715620002ba57600080fd5b919080806020026020016040519081016040528093929190818152602001838360200280828437600092019190915250929550505090356001600160a01b03169150620009799050565b6200012462000de9565b620000ec600480360360208110156200032657600080fd5b50356001600160a01b031662000def565b6200022d600480360360208110156200034f57600080fd5b503562000f18565b620000ec600480360360208110156200036f57600080fd5b50356001600160a01b031662000f40565b6001546001600160a01b03163314620003cb5760405162461bcd60e51b815260040180806020018281038252602781526020018062003d416027913960400191505060405180910390fd5b6001600160a01b03831662000427576040805162461bcd60e51b815260206004820152601b60248201527f73746172745374616b696e673a3a206e6f74206465706c6f7965640000000000604482015290519081900360640190fd5b6040805163a1002a0f60e01b81526001600160a01b03848116600483015283811660248301529151859283169163a1002a0f91604480830192600092919082900301818387803b1580156200047b57600080fd5b505af115801562000490573d6000803e3d6000fd5b5050505050505050565b6002546001600160a01b03163314620004e55760405162461bcd60e51b815260040180806020018281038252602781526020018062003d1a6027913960400191505060405180910390fd5b600254600180546001600160a01b0319166001600160a01b0392831617908190556040519116907f04dba622d284ed0014ee4b9a6a68386be1a4c08a4913ae272de89199cc68616390600090a2565b6000808211620005765760405162461bcd60e51b815260040180806020018281038252604481526020018062003c706044913960600191505060405180910390fd5b60006200058484866200103b565b90506200059283826200109e565b95945050505050565b6001546001600160a01b03163314620005e65760405162461bcd60e51b815260040180806020018281038252602781526020018062003d416027913960400191505060405180910390fd5b6001600160a01b0389166200062d5760405162461bcd60e51b815260040180806020018281038252604781526020018062003c296047913960600191505060405180910390fd5b846200066b5760405162461bcd60e51b815260040180806020018281038252604281526020018062003e266042913960600191505060405180910390fd5b848314620006ab5760405162461bcd60e51b815260040180806020018281038252605981526020018062003da36059913960600191505060405180910390fd5b81620006e95760405162461bcd60e51b815260040180806020018281038252603b81526020018062003d68603b913960400191505060405180910390fd5b600089898989898989898960405162000702906200132c565b808a6001600160a01b0316815260200189815260200188815260200180602001806020018581526020018481526020018381038352898982818152602001925060200280828437600083820152601f01601f191690910184810383528781526020908101915088908802808284376000838201819052604051601f909201601f19169093018190039e509c50909a5050505050505050505050f080158015620007af573d6000803e3d6000fd5b50905060005b86811015620008e4576000888883818110620007cd57fe5b905060200201356001600160a01b03166001600160a01b03161415620008255760405162461bcd60e51b815260040180806020018281038252604581526020018062003cb46045913960600191505060405180910390fd5b8585828181106200083257fe5b90506020020135600014156200087a5760405162461bcd60e51b815260040180806020018281038252604681526020018062003be36046913960600191505060405180910390fd5b60006200089c8b8b8989868181106200088f57fe5b9050602002013562000534565b9050620008da83828b8b86818110620008b157fe5b905060200201356001600160a01b03166001600160a01b0316620011039092919063ffffffff16565b50600101620007b5565b50600080546001810182558180527f290decd9548b62a8d60345a988386fc84ba6bc95484008f6362f93160ef3e5630180546001600160a01b0319166001600160a01b03848116918217909255604051918d169290917f0beb358d424af29f69271ee3de8255f28779b3af5cd0b8f8e785aa39c76677009190a350505050505050505050565b6001546001600160a01b031681565b6001546001600160a01b03163314620009c45760405162461bcd60e51b815260040180806020018281038252602781526020018062003d416027913960400191505060405180910390fd5b60008190506000816001600160a01b031663083c63236040518163ffffffff1660e01b815260040160206040518083038186803b15801562000a0557600080fd5b505afa15801562000a1a573d6000803e3d6000fd5b505050506040513d602081101562000a3157600080fd5b5051845190915060609067ffffffffffffffff8111801562000a5257600080fd5b5060405190808252806020026020018201604052801562000a7d578160200160208202803683370190505b5090506060855167ffffffffffffffff8111801562000a9b57600080fd5b5060405190808252806020026020018201604052801562000ac6578160200160208202803683370190505b50905060005b865181101562000ca75762000b554385876001600160a01b031663791f39cd856040518263ffffffff1660e01b81526004018082815260200191505060206040518083038186803b15801562000b2157600080fd5b505afa15801562000b36573d6000803e3d6000fd5b505050506040513d602081101562000b4d57600080fd5b505162000534565b83828151811062000b6257fe5b60200260200101818152505062000b8f438989848151811062000b8157fe5b602002602001015162000534565b82828151811062000b9c57fe5b6020026020010181815250506000866001600160a01b031663b6d0dcd8836040518263ffffffff1660e01b81526004018082815260200191505060206040518083038186803b15801562000bef57600080fd5b505afa15801562000c04573d6000803e3d6000fd5b505050506040513d602081101562000c1b57600080fd5b5051845190915084908390811062000c2f57fe5b602002602001015183838151811062000c4457fe5b6020026020010151111562000c9d5762000c9d8785848151811062000c6557fe5b602002602001015185858151811062000c7a57fe5b602002602001015103836001600160a01b0316620011039092919063ffffffff16565b5060010162000acc565b50846001600160a01b03166320e67c76888885856040518563ffffffff1660e01b815260040180858152602001806020018060200180602001848103845287818151815260200191508051906020019060200280838360005b8381101562000d1a57818101518382015260200162000d00565b50505050905001848103835286818151815260200191508051906020019060200280838360005b8381101562000d5b57818101518382015260200162000d41565b50505050905001848103825285818151815260200191508051906020019060200280838360005b8381101562000d9c57818101518382015260200162000d82565b50505050905001975050505050505050600060405180830381600087803b15801562000dc757600080fd5b505af115801562000ddc573d6000803e3d6000fd5b5050505050505050505050565b60005490565b6001546001600160a01b0316331462000e3a5760405162461bcd60e51b815260040180806020018281038252602781526020018062003d416027913960400191505060405180910390fd5b6000816001600160a01b03166370a08231306040518263ffffffff1660e01b815260040180826001600160a01b0316815260200191505060206040518083038186803b15801562000e8a57600080fd5b505afa15801562000e9f573d6000803e3d6000fd5b505050506040513d602081101562000eb657600080fd5b5051905062000ed06001600160a01b038316338362001103565b604080516001600160a01b03841681526020810183905281517f8a43c4352486ec339f487f64af78ca5cbf06cd47833f073d3baf3a193e503161929181900390910190a15050565b6000818154811062000f2657fe5b6000918252602090912001546001600160a01b0316905081565b6001546001600160a01b0316331462000f8b5760405162461bcd60e51b815260040180806020018281038252602781526020018062003d416027913960400191505060405180910390fd5b6001600160a01b03811662000fe7576040805162461bcd60e51b815260206004820152601d60248201527f43616e6e6f7420736574206f776e657220746f20302061646472657373000000604482015290519081900360640190fd5b600280546001600160a01b0319166001600160a01b038381169190911790915560015460405191169033907ff4e75b79500ab730f8a026ed3cba6d55331bcb64c9e9f60c548e371356e5e3c090600090a350565b60008282111562001093576040805162461bcd60e51b815260206004820152601e60248201527f536166654d6174683a207375627472616374696f6e206f766572666c6f770000604482015290519081900360640190fd5b508082035b92915050565b600082620010af5750600062001098565b82820282848281620010bd57fe5b0414620010fc5760405162461bcd60e51b815260040180806020018281038252602181526020018062003cf96021913960400191505060405180910390fd5b9392505050565b604080516001600160a01b038416602482015260448082018490528251808303909101815260649091019091526020810180516001600160e01b031663a9059cbb60e01b179052620011579084906200115c565b505050565b62001170826001600160a01b031662001326565b620011c2576040805162461bcd60e51b815260206004820152601f60248201527f5361666545524332303a2063616c6c20746f206e6f6e2d636f6e747261637400604482015290519081900360640190fd5b60006060836001600160a01b0316836040518082805190602001908083835b60208310620012025780518252601f199092019160209182019101620011e1565b6001836020036101000a0380198251168184511680821785525050505050509050019150506000604051808303816000865af19150503d806000811462001266576040519150601f19603f3d011682016040523d82523d6000602084013e6200126b565b606091505b509150915081620012c3576040805162461bcd60e51b815260206004820181905260248201527f5361666545524332303a206c6f772d6c6576656c2063616c6c206661696c6564604482015290519081900360640190fd5b8051156200132057808060200190516020811015620012e157600080fd5b5051620013205760405162461bcd60e51b815260040180806020018281038252602a81526020018062003dfc602a913960400191505060405180910390fd5b50505050565b3b151590565b6128a8806200133b8339019056fe60806040523480156200001157600080fd5b50604051620028a8380380620028a8833981810160405260e08110156200003757600080fd5b8151602083015160408085015160608601805192519496939591949391820192846401000000008211156200006b57600080fd5b9083019060208201858111156200008157600080fd5b82518660208202830111640100000000821117156200009f57600080fd5b82525081516020918201928201910280838360005b83811015620000ce578181015183820152602001620000b4565b5050505090500160405260200180516040519392919084640100000000821115620000f857600080fd5b9083019060208201858111156200010e57600080fd5b82518660208202830111640100000000821117156200012c57600080fd5b82525081516020918201928201910280838360005b838110156200015b57818101518382015260200162000141565b50505050919091016040908152602083015192015160016000559193509091506200018790506200039b565b8611620001c65760405162461bcd60e51b8152600401808060200182810382526036815260200180620028726036913960400191505060405180910390fd5b620001d06200039b565b85116200020f5760405162461bcd60e51b8152600401808060200182810382526031815260200180620027b86031913960400191505060405180910390fd5b8351835114620002515760405162461bcd60e51b815260040180806020018281038252604f815260200180620027e9604f913960600191505060405180910390fd5b816200028f5760405162461bcd60e51b8152600401808060200182810382526030815260200180620027886030913960400191505060405180910390fd5b80620002cd5760405162461bcd60e51b815260040180806020018281038252603a81526020018062002838603a913960400191505060405180910390fd5b600480546001600160a01b0319166001600160a01b0389161790558251620002fd9060029060208601906200039f565b506005869055600685905583516200031d906003906020870190620003ef565b50600554600755600980546001600160a01b03191633179055600a829055600b81905560005b6003548110156200038d57600880546001818101835560009283527ff3f7a9fe364faab93b216da50a3214154f22a0a2b415b23a84c8169e8b636ee3909101919091550162000343565b50505050505050506200048d565b4390565b828054828255906000526020600020908101928215620003dd579160200282015b82811115620003dd578251825591602001919060010190620003c0565b50620003eb92915062000455565b5090565b82805482825590600052602060002090810192821562000447579160200282015b828111156200044757825182546001600160a01b0319166001600160a01b0390911617825560209092019160019091019062000410565b50620003eb9291506200046c565b5b80821115620003eb576000815560010162000456565b5b80821115620003eb5780546001600160a01b03191681556001016200046d565b6122eb806200049d6000396000f3fe608060405234801561001057600080fd5b50600436106101a85760003560e01c806372f702f3116100f9578063b6d0dcd811610097578063df9d777f11610071578063df9d777f14610582578063e9fad8ee146105ae578063f27d0264146105b6578063fb58cad1146105e2576101a8565b8063b6d0dcd814610531578063ce4153021461054e578063dd2da2201461057a576101a8565b8063a1002a0f116100d3578063a1002a0f146104b8578063a1292aea146104e6578063a694fc3a1461050c578063a9f8d18114610529576101a8565b806372f702f31461048b578063791f39cd14610493578063817b1cd2146104b0576101a8565b80632e1a7d4d116101665780634e71d92d116101405780634e71d92d1461041d57806356409b811461042557806357b4f01f1461044957806370a0823114610465576101a8565b80632e1a7d4d146103f057806345ef79af1461040d57806348cd4cb114610415576101a8565b806284c927146101ad57806303d1dae0146101e5578063083c6323146101ed5780631959a002146101f557806320e67c76146102345780632d9e88e1146103e8575b600080fd5b6101d3600480360360208110156101c357600080fd5b50356001600160a01b03166105ff565b60408051918252519081900360200190f35b6101d3610665565b6101d361066b565b61021b6004803603602081101561020b57600080fd5b50356001600160a01b0316610671565b6040805192835260208301919091528051918290030190f35b6103e66004803603608081101561024a57600080fd5b8135919081019060408101602082013564010000000081111561026c57600080fd5b82018360208201111561027e57600080fd5b803590602001918460208302840111640100000000831117156102a057600080fd5b91908080602002602001604051908101604052809392919081815260200183836020028082843760009201919091525092959493602081019350359150506401000000008111156102f057600080fd5b82018360208201111561030257600080fd5b8035906020019184602083028401116401000000008311171561032457600080fd5b919080806020026020016040519081016040528093929190818152602001838360200280828437600092019190915250929594936020810193503591505064010000000081111561037457600080fd5b82018360208201111561038657600080fd5b803590602001918460208302840111640100000000831117156103a857600080fd5b91908080602002602001604051908101604052809392919081815260200183836020028082843760009201919091525092955061068a945050505050565b005b6101d361090d565b6103e66004803603602081101561040657600080fd5b5035610913565b6101d3610970565b6101d3610976565b6103e661097c565b61042d6109d7565b604080516001600160a01b039092168252519081900360200190f35b6104516109e6565b604080519115158252519081900360200190f35b6101d36004803603602081101561047b57600080fd5b50356001600160a01b03166109fa565b61042d610a18565b6101d3600480360360208110156104a957600080fd5b5035610a27565b6101d3610a45565b6103e6600480360360408110156104ce57600080fd5b506001600160a01b0381358116916020013516610a4b565b6101d3600480360360208110156104fc57600080fd5b50356001600160a01b0316610cb4565b6103e66004803603602081101561052257600080fd5b5035610d1a565b6101d3610d71565b61042d6004803603602081101561054757600080fd5b5035610d77565b6101d36004803603604081101561056457600080fd5b506001600160a01b038135169060200135610d9e565b6103e6610e22565b6101d36004803603604081101561059857600080fd5b506001600160a01b038135169060200135610fc8565b6103e661117f565b6101d3600480360360408110156105cc57600080fd5b506001600160a01b0381351690602001356111d3565b6101d3600480360360208110156105f857600080fd5b5035611242565b60006001600160a01b0382166106465760405162461bcd60e51b815260040180806020018281038252602d815260200180611fe8602d913960400191505060405180910390fd5b506001600160a01b03166000908152600c602052604090206002015490565b600b5481565b60065481565b600c602052600090815260409020805460019091015482565b6009546001600160a01b031633146106d35760405162461bcd60e51b815260040180806020018281038252602981526020018061228d6029913960400191505060405180910390fd5b6106db61124f565b84116107185760405162461bcd60e51b815260040180806020018281038252602781526020018061223c6027913960400191505060405180910390fd5b6006548410156107595760405162461bcd60e51b815260040180806020018281038252603581526020018061203c6035913960400191505060405180910390fd5b60035483511461079a5760405162461bcd60e51b81526004018080602001828103825260348152602001806121626034913960400191505060405180910390fd5b6107a2610e22565b60005b8351811015610882576000600382815481106107bd57fe5b60009182526020909120015483516001600160a01b0390911691508390839081106107e457fe5b60200260200101518483815181106107f857fe5b6020026020010151111561084c5761084c3384848151811061081657fe5b602002602001015186858151811061082a57fe5b602002602001015103836001600160a01b03166112539092919063ffffffff16565b84828151811061085857fe5b60200260200101516002838154811061086d57fe5b600091825260209091200155506001016107a5565b50836006819055507f137c92cc7579cc4d6a2b109467cd475c205d1c136363ca854cc46d72f840d5de84846040518083815260200180602001828103825283818151815260200191508051906020019060200280838360005b838110156108f35781810151838201526020016108db565b50505050905001935050505060405180910390a150505050565b60035490565b60026000541415610959576040805162461bcd60e51b815260206004820152601f6024820152600080516020611fc8833981519152604482015290519081900360640190fd5b600260005561096881336112aa565b506001600055565b600a5481565b60055481565b600260005414156109c2576040805162461bcd60e51b815260206004820152601f6024820152600080516020611fc8833981519152604482015290519081900360640190fd5b60026000556109d0336114ac565b6001600055565b6009546001600160a01b031681565b60006005546109f361124f565b1015905090565b6001600160a01b03166000908152600c602052604090206001015490565b6004546001600160a01b031681565b60028181548110610a3457fe5b600091825260209091200154905081565b60015481565b60026000541415610a91576040805162461bcd60e51b815260206004820152601f6024820152600080516020611fc8833981519152604482015290519081900360640190fd5b60026000556009546001600160a01b03163314610adf5760405162461bcd60e51b815260040180806020018281038252602981526020018061228d6029913960400191505060405180910390fd5b6000816001600160a01b03166370a08231306040518263ffffffff1660e01b815260040180826001600160a01b0316815260200191505060206040518083038186803b158015610b2e57600080fd5b505afa158015610b42573d6000803e3d6000fd5b505050506040513d6020811015610b5857600080fd5b5051905080610b985760405162461bcd60e51b815260040180806020018281038252603c815260200180612200603c913960400191505060405180910390fd5b6004546001600160a01b0383811691161415610be55760405162461bcd60e51b81526004018080602001828103825260368152602001806120716036913960400191505060405180910390fd5b60035460005b81811015610c5e5760038181548110610c0057fe5b6000918252602090912001546001600160a01b0385811691161415610c565760405162461bcd60e51b81526004018080602001828103825260358152602001806120a76035913960400191505060405180910390fd5b600101610beb565b50610c736001600160a01b0384168584611253565b6040516001600160a01b0385169083907fdf1b625465761dd1a4330a9b3a21d4943183f301036528a3544f8d891fdce2c290600090a3505060016000555050565b60006001600160a01b038216610cfb5760405162461bcd60e51b815260040180806020018281038252602d8152602001806120dc602d913960400191505060405180910390fd5b506001600160a01b03166000908152600c602052604090206003015490565b60026000541415610d60576040805162461bcd60e51b815260206004820152601f6024820152600080516020611fc8833981519152604482015290519081900360640190fd5b6002600055610968813360016115c5565b60075481565b60038181548110610d8457fe5b6000918252602090912001546001600160a01b0316905081565b60006001600160a01b038316610de55760405162461bcd60e51b81526004018080602001828103825260278152602001806121d96027913960400191505060405180910390fd5b6001600160a01b0383166000908152600c6020526040902060038101805484908110610e0d57fe5b90600052602060002001549150505b92915050565b6000610e2c61124f565b90506007548111610e3d5750610fc6565b60006006548210610e5057600654610e52565b815b600754909150810380610e6757505050610fc6565b600154610e78575060075550610fc6565b60035460005b81811015610fbe57600060038281548110610e9557fe5b600091825260209182902001546040805163313ce56760e01b815290516001600160a01b039092169263313ce56792600480840193829003018186803b158015610ede57600080fd5b505afa158015610ef2573d6000803e3d6000fd5b505050506040513d6020811015610f0857600080fd5b50516002805460ff9092169250600a83900a91600091610f469186908110610f2c57fe5b90600052602060002001548761192290919063ffffffff16565b90506000610f69600154610f63858561192290919063ffffffff16565b90611982565b9050610f958160088781548110610f7c57fe5b90600052602060002001546119e990919063ffffffff16565b60088681548110610fa257fe5b600091825260209091200155505060019092019150610e7e9050565b505050600755505b565b600080610fd361124f565b905060006006548210610fe857600654610fea565b815b9050600061100360075483611a4390919063ffffffff16565b905060006003868154811061101457fe5b600091825260209182902001546040805163313ce56760e01b815290516001600160a01b039092169263313ce56792600480840193829003018186803b15801561105d57600080fd5b505afa158015611071573d6000803e3d6000fd5b505050506040513d602081101561108757600080fd5b50516002805460ff9092169250600a83900a916000916110c5918a9081106110ab57fe5b90600052602060002001548561192290919063ffffffff16565b905060006110e2600154610f63858561192290919063ffffffff16565b905060006110f78260088c81548110610f7c57fe5b6001600160a01b038c166000908152600c60205260408120600181015492935091611128908790610f639086611922565b90506000611158836002018e8154811061113e57fe5b906000526020600020015483611a4390919063ffffffff16565b905061116d81846003018f81548110610f7c57fe5b9e9d5050505050505050505050505050565b600260005414156111c5576040805162461bcd60e51b815260206004820152601f6024820152600080516020611fc8833981519152604482015290519081900360640190fd5b60026000556109d033611aa0565b60006001600160a01b03831661121a5760405162461bcd60e51b81526004018080602001828103825260278152602001806120156027913960400191505060405180910390fd5b6001600160a01b0383166000908152600c6020526040902060028101805484908110610e0d57fe5b60088181548110610a3457fe5b4390565b604080516001600160a01b038416602482015260448082018490528251808303909101815260649091019091526020810180516001600160e01b031663a9059cbb60e01b1790526112a5908490611b16565b505050565b600082116112ff576040805162461bcd60e51b815260206004820152601b60248201527f57697468647261773a3a43616e6e6f7420776974686472617720300000000000604482015290519081900360640190fd5b6001600160a01b0381166000908152600c6020526040902061131f610e22565b61132882611cce565b60018101546113379084611a43565b6001808301919091555461134b9084611a43565b60015560035460005b8181101561144f5760006003828154811061136b57fe5b600091825260209182902001546040805163313ce56760e01b815290516001600160a01b039092169263313ce56792600480840193829003018186803b1580156113b457600080fd5b505afa1580156113c8573d6000803e3d6000fd5b505050506040513d60208110156113de57600080fd5b50516008805460ff9092169250600a83900a91600091611426918491610f63918890811061140857fe5b9060005260206000200154896001015461192290919063ffffffff16565b90508086600201858154811061143857fe5b600091825260209091200155505050600101611354565b50600454611467906001600160a01b03168486611253565b6040805185815290516001600160a01b038516917f7084f5476618d8e60b11ef0d7d3f06914655adb8793e28ff7f018d4c76d505d5919081900360200190a250505050565b6001600160a01b0381166000908152600c602052604090206114cc610e22565b6114d582611cce565b60035460005b818110156115bf5760008360030182815481106114f457fe5b90600052602060002001549050600084600301838154811061151257fe5b906000526020600020018190555061154e85826003858154811061153257fe5b6000918252602090912001546001600160a01b03169190611253565b846001600160a01b03167f7e6632ca16a0ac6cf28448500b1a17d96c8b8163ad4c4a9b44ef5386cc02779e826003858154811061158757fe5b60009182526020918290200154604080519384526001600160a01b03909116918301919091528051918290030190a2506001016114db565b50505050565b60006115cf61124f565b905060055481116116115760405162461bcd60e51b81526004018080602001828103825260228152602001806121966022913960400191505060405180910390fd5b600654811115611668576040805162461bcd60e51b815260206004820152601b60248201527f5374616b653a3a5374616b696e67206861732066696e69736865640000000000604482015290519081900360640190fd5b6001600160a01b0383166000908152600c60205260409020600a54600182015485928792909161169890846119e9565b11156116d55760405162461bcd60e51b815260040180806020018281038252602881526020018061213a6028913960400191505060405180910390fd5b600b546001546116e590846119e9565b11156117225760405162461bcd60e51b81526004018080602001828103825260318152602001806121096031913960400191505060405180910390fd5b6000871161176f576040805162461bcd60e51b815260206004820152601560248201527405374616b653a3a43616e6e6f74207374616b65203605c1b604482015290519081900360640190fd5b6001600160a01b0386166000908152600c6020526040902060018101546117995761179987611d2a565b6117a1610e22565b6117aa87611cce565b60018101546117b990896119e9565b600180830191909155546117cd90896119e9565b60015560035460005b818110156118b3576000600382815481106117ed57fe5b600091825260209182902001546040805163313ce56760e01b815290516001600160a01b039092169263313ce56792600480840193829003018186803b15801561183657600080fd5b505afa15801561184a573d6000803e3d6000fd5b505050506040513d602081101561186057600080fd5b50516008805460ff9092169250600a83900a9160009161188a918491610f63918890811061140857fe5b90508086600201858154811061189c57fe5b6000918252602090912001555050506001016117d6565b506118d8876118c257336118c4565b885b6004546001600160a01b031690308c611d4f565b604080518a815290516001600160a01b038a16917f9e71bc8eea02a63969f509818f2dafb9254532904319f9dbda79b67bd34a5f3d919081900360200190a2505050505050505050565b60008261193157506000610e1c565b8282028284828161193e57fe5b041461197b5760405162461bcd60e51b81526004018080602001828103825260218152602001806121b86021913960400191505060405180910390fd5b9392505050565b60008082116119d8576040805162461bcd60e51b815260206004820152601a60248201527f536166654d6174683a206469766973696f6e206279207a65726f000000000000604482015290519081900360640190fd5b8183816119e157fe5b049392505050565b60008282018381101561197b576040805162461bcd60e51b815260206004820152601b60248201527f536166654d6174683a206164646974696f6e206f766572666c6f770000000000604482015290519081900360640190fd5b600082821115611a9a576040805162461bcd60e51b815260206004820152601e60248201527f536166654d6174683a207375627472616374696f6e206f766572666c6f770000604482015290519081900360640190fd5b50900390565b6001600160a01b0381166000908152600c60205260409020611ac1826114ac565b611acf8160010154836112aa565b600181015460408051918252516001600160a01b038416917f920bb94eb3842a728db98228c375ff6b00c5bc5a54fac6736155517a0a20a61a919081900360200190a25050565b611b28826001600160a01b0316611da9565b611b79576040805162461bcd60e51b815260206004820152601f60248201527f5361666545524332303a2063616c6c20746f206e6f6e2d636f6e747261637400604482015290519081900360640190fd5b60006060836001600160a01b0316836040518082805190602001908083835b60208310611bb75780518252601f199092019160209182019101611b98565b6001836020036101000a0380198251168184511680821785525050505050509050019150506000604051808303816000865af19150503d8060008114611c19576040519150601f19603f3d011682016040523d82523d6000602084013e611c1e565b606091505b509150915081611c75576040805162461bcd60e51b815260206004820181905260248201527f5361666545524332303a206c6f772d6c6576656c2063616c6c206661696c6564604482015290519081900360640190fd5b8051156115bf57808060200190516020811015611c9157600080fd5b50516115bf5760405162461bcd60e51b815260040180806020018281038252602a815260200180612263602a913960400191505060405180910390fd5b6001600160a01b0381166000908152600c60205260409020611cef82611daf565b611cf882611e0f565b6001810154611d075750611d27565b60035460005b818110156115bf57611d1f8482611e6f565b600101611d0d565b50565b6001600160a01b0381166000908152600c60205260409020611d4a61124f565b905550565b604080516001600160a01b0380861660248301528416604482015260648082018490528251808303909101815260849091019091526020810180516001600160e01b03166323b872dd60e01b1790526115bf908590611b16565b3b151590565b6001600160a01b0381166000908152600c6020526040902060035460028201541415611ddb5750611d27565b60035460028201545b818110156115bf57600283018054600181810183556000928352602083209091019190915501611de4565b6001600160a01b0381166000908152600c6020526040902060038054908201541415611e3b5750611d27565b60038054908201545b818110156115bf57600383018054600181810183556000928352602083209091019190915501611e44565b6001600160a01b0382166000908152600c602052604081206003805491929184908110611e9857fe5b600091825260209182902001546040805163313ce56760e01b815290516001600160a01b039092169263313ce56792600480840193829003018186803b158015611ee157600080fd5b505afa158015611ef5573d6000803e3d6000fd5b505050506040513d6020811015611f0b57600080fd5b50516008805460ff9092169250600a83900a91600091611f53918491610f639189908110611f3557fe5b9060005260206000200154876001015461192290919063ffffffff16565b90506000611f6985600201878154811061113e57fe5b90508015611fbe57611f8481866003018881548110610f7c57fe5b856003018781548110611f9357fe5b906000526020600020018190555081856002018781548110611fb157fe5b6000918252602090912001555b5050505050505056fe5265656e7472616e637947756172643a207265656e7472616e742063616c6c0047657455736572526577617264446562744c656e6774683a3a496e76616c69642075736572206164647265737347657455736572526577617264446562743a3a496e76616c696420757365722061646472657373457874656e643a3a456e6420626c6f636b206d757374206265206166746572207468652063757272656e7420656e6420626c6f636b57697468647261774c50526577617264733a3a2063616e6e6f742077697468647261772066726f6d20746865204c5020746f6b656e7357697468647261774c50526577617264733a3a43616e6e6f742077697468647261772066726f6d20746f6b656e207265776172647347657455736572546f6b656e734f7765644c656e6774683a3a496e76616c6964207573657220616464726573736f6e6c79556e6465725374616b654c696d69743a3a436f6e7472616374205374616b65206c696d697420726561636865646f6e6c79556e6465725374616b654c696d69743a3a5374616b65206c696d69742072656163686564457874656e643a3a5265776172647320616d6f756e7473206c656e677468206973206c657373207468616e2065787065637465645374616b653a3a5374616b696e6720686173206e6f74207965742073746172746564536166654d6174683a206d756c7469706c69636174696f6e206f766572666c6f77476574557365724f776564546f6b656e733a3a496e76616c69642075736572206164647265737357697468647261774c50526577617264733a3a546865726520617265206e6f20726577617264732066726f6d206c697175696469747920706f6f6c73457874656e643a3a456e6420626c6f636b206d75737420626520696e20746865206675747572655361666545524332303a204552433230206f7065726174696f6e20646964206e6f74207375636365656443616c6c6572206973206e6f742052657761726473506f6f6c466163746f727920636f6e7472616374a26469706673582212200a1a67bec8363e85bf50f128a1b5efa0d13bff01d397369a8a2d062d971bf14b64736f6c634300060c0033436f6e7374727563746f723a3a5374616b65206c696d6974206e6565647320746f206265206d6f7265207468616e2030436f6e7374727563746f723a3a54686520656e6420626c6f636b206d75737420626520696e20746865206675747572652e436f6e7374727563746f723a3a526577617264732070657220626c6f636b20616e64207265776172647320746f6b656e73206d7573742062652077697468207468652073616d65206c656e6774682e436f6e7374727563746f723a3a20436f6e7472616374205374616b65206c696d6974206e6565647320746f206265206d6f7265207468616e2030436f6e7374727563746f723a3a546865207374617274696e6720626c6f636b206d75737420626520696e20746865206675747572652e52657761726473506f6f6c466163746f72793a3a6465706c6f793a205265776172642070657220626c6f636b206d7573742062652067726561746572207468616e207a65726f52657761726473506f6f6c466163746f72793a3a6465706c6f793a205374616b696e6720746f6b656e20616464726573732063616e2774206265207a65726f206164647265737363616c63756c61746552657761726473416d6f756e743a3a20526577617264732070657220626c6f636b206d7573742062652067726561746572207468616e207a65726f52657761726473506f6f6c466163746f72793a3a6465706c6f793a2052657761726420746f6b656e206164647265737320636f756c64206e6f7420626520696e76616c6964536166654d6174683a206d756c7469706c69636174696f6e206f766572666c6f7753656e64657220697320646966666572656e742066726f6d2070726f706f736564206f776e65726f6e6c794f776e65723a3a205468652063616c6c6572206973206e6f7420746865206f776e657252657761726473506f6f6c466163746f72793a3a6465706c6f793a205374616b65206c696d6974206d757374206265206d6f7265207468616e203052657761726473506f6f6c466163746f72793a3a6465706c6f793a2052657761726473546f6b656e7320616e6420526577617264506572426c6f636b2073686f756c6420686176652061206d61746368696e672073697a65735361666545524332303a204552433230206f7065726174696f6e20646964206e6f74207375636365656452657761726473506f6f6c466163746f72793a3a6465706c6f793a2052657761726473546f6b656e7320617272617920636f756c64206e6f7420626520656d707479a2646970667358221220a88aadcad5d158d1819b197c6759174703ece6862e95cf360e594f1630d7f69764736f6c634300060c0033",
  "source": "// SPDX-License-Identifier: MIT\npragma solidity 0.6.12;\n\nimport \"openzeppelin-solidity/contracts/math/Math.sol\";\nimport \"openzeppelin-solidity/contracts/math/SafeMath.sol\";\nimport \"openzeppelin-solidity/contracts/access/Ownable.sol\";\nimport \"./interfaces/IERC20Detailed.sol\";\nimport \"./SafeERC20Detailed.sol\";\nimport \"./RewardsPoolBase.sol\";\nimport \"./AbstractPoolsFactory.sol\";\n\ncontract RewardsPoolFactory is AbstractPoolsFactory {\n\tusing SafeMath for uint256;\n\tusing SafeERC20Detailed for IERC20Detailed;\n\n\tevent RewardsPoolDeployed(\n\t\taddress indexed rewardsPoolAddress,\n\t\taddress indexed stakingToken\n\t);\n\n\t/* ========== Permissioned FUNCTIONS ========== */\n\n\t/** @dev Deploy a reward pool base contract for the staking token, with the given parameters.\n\t * @param _stakingToken The address of the token being staked\n\t * @param _startBlock The start block of the rewards pool\n\t * @param _endBlock The end block of the rewards pool\n\t * @param _rewardsTokens The addresses of the tokens the rewards will be paid in\n\t * @param _rewardPerBlock Rewards per block\n\t * @param _stakeLimit The stake limit per user\n\t */\n\tfunction deploy(\n\t\taddress _stakingToken,\n\t\tuint256 _startBlock,\n\t\tuint256 _endBlock,\n\t\taddress[] calldata _rewardsTokens,\n\t\tuint256[] calldata _rewardPerBlock,\n\t\tuint256 _stakeLimit,\n\t\tuint256 _contractStakeLimit\n\t) external onlyOwner {\n\t\trequire(\n\t\t\t_stakingToken != address(0),\n\t\t\t\"RewardsPoolFactory::deploy: Staking token address can't be zero address\"\n\t\t);\n\t\trequire(\n\t\t\t_rewardsTokens.length != 0,\n\t\t\t\"RewardsPoolFactory::deploy: RewardsTokens array could not be empty\"\n\t\t);\n\t\trequire(\n\t\t\t_rewardsTokens.length == _rewardPerBlock.length,\n\t\t\t\"RewardsPoolFactory::deploy: RewardsTokens and RewardPerBlock should have a matching sizes\"\n\t\t);\n\n\t\trequire(\n\t\t\t_stakeLimit != 0,\n\t\t\t\"RewardsPoolFactory::deploy: Stake limit must be more than 0\"\n\t\t);\n\n\t\taddress rewardsPoolBase =\n\t\t\taddress(\n\t\t\t\tnew RewardsPoolBase(\n\t\t\t\t\tIERC20Detailed(_stakingToken),\n\t\t\t\t\t_startBlock,\n\t\t\t\t\t_endBlock,\n\t\t\t\t\t_rewardsTokens,\n\t\t\t\t\t_rewardPerBlock,\n\t\t\t\t\t_stakeLimit,\n\t\t\t\t\t_contractStakeLimit\n\t\t\t\t)\n\t\t\t);\n\n\t\tfor (uint256 i = 0; i < _rewardsTokens.length; i++) {\n\t\t\trequire(\n\t\t\t\t_rewardsTokens[i] != address(0),\n\t\t\t\t\"RewardsPoolFactory::deploy: Reward token address could not be invalid\"\n\t\t\t);\n\t\t\trequire(\n\t\t\t\t_rewardPerBlock[i] != 0,\n\t\t\t\t\"RewardsPoolFactory::deploy: Reward per block must be greater than zero\"\n\t\t\t);\n\n\t\t\tuint256 rewardsAmount =\n\t\t\t\tcalculateRewardsAmount(\n\t\t\t\t\t_startBlock,\n\t\t\t\t\t_endBlock,\n\t\t\t\t\t_rewardPerBlock[i]\n\t\t\t\t);\n\t\t\tIERC20Detailed(_rewardsTokens[i]).safeTransfer(\n\t\t\t\trewardsPoolBase,\n\t\t\t\trewardsAmount\n\t\t\t);\n\t\t}\n\t\trewardsPools.push(rewardsPoolBase);\n\n\t\temit RewardsPoolDeployed(rewardsPoolBase, _stakingToken);\n\t}\n\n\t/** @dev Function that will extend the rewards period, but not change the reward rate, for a given staking contract.\n\t * @param _endBlock The new endblock for the rewards pool.\n\t * @param _rewardsPerBlock Rewards per block .\n\t * @param _rewardsPoolAddress The address of the RewardsPoolBase contract.\n\t */\n\tfunction extendRewardPool(\n\t\tuint256 _endBlock,\n\t\tuint256[] memory _rewardsPerBlock,\n\t\taddress _rewardsPoolAddress\n\t) external onlyOwner {\n\n\t\tRewardsPoolBase pool = RewardsPoolBase(_rewardsPoolAddress);\n\t\tuint256 currentEndBlock = pool.endBlock();\n\t\tuint256[] memory currentRemainingRewards = new uint256[](_rewardsPerBlock.length);\n\t\tuint256[] memory newRemainingRewards = new uint256[](_rewardsPerBlock.length);\n\n\t\tfor (uint256 i = 0; i < _rewardsPerBlock.length; i++) {\n\n\t\t\tcurrentRemainingRewards[i] = calculateRewardsAmount(block.number, currentEndBlock, pool.rewardPerBlock(i));\n\t\t\tnewRemainingRewards[i] = calculateRewardsAmount(block.number, _endBlock, _rewardsPerBlock[i]);\n\n\t\t\taddress rewardsToken = RewardsPoolBase(_rewardsPoolAddress).rewardsTokens(i);\n\n\t\t\tif (newRemainingRewards[i] > currentRemainingRewards[i]) {\n\t\t\t\t// Some more reward needs to be transferred to the rewards pool contract\n\t\t\t\tIERC20Detailed(rewardsToken).safeTransfer(_rewardsPoolAddress, (newRemainingRewards[i] - currentRemainingRewards[i]));\n\t\t\t}\n\t\t}\n\n\t\tRewardsPoolBase(_rewardsPoolAddress).extend(\n\t\t\t_endBlock,\n\t\t\t_rewardsPerBlock,\n\t\t\tcurrentRemainingRewards,\n\t\t\tnewRemainingRewards\n\t\t);\n\n\t}\n\n}\n",
  "sourcePath": "/Users/martindobrev/Code/custom-token/contracts/RewardsPoolFactory.sol",
  "compiler": {
    "name": "solc",
    "version": "0.6.12+commit.27d51765.Emscripten.clang",
    "optimizer": true,
    "runs": 200
  },
  "schemaVersion": "2.3.5",
  "updatedAt": "2022-02-16T15:12:31.166Z"
}