{
  "contractName": "RewardsPool",
  "abi": [
    {
      "inputs": [
        {
          "internalType": "address[]",
          "name": "_rewardsTokens",
          "type": "address[]"
        },
        {
          "internalType": "uint256[]",
          "name": "_rewardsAmounts",
          "type": "uint256[]"
        },
        {
          "internalType": "address",
          "name": "_stakingToken",
          "type": "address"
        },
        {
          "internalType": "uint256",
          "name": "_rewardsDuration",
          "type": "uint256"
        }
      ],
      "stateMutability": "nonpayable",
      "type": "constructor"
    },
    {
      "anonymous": false,
      "inputs": [
        {
          "indexed": false,
          "internalType": "address[]",
          "name": "token",
          "type": "address[]"
        },
        {
          "indexed": false,
          "internalType": "uint256[]",
          "name": "reward",
          "type": "uint256[]"
        }
      ],
      "name": "RewardAdded",
      "type": "event"
    },
    {
      "anonymous": false,
      "inputs": [
        {
          "indexed": true,
          "internalType": "address",
          "name": "rewardToken",
          "type": "address"
        },
        {
          "indexed": false,
          "internalType": "uint256",
          "name": "rewardAmount",
          "type": "uint256"
        },
        {
          "indexed": false,
          "internalType": "uint256",
          "name": "date",
          "type": "uint256"
        },
        {
          "indexed": false,
          "internalType": "uint256",
          "name": "periodToExtend",
          "type": "uint256"
        }
      ],
      "name": "RewardExtended",
      "type": "event"
    },
    {
      "anonymous": false,
      "inputs": [
        {
          "indexed": true,
          "internalType": "address",
          "name": "user",
          "type": "address"
        },
        {
          "indexed": true,
          "internalType": "address",
          "name": "rewardToken",
          "type": "address"
        },
        {
          "indexed": false,
          "internalType": "uint256",
          "name": "rewardAmount",
          "type": "uint256"
        }
      ],
      "name": "RewardPaid",
      "type": "event"
    },
    {
      "anonymous": false,
      "inputs": [
        {
          "indexed": true,
          "internalType": "address",
          "name": "user",
          "type": "address"
        },
        {
          "indexed": false,
          "internalType": "uint256",
          "name": "amount",
          "type": "uint256"
        }
      ],
      "name": "Staked",
      "type": "event"
    },
    {
      "anonymous": false,
      "inputs": [
        {
          "indexed": true,
          "internalType": "uint256",
          "name": "rewardsAmount",
          "type": "uint256"
        },
        {
          "indexed": true,
          "internalType": "address",
          "name": "recipient",
          "type": "address"
        }
      ],
      "name": "WithdrawLPRewards",
      "type": "event"
    },
    {
      "anonymous": false,
      "inputs": [
        {
          "indexed": true,
          "internalType": "address",
          "name": "user",
          "type": "address"
        },
        {
          "indexed": false,
          "internalType": "uint256",
          "name": "amount",
          "type": "uint256"
        }
      ],
      "name": "Withdrawn",
      "type": "event"
    },
    {
      "inputs": [
        {
          "internalType": "uint256",
          "name": "",
          "type": "uint256"
        }
      ],
      "name": "rewardsAmountsArr",
      "outputs": [
        {
          "internalType": "uint256",
          "name": "",
          "type": "uint256"
        }
      ],
      "stateMutability": "view",
      "type": "function"
    },
    {
      "inputs": [],
      "name": "rewardsDistributor",
      "outputs": [
        {
          "internalType": "address",
          "name": "",
          "type": "address"
        }
      ],
      "stateMutability": "view",
      "type": "function"
    },
    {
      "inputs": [
        {
          "internalType": "uint256",
          "name": "",
          "type": "uint256"
        }
      ],
      "name": "rewardsTokensArr",
      "outputs": [
        {
          "internalType": "address",
          "name": "",
          "type": "address"
        }
      ],
      "stateMutability": "view",
      "type": "function"
    },
    {
      "inputs": [
        {
          "internalType": "address",
          "name": "",
          "type": "address"
        }
      ],
      "name": "rewardsTokensMap",
      "outputs": [
        {
          "internalType": "uint256",
          "name": "rewardRate",
          "type": "uint256"
        },
        {
          "internalType": "uint256",
          "name": "latestRewardPerTokenSaved",
          "type": "uint256"
        },
        {
          "internalType": "uint256",
          "name": "periodFinish",
          "type": "uint256"
        },
        {
          "internalType": "uint256",
          "name": "lastUpdateTime",
          "type": "uint256"
        },
        {
          "internalType": "uint256",
          "name": "rewardDuration",
          "type": "uint256"
        }
      ],
      "stateMutability": "view",
      "type": "function"
    },
    {
      "inputs": [],
      "name": "stakingToken",
      "outputs": [
        {
          "internalType": "contract IERC20Detailed",
          "name": "",
          "type": "address"
        }
      ],
      "stateMutability": "view",
      "type": "function"
    },
    {
      "inputs": [],
      "name": "getRewardsTokensCount",
      "outputs": [
        {
          "internalType": "uint256",
          "name": "",
          "type": "uint256"
        }
      ],
      "stateMutability": "view",
      "type": "function"
    },
    {
      "inputs": [
        {
          "internalType": "address",
          "name": "rewardToken",
          "type": "address"
        },
        {
          "internalType": "address",
          "name": "user",
          "type": "address"
        }
      ],
      "name": "getUserRewardPerTokenRecorded",
      "outputs": [
        {
          "internalType": "uint256",
          "name": "",
          "type": "uint256"
        }
      ],
      "stateMutability": "view",
      "type": "function"
    },
    {
      "inputs": [
        {
          "internalType": "address",
          "name": "rewardToken",
          "type": "address"
        },
        {
          "internalType": "address",
          "name": "user",
          "type": "address"
        }
      ],
      "name": "getUserReward",
      "outputs": [
        {
          "internalType": "uint256",
          "name": "",
          "type": "uint256"
        }
      ],
      "stateMutability": "view",
      "type": "function"
    },
    {
      "inputs": [],
      "name": "totalStakesAmount",
      "outputs": [
        {
          "internalType": "uint256",
          "name": "",
          "type": "uint256"
        }
      ],
      "stateMutability": "view",
      "type": "function"
    },
    {
      "inputs": [
        {
          "internalType": "address",
          "name": "account",
          "type": "address"
        }
      ],
      "name": "balanceOf",
      "outputs": [
        {
          "internalType": "uint256",
          "name": "",
          "type": "uint256"
        }
      ],
      "stateMutability": "view",
      "type": "function"
    },
    {
      "inputs": [
        {
          "internalType": "address",
          "name": "rewardToken",
          "type": "address"
        }
      ],
      "name": "getRewardForDuration",
      "outputs": [
        {
          "internalType": "uint256",
          "name": "",
          "type": "uint256"
        }
      ],
      "stateMutability": "view",
      "type": "function"
    },
    {
      "inputs": [],
      "name": "hasPeriodStarted",
      "outputs": [
        {
          "internalType": "bool",
          "name": "",
          "type": "bool"
        }
      ],
      "stateMutability": "view",
      "type": "function"
    },
    {
      "inputs": [
        {
          "internalType": "uint256",
          "name": "amount",
          "type": "uint256"
        }
      ],
      "name": "stake",
      "outputs": [],
      "stateMutability": "nonpayable",
      "type": "function"
    },
    {
      "inputs": [],
      "name": "exit",
      "outputs": [],
      "stateMutability": "nonpayable",
      "type": "function"
    },
    {
      "inputs": [],
      "name": "start",
      "outputs": [],
      "stateMutability": "nonpayable",
      "type": "function"
    },
    {
      "inputs": [
        {
          "internalType": "address",
          "name": "rewardToken",
          "type": "address"
        },
        {
          "internalType": "uint256",
          "name": "rewardAmount",
          "type": "uint256"
        }
      ],
      "name": "addRewards",
      "outputs": [],
      "stateMutability": "nonpayable",
      "type": "function"
    },
    {
      "inputs": [
        {
          "internalType": "address",
          "name": "rewardToken",
          "type": "address"
        }
      ],
      "name": "lastTimeRewardApplicable",
      "outputs": [
        {
          "internalType": "uint256",
          "name": "",
          "type": "uint256"
        }
      ],
      "stateMutability": "view",
      "type": "function"
    },
    {
      "inputs": [
        {
          "internalType": "address",
          "name": "rewardToken",
          "type": "address"
        }
      ],
      "name": "rewardPerToken",
      "outputs": [
        {
          "internalType": "uint256",
          "name": "",
          "type": "uint256"
        }
      ],
      "stateMutability": "view",
      "type": "function"
    },
    {
      "inputs": [
        {
          "internalType": "address",
          "name": "account",
          "type": "address"
        },
        {
          "internalType": "address",
          "name": "rewardToken",
          "type": "address"
        }
      ],
      "name": "earned",
      "outputs": [
        {
          "internalType": "uint256",
          "name": "",
          "type": "uint256"
        }
      ],
      "stateMutability": "view",
      "type": "function"
    },
    {
      "inputs": [
        {
          "internalType": "address",
          "name": "rewardToken",
          "type": "address"
        },
        {
          "internalType": "uint256",
          "name": "rewardAmount",
          "type": "uint256"
        }
      ],
      "name": "getPeriodsToExtend",
      "outputs": [
        {
          "internalType": "uint256",
          "name": "periodToExtend",
          "type": "uint256"
        }
      ],
      "stateMutability": "view",
      "type": "function"
    },
    {
      "inputs": [],
      "name": "hasPeriodFinished",
      "outputs": [
        {
          "internalType": "bool",
          "name": "",
          "type": "bool"
        }
      ],
      "stateMutability": "view",
      "type": "function"
    },
    {
      "inputs": [
        {
          "internalType": "uint256",
          "name": "amount",
          "type": "uint256"
        }
      ],
      "name": "withdraw",
      "outputs": [],
      "stateMutability": "nonpayable",
      "type": "function"
    },
    {
      "inputs": [],
      "name": "getReward",
      "outputs": [],
      "stateMutability": "nonpayable",
      "type": "function"
    },
    {
      "inputs": [
        {
          "internalType": "address",
          "name": "recipient",
          "type": "address"
        },
        {
          "internalType": "address",
          "name": "lpTokenContract",
          "type": "address"
        }
      ],
      "name": "withdrawLPRewards",
      "outputs": [],
      "stateMutability": "nonpayable",
      "type": "function"
    },
    {
      "inputs": [],
      "name": "withdrawRewards",
      "outputs": [],
      "stateMutability": "nonpayable",
      "type": "function"
    }
  ],
  "bytecode": "0x60806040523480156200001157600080fd5b506040516200215438038062002154833981810160405260808110156200003757600080fd5b81019080805160405193929190846401000000008211156200005857600080fd5b9083019060208201858111156200006e57600080fd5b82518660208202830111640100000000821117156200008c57600080fd5b82525081516020918201928201910280838360005b83811015620000bb578181015183820152602001620000a1565b5050505090500160405260200180516040519392919084640100000000821115620000e557600080fd5b908301906020820185811115620000fb57600080fd5b82518660208202830111640100000000821117156200011957600080fd5b82525081516020918201928201910280838360005b83811015620001485781810151838201526020016200012e565b50505050919091016040908152602083015192015160018055919350909150600090505b84518110156200021d576040518060a00160405280600081526020016000815260200160008152602001600081526020018381525060056000878481518110620001b257fe5b60200260200101516001600160a01b03166001600160a01b03168152602001908152602001600020600082015181600001556020820151816001015560408201518160020155606082015181600301556080820151816004015590505080806001019150506200016c565b508351620002339060069060208701906200027d565b50825162000249906007906020860190620002e7565b5050600280546001600160a01b039092166001600160a01b03199283161790556000805490911633179055506200036b9050565b828054828255906000526020600020908101928215620002d5579160200282015b82811115620002d557825182546001600160a01b0319166001600160a01b039091161782556020909201916001909101906200029e565b50620002e392915062000333565b5090565b82805482825590600052602060002090810192821562000325579160200282015b828111156200032557825182559160200191906001019062000308565b50620002e392915062000354565b5b80821115620002e35780546001600160a01b031916815560010162000334565b5b80821115620002e3576000815560010162000355565b611dd9806200037b6000396000f3fe608060405234801561001057600080fd5b50600436106101735760003560e01c80639fdb41bc116100de578063c7b8981c11610097578063e2bcbb8511610071578063e2bcbb8514610417578063e9fad8ee14610443578063ef12d0d81461044b578063f12297771461045357610173565b8063c7b8981c146103b6578063cba43fe6146103be578063d487393d1461040f57610173565b80639fdb41bc146102e3578063a1002a0f14610311578063a694fc3a1461033f578063a9fc507b1461035c578063bcd1101414610388578063be9a6555146103ae57610173565b80633f2a5540116101305780633f2a554014610251578063564fd910146102595780635ab764ed14610261578063638634ee1461028f57806370a08231146102b557806372f702f3146102db57610173565b8063033050f214610178578063211dc32d146101b15780632bb603eb146101f15780632e1a7d4d1461020e5780633c7df6491461022d5780633d18b91214610249575b600080fd5b6101956004803603602081101561018e57600080fd5b5035610479565b604080516001600160a01b039092168252519081900360200190f35b6101df600480360360408110156101c757600080fd5b506001600160a01b03813581169160200135166104a0565b60408051918252519081900360200190f35b6101df6004803603602081101561020757600080fd5b50356105c8565b61022b6004803603602081101561022457600080fd5b50356105e6565b005b6102356107c1565b604080519115158252519081900360200190f35b61022b610828565b6101956109fd565b610235610a0c565b6101df6004803603604081101561027757600080fd5b506001600160a01b0381358116916020013516610a74565b6101df600480360360208110156102a557600080fd5b50356001600160a01b0316610aa3565b6101df600480360360208110156102cb57600080fd5b50356001600160a01b0316610ad2565b610195610aed565b6101df600480360360408110156102f957600080fd5b506001600160a01b0381358116916020013516610afc565b61022b6004803603604081101561032757600080fd5b506001600160a01b0381358116916020013516610b28565b61022b6004803603602081101561035557600080fd5b5035610d41565b61022b6004803603604081101561037257600080fd5b506001600160a01b038135169060200135610f1a565b6101df6004803603602081101561039e57600080fd5b50356001600160a01b03166110ce565b61022b6110fd565b61022b611447565b6103e4600480360360208110156103d457600080fd5b50356001600160a01b0316611687565b6040805195865260208601949094528484019290925260608401526080830152519081900360a00190f35b6101df6116b6565b6101df6004803603604081101561042d57600080fd5b506001600160a01b0381351690602001356116bc565b61022b61177a565b6101df61179d565b6101df6004803603602081101561046957600080fd5b50356001600160a01b03166117a3565b6006818154811061048657fe5b6000918252602090912001546001600160a01b0316905081565b6001600160a01b0380821660009081526005602081815260408084209487168452918401905281205490919082906104e1906104db866117a3565b9061189e565b90506000610594600260009054906101000a90046001600160a01b03166001600160a01b031663313ce5676040518163ffffffff1660e01b815260040160206040518083038186803b15801561053657600080fd5b505afa15801561054a573d6000803e3d6000fd5b505050506040513d602081101561056057600080fd5b50516001600160a01b03881660009081526004602052604090205460ff909116600a0a9061058e90856118fb565b90611954565b6001600160a01b03871660009081526006850160205260409020549091506105bc90826119bb565b93505050505b92915050565b600781815481106105d557fe5b600091825260209091200154905081565b6002600154141561062c576040805162461bcd60e51b815260206004820152601f6024820152600080516020611ca1833981519152604482015290519081900360640190fd5b60026001553360005b6006548110156106e65760006006828154811061064e57fe5b60009182526020808320909101546001600160a01b03168083526005909152604090912090915061067e826117a3565b600182015561068c82610aa3565b60038201556001600160a01b038416156106dc576106aa84836104a0565b6001600160a01b0385166000908152600683016020908152604080832093909355600184015460058501909152919020555b5050600101610635565b508161072d576040805162461bcd60e51b8152602060048201526011602482015270043616e6e6f74207769746864726177203607c1b604482015290519081900360640190fd5b60035461073a908361189e565b60035533600090815260046020526040902054610757908361189e565b33600081815260046020526040902091909155600254610783916001600160a01b039091169084611a15565b60408051838152905133917f7084f5476618d8e60b11ef0d7d3f06914655adb8793e28ff7f018d4c76d505d5919081900360200190a2505060018055565b6000805b60065481101561081f5760056000600683815481106107e057fe5b60009182526020808320909101546001600160a01b0316835282019290925260400190206002015415610817576001915050610825565b6001016107c5565b50600090505b90565b6002600154141561086e576040805162461bcd60e51b815260206004820152601f6024820152600080516020611ca1833981519152604482015290519081900360640190fd5b60026001553360005b6006548110156109285760006006828154811061089057fe5b60009182526020808320909101546001600160a01b0316808352600590915260409091209091506108c0826117a3565b60018201556108ce82610aa3565b60038201556001600160a01b0384161561091e576108ec84836104a0565b6001600160a01b0385166000908152600683016020908152604080832093909355600184015460058501909152919020555b5050600101610877565b5060065460005b818110156109f45760006006828154811061094657fe5b60009182526020808320909101546001600160a01b031680835260058252604080842033855260068101909352909220549192509080156109e9573360008181526006840160205260408120556109a8906001600160a01b0385169083611a15565b6040805182815290516001600160a01b0385169133917f540798df468d7b23d11f156fdb954cb19ad414d150722a7b6d55ba369dea792e9181900360200190a35b50505060010161092f565b50506001805550565b6000546001600160a01b031681565b6000805b600654811015610a6c576005600060068381548110610a2b57fe5b60009182526020808320909101546001600160a01b03168352820192909252604001902060020154421015610a64576000915050610825565b600101610a10565b506001905090565b6001600160a01b0391821660009081526005602090815260408083209390941682526006909201909152205490565b6001600160a01b038116600090815260056020526040812060020154610aca904290611a6c565b90505b919050565b6001600160a01b031660009081526004602052604090205490565b6002546001600160a01b031681565b6001600160a01b0391821660009081526005602081815260408084209490951683529201909152205490565b60026001541415610b6e576040805162461bcd60e51b815260206004820152601f6024820152600080516020611ca1833981519152604482015290519081900360640190fd5b60026001556000546001600160a01b03163314610bbc5760405162461bcd60e51b815260040180806020018281038252602a815260200180611d05602a913960400191505060405180910390fd5b6000816001600160a01b03166370a08231306040518263ffffffff1660e01b815260040180826001600160a01b0316815260200191505060206040518083038186803b158015610c0b57600080fd5b505afa158015610c1f573d6000803e3d6000fd5b505050506040513d6020811015610c3557600080fd5b5051905080610c755760405162461bcd60e51b8152600401808060200182810382526029815260200180611d2f6029913960400191505060405180910390fd5b60005b600654811015610ced5760068181548110610c8f57fe5b6000918252602090912001546001600160a01b0384811691161415610ce55760405162461bcd60e51b8152600401808060200182810382526022815260200180611d826022913960400191505060405180910390fd5b600101610c78565b50610d026001600160a01b0383168483611a15565b6040516001600160a01b0384169082907fdf1b625465761dd1a4330a9b3a21d4943183f301036528a3544f8d891fdce2c290600090a350506001805550565b60026001541415610d87576040805162461bcd60e51b815260206004820152601f6024820152600080516020611ca1833981519152604482015290519081900360640190fd5b60026001553360005b600654811015610e4157600060068281548110610da957fe5b60009182526020808320909101546001600160a01b031680835260059091526040909120909150610dd9826117a3565b6001820155610de782610aa3565b60038201556001600160a01b03841615610e3757610e0584836104a0565b6001600160a01b0385166000908152600683016020908152604080832093909355600184015460058501909152919020555b5050600101610d90565b5081610e85576040805162461bcd60e51b815260206004820152600e60248201526d043616e6e6f74207374616b6520360941b604482015290519081900360640190fd5b600354610e9290836119bb565b60035533600090815260046020526040902054610eaf90836119bb565b33600081815260046020526040902091909155600254610edc916001600160a01b03909116903085611a82565b60408051838152905133917f9e71bc8eea02a63969f509818f2dafb9254532904319f9dbda79b67bd34a5f3d919081900360200190a2505060018055565b6000805b600654811015610fcf57600060068281548110610f3757fe5b60009182526020808320909101546001600160a01b031680835260059091526040909120909150610f67826117a3565b6001820155610f7582610aa3565b60038201556001600160a01b03841615610fc557610f9384836104a0565b6001600160a01b0385166000908152600683016020908152604080832093909355600184015460058501909152919020555b5050600101610f1e565b506000546001600160a01b031633146110195760405162461bcd60e51b815260040180806020018281038252602a815260200180611d05602a913960400191505060405180910390fd5b600061102584846116bc565b905061103c6001600160a01b038516333086611a82565b6001600160a01b0384166000908152600560205260409020600281015461106390836119bb565b6002820155600481015461107790836119bb565b60048201556040805185815242602082015280820184905290516001600160a01b038716917fce08a79bf02087a6d982e6a2df78836772baa4c16c084eae230ab65fe75cd7ad919081900360600190a25050505050565b6001600160a01b0381166000908152600560205260408120600481015481546110f6916118fb565b9392505050565b6000546001600160a01b031633146111465760405162461bcd60e51b815260040180806020018281038252602a815260200180611d05602a913960400191505060405180910390fd5b6000805b6006548110156111fb5760006006828154811061116357fe5b60009182526020808320909101546001600160a01b031680835260059091526040909120909150611193826117a3565b60018201556111a182610aa3565b60038201556001600160a01b038416156111f1576111bf84836104a0565b6001600160a01b0385166000908152600683016020908152604080832093909355600184015460058501909152919020555b505060010161114a565b5060005b60065481101561137c5760006006828154811061121857fe5b60009182526020808320909101546001600160a01b031680835260059091526040909120600481015460078054939450919261127292908690811061125957fe5b906000526020600020015461195490919063ffffffff16565b8155604080516370a0823160e01b815230600482015290516000916001600160a01b038516916370a0823191602480820192602092909190829003018186803b1580156112be57600080fd5b505afa1580156112d2573d6000803e3d6000fd5b505050506040513d60208110156112e857600080fd5b505160048301549091506112fd908290611954565b82541115611352576040805162461bcd60e51b815260206004820152601860248201527f50726f76696465642072657761726420746f6f20686967680000000000000000604482015290519081900360640190fd5b4260038301819055600483015461136991906119bb565b60029092019190915550506001016111ff565b507fa00d0d3f3be42a1502ce5722ccd702e27f4ea7059865db2087238a8bc54102536006600760405180806020018060200183810383528581815481526020019150805480156113f557602002820191906000526020600020905b81546001600160a01b031681526001909101906020018083116113d7575b5050838103825284818154815260200191508054801561143457602002820191906000526020600020905b815481526020019060010190808311611420575b505094505050505060405180910390a150565b6002600154141561148d576040805162461bcd60e51b815260206004820152601f6024820152600080516020611ca1833981519152604482015290519081900360640190fd5b60026001556000546001600160a01b031633146114db5760405162461bcd60e51b815260040180806020018281038252602a815260200180611d05602a913960400191505060405180910390fd5b6000306001600160a01b0316633c7df6496040518163ffffffff1660e01b815260040160206040518083038186803b15801561151657600080fd5b505afa15801561152a573d6000803e3d6000fd5b505050506040513d602081101561154057600080fd5b505190506001811515141561159c576040805162461bcd60e51b815260206004820181905260248201527f54686520526577617264732043616d706169676e206861732073746172746564604482015290519081900360640190fd5b60005b60065481101561167f576000600682815481106115b857fe5b60009182526020918290200154604080516370a0823160e01b815230600482015290516001600160a01b03909216926370a0823192602480840193829003018186803b15801561160757600080fd5b505afa15801561161b573d6000803e3d6000fd5b505050506040513d602081101561163157600080fd5b505160005460068054929350611676926001600160a01b03909216918491908690811061165a57fe5b6000918252602090912001546001600160a01b03169190611a15565b5060010161159f565b505060018055565b600560205260009081526040902080546001820154600283015460038401546004909401549293919290919085565b60065490565b6000816116fa5760405162461bcd60e51b8152600401808060200182810382526023815260200180611cc16023913960400191505060405180910390fd5b6001600160a01b03831660009081526005602052604090208054611765576040805162461bcd60e51b815260206004820152601a60248201527f5374616b696e67206973206e6f74207965742073746172746564000000000000604482015290519081900360640190fd5b8054611772908490611954565b949350505050565b33600090815260046020526040902054611793906105e6565b61179b610828565b565b60035490565b6001600160a01b03811660009081526005602052604081206003546117cd57600101549050610acd565b60006117e082600301546104db86610aa3565b9050600061188360035461058e600260009054906101000a90046001600160a01b03166001600160a01b031663313ce5676040518163ffffffff1660e01b815260040160206040518083038186803b15801561183b57600080fd5b505afa15801561184f573d6000803e3d6000fd5b505050506040513d602081101561186557600080fd5b5051865460ff909116600a0a9061187d9087906118fb565b906118fb565b600184015490915061189590826119bb565b95945050505050565b6000828211156118f5576040805162461bcd60e51b815260206004820152601e60248201527f536166654d6174683a207375627472616374696f6e206f766572666c6f770000604482015290519081900360640190fd5b50900390565b60008261190a575060006105c2565b8282028284828161191757fe5b04146110f65760405162461bcd60e51b8152600401808060200182810382526021815260200180611ce46021913960400191505060405180910390fd5b60008082116119aa576040805162461bcd60e51b815260206004820152601a60248201527f536166654d6174683a206469766973696f6e206279207a65726f000000000000604482015290519081900360640190fd5b8183816119b357fe5b049392505050565b6000828201838110156110f6576040805162461bcd60e51b815260206004820152601b60248201527f536166654d6174683a206164646974696f6e206f766572666c6f770000000000604482015290519081900360640190fd5b604080516001600160a01b038416602482015260448082018490528251808303909101815260649091019091526020810180516001600160e01b031663a9059cbb60e01b179052611a67908490611ae2565b505050565b6000818310611a7b57816110f6565b5090919050565b604080516001600160a01b0380861660248301528416604482015260648082018490528251808303909101815260849091019091526020810180516001600160e01b03166323b872dd60e01b179052611adc908590611ae2565b50505050565b611af4826001600160a01b0316611c9a565b611b45576040805162461bcd60e51b815260206004820152601f60248201527f5361666545524332303a2063616c6c20746f206e6f6e2d636f6e747261637400604482015290519081900360640190fd5b60006060836001600160a01b0316836040518082805190602001908083835b60208310611b835780518252601f199092019160209182019101611b64565b6001836020036101000a0380198251168184511680821785525050505050509050019150506000604051808303816000865af19150503d8060008114611be5576040519150601f19603f3d011682016040523d82523d6000602084013e611bea565b606091505b509150915081611c41576040805162461bcd60e51b815260206004820181905260248201527f5361666545524332303a206c6f772d6c6576656c2063616c6c206661696c6564604482015290519081900360640190fd5b805115611adc57808060200190516020811015611c5d57600080fd5b5051611adc5760405162461bcd60e51b815260040180806020018281038252602a815260200180611d58602a913960400191505060405180910390fd5b3b15159056fe5265656e7472616e637947756172643a207265656e7472616e742063616c6c00526577617264732073686f756c642062652067726561746572207468616e207a65726f536166654d6174683a206d756c7469706c69636174696f6e206f766572666c6f7743616c6c6572206973206e6f742052657761726473446973747269627574696f6e20636f6e7472616374546865726520617265206e6f20726577617264732066726f6d206c697175696469747920706f6f6c735361666545524332303a204552433230206f7065726174696f6e20646964206e6f74207375636365656443616e6e6f742077697468647261772066726f6d20746f6b656e2072657761726473a264697066735822122068b8dfde2fab97d345ef2888e72c8d4f0c4fcf8924149bcfc880c73f1f9fd03464736f6c634300060c0033",
  "source": "// SPDX-License-Identifier: MIT\npragma solidity 0.6.12;\n\nimport \"openzeppelin-solidity/contracts/math/Math.sol\";\nimport \"openzeppelin-solidity/contracts/math/SafeMath.sol\";\nimport \"openzeppelin-solidity/contracts/utils/ReentrancyGuard.sol\";\n\nimport \"../interfaces/IRewardsPool.sol\";\nimport \"../interfaces/IERC20Detailed.sol\";\nimport \"../SafeERC20Detailed.sol\";\nimport \"./RewardsDistributionRecipient.sol\";\n\ncontract RewardsPool is\n    IRewardsPool,\n    RewardsDistributionRecipient,\n    ReentrancyGuard\n{\n    using SafeMath for uint256;\n    using SafeERC20Detailed for IERC20Detailed;\n\n    /* ========== STATE VARIABLES ========== */\n\n    // staking\n    IERC20Detailed public stakingToken;\n    uint256 private _totalStakesAmount;\n    mapping(address => uint256) private _balances;\n\n    // reward\n    struct RewardInfo {\n        uint256 rewardRate;\n        uint256 latestRewardPerTokenSaved;\n        uint256 periodFinish;\n        uint256 lastUpdateTime;\n        uint256 rewardDuration;\n        // user rewards\n        mapping(address => uint256) userRewardPerTokenRecorded;\n        mapping(address => uint256) rewards;\n    }\n\n    mapping(address => RewardInfo) public rewardsTokensMap; // structure for fast access to token's data\n    address[] public rewardsTokensArr; // structure to iterate over\n    uint256[] public rewardsAmountsArr;\n\n    /* ========== EVENTS ========== */\n\n    event RewardAdded(address[] token, uint256[] reward);\n    event Staked(address indexed user, uint256 amount);\n    event Withdrawn(address indexed user, uint256 amount);\n    event RewardPaid(\n        address indexed user,\n        address indexed rewardToken,\n        uint256 rewardAmount\n    );\n    event RewardExtended(\n        address indexed rewardToken,\n        uint256 rewardAmount,\n        uint256 date,\n        uint256 periodToExtend\n    );\n    event WithdrawLPRewards(\n        uint256 indexed rewardsAmount,\n        address indexed recipient\n    );\n\n    /* ========== CONSTRUCTOR ========== */\n\n    /** @dev Function called once on deployment time\n     * @param _rewardsTokens The addresses of the tokens the rewards will be paid in\n     * @param _rewardsAmounts The reward amounts for each reward token\n     * @param _stakingToken The address of the token being staked\n     * @param _rewardsDuration Rewards duration in seconds\n     */\n    constructor(\n        address[] memory _rewardsTokens,\n        uint256[] memory _rewardsAmounts,\n        address _stakingToken,\n        uint256 _rewardsDuration\n    ) public {\n        for (uint256 i = 0; i < _rewardsTokens.length; i++) {\n            rewardsTokensMap[_rewardsTokens[i]] = RewardInfo(\n                0,\n                0,\n                0,\n                0,\n                _rewardsDuration\n            );\n        }\n        rewardsTokensArr = _rewardsTokens;\n        rewardsAmountsArr = _rewardsAmounts;\n        stakingToken = IERC20Detailed(_stakingToken);\n\n        rewardsDistributor = msg.sender;\n    }\n\n    /* ========== MODIFIERS ========== */\n\n    /** @dev Modifier that re-calculates the rewards per user on user action.\n     */\n    modifier updateReward(address account) {\n        for (uint256 i = 0; i < rewardsTokensArr.length; i++) {\n            address token = rewardsTokensArr[i];\n            RewardInfo storage ri = rewardsTokensMap[token];\n\n            ri.latestRewardPerTokenSaved = rewardPerToken(token); // Calculate the reward until now\n            ri.lastUpdateTime = lastTimeRewardApplicable(token); // Update the last update time to now (or end date) for future calculations\n\n            if (account != address(0)) {\n                ri.rewards[account] = earned(account, token);\n                ri.userRewardPerTokenRecorded[account] = ri\n                    .latestRewardPerTokenSaved;\n            }\n        }\n        _;\n    }\n\n    /* ========== FUNCTIONS ========== */\n\n    /** @dev Return the length of Rewards tokens array.\n     */\n    function getRewardsTokensCount() external view returns (uint256) {\n        return rewardsTokensArr.length;\n    }\n\n    /** @dev Returns reward per token for a specific user and specific reward token.\n     * @param rewardToken The reward token\n     * @param rewardToken The address of user\n     */\n    function getUserRewardPerTokenRecorded(address rewardToken, address user)\n        external\n        view\n        returns (uint256)\n    {\n        return rewardsTokensMap[rewardToken].userRewardPerTokenRecorded[user];\n    }\n\n    /** @dev Returns reward for a specific user and specific reward token.\n     * @param rewardToken The reward token\n     * @param rewardToken The address of user\n     */\n    function getUserReward(address rewardToken, address user)\n        external\n        view\n        returns (uint256)\n    {\n        return rewardsTokensMap[rewardToken].rewards[user];\n    }\n\n    /** @dev Returns the total amount of stakes.\n     */\n    function totalStakesAmount() external view override returns (uint256) {\n        return _totalStakesAmount;\n    }\n\n    /** @dev Returns the balance of specific user.\n     */\n    function balanceOf(address account)\n        external\n        view\n        override\n        returns (uint256)\n    {\n        return _balances[account];\n    }\n\n    /** @dev Calculates the rewards for this distribution.\n     * @param rewardToken The reward token for which calculations will be made for\n     */\n    function getRewardForDuration(address rewardToken)\n        external\n        view\n        override\n        returns (uint256)\n    {\n        RewardInfo storage ri = rewardsTokensMap[rewardToken];\n        return ri.rewardRate.mul(ri.rewardDuration);\n    }\n\n    /** @dev Checks if staking period has been started.\n     */\n    function hasPeriodStarted() external view returns (bool) {\n        for (uint256 i = 0; i < rewardsTokensArr.length; i++) {\n            if (rewardsTokensMap[rewardsTokensArr[i]].periodFinish != 0) {\n                return true;\n            }\n        }\n\n        return false;\n    }\n\n    /** @dev Providing LP tokens to stake, start calculating rewards for user.\n     * @param amount The amount to be staked\n     */\n    function stake(uint256 amount)\n        external\n        override\n        nonReentrant\n        updateReward(msg.sender)\n    {\n        require(amount != 0, \"Cannot stake 0\");\n        _totalStakesAmount = _totalStakesAmount.add(amount);\n        _balances[msg.sender] = _balances[msg.sender].add(amount);\n        stakingToken.safeTransferFrom(msg.sender, address(this), amount);\n        emit Staked(msg.sender, amount);\n    }\n\n    /** @dev Withdrawing the stake and claiming the rewards for the user\n     */\n    function exit() external override {\n        withdraw(_balances[msg.sender]);\n        getReward();\n    }\n\n    /** @dev Makes the needed calculations and starts the staking/rewarding.\n     */\n    function start()\n        external\n        override\n        onlyRewardsDistributor\n        updateReward(address(0))\n    {\n        for (uint256 i = 0; i < rewardsTokensArr.length; i++) {\n            address token = rewardsTokensArr[i];\n            RewardInfo storage ri = rewardsTokensMap[token];\n\n            ri.rewardRate = rewardsAmountsArr[i].div(ri.rewardDuration);\n            // Ensure the provided reward amount is not more than the balance in the contract.\n            // This keeps the reward rate in the right range, preventing overflows due to\n            // very high values of rewardRate in the earned and rewardsPerToken functions;\n            // Reward + leftover must be less than 2^256 / 10^18 to avoid overflow.\n            uint256 balance = IERC20Detailed(token).balanceOf(address(this));\n            require(\n                ri.rewardRate <= balance.div(ri.rewardDuration),\n                \"Provided reward too high\"\n            );\n\n            ri.lastUpdateTime = block.timestamp;\n            ri.periodFinish = block.timestamp.add(ri.rewardDuration);\n        }\n\n        emit RewardAdded(rewardsTokensArr, rewardsAmountsArr);\n    }\n\n    /** @dev Add's more rewards and updates the duration of the rewards distribution.\n     * @param rewardToken The token in which the additional reward amount will be distributed. Must be already known token.\n     * @param rewardAmount The additional reward amount\n     */\n    function addRewards(address rewardToken, uint256 rewardAmount)\n        external\n        updateReward(address(0))\n        onlyRewardsDistributor\n    {\n        uint256 periodToExtend = getPeriodsToExtend(rewardToken, rewardAmount);\n        IERC20Detailed(rewardToken).safeTransferFrom(\n            msg.sender,\n            address(this),\n            rewardAmount\n        );\n\n        RewardInfo storage ri = rewardsTokensMap[rewardToken];\n        ri.periodFinish = ri.periodFinish.add(periodToExtend);\n        ri.rewardDuration = ri.rewardDuration.add(periodToExtend);\n\n        emit RewardExtended(\n            rewardToken,\n            rewardAmount,\n            block.timestamp,\n            periodToExtend\n        );\n    }\n\n    /** @dev Calculates the last time reward could be paid up until this moment for specific reward token.\n     * @param rewardToken The reward token for which calculations will be made for\n     */\n    function lastTimeRewardApplicable(address rewardToken)\n        public\n        view\n        override\n        returns (uint256)\n    {\n        return\n            Math.min(\n                block.timestamp,\n                rewardsTokensMap[rewardToken].periodFinish\n            );\n    }\n\n    /** @dev Calculates how many rewards tokens you should get per 1 staked token until last applicable time (in most cases it is now) for specific token\n     * @param rewardToken The reward token for which calculations will be made for\n     */\n    function rewardPerToken(address rewardToken)\n        public\n        view\n        override\n        returns (uint256)\n    {\n        RewardInfo storage ri = rewardsTokensMap[rewardToken];\n\n        if (_totalStakesAmount == 0) {\n            return ri.latestRewardPerTokenSaved;\n        }\n\n        uint256 timeSinceLastSave =\n            lastTimeRewardApplicable(rewardToken).sub(ri.lastUpdateTime);\n\n        uint256 rewardPerTokenSinceLastSave =\n            timeSinceLastSave\n                .mul(ri.rewardRate)\n                .mul(\n                10**uint256(IERC20Detailed(address(stakingToken)).decimals())\n            )\n                .div(_totalStakesAmount);\n\n        return ri.latestRewardPerTokenSaved.add(rewardPerTokenSinceLastSave);\n    }\n\n    /** @dev Calculates how much rewards a user has earned.\n     * @param account The user for whom calculations will be done\n     * @param rewardToken The reward token for which calculations will be made for\n     */\n    function earned(address account, address rewardToken)\n        public\n        view\n        override\n        returns (uint256)\n    {\n        RewardInfo storage ri = rewardsTokensMap[rewardToken];\n\n        uint256 userRewardPerTokenSinceRecorded =\n            rewardPerToken(rewardToken).sub(\n                ri.userRewardPerTokenRecorded[account]\n            );\n\n        uint256 newReward =\n            _balances[account].mul(userRewardPerTokenSinceRecorded).div(\n                10**uint256(IERC20Detailed(address(stakingToken)).decimals())\n            );\n\n        return ri.rewards[account].add(newReward);\n    }\n\n    /** @dev Calculates the finish period extension based on the new reward amount added\n     * @param rewardAmount The additional reward amount\n     */\n    function getPeriodsToExtend(address rewardToken, uint256 rewardAmount)\n        public\n        view\n        returns (uint256 periodToExtend)\n    {\n        require(rewardAmount != 0, \"Rewards should be greater than zero\");\n\n        RewardInfo storage ri = rewardsTokensMap[rewardToken];\n        require(ri.rewardRate != 0, \"Staking is not yet started\");\n\n        periodToExtend = rewardAmount.div(ri.rewardRate);\n    }\n\n    /** @dev Checks if staking period for every reward token has expired.\n     * Returns false if atleast one reward token has not yet finished\n     */\n    function hasPeriodFinished() public view returns (bool) {\n        for (uint256 i = 0; i < rewardsTokensArr.length; i++) {\n            // on first token for which the period has not expired, returns false.\n            if (\n                block.timestamp <\n                rewardsTokensMap[rewardsTokensArr[i]].periodFinish\n            ) {\n                return false;\n            }\n        }\n\n        return true;\n    }\n\n    /** @dev Withdrawing/removing the staked tokens back to the user's wallet\n     * @param amount The amount to be withdrawn\n     */\n    function withdraw(uint256 amount)\n        public\n        override\n        nonReentrant\n        updateReward(msg.sender)\n    {\n        require(amount != 0, \"Cannot withdraw 0\");\n        _totalStakesAmount = _totalStakesAmount.sub(amount);\n        _balances[msg.sender] = _balances[msg.sender].sub(amount);\n        stakingToken.safeTransfer(msg.sender, amount);\n        emit Withdrawn(msg.sender, amount);\n    }\n\n    /** @dev Claiming earned rewards up to now\n     */\n    function getReward() public override nonReentrant updateReward(msg.sender) {\n        uint256 tokenArrLength = rewardsTokensArr.length;\n        for (uint256 i = 0; i < tokenArrLength; i++) {\n            address token = rewardsTokensArr[i];\n            RewardInfo storage ri = rewardsTokensMap[token];\n\n            uint256 reward = ri.rewards[msg.sender];\n            if (reward != 0) {\n                ri.rewards[msg.sender] = 0;\n                IERC20Detailed(token).safeTransfer(msg.sender, reward);\n                emit RewardPaid(msg.sender, token, reward);\n            }\n        }\n    }\n\n    /** @dev Withdrawing rewards acumulated from different pools for providing liquidity\n     * @param recipient The address to whom the rewards will be trasferred\n     * @param lpTokenContract The address of the rewards contract\n     */\n    function withdrawLPRewards(address recipient, address lpTokenContract)\n        public\n        nonReentrant\n        onlyRewardsDistributor\n    {\n        uint256 currentReward =\n            IERC20Detailed(lpTokenContract).balanceOf(address(this));\n        require(currentReward > 0, \"There are no rewards from liquidity pools\");\n\n        for (uint256 i = 0; i < rewardsTokensArr.length; i++) {\n            require(\n                lpTokenContract != rewardsTokensArr[i],\n                \"Cannot withdraw from token rewards\"\n            );\n        }\n        IERC20Detailed(lpTokenContract).safeTransfer(recipient, currentReward);\n        emit WithdrawLPRewards(currentReward, recipient);\n    }\n\n    /** @dev Withdrawing rewards before the campaign has started. This method can be used if tokens were accidentally transferred to the contract. The tokens will be returned to the factory contract.\n     */\n    function withdrawRewards() public nonReentrant onlyRewardsDistributor {\n        bool hasPeriodStartedCheck = this.hasPeriodStarted();\n        require(\n            hasPeriodStartedCheck != true,\n            \"The Rewards Campaign has started\"\n        );\n\n        for (uint256 i = 0; i < rewardsTokensArr.length; i++) {\n            uint256 rewardsAmount =\n                IERC20Detailed(rewardsTokensArr[i]).balanceOf(address(this));\n            IERC20Detailed(rewardsTokensArr[i]).safeTransfer(\n                rewardsDistributor,\n                rewardsAmount\n            );\n        }\n    }\n}\n",
  "sourcePath": "/Users/martindobrev/Code/custom-token/contracts/V1/RewardsPool.sol",
  "compiler": {
    "name": "solc",
    "version": "0.6.12+commit.27d51765.Emscripten.clang",
    "optimizer": true,
    "runs": 200
  },
  "schemaVersion": "2.3.5",
  "updatedAt": "2022-02-16T15:12:31.178Z"
}