{
  "contractName": "RewardsPoolBase",
  "abi": [
    {
      "inputs": [
        {
          "internalType": "contract IERC20Detailed",
          "name": "_stakingToken",
          "type": "address"
        },
        {
          "internalType": "uint256",
          "name": "_startBlock",
          "type": "uint256"
        },
        {
          "internalType": "uint256",
          "name": "_endBlock",
          "type": "uint256"
        },
        {
          "internalType": "address[]",
          "name": "_rewardsTokens",
          "type": "address[]"
        },
        {
          "internalType": "uint256[]",
          "name": "_rewardPerBlock",
          "type": "uint256[]"
        },
        {
          "internalType": "uint256",
          "name": "_stakeLimit",
          "type": "uint256"
        },
        {
          "internalType": "uint256",
          "name": "_contractStakeLimit",
          "type": "uint256"
        }
      ],
      "stateMutability": "nonpayable",
      "type": "constructor"
    },
    {
      "anonymous": false,
      "inputs": [
        {
          "indexed": true,
          "internalType": "address",
          "name": "user",
          "type": "address"
        },
        {
          "indexed": false,
          "internalType": "uint256",
          "name": "amount",
          "type": "uint256"
        },
        {
          "indexed": false,
          "internalType": "address",
          "name": "token",
          "type": "address"
        }
      ],
      "name": "Claimed",
      "type": "event"
    },
    {
      "anonymous": false,
      "inputs": [
        {
          "indexed": true,
          "internalType": "address",
          "name": "user",
          "type": "address"
        },
        {
          "indexed": false,
          "internalType": "uint256",
          "name": "amount",
          "type": "uint256"
        }
      ],
      "name": "Exited",
      "type": "event"
    },
    {
      "anonymous": false,
      "inputs": [
        {
          "indexed": false,
          "internalType": "uint256",
          "name": "newEndBlock",
          "type": "uint256"
        },
        {
          "indexed": false,
          "internalType": "uint256[]",
          "name": "newRewardsPerBlock",
          "type": "uint256[]"
        }
      ],
      "name": "Extended",
      "type": "event"
    },
    {
      "anonymous": false,
      "inputs": [
        {
          "indexed": true,
          "internalType": "address",
          "name": "user",
          "type": "address"
        },
        {
          "indexed": false,
          "internalType": "uint256",
          "name": "amount",
          "type": "uint256"
        }
      ],
      "name": "Staked",
      "type": "event"
    },
    {
      "anonymous": false,
      "inputs": [
        {
          "indexed": true,
          "internalType": "uint256",
          "name": "rewardsAmount",
          "type": "uint256"
        },
        {
          "indexed": true,
          "internalType": "address",
          "name": "recipient",
          "type": "address"
        }
      ],
      "name": "WithdrawLPRewards",
      "type": "event"
    },
    {
      "anonymous": false,
      "inputs": [
        {
          "indexed": true,
          "internalType": "address",
          "name": "user",
          "type": "address"
        },
        {
          "indexed": false,
          "internalType": "uint256",
          "name": "amount",
          "type": "uint256"
        }
      ],
      "name": "Withdrawn",
      "type": "event"
    },
    {
      "inputs": [
        {
          "internalType": "uint256",
          "name": "",
          "type": "uint256"
        }
      ],
      "name": "accumulatedRewardMultiplier",
      "outputs": [
        {
          "internalType": "uint256",
          "name": "",
          "type": "uint256"
        }
      ],
      "stateMutability": "view",
      "type": "function"
    },
    {
      "inputs": [],
      "name": "contractStakeLimit",
      "outputs": [
        {
          "internalType": "uint256",
          "name": "",
          "type": "uint256"
        }
      ],
      "stateMutability": "view",
      "type": "function"
    },
    {
      "inputs": [],
      "name": "endBlock",
      "outputs": [
        {
          "internalType": "uint256",
          "name": "",
          "type": "uint256"
        }
      ],
      "stateMutability": "view",
      "type": "function"
    },
    {
      "inputs": [],
      "name": "lastRewardBlock",
      "outputs": [
        {
          "internalType": "uint256",
          "name": "",
          "type": "uint256"
        }
      ],
      "stateMutability": "view",
      "type": "function"
    },
    {
      "inputs": [
        {
          "internalType": "uint256",
          "name": "",
          "type": "uint256"
        }
      ],
      "name": "rewardPerBlock",
      "outputs": [
        {
          "internalType": "uint256",
          "name": "",
          "type": "uint256"
        }
      ],
      "stateMutability": "view",
      "type": "function"
    },
    {
      "inputs": [],
      "name": "rewardsPoolFactory",
      "outputs": [
        {
          "internalType": "address",
          "name": "",
          "type": "address"
        }
      ],
      "stateMutability": "view",
      "type": "function"
    },
    {
      "inputs": [
        {
          "internalType": "uint256",
          "name": "",
          "type": "uint256"
        }
      ],
      "name": "rewardsTokens",
      "outputs": [
        {
          "internalType": "address",
          "name": "",
          "type": "address"
        }
      ],
      "stateMutability": "view",
      "type": "function"
    },
    {
      "inputs": [],
      "name": "stakeLimit",
      "outputs": [
        {
          "internalType": "uint256",
          "name": "",
          "type": "uint256"
        }
      ],
      "stateMutability": "view",
      "type": "function"
    },
    {
      "inputs": [],
      "name": "stakingToken",
      "outputs": [
        {
          "internalType": "contract IERC20Detailed",
          "name": "",
          "type": "address"
        }
      ],
      "stateMutability": "view",
      "type": "function"
    },
    {
      "inputs": [],
      "name": "startBlock",
      "outputs": [
        {
          "internalType": "uint256",
          "name": "",
          "type": "uint256"
        }
      ],
      "stateMutability": "view",
      "type": "function"
    },
    {
      "inputs": [],
      "name": "totalStaked",
      "outputs": [
        {
          "internalType": "uint256",
          "name": "",
          "type": "uint256"
        }
      ],
      "stateMutability": "view",
      "type": "function"
    },
    {
      "inputs": [
        {
          "internalType": "address",
          "name": "",
          "type": "address"
        }
      ],
      "name": "userInfo",
      "outputs": [
        {
          "internalType": "uint256",
          "name": "firstStakedBlockNumber",
          "type": "uint256"
        },
        {
          "internalType": "uint256",
          "name": "amountStaked",
          "type": "uint256"
        }
      ],
      "stateMutability": "view",
      "type": "function"
    },
    {
      "inputs": [
        {
          "internalType": "uint256",
          "name": "_tokenAmount",
          "type": "uint256"
        }
      ],
      "name": "stake",
      "outputs": [],
      "stateMutability": "nonpayable",
      "type": "function"
    },
    {
      "inputs": [],
      "name": "claim",
      "outputs": [],
      "stateMutability": "nonpayable",
      "type": "function"
    },
    {
      "inputs": [
        {
          "internalType": "uint256",
          "name": "_tokenAmount",
          "type": "uint256"
        }
      ],
      "name": "withdraw",
      "outputs": [],
      "stateMutability": "nonpayable",
      "type": "function"
    },
    {
      "inputs": [],
      "name": "exit",
      "outputs": [],
      "stateMutability": "nonpayable",
      "type": "function"
    },
    {
      "inputs": [
        {
          "internalType": "address",
          "name": "_userAddress",
          "type": "address"
        }
      ],
      "name": "balanceOf",
      "outputs": [
        {
          "internalType": "uint256",
          "name": "",
          "type": "uint256"
        }
      ],
      "stateMutability": "view",
      "type": "function"
    },
    {
      "inputs": [],
      "name": "updateRewardMultipliers",
      "outputs": [],
      "stateMutability": "nonpayable",
      "type": "function"
    },
    {
      "inputs": [],
      "name": "hasStakingStarted",
      "outputs": [
        {
          "internalType": "bool",
          "name": "",
          "type": "bool"
        }
      ],
      "stateMutability": "view",
      "type": "function"
    },
    {
      "inputs": [
        {
          "internalType": "address",
          "name": "_userAddress",
          "type": "address"
        },
        {
          "internalType": "uint256",
          "name": "_index",
          "type": "uint256"
        }
      ],
      "name": "getUserRewardDebt",
      "outputs": [
        {
          "internalType": "uint256",
          "name": "",
          "type": "uint256"
        }
      ],
      "stateMutability": "view",
      "type": "function"
    },
    {
      "inputs": [
        {
          "internalType": "address",
          "name": "_userAddress",
          "type": "address"
        },
        {
          "internalType": "uint256",
          "name": "_index",
          "type": "uint256"
        }
      ],
      "name": "getUserOwedTokens",
      "outputs": [
        {
          "internalType": "uint256",
          "name": "",
          "type": "uint256"
        }
      ],
      "stateMutability": "view",
      "type": "function"
    },
    {
      "inputs": [
        {
          "internalType": "address",
          "name": "_userAddress",
          "type": "address"
        },
        {
          "internalType": "uint256",
          "name": "tokenIndex",
          "type": "uint256"
        }
      ],
      "name": "getUserAccumulatedReward",
      "outputs": [
        {
          "internalType": "uint256",
          "name": "",
          "type": "uint256"
        }
      ],
      "stateMutability": "view",
      "type": "function"
    },
    {
      "inputs": [
        {
          "internalType": "address",
          "name": "_userAddress",
          "type": "address"
        }
      ],
      "name": "getUserTokensOwedLength",
      "outputs": [
        {
          "internalType": "uint256",
          "name": "",
          "type": "uint256"
        }
      ],
      "stateMutability": "view",
      "type": "function"
    },
    {
      "inputs": [
        {
          "internalType": "address",
          "name": "_userAddress",
          "type": "address"
        }
      ],
      "name": "getUserRewardDebtLength",
      "outputs": [
        {
          "internalType": "uint256",
          "name": "",
          "type": "uint256"
        }
      ],
      "stateMutability": "view",
      "type": "function"
    },
    {
      "inputs": [
        {
          "internalType": "uint256",
          "name": "_endBlock",
          "type": "uint256"
        },
        {
          "internalType": "uint256[]",
          "name": "_rewardsPerBlock",
          "type": "uint256[]"
        },
        {
          "internalType": "uint256[]",
          "name": "_currentRemainingRewards",
          "type": "uint256[]"
        },
        {
          "internalType": "uint256[]",
          "name": "_newRemainingRewards",
          "type": "uint256[]"
        }
      ],
      "name": "extend",
      "outputs": [],
      "stateMutability": "nonpayable",
      "type": "function"
    },
    {
      "inputs": [
        {
          "internalType": "address",
          "name": "recipient",
          "type": "address"
        },
        {
          "internalType": "address",
          "name": "lpTokenContract",
          "type": "address"
        }
      ],
      "name": "withdrawLPRewards",
      "outputs": [],
      "stateMutability": "nonpayable",
      "type": "function"
    },
    {
      "inputs": [],
      "name": "getRewardTokensCount",
      "outputs": [
        {
          "internalType": "uint256",
          "name": "",
          "type": "uint256"
        }
      ],
      "stateMutability": "view",
      "type": "function"
    }
  ],
  "bytecode": "0x60806040523480156200001157600080fd5b50604051620028a8380380620028a8833981810160405260e08110156200003757600080fd5b8151602083015160408085015160608601805192519496939591949391820192846401000000008211156200006b57600080fd5b9083019060208201858111156200008157600080fd5b82518660208202830111640100000000821117156200009f57600080fd5b82525081516020918201928201910280838360005b83811015620000ce578181015183820152602001620000b4565b5050505090500160405260200180516040519392919084640100000000821115620000f857600080fd5b9083019060208201858111156200010e57600080fd5b82518660208202830111640100000000821117156200012c57600080fd5b82525081516020918201928201910280838360005b838110156200015b57818101518382015260200162000141565b50505050919091016040908152602083015192015160016000559193509091506200018790506200039b565b8611620001c65760405162461bcd60e51b8152600401808060200182810382526036815260200180620028726036913960400191505060405180910390fd5b620001d06200039b565b85116200020f5760405162461bcd60e51b8152600401808060200182810382526031815260200180620027b86031913960400191505060405180910390fd5b8351835114620002515760405162461bcd60e51b815260040180806020018281038252604f815260200180620027e9604f913960600191505060405180910390fd5b816200028f5760405162461bcd60e51b8152600401808060200182810382526030815260200180620027886030913960400191505060405180910390fd5b80620002cd5760405162461bcd60e51b815260040180806020018281038252603a81526020018062002838603a913960400191505060405180910390fd5b600480546001600160a01b0319166001600160a01b0389161790558251620002fd9060029060208601906200039f565b506005869055600685905583516200031d906003906020870190620003ef565b50600554600755600980546001600160a01b03191633179055600a829055600b81905560005b6003548110156200038d57600880546001818101835560009283527ff3f7a9fe364faab93b216da50a3214154f22a0a2b415b23a84c8169e8b636ee3909101919091550162000343565b50505050505050506200048d565b4390565b828054828255906000526020600020908101928215620003dd579160200282015b82811115620003dd578251825591602001919060010190620003c0565b50620003eb92915062000455565b5090565b82805482825590600052602060002090810192821562000447579160200282015b828111156200044757825182546001600160a01b0319166001600160a01b0390911617825560209092019160019091019062000410565b50620003eb9291506200046c565b5b80821115620003eb576000815560010162000456565b5b80821115620003eb5780546001600160a01b03191681556001016200046d565b6122eb806200049d6000396000f3fe608060405234801561001057600080fd5b50600436106101a85760003560e01c806372f702f3116100f9578063b6d0dcd811610097578063df9d777f11610071578063df9d777f14610582578063e9fad8ee146105ae578063f27d0264146105b6578063fb58cad1146105e2576101a8565b8063b6d0dcd814610531578063ce4153021461054e578063dd2da2201461057a576101a8565b8063a1002a0f116100d3578063a1002a0f146104b8578063a1292aea146104e6578063a694fc3a1461050c578063a9f8d18114610529576101a8565b806372f702f31461048b578063791f39cd14610493578063817b1cd2146104b0576101a8565b80632e1a7d4d116101665780634e71d92d116101405780634e71d92d1461041d57806356409b811461042557806357b4f01f1461044957806370a0823114610465576101a8565b80632e1a7d4d146103f057806345ef79af1461040d57806348cd4cb114610415576101a8565b806284c927146101ad57806303d1dae0146101e5578063083c6323146101ed5780631959a002146101f557806320e67c76146102345780632d9e88e1146103e8575b600080fd5b6101d3600480360360208110156101c357600080fd5b50356001600160a01b03166105ff565b60408051918252519081900360200190f35b6101d3610665565b6101d361066b565b61021b6004803603602081101561020b57600080fd5b50356001600160a01b0316610671565b6040805192835260208301919091528051918290030190f35b6103e66004803603608081101561024a57600080fd5b8135919081019060408101602082013564010000000081111561026c57600080fd5b82018360208201111561027e57600080fd5b803590602001918460208302840111640100000000831117156102a057600080fd5b91908080602002602001604051908101604052809392919081815260200183836020028082843760009201919091525092959493602081019350359150506401000000008111156102f057600080fd5b82018360208201111561030257600080fd5b8035906020019184602083028401116401000000008311171561032457600080fd5b919080806020026020016040519081016040528093929190818152602001838360200280828437600092019190915250929594936020810193503591505064010000000081111561037457600080fd5b82018360208201111561038657600080fd5b803590602001918460208302840111640100000000831117156103a857600080fd5b91908080602002602001604051908101604052809392919081815260200183836020028082843760009201919091525092955061068a945050505050565b005b6101d361090d565b6103e66004803603602081101561040657600080fd5b5035610913565b6101d3610970565b6101d3610976565b6103e661097c565b61042d6109d7565b604080516001600160a01b039092168252519081900360200190f35b6104516109e6565b604080519115158252519081900360200190f35b6101d36004803603602081101561047b57600080fd5b50356001600160a01b03166109fa565b61042d610a18565b6101d3600480360360208110156104a957600080fd5b5035610a27565b6101d3610a45565b6103e6600480360360408110156104ce57600080fd5b506001600160a01b0381358116916020013516610a4b565b6101d3600480360360208110156104fc57600080fd5b50356001600160a01b0316610cb4565b6103e66004803603602081101561052257600080fd5b5035610d1a565b6101d3610d71565b61042d6004803603602081101561054757600080fd5b5035610d77565b6101d36004803603604081101561056457600080fd5b506001600160a01b038135169060200135610d9e565b6103e6610e22565b6101d36004803603604081101561059857600080fd5b506001600160a01b038135169060200135610fc8565b6103e661117f565b6101d3600480360360408110156105cc57600080fd5b506001600160a01b0381351690602001356111d3565b6101d3600480360360208110156105f857600080fd5b5035611242565b60006001600160a01b0382166106465760405162461bcd60e51b815260040180806020018281038252602d815260200180611fe8602d913960400191505060405180910390fd5b506001600160a01b03166000908152600c602052604090206002015490565b600b5481565b60065481565b600c602052600090815260409020805460019091015482565b6009546001600160a01b031633146106d35760405162461bcd60e51b815260040180806020018281038252602981526020018061228d6029913960400191505060405180910390fd5b6106db61124f565b84116107185760405162461bcd60e51b815260040180806020018281038252602781526020018061223c6027913960400191505060405180910390fd5b6006548410156107595760405162461bcd60e51b815260040180806020018281038252603581526020018061203c6035913960400191505060405180910390fd5b60035483511461079a5760405162461bcd60e51b81526004018080602001828103825260348152602001806121626034913960400191505060405180910390fd5b6107a2610e22565b60005b8351811015610882576000600382815481106107bd57fe5b60009182526020909120015483516001600160a01b0390911691508390839081106107e457fe5b60200260200101518483815181106107f857fe5b6020026020010151111561084c5761084c3384848151811061081657fe5b602002602001015186858151811061082a57fe5b602002602001015103836001600160a01b03166112539092919063ffffffff16565b84828151811061085857fe5b60200260200101516002838154811061086d57fe5b600091825260209091200155506001016107a5565b50836006819055507f137c92cc7579cc4d6a2b109467cd475c205d1c136363ca854cc46d72f840d5de84846040518083815260200180602001828103825283818151815260200191508051906020019060200280838360005b838110156108f35781810151838201526020016108db565b50505050905001935050505060405180910390a150505050565b60035490565b60026000541415610959576040805162461bcd60e51b815260206004820152601f6024820152600080516020611fc8833981519152604482015290519081900360640190fd5b600260005561096881336112aa565b506001600055565b600a5481565b60055481565b600260005414156109c2576040805162461bcd60e51b815260206004820152601f6024820152600080516020611fc8833981519152604482015290519081900360640190fd5b60026000556109d0336114ac565b6001600055565b6009546001600160a01b031681565b60006005546109f361124f565b1015905090565b6001600160a01b03166000908152600c602052604090206001015490565b6004546001600160a01b031681565b60028181548110610a3457fe5b600091825260209091200154905081565b60015481565b60026000541415610a91576040805162461bcd60e51b815260206004820152601f6024820152600080516020611fc8833981519152604482015290519081900360640190fd5b60026000556009546001600160a01b03163314610adf5760405162461bcd60e51b815260040180806020018281038252602981526020018061228d6029913960400191505060405180910390fd5b6000816001600160a01b03166370a08231306040518263ffffffff1660e01b815260040180826001600160a01b0316815260200191505060206040518083038186803b158015610b2e57600080fd5b505afa158015610b42573d6000803e3d6000fd5b505050506040513d6020811015610b5857600080fd5b5051905080610b985760405162461bcd60e51b815260040180806020018281038252603c815260200180612200603c913960400191505060405180910390fd5b6004546001600160a01b0383811691161415610be55760405162461bcd60e51b81526004018080602001828103825260368152602001806120716036913960400191505060405180910390fd5b60035460005b81811015610c5e5760038181548110610c0057fe5b6000918252602090912001546001600160a01b0385811691161415610c565760405162461bcd60e51b81526004018080602001828103825260358152602001806120a76035913960400191505060405180910390fd5b600101610beb565b50610c736001600160a01b0384168584611253565b6040516001600160a01b0385169083907fdf1b625465761dd1a4330a9b3a21d4943183f301036528a3544f8d891fdce2c290600090a3505060016000555050565b60006001600160a01b038216610cfb5760405162461bcd60e51b815260040180806020018281038252602d8152602001806120dc602d913960400191505060405180910390fd5b506001600160a01b03166000908152600c602052604090206003015490565b60026000541415610d60576040805162461bcd60e51b815260206004820152601f6024820152600080516020611fc8833981519152604482015290519081900360640190fd5b6002600055610968813360016115c5565b60075481565b60038181548110610d8457fe5b6000918252602090912001546001600160a01b0316905081565b60006001600160a01b038316610de55760405162461bcd60e51b81526004018080602001828103825260278152602001806121d96027913960400191505060405180910390fd5b6001600160a01b0383166000908152600c6020526040902060038101805484908110610e0d57fe5b90600052602060002001549150505b92915050565b6000610e2c61124f565b90506007548111610e3d5750610fc6565b60006006548210610e5057600654610e52565b815b600754909150810380610e6757505050610fc6565b600154610e78575060075550610fc6565b60035460005b81811015610fbe57600060038281548110610e9557fe5b600091825260209182902001546040805163313ce56760e01b815290516001600160a01b039092169263313ce56792600480840193829003018186803b158015610ede57600080fd5b505afa158015610ef2573d6000803e3d6000fd5b505050506040513d6020811015610f0857600080fd5b50516002805460ff9092169250600a83900a91600091610f469186908110610f2c57fe5b90600052602060002001548761192290919063ffffffff16565b90506000610f69600154610f63858561192290919063ffffffff16565b90611982565b9050610f958160088781548110610f7c57fe5b90600052602060002001546119e990919063ffffffff16565b60088681548110610fa257fe5b600091825260209091200155505060019092019150610e7e9050565b505050600755505b565b600080610fd361124f565b905060006006548210610fe857600654610fea565b815b9050600061100360075483611a4390919063ffffffff16565b905060006003868154811061101457fe5b600091825260209182902001546040805163313ce56760e01b815290516001600160a01b039092169263313ce56792600480840193829003018186803b15801561105d57600080fd5b505afa158015611071573d6000803e3d6000fd5b505050506040513d602081101561108757600080fd5b50516002805460ff9092169250600a83900a916000916110c5918a9081106110ab57fe5b90600052602060002001548561192290919063ffffffff16565b905060006110e2600154610f63858561192290919063ffffffff16565b905060006110f78260088c81548110610f7c57fe5b6001600160a01b038c166000908152600c60205260408120600181015492935091611128908790610f639086611922565b90506000611158836002018e8154811061113e57fe5b906000526020600020015483611a4390919063ffffffff16565b905061116d81846003018f81548110610f7c57fe5b9e9d5050505050505050505050505050565b600260005414156111c5576040805162461bcd60e51b815260206004820152601f6024820152600080516020611fc8833981519152604482015290519081900360640190fd5b60026000556109d033611aa0565b60006001600160a01b03831661121a5760405162461bcd60e51b81526004018080602001828103825260278152602001806120156027913960400191505060405180910390fd5b6001600160a01b0383166000908152600c6020526040902060028101805484908110610e0d57fe5b60088181548110610a3457fe5b4390565b604080516001600160a01b038416602482015260448082018490528251808303909101815260649091019091526020810180516001600160e01b031663a9059cbb60e01b1790526112a5908490611b16565b505050565b600082116112ff576040805162461bcd60e51b815260206004820152601b60248201527f57697468647261773a3a43616e6e6f7420776974686472617720300000000000604482015290519081900360640190fd5b6001600160a01b0381166000908152600c6020526040902061131f610e22565b61132882611cce565b60018101546113379084611a43565b6001808301919091555461134b9084611a43565b60015560035460005b8181101561144f5760006003828154811061136b57fe5b600091825260209182902001546040805163313ce56760e01b815290516001600160a01b039092169263313ce56792600480840193829003018186803b1580156113b457600080fd5b505afa1580156113c8573d6000803e3d6000fd5b505050506040513d60208110156113de57600080fd5b50516008805460ff9092169250600a83900a91600091611426918491610f63918890811061140857fe5b9060005260206000200154896001015461192290919063ffffffff16565b90508086600201858154811061143857fe5b600091825260209091200155505050600101611354565b50600454611467906001600160a01b03168486611253565b6040805185815290516001600160a01b038516917f7084f5476618d8e60b11ef0d7d3f06914655adb8793e28ff7f018d4c76d505d5919081900360200190a250505050565b6001600160a01b0381166000908152600c602052604090206114cc610e22565b6114d582611cce565b60035460005b818110156115bf5760008360030182815481106114f457fe5b90600052602060002001549050600084600301838154811061151257fe5b906000526020600020018190555061154e85826003858154811061153257fe5b6000918252602090912001546001600160a01b03169190611253565b846001600160a01b03167f7e6632ca16a0ac6cf28448500b1a17d96c8b8163ad4c4a9b44ef5386cc02779e826003858154811061158757fe5b60009182526020918290200154604080519384526001600160a01b03909116918301919091528051918290030190a2506001016114db565b50505050565b60006115cf61124f565b905060055481116116115760405162461bcd60e51b81526004018080602001828103825260228152602001806121966022913960400191505060405180910390fd5b600654811115611668576040805162461bcd60e51b815260206004820152601b60248201527f5374616b653a3a5374616b696e67206861732066696e69736865640000000000604482015290519081900360640190fd5b6001600160a01b0383166000908152600c60205260409020600a54600182015485928792909161169890846119e9565b11156116d55760405162461bcd60e51b815260040180806020018281038252602881526020018061213a6028913960400191505060405180910390fd5b600b546001546116e590846119e9565b11156117225760405162461bcd60e51b81526004018080602001828103825260318152602001806121096031913960400191505060405180910390fd5b6000871161176f576040805162461bcd60e51b815260206004820152601560248201527405374616b653a3a43616e6e6f74207374616b65203605c1b604482015290519081900360640190fd5b6001600160a01b0386166000908152600c6020526040902060018101546117995761179987611d2a565b6117a1610e22565b6117aa87611cce565b60018101546117b990896119e9565b600180830191909155546117cd90896119e9565b60015560035460005b818110156118b3576000600382815481106117ed57fe5b600091825260209182902001546040805163313ce56760e01b815290516001600160a01b039092169263313ce56792600480840193829003018186803b15801561183657600080fd5b505afa15801561184a573d6000803e3d6000fd5b505050506040513d602081101561186057600080fd5b50516008805460ff9092169250600a83900a9160009161188a918491610f63918890811061140857fe5b90508086600201858154811061189c57fe5b6000918252602090912001555050506001016117d6565b506118d8876118c257336118c4565b885b6004546001600160a01b031690308c611d4f565b604080518a815290516001600160a01b038a16917f9e71bc8eea02a63969f509818f2dafb9254532904319f9dbda79b67bd34a5f3d919081900360200190a2505050505050505050565b60008261193157506000610e1c565b8282028284828161193e57fe5b041461197b5760405162461bcd60e51b81526004018080602001828103825260218152602001806121b86021913960400191505060405180910390fd5b9392505050565b60008082116119d8576040805162461bcd60e51b815260206004820152601a60248201527f536166654d6174683a206469766973696f6e206279207a65726f000000000000604482015290519081900360640190fd5b8183816119e157fe5b049392505050565b60008282018381101561197b576040805162461bcd60e51b815260206004820152601b60248201527f536166654d6174683a206164646974696f6e206f766572666c6f770000000000604482015290519081900360640190fd5b600082821115611a9a576040805162461bcd60e51b815260206004820152601e60248201527f536166654d6174683a207375627472616374696f6e206f766572666c6f770000604482015290519081900360640190fd5b50900390565b6001600160a01b0381166000908152600c60205260409020611ac1826114ac565b611acf8160010154836112aa565b600181015460408051918252516001600160a01b038416917f920bb94eb3842a728db98228c375ff6b00c5bc5a54fac6736155517a0a20a61a919081900360200190a25050565b611b28826001600160a01b0316611da9565b611b79576040805162461bcd60e51b815260206004820152601f60248201527f5361666545524332303a2063616c6c20746f206e6f6e2d636f6e747261637400604482015290519081900360640190fd5b60006060836001600160a01b0316836040518082805190602001908083835b60208310611bb75780518252601f199092019160209182019101611b98565b6001836020036101000a0380198251168184511680821785525050505050509050019150506000604051808303816000865af19150503d8060008114611c19576040519150601f19603f3d011682016040523d82523d6000602084013e611c1e565b606091505b509150915081611c75576040805162461bcd60e51b815260206004820181905260248201527f5361666545524332303a206c6f772d6c6576656c2063616c6c206661696c6564604482015290519081900360640190fd5b8051156115bf57808060200190516020811015611c9157600080fd5b50516115bf5760405162461bcd60e51b815260040180806020018281038252602a815260200180612263602a913960400191505060405180910390fd5b6001600160a01b0381166000908152600c60205260409020611cef82611daf565b611cf882611e0f565b6001810154611d075750611d27565b60035460005b818110156115bf57611d1f8482611e6f565b600101611d0d565b50565b6001600160a01b0381166000908152600c60205260409020611d4a61124f565b905550565b604080516001600160a01b0380861660248301528416604482015260648082018490528251808303909101815260849091019091526020810180516001600160e01b03166323b872dd60e01b1790526115bf908590611b16565b3b151590565b6001600160a01b0381166000908152600c6020526040902060035460028201541415611ddb5750611d27565b60035460028201545b818110156115bf57600283018054600181810183556000928352602083209091019190915501611de4565b6001600160a01b0381166000908152600c6020526040902060038054908201541415611e3b5750611d27565b60038054908201545b818110156115bf57600383018054600181810183556000928352602083209091019190915501611e44565b6001600160a01b0382166000908152600c602052604081206003805491929184908110611e9857fe5b600091825260209182902001546040805163313ce56760e01b815290516001600160a01b039092169263313ce56792600480840193829003018186803b158015611ee157600080fd5b505afa158015611ef5573d6000803e3d6000fd5b505050506040513d6020811015611f0b57600080fd5b50516008805460ff9092169250600a83900a91600091611f53918491610f639189908110611f3557fe5b9060005260206000200154876001015461192290919063ffffffff16565b90506000611f6985600201878154811061113e57fe5b90508015611fbe57611f8481866003018881548110610f7c57fe5b856003018781548110611f9357fe5b906000526020600020018190555081856002018781548110611fb157fe5b6000918252602090912001555b5050505050505056fe5265656e7472616e637947756172643a207265656e7472616e742063616c6c0047657455736572526577617264446562744c656e6774683a3a496e76616c69642075736572206164647265737347657455736572526577617264446562743a3a496e76616c696420757365722061646472657373457874656e643a3a456e6420626c6f636b206d757374206265206166746572207468652063757272656e7420656e6420626c6f636b57697468647261774c50526577617264733a3a2063616e6e6f742077697468647261772066726f6d20746865204c5020746f6b656e7357697468647261774c50526577617264733a3a43616e6e6f742077697468647261772066726f6d20746f6b656e207265776172647347657455736572546f6b656e734f7765644c656e6774683a3a496e76616c6964207573657220616464726573736f6e6c79556e6465725374616b654c696d69743a3a436f6e7472616374205374616b65206c696d697420726561636865646f6e6c79556e6465725374616b654c696d69743a3a5374616b65206c696d69742072656163686564457874656e643a3a5265776172647320616d6f756e7473206c656e677468206973206c657373207468616e2065787065637465645374616b653a3a5374616b696e6720686173206e6f74207965742073746172746564536166654d6174683a206d756c7469706c69636174696f6e206f766572666c6f77476574557365724f776564546f6b656e733a3a496e76616c69642075736572206164647265737357697468647261774c50526577617264733a3a546865726520617265206e6f20726577617264732066726f6d206c697175696469747920706f6f6c73457874656e643a3a456e6420626c6f636b206d75737420626520696e20746865206675747572655361666545524332303a204552433230206f7065726174696f6e20646964206e6f74207375636365656443616c6c6572206973206e6f742052657761726473506f6f6c466163746f727920636f6e7472616374a26469706673582212200a1a67bec8363e85bf50f128a1b5efa0d13bff01d397369a8a2d062d971bf14b64736f6c634300060c0033436f6e7374727563746f723a3a5374616b65206c696d6974206e6565647320746f206265206d6f7265207468616e2030436f6e7374727563746f723a3a54686520656e6420626c6f636b206d75737420626520696e20746865206675747572652e436f6e7374727563746f723a3a526577617264732070657220626c6f636b20616e64207265776172647320746f6b656e73206d7573742062652077697468207468652073616d65206c656e6774682e436f6e7374727563746f723a3a20436f6e7472616374205374616b65206c696d6974206e6565647320746f206265206d6f7265207468616e2030436f6e7374727563746f723a3a546865207374617274696e6720626c6f636b206d75737420626520696e20746865206675747572652e",
  "source": "// SPDX-License-Identifier: MIT\n\npragma solidity 0.6.12;\n\nimport \"openzeppelin-solidity/contracts/math/Math.sol\";\nimport \"openzeppelin-solidity/contracts/math/SafeMath.sol\";\nimport \"openzeppelin-solidity/contracts/utils/ReentrancyGuard.sol\";\nimport \"./interfaces/IERC20Detailed.sol\";\nimport \"./SafeERC20Detailed.sol\";\n\ncontract RewardsPoolBase is ReentrancyGuard {\n\tusing SafeMath for uint256;\n\tusing SafeERC20Detailed for IERC20Detailed;\n\n\tuint256 public totalStaked;\n\tuint256[] public rewardPerBlock;\n\taddress[] public rewardsTokens;\n\tIERC20Detailed public stakingToken;\n\tuint256 public startBlock;\n\tuint256 public endBlock;\n\tuint256 public lastRewardBlock;\n\tuint256[] public accumulatedRewardMultiplier;\n\taddress public rewardsPoolFactory;\n\tuint256 public stakeLimit;\n\tuint256 public contractStakeLimit;\n\n\tstruct UserInfo {\n\t\tuint256 firstStakedBlockNumber;\n\t\tuint256 amountStaked; // How many tokens the user has staked.\n\t\tuint256[] rewardDebt; //\n\t\tuint256[] tokensOwed; // How many tokens the contract owes to the user.\n\t}\n\n\tmapping(address => UserInfo) public userInfo;\n\n\tevent Staked(address indexed user, uint256 amount);\n\tevent Claimed(address indexed user, uint256 amount, address token);\n\tevent Withdrawn(address indexed user, uint256 amount);\n\tevent Exited(address indexed user, uint256 amount);\n\tevent Extended(uint256 newEndBlock, uint256[] newRewardsPerBlock);\n\tevent WithdrawLPRewards(uint256 indexed rewardsAmount, address indexed recipient);\n\n\tconstructor(\n\t\tIERC20Detailed _stakingToken,\n\t\tuint256 _startBlock,\n\t\tuint256 _endBlock,\n\t\taddress[] memory _rewardsTokens,\n\t\tuint256[] memory _rewardPerBlock,\n\t\tuint256 _stakeLimit,\n\t\tuint256 _contractStakeLimit\n\t) public {\n\t\trequire(\n\t\t\t_startBlock > _getBlock(),\n\t\t\t\"Constructor::The starting block must be in the future.\"\n\t\t);\n\t\trequire(\n\t\t\t_endBlock > _getBlock(),\n\t\t\t\"Constructor::The end block must be in the future.\"\n\t\t);\n\t\trequire(\n\t\t\t_rewardPerBlock.length == _rewardsTokens.length,\n\t\t\t\"Constructor::Rewards per block and rewards tokens must be with the same length.\"\n\t\t);\n\t\trequire(_stakeLimit != 0, \"Constructor::Stake limit needs to be more than 0\");\n\t\trequire(_contractStakeLimit != 0, \"Constructor:: Contract Stake limit needs to be more than 0\");\n\n\t\tstakingToken = _stakingToken;\n\t\trewardPerBlock = _rewardPerBlock;\n\t\tstartBlock = _startBlock;\n\t\tendBlock = _endBlock;\n\t\trewardsTokens = _rewardsTokens;\n\t\tlastRewardBlock = startBlock;\n\t\trewardsPoolFactory = msg.sender;\n\t\tstakeLimit = _stakeLimit;\n\t\tcontractStakeLimit = _contractStakeLimit;\n\t\tfor (uint256 i = 0; i < rewardsTokens.length; i++) {\n\t\t\taccumulatedRewardMultiplier.push(0);\n\t\t}\n\t}\n\n\tmodifier onlyInsideBlockBounds() {\n\t\tuint256 currentBlock = _getBlock();\n\t\trequire(\n\t\t\tcurrentBlock > startBlock,\n\t\t\t\"Stake::Staking has not yet started\"\n\t\t);\n\t\trequire(currentBlock <= endBlock, \"Stake::Staking has finished\");\n\t\t_;\n\t}\n\n\tmodifier onlyFactory() {\n\t\trequire(\n\t\t\tmsg.sender == rewardsPoolFactory,\n\t\t\t\"Caller is not RewardsPoolFactory contract\"\n\t\t);\n\t\t_;\n\t}\n\n\tmodifier onlyUnderStakeLimit(address staker, uint256 newStake) {\n\t\tUserInfo storage user = userInfo[staker];\n\t\trequire(user.amountStaked.add(newStake) <= stakeLimit, \"onlyUnderStakeLimit::Stake limit reached\");\n\t\trequire(totalStaked.add(newStake) <= contractStakeLimit, \"onlyUnderStakeLimit::Contract Stake limit reached\");\n\t\t_;\n\t}\n\n\t/** @dev Providing LP tokens to stake, update rewards.\n\t * @param _tokenAmount The amount to be staked\n\t */\n\tfunction stake(uint256 _tokenAmount) virtual public nonReentrant {\n\t\t_stake(_tokenAmount, msg.sender, true);\n\t}\n\n\t/** @dev Providing LP tokens to stake, update rewards.\n\t * @param _tokenAmount The amount to be staked\n\t * @param staker The staker to be associated with the stake\n\t * @param chargeStaker Whether to draw from the staker or from the msg.sender\n\t */\n\tfunction _stake(uint256 _tokenAmount, address staker, bool chargeStaker)\n\t\tinternal\n\t\tonlyInsideBlockBounds\n\t\tonlyUnderStakeLimit(staker, _tokenAmount)\n\t{\n\t\trequire(_tokenAmount > 0, \"Stake::Cannot stake 0\");\n\n\t\tUserInfo storage user = userInfo[staker];\n\n\t\t// if no amount has been staked this is considered the initial stake\n\t\tif (user.amountStaked == 0) {\n\t\t\tonInitialStake(staker);\n\t\t}\n\n\t\tupdateRewardMultipliers(); // Update the accumulated multipliers for everyone\n\t\tupdateUserAccruedReward(staker); // Update the accrued reward for this specific user\n\n\t\tuser.amountStaked = user.amountStaked.add(_tokenAmount);\n\t\ttotalStaked = totalStaked.add(_tokenAmount);\n\n\t\tuint256 rewardsTokensLength = rewardsTokens.length;\n\n\t\tfor (uint256 i = 0; i < rewardsTokensLength; i++) {\n\t\t\tuint256 tokenDecimals = IERC20Detailed(rewardsTokens[i]).decimals();\n\t\t\tuint256 tokenMultiplier = 10**tokenDecimals;\n\n\t\t\tuint256 totalDebt =\n\t\t\t\tuser.amountStaked.mul(accumulatedRewardMultiplier[i]).div(tokenMultiplier); // Update user reward debt for each token\n\t\t\tuser.rewardDebt[i] = totalDebt;\n\t\t}\n\n\t\tstakingToken.safeTransferFrom(\n\t\t\taddress(chargeStaker ? staker : msg.sender),\n\t\t\taddress(this),\n\t\t\t_tokenAmount\n\t\t);\n\t\t\n\t\temit Staked(staker, _tokenAmount);\n\t}\n\n\t/** @dev Claiming accrued rewards.\n\t */\n\tfunction claim() public virtual nonReentrant {\n\t\t_claim(msg.sender);\n\t}\n\n\tfunction _claim(address claimer) internal {\n\t\tUserInfo storage user = userInfo[claimer];\n\t\tupdateRewardMultipliers();\n\t\tupdateUserAccruedReward(claimer);\n\n\t\tuint256 rewardsTokensLength = rewardsTokens.length;\n\n\t\tfor (uint256 i = 0; i < rewardsTokensLength; i++) {\n\t\t\tuint256 reward = user.tokensOwed[i];\n\t\t\tuser.tokensOwed[i] = 0;\n\t\t\tIERC20Detailed(rewardsTokens[i]).safeTransfer(claimer, reward);\n\n\t\t\temit Claimed(claimer, reward, rewardsTokens[i]);\n\t\t}\n\t}\n\n\t/** @dev Withdrawing portion of staked tokens.\n\t * @param _tokenAmount The amount to be withdrawn\n\t */\n\tfunction withdraw(uint256 _tokenAmount) public virtual nonReentrant {\n\t\t_withdraw(_tokenAmount, msg.sender);\n\t}\n\n\tfunction _withdraw(uint256 _tokenAmount, address withdrawer) internal {\n\t\trequire(_tokenAmount > 0, \"Withdraw::Cannot withdraw 0\");\n\n\t\tUserInfo storage user = userInfo[withdrawer];\n\n\t\tupdateRewardMultipliers(); // Update the accumulated multipliers for everyone\n\t\tupdateUserAccruedReward(withdrawer); // Update the accrued reward for this specific user\n\n\t\tuser.amountStaked = user.amountStaked.sub(_tokenAmount);\n\t\ttotalStaked = totalStaked.sub(_tokenAmount);\n\n\t\tuint256 rewardsTokensLength = rewardsTokens.length;\n\n\t\tfor (uint256 i = 0; i < rewardsTokensLength; i++) {\n\t\t\tuint256 tokenDecimals = IERC20Detailed(rewardsTokens[i]).decimals();\n\t\t\tuint256 tokenMultiplier = 10**tokenDecimals;\n\t\t\tuint256 totalDebt =\n\t\t\t\tuser.amountStaked.mul(accumulatedRewardMultiplier[i]).div(tokenMultiplier); // Update user reward debt for each token\n\t\t\tuser.rewardDebt[i] = totalDebt;\n\t\t}\n\n\t\tstakingToken.safeTransfer(address(withdrawer), _tokenAmount);\n\n\t\temit Withdrawn(withdrawer, _tokenAmount);\n\t}\n\n\t/** @dev Claiming all rewards and withdrawing all staked tokens. Exits from the rewards pool\n\t */\n\tfunction exit() virtual public nonReentrant {\n\t\t_exit(msg.sender);\n\t}\n\n\tfunction _exit(address exiter) internal {\n\t\tUserInfo storage user = userInfo[exiter];\n\t\t_claim(exiter);\n\t\t_withdraw(user.amountStaked, exiter);\n\n\t\temit Exited(exiter, user.amountStaked);\n\t}\n\n\t/** @dev Returns the amount of tokens the user has staked\n\t */\n\tfunction balanceOf(address _userAddress) public view returns(uint256) {\n\t\tUserInfo storage user = userInfo[_userAddress];\n\t\treturn user.amountStaked;\n\t}\n\n\t/**\n\t\t@dev Execute logic on initial stake of the user.\n\t\tCould be overriden if needed by the later contracts.\n\t\t@param _userAddress the address of the user\n\t */\n\tfunction onInitialStake(address _userAddress) internal {\n\t\tUserInfo storage user = userInfo[_userAddress];\n\t\tuser.firstStakedBlockNumber = _getBlock();\n\t}\n\n\t/**\n\t\t@dev updates the accumulated reward multipliers for everyone and each token\n\t */\n\tfunction updateRewardMultipliers() public {\n\t\tuint256 currentBlock = _getBlock();\n\n\t\tif (currentBlock <= lastRewardBlock) {\n\t\t\treturn;\n\t\t}\n\n\t\tuint256 applicableBlock = (currentBlock < endBlock) ? currentBlock : endBlock;\n\n\t\tuint256 blocksSinceLastReward = applicableBlock - lastRewardBlock;\n\n\t\tif(blocksSinceLastReward == 0) { // Nothing to update\n\t\t\treturn;\n\t\t}\n\n\t\tif (totalStaked == 0) {\n\t\t\tlastRewardBlock = applicableBlock;\n\t\t\treturn;\n\t\t}\n\n\t\tuint256 rewardsTokensLength = rewardsTokens.length;\n\n\t\tfor (uint256 i = 0; i < rewardsTokensLength; i++) {\n\t\t\tuint256 tokenDecimals = IERC20Detailed(rewardsTokens[i]).decimals();\n\t\t\tuint256 tokenMultiplier = 10**tokenDecimals;\n\n\t\t\tuint256 newReward = blocksSinceLastReward.mul(rewardPerBlock[i]); // Get newly accumulated reward\n\t\t\tuint256 rewardMultiplierIncrease =\n\t\t\t\tnewReward.mul(tokenMultiplier).div(totalStaked); // Calculate the multiplier increase\n\t\t\taccumulatedRewardMultiplier[i] = accumulatedRewardMultiplier[i].add(\n\t\t\t\trewardMultiplierIncrease\n\t\t\t); // Add the multiplier increase to the accumulated multiplier\n\t\t}\n\t\tlastRewardBlock = applicableBlock;\n\t}\n\n\t/**\n\t\t@dev updates the accumulated reward for the user with the _userAddress address\n\t\t@param _userAddress the address of the updated user\n\t */\n\tfunction updateUserAccruedReward(address _userAddress) internal {\n\t\tUserInfo storage user = userInfo[_userAddress];\n\n\t\tinitialiseUserRewardDebt(_userAddress);\n\t\tinitialiseUserTokensOwed(_userAddress);\n\n\t\tif (user.amountStaked == 0) {\n\t\t\treturn;\n\t\t}\n\n\t\tuint256 rewardsTokensLength = rewardsTokens.length; \n\n\t\tfor (\n\t\t\tuint256 tokenIndex = 0;\n\t\t\ttokenIndex < rewardsTokensLength;\n\t\t\ttokenIndex++\n\t\t) {\n\t\t\tupdateUserRewardForToken(_userAddress, tokenIndex);\n\t\t}\n\t}\n\n\t/**\n\t\t@dev initialises the tokensOwed array for the user\n\t\t@param _userAddress the address of the user\n\t */\n\tfunction initialiseUserTokensOwed(address _userAddress) internal {\n\t\tUserInfo storage user = userInfo[_userAddress];\n\n\t\tif (user.tokensOwed.length == rewardsTokens.length) {\n\t\t\t// Already initialised\n\t\t\treturn;\n\t\t}\n\n\t\tuint256 rewardsTokensLength = rewardsTokens.length; \n\n\t\tfor (\n\t\t\tuint256 i = user.tokensOwed.length;\n\t\t\ti < rewardsTokensLength;\n\t\t\ti++\n\t\t) {\n\t\t\tuser.tokensOwed.push(0);\n\t\t}\n\t}\n\n\t/**\n\t\t@dev initialises the rewardDebt array for the user\n\t\t@param _userAddress the address of the user\n\t */\n\tfunction initialiseUserRewardDebt(address _userAddress) internal {\n\t\tUserInfo storage user = userInfo[_userAddress];\n\n\t\tif (user.rewardDebt.length == rewardsTokens.length) {\n\t\t\t// Allready initialised\n\t\t\treturn;\n\t\t}\n\n\t\tuint256 rewardsTokensLength = rewardsTokens.length; \n\n\t\tfor (\n\t\t\tuint256 i = user.rewardDebt.length;\n\t\t\ti < rewardsTokensLength;\n\t\t\ti++\n\t\t) {\n\t\t\tuser.rewardDebt.push(0);\n\t\t}\n\t}\n\n\t/**\n\t\t@dev calculates and updates the current user rewardDebt. Accrues accumulated reward.\n\t\t@param _userAddress the address of the user\n\t */\n\tfunction updateUserRewardForToken(address _userAddress, uint256 tokenIndex)\n\t\tinternal\n\t{\n\t\tUserInfo storage user = userInfo[_userAddress];\n\t\tuint256 tokenDecimals = IERC20Detailed(rewardsTokens[tokenIndex]).decimals();\n\t\tuint256 tokenMultiplier = 10**tokenDecimals;\n\n\t\tuint256 totalDebt =\n\t\t\tuser.amountStaked.mul(accumulatedRewardMultiplier[tokenIndex]).div(\n\t\t\t\ttokenMultiplier\n\t\t\t);\n\t\tuint256 pendingDebt = totalDebt.sub(user.rewardDebt[tokenIndex]);\n\t\tif (pendingDebt > 0) {\n\t\t\tuser.tokensOwed[tokenIndex] = user.tokensOwed[tokenIndex].add(\n\t\t\t\tpendingDebt\n\t\t\t);\n\t\t\tuser.rewardDebt[tokenIndex] = totalDebt;\n\t\t}\n\t}\n\n\tfunction _getBlock() internal view virtual returns (uint256) {\n\t\treturn block.number;\n\t}\n\n\tfunction hasStakingStarted() public view returns (bool) {\n\t\treturn (_getBlock() >= startBlock);\n\t}\n\n\tfunction getUserRewardDebt(address _userAddress, uint256 _index)\n\t\texternal\n\t\tview\n\t\treturns (uint256)\n\t{\n\t\trequire(\n\t\t\t_userAddress != address(0),\n\t\t\t\"GetUserRewardDebt::Invalid user address\"\n\t\t);\n\t\tUserInfo storage user = userInfo[_userAddress];\n\t\treturn user.rewardDebt[_index];\n\t}\n\n\tfunction getUserOwedTokens(address _userAddress, uint256 _index)\n\t\texternal\n\t\tview\n\t\treturns (uint256)\n\t{\n\t\trequire(\n\t\t\t_userAddress != address(0),\n\t\t\t\"GetUserOwedTokens::Invalid user address\"\n\t\t);\n\t\tUserInfo storage user = userInfo[_userAddress];\n\t\treturn user.tokensOwed[_index];\n\t}\n\n\t/**\n\t\t@dev Simulate all conditions in order to calculate the calculated reward at the moment\n\t\t@param _userAddress the address of the user\n\t\t@param tokenIndex the index of the reward token you are interested\n\t */\n\tfunction getUserAccumulatedReward(address _userAddress, uint256 tokenIndex)\n\t\tpublic\n\t\tview\n\t\treturns (uint256)\n\t{\t\n\n\t\tuint256 currentBlock = _getBlock();\n\t\tuint256 applicableBlock = (currentBlock < endBlock) ? currentBlock : endBlock;\n\n\t\tuint256 blocksSinceLastReward = applicableBlock.sub(lastRewardBlock);\n\n\t\tuint256 tokenDecimals = IERC20Detailed(rewardsTokens[tokenIndex]).decimals();\n\t\tuint256 tokenMultiplier = 10**tokenDecimals;\n\n\t\tuint256 newReward =\n\t\t\tblocksSinceLastReward.mul(rewardPerBlock[tokenIndex]); // Get newly accumulated reward\n\t\tuint256 rewardMultiplierIncrease = newReward.mul(tokenMultiplier).div(totalStaked); // Calculate the multiplier increase\n\t\tuint256 currentMultiplier =\n\t\t\taccumulatedRewardMultiplier[tokenIndex].add(\n\t\t\t\trewardMultiplierIncrease\n\t\t\t); // Simulate the multiplier increase to the accumulated multiplier\n\n\t\tUserInfo storage user = userInfo[_userAddress];\n\n\t\tuint256 totalDebt = user.amountStaked.mul(currentMultiplier).div(tokenMultiplier); // Simulate the current debt\n\t\tuint256 pendingDebt = totalDebt.sub(user.rewardDebt[tokenIndex]); // Simulate the pending debt\n\t\treturn user.tokensOwed[tokenIndex].add(pendingDebt);\n\t}\n\n\tfunction getUserTokensOwedLength(address _userAddress)\n\t\texternal\n\t\tview\n\t\treturns (uint256)\n\t{\n\t\trequire(\n\t\t\t_userAddress != address(0),\n\t\t\t\"GetUserTokensOwedLength::Invalid user address\"\n\t\t);\n\t\tUserInfo storage user = userInfo[_userAddress];\n\t\treturn user.tokensOwed.length;\n\t}\n\n\tfunction getUserRewardDebtLength(address _userAddress)\n\t\texternal\n\t\tview\n\t\treturns (uint256)\n\t{\n\t\trequire(\n\t\t\t_userAddress != address(0),\n\t\t\t\"GetUserRewardDebtLength::Invalid user address\"\n\t\t);\n\t\tUserInfo storage user = userInfo[_userAddress];\n\t\treturn user.rewardDebt.length;\n\t}\n\n\t/**\n\t\t@dev Extends the rewards period and updates the rates\n\t\t@param _endBlock  new end block for the rewards\n\t\t@param _rewardsPerBlock array with new rewards per block for each token \n\t */\n\tfunction extend(uint256 _endBlock, uint256[] memory _rewardsPerBlock, uint256[] memory _currentRemainingRewards, uint256[] memory _newRemainingRewards)\n\t\texternal\n\t\tvirtual\n\t\tonlyFactory\n\t{\n\t\trequire(\n\t\t\t_endBlock > _getBlock(),\n\t\t\t\"Extend::End block must be in the future\"\n\t\t);\n\t\trequire(\n\t\t\t_endBlock >= endBlock,\n\t\t\t\"Extend::End block must be after the current end block\"\n\t\t);\n\t\trequire(\n\t\t\t_rewardsPerBlock.length == rewardsTokens.length,\n\t\t\t\"Extend::Rewards amounts length is less than expected\"\n\t\t);\n\t\tupdateRewardMultipliers();\n\n\t\tfor (uint256 i = 0; i < _rewardsPerBlock.length; i++) {\n\n\t\t\taddress rewardsToken = rewardsTokens[i];\n\n\t\t\tif (_currentRemainingRewards[i] > _newRemainingRewards[i]) {\n\t\t\t\t// Some reward leftover needs to be returned\n\t\t\t\tIERC20Detailed(rewardsToken).safeTransfer(\n\t\t\t\t\tmsg.sender,\n\t\t\t\t\t(_currentRemainingRewards[i] - _newRemainingRewards[i])\n\t\t\t\t);\n\t\t\t}\n\n\t\t\trewardPerBlock[i] = _rewardsPerBlock[i];\n\t\t}\n\n\t\tendBlock = _endBlock;\n\n\t\temit Extended(_endBlock, _rewardsPerBlock);\n\t}\n\n\t/** @dev Withdrawing rewards acumulated from different pools for providing liquidity\n\t * @param recipient The address to whom the rewards will be trasferred\n\t * @param lpTokenContract The address of the rewards contract\n\t */\n\tfunction withdrawLPRewards(address recipient, address lpTokenContract)\n\t\texternal\n\t\tnonReentrant\n\t\tonlyFactory\n\t{\n\t\tuint256 currentReward =\n\t\t\tIERC20Detailed(lpTokenContract).balanceOf(address(this));\n\t\trequire(\n\t\t\tcurrentReward > 0,\n\t\t\t\"WithdrawLPRewards::There are no rewards from liquidity pools\"\n\t\t);\n\n\t\trequire(lpTokenContract != address(stakingToken), \"WithdrawLPRewards:: cannot withdraw from the LP tokens\");\n\n\t\tuint256 rewardsTokensLength = rewardsTokens.length; \n\n\t\tfor (uint256 i = 0; i < rewardsTokensLength; i++) {\n\t\t\trequire(\n\t\t\t\tlpTokenContract != rewardsTokens[i],\n\t\t\t\t\"WithdrawLPRewards::Cannot withdraw from token rewards\"\n\t\t\t);\n\t\t}\n\t\tIERC20Detailed(lpTokenContract).safeTransfer(recipient, currentReward);\n\t\temit WithdrawLPRewards(currentReward, recipient);\n\t}\n\n\t/** @dev Helper function to calculate how much tokens should be transffered to a rewards pool.\n\t */\n\tfunction calculateRewardsAmount(\n\t\tuint256 _startBlock,\n\t\tuint256 _endBlock,\n\t\tuint256 _rewardPerBlock\n\t) internal pure returns (uint256) {\n\t\trequire(\n\t\t\t_rewardPerBlock > 0,\n\t\t\t\"RewardsPoolBase::calculateRewardsAmount: Rewards per block must be greater than zero\"\n\t\t);\n\n\t\tuint256 rewardsPeriod = _endBlock.sub(_startBlock);\n\n\t\treturn _rewardPerBlock.mul(rewardsPeriod);\n\t}\n\n\t/** @dev Helper function to get the reward tokens count.\n\t */\n\tfunction getRewardTokensCount() public view returns (uint256) {\n\t\treturn rewardsTokens.length;\n\t}\n}\n",
  "sourcePath": "/Users/martindobrev/Code/custom-token/contracts/RewardsPoolBase.sol",
  "compiler": {
    "name": "solc",
    "version": "0.6.12+commit.27d51765.Emscripten.clang",
    "optimizer": true,
    "runs": 200
  },
  "schemaVersion": "2.3.5",
  "updatedAt": "2022-02-16T15:12:31.158Z"
}