{
  "contractName": "StakingRewardsFactory",
  "abi": [
    {
      "inputs": [
        {
          "internalType": "uint256",
          "name": "_stakingRewardsGenesis",
          "type": "uint256"
        }
      ],
      "stateMutability": "nonpayable",
      "type": "constructor"
    },
    {
      "anonymous": false,
      "inputs": [
        {
          "indexed": true,
          "internalType": "address",
          "name": "previousOwner",
          "type": "address"
        },
        {
          "indexed": true,
          "internalType": "address",
          "name": "newOwner",
          "type": "address"
        }
      ],
      "name": "OwnershipTransferred",
      "type": "event"
    },
    {
      "inputs": [],
      "name": "owner",
      "outputs": [
        {
          "internalType": "address",
          "name": "",
          "type": "address"
        }
      ],
      "stateMutability": "view",
      "type": "function"
    },
    {
      "inputs": [],
      "name": "renounceOwnership",
      "outputs": [],
      "stateMutability": "nonpayable",
      "type": "function"
    },
    {
      "inputs": [
        {
          "internalType": "address",
          "name": "",
          "type": "address"
        }
      ],
      "name": "stakingRewardsByStakingToken",
      "outputs": [
        {
          "internalType": "address",
          "name": "",
          "type": "address"
        }
      ],
      "stateMutability": "view",
      "type": "function"
    },
    {
      "inputs": [],
      "name": "stakingRewardsGenesis",
      "outputs": [
        {
          "internalType": "uint256",
          "name": "",
          "type": "uint256"
        }
      ],
      "stateMutability": "view",
      "type": "function"
    },
    {
      "inputs": [
        {
          "internalType": "uint256",
          "name": "",
          "type": "uint256"
        }
      ],
      "name": "stakingTokens",
      "outputs": [
        {
          "internalType": "address",
          "name": "",
          "type": "address"
        }
      ],
      "stateMutability": "view",
      "type": "function"
    },
    {
      "inputs": [
        {
          "internalType": "address",
          "name": "newOwner",
          "type": "address"
        }
      ],
      "name": "transferOwnership",
      "outputs": [],
      "stateMutability": "nonpayable",
      "type": "function"
    },
    {
      "inputs": [
        {
          "internalType": "address",
          "name": "_stakingToken",
          "type": "address"
        },
        {
          "internalType": "address[]",
          "name": "_rewardsTokens",
          "type": "address[]"
        },
        {
          "internalType": "uint256[]",
          "name": "_rewardsAmounts",
          "type": "uint256[]"
        },
        {
          "internalType": "uint256",
          "name": "_rewardsDuration",
          "type": "uint256"
        }
      ],
      "name": "deploy",
      "outputs": [],
      "stateMutability": "nonpayable",
      "type": "function"
    },
    {
      "inputs": [
        {
          "internalType": "address",
          "name": "stakingToken",
          "type": "address"
        },
        {
          "internalType": "address",
          "name": "extendRewardToken",
          "type": "address"
        },
        {
          "internalType": "uint256",
          "name": "extendRewardAmount",
          "type": "uint256"
        }
      ],
      "name": "extendRewardPeriod",
      "outputs": [],
      "stateMutability": "nonpayable",
      "type": "function"
    },
    {
      "inputs": [],
      "name": "startStakings",
      "outputs": [],
      "stateMutability": "nonpayable",
      "type": "function"
    },
    {
      "inputs": [
        {
          "internalType": "address",
          "name": "stakingRewards",
          "type": "address"
        }
      ],
      "name": "hasStakingStarted",
      "outputs": [
        {
          "internalType": "bool",
          "name": "",
          "type": "bool"
        }
      ],
      "stateMutability": "view",
      "type": "function"
    },
    {
      "inputs": [
        {
          "internalType": "address",
          "name": "stakingToken",
          "type": "address"
        }
      ],
      "name": "startStaking",
      "outputs": [],
      "stateMutability": "nonpayable",
      "type": "function"
    },
    {
      "inputs": [
        {
          "internalType": "address",
          "name": "stakingToken",
          "type": "address"
        },
        {
          "internalType": "address",
          "name": "recipient",
          "type": "address"
        },
        {
          "internalType": "address",
          "name": "lpTokenContract",
          "type": "address"
        }
      ],
      "name": "withdrawLPRewards",
      "outputs": [],
      "stateMutability": "nonpayable",
      "type": "function"
    }
  ],
  "bytecode": "0x608060405234801561001057600080fd5b506040516138943803806138948339818101604052602081101561003357600080fd5b5051600061003f6100d0565b600080546001600160a01b0319166001600160a01b0383169081178255604051929350917f8be0079c531659141344cd1fd0a4f28419497f9722a3daafe3b4186f6b6457e0908290a350428110156100c85760405162461bcd60e51b81526004018080602001828103825260348152602001806138606034913960400191505060405180910390fd5b6001556100d4565b3390565b61377d806100e36000396000f3fe60806040523480156200001157600080fd5b5060043610620000c45760003560e01c806384d938f2116200007b57806384d938f2146200026e5780638b21d95114620002a75780638da5cb5b14620002d0578063a0928c1114620002da578063aaf5a58f14620002f6578063f2fde38b146200031f57620000c4565b8063074115ad14620000c95780631ac6244914620001a657806325ca128714620001e35780632bb4e26914620001ed578063344e5e341462000228578063715018a61462000264575b600080fd5b620001a460048036036080811015620000e157600080fd5b6001600160a01b0382351691908101906040810160208201356401000000008111156200010d57600080fd5b8201836020820111156200012057600080fd5b803590602001918460208302840111640100000000831117156200014357600080fd5b9193909290916020810190356401000000008111156200016257600080fd5b8201836020820111156200017557600080fd5b803590602001918460208302840111640100000000831117156200019857600080fd5b91935091503562000348565b005b620001cf60048036036020811015620001be57600080fd5b50356001600160a01b0316620006b5565b604080519115158252519081900360200190f35b620001a462000725565b620001a4600480360360608110156200020557600080fd5b506001600160a01b038135811691602081013582169160409091013516620007ac565b62000248600480360360208110156200024057600080fd5b5035620008e1565b604080516001600160a01b039092168252519081900360200190f35b620001a462000909565b620001a4600480360360608110156200028657600080fd5b506001600160a01b03813581169160208101359091169060400135620009bb565b620001a460048036036020811015620002bf57600080fd5b50356001600160a01b031662000c2e565b6200024862000fa3565b620002e462000fb2565b60408051918252519081900360200190f35b62000248600480360360208110156200030e57600080fd5b50356001600160a01b031662000fb8565b620001a4600480360360208110156200033757600080fd5b50356001600160a01b031662000fd3565b62000352620010dd565b6001600160a01b03166200036562000fa3565b6001600160a01b031614620003b0576040805162461bcd60e51b815260206004820181905260248201526000805160206200359b833981519152604482015290519081900360640190fd5b6001600160a01b038681166000908152600360205260409020541615620004095760405162461bcd60e51b815260040180806020018281038252602f8152602001806200352d602f913960400191505060405180910390fd5b80620004475760405162461bcd60e51b81526004018080602001828103825260468152602001806200343a6046913960600191505060405180910390fd5b83620004855760405162461bcd60e51b8152600401808060200182810382526059815260200180620032f76059913960600191505060405180910390fd5b838214620004c55760405162461bcd60e51b815260040180806020018281038252605c8152602001806200366d605c913960600191505060405180910390fd5b60005b8481101562000596576000868683818110620004e057fe5b905060200201356001600160a01b03166001600160a01b03161415620005385760405162461bcd60e51b8152600401808060200182810382526048815260200180620037006048913960600191505060405180910390fd5b8383828181106200054557fe5b90506020020135600014156200058d5760405162461bcd60e51b815260040180806020018281038252603f815260200180620033fb603f913960400191505060405180910390fd5b600101620004c8565b50848484848985604051620005ab90620013d1565b808060200180602001856001600160a01b031681526020018481526020018381038352898982818152602001925060200280828437600083820152601f01601f191690910184810383528781526020908101915088908802808284376000838201819052604051601f909201601f19169093018190039b50995090975050505050505050f08015801562000643573d6000803e3d6000fd5b506001600160a01b0396871660008181526003602052604081208054939099166001600160a01b0319938416179098556002805460018101825598527f405787fa12a823e0f2b7631cc41b3ba8828b3321ca811111fa75cd3aa3bb5ace90970180549091169096179095555050505050565b6000816001600160a01b0316633c7df6496040518163ffffffff1660e01b815260040160206040518083038186803b158015620006f157600080fd5b505afa15801562000706573d6000803e3d6000fd5b505050506040513d60208110156200071d57600080fd5b505192915050565b600254620007655760405162461bcd60e51b815260040180806020018281038252603f8152602001806200355c603f913960400191505060405180910390fd5b60005b600254811015620007a957620007a0600282815481106200078557fe5b6000918252602090912001546001600160a01b031662000c2e565b60010162000768565b50565b620007b6620010dd565b6001600160a01b0316620007c962000fa3565b6001600160a01b03161462000814576040805162461bcd60e51b815260206004820181905260248201526000805160206200359b833981519152604482015290519081900360640190fd5b6001600160a01b0380841660009081526003602052604090205416806200086d5760405162461bcd60e51b8152600401808060200182810382526031815260200180620033926031913960400191505060405180910390fd5b6040805163a1002a0f60e01b81526001600160a01b03858116600483015284811660248301529151839283169163a1002a0f91604480830192600092919082900301818387803b158015620008c157600080fd5b505af1158015620008d6573d6000803e3d6000fd5b505050505050505050565b60028181548110620008ef57fe5b6000918252602090912001546001600160a01b0316905081565b62000913620010dd565b6001600160a01b03166200092662000fa3565b6001600160a01b03161462000971576040805162461bcd60e51b815260206004820181905260248201526000805160206200359b833981519152604482015290519081900360640190fd5b600080546040516001600160a01b03909116907f8be0079c531659141344cd1fd0a4f28419497f9722a3daafe3b4186f6b6457e0908390a3600080546001600160a01b0319169055565b620009c5620010dd565b6001600160a01b0316620009d862000fa3565b6001600160a01b03161462000a23576040805162461bcd60e51b815260206004820181905260248201526000805160206200359b833981519152604482015290519081900360640190fd5b8062000a615760405162461bcd60e51b815260040180806020018281038252604b815260200180620034b4604b913960600191505060405180910390fd5b6001600160a01b03808416600090815260036020526040902054168062000aba5760405162461bcd60e51b8152600401808060200182810382526037815260200180620036c96037913960400191505060405180910390fd5b62000ac581620006b5565b62000b025760405162461bcd60e51b8152600401808060200182810382526042815260200180620033506042913960600191505060405180910390fd5b6000816001600160a01b031663cba43fe6856040518263ffffffff1660e01b815260040180826001600160a01b0316815260200191505060a06040518083038186803b15801562000b5257600080fd5b505afa15801562000b67573d6000803e3d6000fd5b505050506040513d60a081101562000b7e57600080fd5b505190508062000bc05760405162461bcd60e51b8152600401808060200182810382526052815260200180620035bb6052913960600191505060405180910390fd5b62000bd66001600160a01b0385168385620010e1565b816001600160a01b031663a9fc507b85856040518363ffffffff1660e01b815260040180836001600160a01b0316815260200182815260200192505050600060405180830381600087803b158015620008c157600080fd5b60015442101562000c715760405162461bcd60e51b815260040180806020018281038252602e815260200180620034ff602e913960400191505060405180910390fd5b6001600160a01b0380821660009081526003602052604090205416808062000ccb5760405162461bcd60e51b8152600401808060200182810382526031815260200180620033926031913960400191505060405180910390fd5b62000cd682620006b5565b1562000d145760405162461bcd60e51b8152600401808060200182810382526038815260200180620033c36038913960400191505060405180910390fd5b6000816001600160a01b031663d487393d6040518163ffffffff1660e01b815260040160206040518083038186803b15801562000d5057600080fd5b505afa15801562000d65573d6000803e3d6000fd5b505050506040513d602081101562000d7c57600080fd5b5051905060005b8181101562000f4757826001600160a01b031663033050f2826040518263ffffffff1660e01b81526004018082815260200191505060206040518083038186803b15801562000dd157600080fd5b505afa15801562000de6573d6000803e3d6000fd5b505050506040513d602081101562000dfd57600080fd5b505160408051632bb603eb60e01b81526004810184905290516001600160a01b039283169263a9059cbb92889291881691632bb603eb91602480820192602092909190829003018186803b15801562000e5557600080fd5b505afa15801562000e6a573d6000803e3d6000fd5b505050506040513d602081101562000e8157600080fd5b5051604080516001600160e01b031960e086901b1681526001600160a01b03909316600484015260248301919091525160448083019260209291908290030181600087803b15801562000ed357600080fd5b505af115801562000ee8573d6000803e3d6000fd5b505050506040513d602081101562000eff57600080fd5b505162000f3e5760405162461bcd60e51b8152600401808060200182810382526034815260200180620034806034913960400191505060405180910390fd5b60010162000d83565b50816001600160a01b031663be9a65556040518163ffffffff1660e01b8152600401600060405180830381600087803b15801562000f8457600080fd5b505af115801562000f99573d6000803e3d6000fd5b5050505050505050565b6000546001600160a01b031690565b60015481565b6003602052600090815260409020546001600160a01b031681565b62000fdd620010dd565b6001600160a01b031662000ff062000fa3565b6001600160a01b0316146200103b576040805162461bcd60e51b815260206004820181905260248201526000805160206200359b833981519152604482015290519081900360640190fd5b6001600160a01b038116620010825760405162461bcd60e51b8152600401808060200182810382526026815260200180620032d16026913960400191505060405180910390fd5b600080546040516001600160a01b03808516939216917f8be0079c531659141344cd1fd0a4f28419497f9722a3daafe3b4186f6b6457e091a3600080546001600160a01b0319166001600160a01b0392909216919091179055565b3390565b8015806200116b575060408051636eb1769f60e11b81523060048201526001600160a01b03848116602483015291519185169163dd62ed3e91604480820192602092909190829003018186803b1580156200113b57600080fd5b505afa15801562001150573d6000803e3d6000fd5b505050506040513d60208110156200116757600080fd5b5051155b620011a85760405162461bcd60e51b8152600401808060200182810382526036815260200180620036376036913960400191505060405180910390fd5b604080516001600160a01b038416602482015260448082018490528251808303909101815260649091019091526020810180516001600160e01b031663095ea7b360e01b179052620011fc90849062001201565b505050565b62001215826001600160a01b0316620013cb565b62001267576040805162461bcd60e51b815260206004820152601f60248201527f5361666545524332303a2063616c6c20746f206e6f6e2d636f6e747261637400604482015290519081900360640190fd5b60006060836001600160a01b0316836040518082805190602001908083835b60208310620012a75780518252601f19909201916020918201910162001286565b6001836020036101000a0380198251168184511680821785525050505050509050019150506000604051808303816000865af19150503d80600081146200130b576040519150601f19603f3d011682016040523d82523d6000602084013e62001310565b606091505b50915091508162001368576040805162461bcd60e51b815260206004820181905260248201527f5361666545524332303a206c6f772d6c6576656c2063616c6c206661696c6564604482015290519081900360640190fd5b805115620013c5578080602001905160208110156200138657600080fd5b5051620013c55760405162461bcd60e51b815260040180806020018281038252602a8152602001806200360d602a913960400191505060405180910390fd5b50505050565b3b151590565b611ef180620013e08339019056fe60806040523480156200001157600080fd5b5060405162001ef138038062001ef1833981810160405260808110156200003757600080fd5b81019080805160405193929190846401000000008211156200005857600080fd5b9083019060208201858111156200006e57600080fd5b82518660208202830111640100000000821117156200008c57600080fd5b82525081516020918201928201910280838360005b83811015620000bb578181015183820152602001620000a1565b5050505090500160405260200180516040519392919084640100000000821115620000e557600080fd5b908301906020820185811115620000fb57600080fd5b82518660208202830111640100000000821117156200011957600080fd5b82525081516020918201928201910280838360005b83811015620001485781810151838201526020016200012e565b50505050919091016040908152602083015192015160018055919350909150600090505b84518110156200021d576040518060a00160405280600081526020016000815260200160008152602001600081526020018381525060056000878481518110620001b257fe5b60200260200101516001600160a01b03166001600160a01b03168152602001908152602001600020600082015181600001556020820151816001015560408201518160020155606082015181600301556080820151816004015590505080806001019150506200016c565b508351620002339060069060208701906200027d565b50825162000249906007906020860190620002e7565b5050600280546001600160a01b039092166001600160a01b03199283161790556000805490911633179055506200036b9050565b828054828255906000526020600020908101928215620002d5579160200282015b82811115620002d557825182546001600160a01b0319166001600160a01b039091161782556020909201916001909101906200029e565b50620002e392915062000333565b5090565b82805482825590600052602060002090810192821562000325579160200282015b828111156200032557825182559160200191906001019062000308565b50620002e392915062000354565b5b80821115620002e35780546001600160a01b031916815560010162000334565b5b80821115620002e3576000815560010162000355565b611b76806200037b6000396000f3fe608060405234801561001057600080fd5b50600436106101585760003560e01c80639fdb41bc116100c3578063cba43fe61161007c578063cba43fe61461039b578063d487393d146103ec578063e2bcbb85146103f4578063e9fad8ee14610420578063ef12d0d814610428578063f12297771461043057610158565b80639fdb41bc146102c8578063a1002a0f146102f6578063a694fc3a14610324578063a9fc507b14610341578063bcd110141461036d578063be9a65551461039357610158565b80633f2a5540116101155780633f2a554014610236578063564fd9101461023e5780635ab764ed14610246578063638634ee1461027457806370a082311461029a57806372f702f3146102c057610158565b8063033050f21461015d578063211dc32d146101965780632bb603eb146101d65780632e1a7d4d146101f35780633c7df649146102125780633d18b9121461022e575b600080fd5b61017a6004803603602081101561017357600080fd5b5035610456565b604080516001600160a01b039092168252519081900360200190f35b6101c4600480360360408110156101ac57600080fd5b506001600160a01b038135811691602001351661047d565b60408051918252519081900360200190f35b6101c4600480360360208110156101ec57600080fd5b50356105a5565b6102106004803603602081101561020957600080fd5b50356105c3565b005b61021a61079e565b604080519115158252519081900360200190f35b610210610805565b61017a6109da565b61021a6109e9565b6101c46004803603604081101561025c57600080fd5b506001600160a01b0381358116916020013516610a51565b6101c46004803603602081101561028a57600080fd5b50356001600160a01b0316610a80565b6101c4600480360360208110156102b057600080fd5b50356001600160a01b0316610aaf565b61017a610aca565b6101c4600480360360408110156102de57600080fd5b506001600160a01b0381358116916020013516610ad9565b6102106004803603604081101561030c57600080fd5b506001600160a01b0381358116916020013516610b05565b6102106004803603602081101561033a57600080fd5b5035610d1e565b6102106004803603604081101561035757600080fd5b506001600160a01b038135169060200135610ef7565b6101c46004803603602081101561038357600080fd5b50356001600160a01b03166110ab565b6102106110da565b6103c1600480360360208110156103b157600080fd5b50356001600160a01b0316611424565b6040805195865260208601949094528484019290925260608401526080830152519081900360a00190f35b6101c4611453565b6101c46004803603604081101561040a57600080fd5b506001600160a01b038135169060200135611459565b610210611517565b6101c461153a565b6101c46004803603602081101561044657600080fd5b50356001600160a01b0316611540565b6006818154811061046357fe5b6000918252602090912001546001600160a01b0316905081565b6001600160a01b0380821660009081526005602081815260408084209487168452918401905281205490919082906104be906104b886611540565b9061163b565b90506000610571600260009054906101000a90046001600160a01b03166001600160a01b031663313ce5676040518163ffffffff1660e01b815260040160206040518083038186803b15801561051357600080fd5b505afa158015610527573d6000803e3d6000fd5b505050506040513d602081101561053d57600080fd5b50516001600160a01b03881660009081526004602052604090205460ff909116600a0a9061056b9085611698565b906116f1565b6001600160a01b03871660009081526006850160205260409020549091506105999082611758565b93505050505b92915050565b600781815481106105b257fe5b600091825260209091200154905081565b60026001541415610609576040805162461bcd60e51b815260206004820152601f6024820152600080516020611a3e833981519152604482015290519081900360640190fd5b60026001553360005b6006548110156106c35760006006828154811061062b57fe5b60009182526020808320909101546001600160a01b03168083526005909152604090912090915061065b82611540565b600182015561066982610a80565b60038201556001600160a01b038416156106b957610687848361047d565b6001600160a01b0385166000908152600683016020908152604080832093909355600184015460058501909152919020555b5050600101610612565b508161070a576040805162461bcd60e51b8152602060048201526011602482015270043616e6e6f74207769746864726177203607c1b604482015290519081900360640190fd5b600354610717908361163b565b60035533600090815260046020526040902054610734908361163b565b33600081815260046020526040902091909155600254610760916001600160a01b0390911690846117b2565b60408051838152905133917f7084f5476618d8e60b11ef0d7d3f06914655adb8793e28ff7f018d4c76d505d5919081900360200190a2505060018055565b6000805b6006548110156107fc5760056000600683815481106107bd57fe5b60009182526020808320909101546001600160a01b03168352820192909252604001902060020154156107f4576001915050610802565b6001016107a2565b50600090505b90565b6002600154141561084b576040805162461bcd60e51b815260206004820152601f6024820152600080516020611a3e833981519152604482015290519081900360640190fd5b60026001553360005b6006548110156109055760006006828154811061086d57fe5b60009182526020808320909101546001600160a01b03168083526005909152604090912090915061089d82611540565b60018201556108ab82610a80565b60038201556001600160a01b038416156108fb576108c9848361047d565b6001600160a01b0385166000908152600683016020908152604080832093909355600184015460058501909152919020555b5050600101610854565b5060065460005b818110156109d15760006006828154811061092357fe5b60009182526020808320909101546001600160a01b031680835260058252604080842033855260068101909352909220549192509080156109c657336000818152600684016020526040812055610985906001600160a01b03851690836117b2565b6040805182815290516001600160a01b0385169133917f540798df468d7b23d11f156fdb954cb19ad414d150722a7b6d55ba369dea792e9181900360200190a35b50505060010161090c565b50506001805550565b6000546001600160a01b031681565b6000805b600654811015610a49576005600060068381548110610a0857fe5b60009182526020808320909101546001600160a01b03168352820192909252604001902060020154421015610a41576000915050610802565b6001016109ed565b506001905090565b6001600160a01b0391821660009081526005602090815260408083209390941682526006909201909152205490565b6001600160a01b038116600090815260056020526040812060020154610aa7904290611809565b90505b919050565b6001600160a01b031660009081526004602052604090205490565b6002546001600160a01b031681565b6001600160a01b0391821660009081526005602081815260408084209490951683529201909152205490565b60026001541415610b4b576040805162461bcd60e51b815260206004820152601f6024820152600080516020611a3e833981519152604482015290519081900360640190fd5b60026001556000546001600160a01b03163314610b995760405162461bcd60e51b815260040180806020018281038252602a815260200180611aa2602a913960400191505060405180910390fd5b6000816001600160a01b03166370a08231306040518263ffffffff1660e01b815260040180826001600160a01b0316815260200191505060206040518083038186803b158015610be857600080fd5b505afa158015610bfc573d6000803e3d6000fd5b505050506040513d6020811015610c1257600080fd5b5051905080610c525760405162461bcd60e51b8152600401808060200182810382526029815260200180611acc6029913960400191505060405180910390fd5b60005b600654811015610cca5760068181548110610c6c57fe5b6000918252602090912001546001600160a01b0384811691161415610cc25760405162461bcd60e51b8152600401808060200182810382526022815260200180611b1f6022913960400191505060405180910390fd5b600101610c55565b50610cdf6001600160a01b03831684836117b2565b6040516001600160a01b0384169082907fdf1b625465761dd1a4330a9b3a21d4943183f301036528a3544f8d891fdce2c290600090a350506001805550565b60026001541415610d64576040805162461bcd60e51b815260206004820152601f6024820152600080516020611a3e833981519152604482015290519081900360640190fd5b60026001553360005b600654811015610e1e57600060068281548110610d8657fe5b60009182526020808320909101546001600160a01b031680835260059091526040909120909150610db682611540565b6001820155610dc482610a80565b60038201556001600160a01b03841615610e1457610de2848361047d565b6001600160a01b0385166000908152600683016020908152604080832093909355600184015460058501909152919020555b5050600101610d6d565b5081610e62576040805162461bcd60e51b815260206004820152600e60248201526d043616e6e6f74207374616b6520360941b604482015290519081900360640190fd5b600354610e6f9083611758565b60035533600090815260046020526040902054610e8c9083611758565b33600081815260046020526040902091909155600254610eb9916001600160a01b0390911690308561181f565b60408051838152905133917f9e71bc8eea02a63969f509818f2dafb9254532904319f9dbda79b67bd34a5f3d919081900360200190a2505060018055565b6000805b600654811015610fac57600060068281548110610f1457fe5b60009182526020808320909101546001600160a01b031680835260059091526040909120909150610f4482611540565b6001820155610f5282610a80565b60038201556001600160a01b03841615610fa257610f70848361047d565b6001600160a01b0385166000908152600683016020908152604080832093909355600184015460058501909152919020555b5050600101610efb565b506000546001600160a01b03163314610ff65760405162461bcd60e51b815260040180806020018281038252602a815260200180611aa2602a913960400191505060405180910390fd5b60006110028484611459565b90506110196001600160a01b03851633308661181f565b6001600160a01b038416600090815260056020526040902060028101546110409083611758565b600282015560048101546110549083611758565b60048201556040805185815242602082015280820184905290516001600160a01b038716917fce08a79bf02087a6d982e6a2df78836772baa4c16c084eae230ab65fe75cd7ad919081900360600190a25050505050565b6001600160a01b0381166000908152600560205260408120600481015481546110d391611698565b9392505050565b6000546001600160a01b031633146111235760405162461bcd60e51b815260040180806020018281038252602a815260200180611aa2602a913960400191505060405180910390fd5b6000805b6006548110156111d85760006006828154811061114057fe5b60009182526020808320909101546001600160a01b03168083526005909152604090912090915061117082611540565b600182015561117e82610a80565b60038201556001600160a01b038416156111ce5761119c848361047d565b6001600160a01b0385166000908152600683016020908152604080832093909355600184015460058501909152919020555b5050600101611127565b5060005b600654811015611359576000600682815481106111f557fe5b60009182526020808320909101546001600160a01b031680835260059091526040909120600481015460078054939450919261124f92908690811061123657fe5b90600052602060002001546116f190919063ffffffff16565b8155604080516370a0823160e01b815230600482015290516000916001600160a01b038516916370a0823191602480820192602092909190829003018186803b15801561129b57600080fd5b505afa1580156112af573d6000803e3d6000fd5b505050506040513d60208110156112c557600080fd5b505160048301549091506112da9082906116f1565b8254111561132f576040805162461bcd60e51b815260206004820152601860248201527f50726f76696465642072657761726420746f6f20686967680000000000000000604482015290519081900360640190fd5b426003830181905560048301546113469190611758565b60029092019190915550506001016111dc565b507fa00d0d3f3be42a1502ce5722ccd702e27f4ea7059865db2087238a8bc54102536006600760405180806020018060200183810383528581815481526020019150805480156113d257602002820191906000526020600020905b81546001600160a01b031681526001909101906020018083116113b4575b5050838103825284818154815260200191508054801561141157602002820191906000526020600020905b8154815260200190600101908083116113fd575b505094505050505060405180910390a150565b600560205260009081526040902080546001820154600283015460038401546004909401549293919290919085565b60065490565b6000816114975760405162461bcd60e51b8152600401808060200182810382526023815260200180611a5e6023913960400191505060405180910390fd5b6001600160a01b03831660009081526005602052604090208054611502576040805162461bcd60e51b815260206004820152601a60248201527f5374616b696e67206973206e6f74207965742073746172746564000000000000604482015290519081900360640190fd5b805461150f9084906116f1565b949350505050565b33600090815260046020526040902054611530906105c3565b611538610805565b565b60035490565b6001600160a01b038116600090815260056020526040812060035461156a57600101549050610aaa565b600061157d82600301546104b886610a80565b9050600061162060035461056b600260009054906101000a90046001600160a01b03166001600160a01b031663313ce5676040518163ffffffff1660e01b815260040160206040518083038186803b1580156115d857600080fd5b505afa1580156115ec573d6000803e3d6000fd5b505050506040513d602081101561160257600080fd5b5051865460ff909116600a0a9061161a908790611698565b90611698565b60018401549091506116329082611758565b95945050505050565b600082821115611692576040805162461bcd60e51b815260206004820152601e60248201527f536166654d6174683a207375627472616374696f6e206f766572666c6f770000604482015290519081900360640190fd5b50900390565b6000826116a75750600061059f565b828202828482816116b457fe5b04146110d35760405162461bcd60e51b8152600401808060200182810382526021815260200180611a816021913960400191505060405180910390fd5b6000808211611747576040805162461bcd60e51b815260206004820152601a60248201527f536166654d6174683a206469766973696f6e206279207a65726f000000000000604482015290519081900360640190fd5b81838161175057fe5b049392505050565b6000828201838110156110d3576040805162461bcd60e51b815260206004820152601b60248201527f536166654d6174683a206164646974696f6e206f766572666c6f770000000000604482015290519081900360640190fd5b604080516001600160a01b038416602482015260448082018490528251808303909101815260649091019091526020810180516001600160e01b031663a9059cbb60e01b17905261180490849061187f565b505050565b600081831061181857816110d3565b5090919050565b604080516001600160a01b0380861660248301528416604482015260648082018490528251808303909101815260849091019091526020810180516001600160e01b03166323b872dd60e01b17905261187990859061187f565b50505050565b611891826001600160a01b0316611a37565b6118e2576040805162461bcd60e51b815260206004820152601f60248201527f5361666545524332303a2063616c6c20746f206e6f6e2d636f6e747261637400604482015290519081900360640190fd5b60006060836001600160a01b0316836040518082805190602001908083835b602083106119205780518252601f199092019160209182019101611901565b6001836020036101000a0380198251168184511680821785525050505050509050019150506000604051808303816000865af19150503d8060008114611982576040519150601f19603f3d011682016040523d82523d6000602084013e611987565b606091505b5091509150816119de576040805162461bcd60e51b815260206004820181905260248201527f5361666545524332303a206c6f772d6c6576656c2063616c6c206661696c6564604482015290519081900360640190fd5b805115611879578080602001905160208110156119fa57600080fd5b50516118795760405162461bcd60e51b815260040180806020018281038252602a815260200180611af5602a913960400191505060405180910390fd5b3b15159056fe5265656e7472616e637947756172643a207265656e7472616e742063616c6c00526577617264732073686f756c642062652067726561746572207468616e207a65726f536166654d6174683a206d756c7469706c69636174696f6e206f766572666c6f7743616c6c6572206973206e6f742052657761726473446973747269627574696f6e20636f6e7472616374546865726520617265206e6f20726577617264732066726f6d206c697175696469747920706f6f6c735361666545524332303a204552433230206f7065726174696f6e20646964206e6f74207375636365656443616e6e6f742077697468647261772066726f6d20746f6b656e2072657761726473a2646970667358221220cf02729f67e2fc185c17fe97494bc5887672ba8042f99f1f0e4bb0bebb6c289264736f6c634300060c00334f776e61626c653a206e6577206f776e657220697320746865207a65726f20616464726573735374616b696e6752657761726473466163746f72793a3a6465706c6f793a2052657761726473546f6b656e7320616e642052657761726473416d6f756e74732061727261797320636f756c64206e6f7420626520656d7074795374616b696e6752657761726473466163746f72793a3a657874656e64526577617264506572696f643a205374616b696e6720686173206e6f7420737461727465645374616b696e6752657761726473466163746f72793a3a73746172745374616b696e673a206e6f74206465706c6f7965645374616b696e6752657761726473466163746f72793a3a73746172745374616b696e673a205374616b696e672068617320737461727465645374616b696e6752657761726473466163746f72793a3a6465706c6f793a20526577617264206d7573742062652067726561746572207468616e207a65726f5374616b696e6752657761726473466163746f72793a3a6465706c6f793a546865204475726174696f6e2073686f756c642062652067726561746572207468616e207a65726f5374616b696e6752657761726473466163746f72793a3a73746172745374616b696e673a207472616e73666572206661696c65645374616b696e6752657761726473466163746f72793a3a657874656e64526577617264506572696f643a20526577617264206d7573742062652067726561746572207468616e207a65726f5374616b696e6752657761726473466163746f72793a3a73746172745374616b696e673a206e6f742072656164795374616b696e6752657761726473466163746f72793a3a6465706c6f793a20616c7265616479206465706c6f7965645374616b696e6752657761726473466163746f72793a3a73746172745374616b696e67733a2063616c6c6564206265666f726520616e79206465706c6f79734f776e61626c653a2063616c6c6572206973206e6f7420746865206f776e65725374616b696e6752657761726473466163746f72793a3a657874656e64526577617264506572696f643a20546f6b656e20666f7220657874656e64696e6720726577617264206973206e6f74206b6e6f776e5361666545524332303a204552433230206f7065726174696f6e20646964206e6f7420737563636565645361666545524332303a20617070726f76652066726f6d206e6f6e2d7a65726f20746f206e6f6e2d7a65726f20616c6c6f77616e63655374616b696e6752657761726473466163746f72793a3a6465706c6f793a2052657761726473546f6b656e7320616e642052657761726473416d6f756e74732073686f756c6420686176652061206d61746368696e672073697a65735374616b696e6752657761726473466163746f72793a3a657874656e64526577617264506572696f643a206e6f74206465706c6f7965645374616b696e6752657761726473466163746f72793a3a6465706c6f793a2052657761726420746f6b656e206164647265737320636f756c64206e6f7420626520696e76616c6964a26469706673582212200a42e348cc53397829966561d7de2d41dd2b2145bde8bbcaa45640833ea1328264736f6c634300060c00335374616b696e6752657761726473466163746f72793a3a636f6e7374727563746f723a2067656e6573697320746f6f20736f6f6e",
  "source": "// SPDX-License-Identifier: MIT\npragma solidity 0.6.12;\n\nimport \"openzeppelin-solidity/contracts/access/Ownable.sol\";\nimport \"./StakingRewards.sol\";\n\ncontract StakingRewardsFactory is Ownable {\n    using SafeERC20Detailed for IERC20Detailed;\n\n    uint256 public stakingRewardsGenesis;\n\n    /** @dev the staking tokens for which the rewards contract has been deployed\n     */\n    address[] public stakingTokens;\n\n    /** @dev Mapping holding information about a particular Staking Rewards Contract Address by Staking Token\n     */\n    mapping(address => address) public stakingRewardsByStakingToken;\n\n    /* ========== CONSTRUCTOR ========== */\n\n    /** @dev Function called once on deployment time\n     * @param _stakingRewardsGenesis Timestamp after which the staking can start\n     */\n    constructor(uint256 _stakingRewardsGenesis) public {\n        require(\n            _stakingRewardsGenesis >= block.timestamp,\n            \"StakingRewardsFactory::constructor: genesis too soon\"\n        );\n\n        stakingRewardsGenesis = _stakingRewardsGenesis;\n    }\n\n    /* ========== Permissioned FUNCTIONS ========== */\n\n    /** @dev Deploy a staking reward contract for the staking token, and store the reward amount,the reward will be distributed to the staking reward contract no sooner than the genesis\n     * @param _stakingToken The address of the token being staked\n     * @param _rewardsTokens The addresses of the tokens the rewards will be paid in\n     * @param _rewardsAmounts The reward amounts\n     * @param _rewardsDuration Rewards duration in seconds\n     */\n    function deploy(\n        address _stakingToken,\n        address[] calldata _rewardsTokens,\n        uint256[] calldata _rewardsAmounts,\n        uint256 _rewardsDuration\n    ) external onlyOwner {\n        require(\n            stakingRewardsByStakingToken[_stakingToken] == address(0),\n            \"StakingRewardsFactory::deploy: already deployed\"\n        );\n        require(\n            _rewardsDuration != 0,\n            \"StakingRewardsFactory::deploy:The Duration should be greater than zero\"\n        );\n        require(\n            _rewardsTokens.length != 0,\n            \"StakingRewardsFactory::deploy: RewardsTokens and RewardsAmounts arrays could not be empty\"\n        );\n        require(\n            _rewardsTokens.length == _rewardsAmounts.length,\n            \"StakingRewardsFactory::deploy: RewardsTokens and RewardsAmounts should have a matching sizes\"\n        );\n\n        for (uint256 i = 0; i < _rewardsTokens.length; i++) {\n            require(\n                _rewardsTokens[i] != address(0),\n                \"StakingRewardsFactory::deploy: Reward token address could not be invalid\"\n            );\n            require(\n                _rewardsAmounts[i] != 0,\n                \"StakingRewardsFactory::deploy: Reward must be greater than zero\"\n            );\n        }\n\n        stakingRewardsByStakingToken[_stakingToken] = address(\n            new StakingRewards(\n                _rewardsTokens,\n                _rewardsAmounts,\n                _stakingToken,\n                _rewardsDuration\n            )\n        );\n\n        stakingTokens.push(_stakingToken);\n    }\n\n    /** @dev Function that will extend the rewards period, but not change the reward rate, for a given staking contract.\n     * @param stakingToken The address of the token being staked\n     * @param extendRewardToken The address of the token the rewards will be paid in\n     * @param extendRewardAmount The additional reward amount\n     */\n    function extendRewardPeriod(\n        address stakingToken,\n        address extendRewardToken,\n        uint256 extendRewardAmount\n    ) external onlyOwner {\n        require(\n            extendRewardAmount != 0,\n            \"StakingRewardsFactory::extendRewardPeriod: Reward must be greater than zero\"\n        );\n\n        address sr = stakingRewardsByStakingToken[stakingToken]; // StakingRewards\n\n        require(\n            sr != address(0),\n            \"StakingRewardsFactory::extendRewardPeriod: not deployed\"\n        );\n        require(\n            hasStakingStarted(sr),\n            \"StakingRewardsFactory::extendRewardPeriod: Staking has not started\"\n        );\n\n        (uint256 rate, , , , ) =\n            StakingRewards(sr).rewardsTokensMap(extendRewardToken);\n\n        require(\n            rate != 0,\n            \"StakingRewardsFactory::extendRewardPeriod: Token for extending reward is not known\"\n        ); // its expected that valid token should have a valid rate\n\n        IERC20Detailed(extendRewardToken).safeApprove(sr, extendRewardAmount);\n        StakingRewards(sr).addRewards(extendRewardToken, extendRewardAmount);\n    }\n\n    /* ========== Permissionless FUNCTIONS ========== */\n\n    /** @dev Calls startStakings for all staking tokens.\n     */\n    function startStakings() external {\n        require(\n            stakingTokens.length != 0,\n            \"StakingRewardsFactory::startStakings: called before any deploys\"\n        );\n\n        for (uint256 i = 0; i < stakingTokens.length; i++) {\n            startStaking(stakingTokens[i]);\n        }\n    }\n\n    /** @dev Function to determine whether the staking and rewards distribution has stared for a given StakingRewards contract\n     * @param stakingRewards The address of the staking rewards contract\n     */\n    function hasStakingStarted(address stakingRewards)\n        public\n        view\n        returns (bool)\n    {\n        return StakingRewards(stakingRewards).hasPeriodStarted();\n    }\n\n    /** @dev Starts the staking and rewards distribution for a given staking token. This is a fallback in case the startStakings() costs too much gas to call for all contracts\n     * @param stakingToken The address of the token being staked\n     */\n    function startStaking(address stakingToken) public {\n        require(\n            block.timestamp >= stakingRewardsGenesis,\n            \"StakingRewardsFactory::startStaking: not ready\"\n        );\n\n        address sr = stakingRewardsByStakingToken[stakingToken]; // StakingRewards\n\n        StakingRewards srInstance = StakingRewards(sr);\n        require(\n            sr != address(0),\n            \"StakingRewardsFactory::startStaking: not deployed\"\n        );\n        require(\n            !hasStakingStarted(sr),\n            \"StakingRewardsFactory::startStaking: Staking has started\"\n        );\n\n        uint256 rtsSize = srInstance.getRewardsTokensCount();\n        for (uint256 i = 0; i < rtsSize; i++) {\n            require(\n                IERC20Detailed(srInstance.rewardsTokensArr(i)).transfer(\n                    sr,\n                    srInstance.rewardsAmountsArr(i)\n                ),\n                \"StakingRewardsFactory::startStaking: transfer failed\"\n            );\n        }\n\n        srInstance.start();\n    }\n\n    /** @dev Triggers the withdrawal of LP rewards from the staking rewards contract to the given recipient address\n     * @param stakingToken The address of the token being staked\n     * @param recipient The address to whom the rewards will be trasferred\n     * @param lpTokenContract The address of the rewards contract\n     */\n    function withdrawLPRewards(\n        address stakingToken,\n        address recipient,\n        address lpTokenContract\n    ) external onlyOwner {\n        address sr = stakingRewardsByStakingToken[stakingToken]; // StakingRewards\n\n        require(\n            sr != address(0),\n            \"StakingRewardsFactory::startStaking: not deployed\"\n        );\n        StakingRewards srInstance = StakingRewards(sr);\n        srInstance.withdrawLPRewards(recipient, lpTokenContract);\n    }\n}\n",
  "sourcePath": "/Users/martindobrev/Code/custom-token/contracts/V1/StakingRewardsFactory.sol",
  "compiler": {
    "name": "solc",
    "version": "0.6.12+commit.27d51765.Emscripten.clang",
    "optimizer": true,
    "runs": 200
  },
  "schemaVersion": "2.3.5",
  "updatedAt": "2022-02-16T15:12:31.195Z"
}