{
  "contractName": "StakeTransfererRewardsPoolMock",
  "abi": [
    {
      "inputs": [
        {
          "internalType": "contract IERC20Detailed",
          "name": "_stakingToken",
          "type": "address"
        },
        {
          "internalType": "uint256",
          "name": "_startBlock",
          "type": "uint256"
        },
        {
          "internalType": "uint256",
          "name": "_endBlock",
          "type": "uint256"
        },
        {
          "internalType": "address[]",
          "name": "_rewardsTokens",
          "type": "address[]"
        },
        {
          "internalType": "uint256[]",
          "name": "_rewardPerBlock",
          "type": "uint256[]"
        },
        {
          "internalType": "uint256",
          "name": "_stakeLimit",
          "type": "uint256"
        },
        {
          "internalType": "uint256",
          "name": "_contractStakeLimit",
          "type": "uint256"
        }
      ],
      "stateMutability": "nonpayable",
      "type": "constructor"
    },
    {
      "anonymous": false,
      "inputs": [
        {
          "indexed": true,
          "internalType": "address",
          "name": "user",
          "type": "address"
        },
        {
          "indexed": false,
          "internalType": "uint256",
          "name": "amount",
          "type": "uint256"
        },
        {
          "indexed": false,
          "internalType": "address",
          "name": "token",
          "type": "address"
        }
      ],
      "name": "Claimed",
      "type": "event"
    },
    {
      "anonymous": false,
      "inputs": [
        {
          "indexed": true,
          "internalType": "address",
          "name": "user",
          "type": "address"
        },
        {
          "indexed": false,
          "internalType": "uint256",
          "name": "amount",
          "type": "uint256"
        }
      ],
      "name": "Exited",
      "type": "event"
    },
    {
      "anonymous": false,
      "inputs": [
        {
          "indexed": false,
          "internalType": "uint256",
          "name": "newEndBlock",
          "type": "uint256"
        },
        {
          "indexed": false,
          "internalType": "uint256[]",
          "name": "newRewardsPerBlock",
          "type": "uint256[]"
        }
      ],
      "name": "Extended",
      "type": "event"
    },
    {
      "anonymous": false,
      "inputs": [
        {
          "indexed": true,
          "internalType": "address",
          "name": "user",
          "type": "address"
        },
        {
          "indexed": false,
          "internalType": "uint256",
          "name": "amount",
          "type": "uint256"
        }
      ],
      "name": "Staked",
      "type": "event"
    },
    {
      "anonymous": false,
      "inputs": [
        {
          "indexed": true,
          "internalType": "uint256",
          "name": "rewardsAmount",
          "type": "uint256"
        },
        {
          "indexed": true,
          "internalType": "address",
          "name": "recipient",
          "type": "address"
        }
      ],
      "name": "WithdrawLPRewards",
      "type": "event"
    },
    {
      "anonymous": false,
      "inputs": [
        {
          "indexed": true,
          "internalType": "address",
          "name": "user",
          "type": "address"
        },
        {
          "indexed": false,
          "internalType": "uint256",
          "name": "amount",
          "type": "uint256"
        }
      ],
      "name": "Withdrawn",
      "type": "event"
    },
    {
      "inputs": [
        {
          "internalType": "uint256",
          "name": "",
          "type": "uint256"
        }
      ],
      "name": "accumulatedRewardMultiplier",
      "outputs": [
        {
          "internalType": "uint256",
          "name": "",
          "type": "uint256"
        }
      ],
      "stateMutability": "view",
      "type": "function"
    },
    {
      "inputs": [
        {
          "internalType": "address",
          "name": "_userAddress",
          "type": "address"
        }
      ],
      "name": "balanceOf",
      "outputs": [
        {
          "internalType": "uint256",
          "name": "",
          "type": "uint256"
        }
      ],
      "stateMutability": "view",
      "type": "function"
    },
    {
      "inputs": [],
      "name": "contractStakeLimit",
      "outputs": [
        {
          "internalType": "uint256",
          "name": "",
          "type": "uint256"
        }
      ],
      "stateMutability": "view",
      "type": "function"
    },
    {
      "inputs": [],
      "name": "endBlock",
      "outputs": [
        {
          "internalType": "uint256",
          "name": "",
          "type": "uint256"
        }
      ],
      "stateMutability": "view",
      "type": "function"
    },
    {
      "inputs": [],
      "name": "exit",
      "outputs": [],
      "stateMutability": "nonpayable",
      "type": "function"
    },
    {
      "inputs": [
        {
          "internalType": "address",
          "name": "transferTo",
          "type": "address"
        }
      ],
      "name": "exitAndTransfer",
      "outputs": [],
      "stateMutability": "nonpayable",
      "type": "function"
    },
    {
      "inputs": [
        {
          "internalType": "uint256",
          "name": "_endBlock",
          "type": "uint256"
        },
        {
          "internalType": "uint256[]",
          "name": "_rewardsPerBlock",
          "type": "uint256[]"
        },
        {
          "internalType": "uint256[]",
          "name": "_currentRemainingRewards",
          "type": "uint256[]"
        },
        {
          "internalType": "uint256[]",
          "name": "_newRemainingRewards",
          "type": "uint256[]"
        }
      ],
      "name": "extend",
      "outputs": [],
      "stateMutability": "nonpayable",
      "type": "function"
    },
    {
      "inputs": [],
      "name": "getRewardTokensCount",
      "outputs": [
        {
          "internalType": "uint256",
          "name": "",
          "type": "uint256"
        }
      ],
      "stateMutability": "view",
      "type": "function"
    },
    {
      "inputs": [
        {
          "internalType": "address",
          "name": "_userAddress",
          "type": "address"
        },
        {
          "internalType": "uint256",
          "name": "tokenIndex",
          "type": "uint256"
        }
      ],
      "name": "getUserAccumulatedReward",
      "outputs": [
        {
          "internalType": "uint256",
          "name": "",
          "type": "uint256"
        }
      ],
      "stateMutability": "view",
      "type": "function"
    },
    {
      "inputs": [
        {
          "internalType": "address",
          "name": "_userAddress",
          "type": "address"
        },
        {
          "internalType": "uint256",
          "name": "_index",
          "type": "uint256"
        }
      ],
      "name": "getUserOwedTokens",
      "outputs": [
        {
          "internalType": "uint256",
          "name": "",
          "type": "uint256"
        }
      ],
      "stateMutability": "view",
      "type": "function"
    },
    {
      "inputs": [
        {
          "internalType": "address",
          "name": "_userAddress",
          "type": "address"
        },
        {
          "internalType": "uint256",
          "name": "_index",
          "type": "uint256"
        }
      ],
      "name": "getUserRewardDebt",
      "outputs": [
        {
          "internalType": "uint256",
          "name": "",
          "type": "uint256"
        }
      ],
      "stateMutability": "view",
      "type": "function"
    },
    {
      "inputs": [
        {
          "internalType": "address",
          "name": "_userAddress",
          "type": "address"
        }
      ],
      "name": "getUserRewardDebtLength",
      "outputs": [
        {
          "internalType": "uint256",
          "name": "",
          "type": "uint256"
        }
      ],
      "stateMutability": "view",
      "type": "function"
    },
    {
      "inputs": [
        {
          "internalType": "address",
          "name": "_userAddress",
          "type": "address"
        }
      ],
      "name": "getUserTokensOwedLength",
      "outputs": [
        {
          "internalType": "uint256",
          "name": "",
          "type": "uint256"
        }
      ],
      "stateMutability": "view",
      "type": "function"
    },
    {
      "inputs": [],
      "name": "hasStakingStarted",
      "outputs": [
        {
          "internalType": "bool",
          "name": "",
          "type": "bool"
        }
      ],
      "stateMutability": "view",
      "type": "function"
    },
    {
      "inputs": [],
      "name": "lastRewardBlock",
      "outputs": [
        {
          "internalType": "uint256",
          "name": "",
          "type": "uint256"
        }
      ],
      "stateMutability": "view",
      "type": "function"
    },
    {
      "inputs": [
        {
          "internalType": "address",
          "name": "",
          "type": "address"
        }
      ],
      "name": "receiversWhitelist",
      "outputs": [
        {
          "internalType": "bool",
          "name": "",
          "type": "bool"
        }
      ],
      "stateMutability": "view",
      "type": "function"
    },
    {
      "inputs": [
        {
          "internalType": "uint256",
          "name": "",
          "type": "uint256"
        }
      ],
      "name": "rewardPerBlock",
      "outputs": [
        {
          "internalType": "uint256",
          "name": "",
          "type": "uint256"
        }
      ],
      "stateMutability": "view",
      "type": "function"
    },
    {
      "inputs": [],
      "name": "rewardsPoolFactory",
      "outputs": [
        {
          "internalType": "address",
          "name": "",
          "type": "address"
        }
      ],
      "stateMutability": "view",
      "type": "function"
    },
    {
      "inputs": [
        {
          "internalType": "uint256",
          "name": "",
          "type": "uint256"
        }
      ],
      "name": "rewardsTokens",
      "outputs": [
        {
          "internalType": "address",
          "name": "",
          "type": "address"
        }
      ],
      "stateMutability": "view",
      "type": "function"
    },
    {
      "inputs": [
        {
          "internalType": "address",
          "name": "receiver",
          "type": "address"
        },
        {
          "internalType": "bool",
          "name": "whitelisted",
          "type": "bool"
        }
      ],
      "name": "setReceiverWhitelisted",
      "outputs": [],
      "stateMutability": "nonpayable",
      "type": "function"
    },
    {
      "inputs": [
        {
          "internalType": "uint256",
          "name": "_tokenAmount",
          "type": "uint256"
        }
      ],
      "name": "stake",
      "outputs": [],
      "stateMutability": "nonpayable",
      "type": "function"
    },
    {
      "inputs": [],
      "name": "stakeLimit",
      "outputs": [
        {
          "internalType": "uint256",
          "name": "",
          "type": "uint256"
        }
      ],
      "stateMutability": "view",
      "type": "function"
    },
    {
      "inputs": [],
      "name": "stakingToken",
      "outputs": [
        {
          "internalType": "contract IERC20Detailed",
          "name": "",
          "type": "address"
        }
      ],
      "stateMutability": "view",
      "type": "function"
    },
    {
      "inputs": [],
      "name": "startBlock",
      "outputs": [
        {
          "internalType": "uint256",
          "name": "",
          "type": "uint256"
        }
      ],
      "stateMutability": "view",
      "type": "function"
    },
    {
      "inputs": [],
      "name": "totalStaked",
      "outputs": [
        {
          "internalType": "uint256",
          "name": "",
          "type": "uint256"
        }
      ],
      "stateMutability": "view",
      "type": "function"
    },
    {
      "inputs": [],
      "name": "updateRewardMultipliers",
      "outputs": [],
      "stateMutability": "nonpayable",
      "type": "function"
    },
    {
      "inputs": [
        {
          "internalType": "address",
          "name": "",
          "type": "address"
        }
      ],
      "name": "userInfo",
      "outputs": [
        {
          "internalType": "uint256",
          "name": "firstStakedBlockNumber",
          "type": "uint256"
        },
        {
          "internalType": "uint256",
          "name": "amountStaked",
          "type": "uint256"
        }
      ],
      "stateMutability": "view",
      "type": "function"
    },
    {
      "inputs": [
        {
          "internalType": "address",
          "name": "recipient",
          "type": "address"
        },
        {
          "internalType": "address",
          "name": "lpTokenContract",
          "type": "address"
        }
      ],
      "name": "withdrawLPRewards",
      "outputs": [],
      "stateMutability": "nonpayable",
      "type": "function"
    },
    {
      "inputs": [
        {
          "internalType": "uint256",
          "name": "_tokenAmount",
          "type": "uint256"
        }
      ],
      "name": "withdraw",
      "outputs": [],
      "stateMutability": "nonpayable",
      "type": "function"
    },
    {
      "inputs": [],
      "name": "claim",
      "outputs": [],
      "stateMutability": "nonpayable",
      "type": "function"
    }
  ],
  "bytecode": "0x60806040523480156200001157600080fd5b5060405162002db138038062002db1833981810160405260e08110156200003757600080fd5b8151602083015160408085015160608601805192519496939591949391820192846401000000008211156200006b57600080fd5b9083019060208201858111156200008157600080fd5b82518660208202830111640100000000821117156200009f57600080fd5b82525081516020918201928201910280838360005b83811015620000ce578181015183820152602001620000b4565b5050505090500160405260200180516040519392919084640100000000821115620000f857600080fd5b9083019060208201858111156200010e57600080fd5b82518660208202830111640100000000821117156200012c57600080fd5b82525081516020918201928201910280838360005b838110156200015b57818101518382015260200162000141565b50505050919091016040908152602083015192015160016000559193509091508790508686868686868686868686868662000195620003b7565b8611620001d45760405162461bcd60e51b815260040180806020018281038252603681526020018062002d7b6036913960400191505060405180910390fd5b620001de620003b7565b85116200021d5760405162461bcd60e51b815260040180806020018281038252603181526020018062002cc16031913960400191505060405180910390fd5b83518351146200025f5760405162461bcd60e51b815260040180806020018281038252604f81526020018062002cf2604f913960600191505060405180910390fd5b816200029d5760405162461bcd60e51b815260040180806020018281038252603081526020018062002c916030913960400191505060405180910390fd5b80620002db5760405162461bcd60e51b815260040180806020018281038252603a81526020018062002d41603a913960400191505060405180910390fd5b600480546001600160a01b0319166001600160a01b03891617905582516200030b906002906020860190620003bb565b506005869055600685905583516200032b9060039060208701906200040b565b50600554600755600980546001600160a01b03191633179055600a829055600b81905560005b6003548110156200039b57600880546001818101835560009283527ff3f7a9fe364faab93b216da50a3214154f22a0a2b415b23a84c8169e8b636ee3909101919091550162000351565b50505050505050505050505050505050505050505050620004a9565b4390565b828054828255906000526020600020908101928215620003f9579160200282015b82811115620003f9578251825591602001919060010190620003dc565b506200040792915062000471565b5090565b82805482825590600052602060002090810192821562000463579160200282015b828111156200046357825182546001600160a01b0319166001600160a01b039091161782556020909201916001909101906200042c565b506200040792915062000488565b5b8082111562000407576000815560010162000472565b5b80821115620004075780546001600160a01b031916815560010162000489565b6127d880620004b96000396000f3fe608060405234801561001057600080fd5b50600436106101d95760003560e01c806372f702f311610104578063a9f8d181116100a2578063df9d777f11610071578063df9d777f1461062d578063e9fad8ee14610659578063f27d026414610661578063fb58cad11461068d576101d9565b8063a9f8d181146105d4578063b6d0dcd8146105dc578063ce415302146105f9578063dd2da22014610625576101d9565b8063a1002a0f116100de578063a1002a0f14610535578063a1292aea14610563578063a694fc3a14610589578063a861a7a3146105a6576101d9565b806372f702f314610508578063791f39cd14610510578063817b1cd21461052d576101d9565b80632e1a7d4d1161017c5780634e71d92d1161014b5780634e71d92d146104ae57806356409b81146104b657806357b4f01f146104da57806370a08231146104e2576101d9565b80632e1a7d4d14610447578063363291dc1461046457806345ef79af1461049e57806348cd4cb1146104a6576101d9565b80631959a002116101b85780631959a0021461022657806320e67c76146102655780632240e63c146104195780632d9e88e11461043f576101d9565b806284c927146101de57806303d1dae014610216578063083c63231461021e575b600080fd5b610204600480360360208110156101f457600080fd5b50356001600160a01b03166106aa565b60408051918252519081900360200190f35b610204610710565b610204610716565b61024c6004803603602081101561023c57600080fd5b50356001600160a01b031661071c565b6040805192835260208301919091528051918290030190f35b6104176004803603608081101561027b57600080fd5b8135919081019060408101602082013564010000000081111561029d57600080fd5b8201836020820111156102af57600080fd5b803590602001918460208302840111640100000000831117156102d157600080fd5b919080806020026020016040519081016040528093929190818152602001838360200280828437600092019190915250929594936020810193503591505064010000000081111561032157600080fd5b82018360208201111561033357600080fd5b8035906020019184602083028401116401000000008311171561035557600080fd5b91908080602002602001604051908101604052809392919081815260200183836020028082843760009201919091525092959493602081019350359150506401000000008111156103a557600080fd5b8201836020820111156103b757600080fd5b803590602001918460208302840111640100000000831117156103d957600080fd5b919080806020026020016040519081016040528093929190818152602001838360200280828437600092019190915250929550610735945050505050565b005b6104176004803603602081101561042f57600080fd5b50356001600160a01b03166109b8565b610204610b8b565b6104176004803603602081101561045d57600080fd5b5035610b91565b61048a6004803603602081101561047a57600080fd5b50356001600160a01b0316610b9d565b604080519115158252519081900360200190f35b610204610bb2565b610204610bb8565b610417610bbe565b6104be610bc8565b604080516001600160a01b039092168252519081900360200190f35b61048a610bd7565b610204600480360360208110156104f857600080fd5b50356001600160a01b0316610beb565b6104be610c09565b6102046004803603602081101561052657600080fd5b5035610c18565b610204610c36565b6104176004803603604081101561054b57600080fd5b506001600160a01b0381358116916020013516610c3c565b6102046004803603602081101561057957600080fd5b50356001600160a01b0316610ea5565b6104176004803603602081101561059f57600080fd5b5035610f0b565b610417600480360360408110156105bc57600080fd5b506001600160a01b0381351690602001351515610f6a565b610204610fc1565b6104be600480360360208110156105f257600080fd5b5035610fc7565b6102046004803603604081101561060f57600080fd5b506001600160a01b038135169060200135610fee565b610417611072565b6102046004803603604081101561064357600080fd5b506001600160a01b038135169060200135611217565b6104176113ce565b6102046004803603604081101561067757600080fd5b506001600160a01b038135169060200135611429565b610204600480360360208110156106a357600080fd5b5035611498565b60006001600160a01b0382166106f15760405162461bcd60e51b815260040180806020018281038252602d8152602001806123f8602d913960400191505060405180910390fd5b506001600160a01b03166000908152600c602052604090206002015490565b600b5481565b60065481565b600c602052600090815260409020805460019091015482565b6009546001600160a01b0316331461077e5760405162461bcd60e51b81526004018080602001828103825260298152602001806127446029913960400191505060405180910390fd5b6107866114a5565b84116107c35760405162461bcd60e51b81526004018080602001828103825260278152602001806126f36027913960400191505060405180910390fd5b6006548410156108045760405162461bcd60e51b815260040180806020018281038252603581526020018061244c6035913960400191505060405180910390fd5b6003548351146108455760405162461bcd60e51b81526004018080602001828103825260348152602001806125ed6034913960400191505060405180910390fd5b61084d611072565b60005b835181101561092d5760006003828154811061086857fe5b60009182526020909120015483516001600160a01b03909116915083908390811061088f57fe5b60200260200101518483815181106108a357fe5b602002602001015111156108f7576108f7338484815181106108c157fe5b60200260200101518685815181106108d557fe5b602002602001015103836001600160a01b03166114a99092919063ffffffff16565b84828151811061090357fe5b60200260200101516002838154811061091857fe5b60009182526020909120015550600101610850565b50836006819055507f137c92cc7579cc4d6a2b109467cd475c205d1c136363ca854cc46d72f840d5de84846040518083815260200180602001828103825283818151815260200191508051906020019060200280838360005b8381101561099e578181015183820152602001610986565b50505050905001935050505060405180910390a150505050565b6001600160a01b0381166000908152600d6020526040902054819060ff16610a115760405162461bcd60e51b815260040180806020018281038252602c815260200180612664602c913960400191505060405180910390fd5b60026000541415610a57576040805162461bcd60e51b815260206004820152601f60248201526000805160206123d8833981519152604482015290519081900360640190fd5b60026000908155338152600c602052604090206001810154610a795750610b82565b610a81611072565b6001810154610a8f33611500565b610a983361155f565b60006001830155600454610ab6906001600160a01b03168583611672565b60408051633c323a1b60e01b81523360048201526024810183905290516001600160a01b03861691633c323a1b91604480830192600092919082900301818387803b158015610b0457600080fd5b505af1158015610b18573d6000803e3d6000fd5b5050600154610b2a9250905082611785565b60015560005b600354811015610b7e576000836003018281548110610b4b57fe5b90600052602060002001819055506000836002018281548110610b6a57fe5b600091825260209091200155600101610b30565b5050505b50506001600055565b60035490565b610b9a816117e2565b50565b600d6020526000908152604090205460ff1681565b600a5481565b60055481565b610bc66117eb565b565b6009546001600160a01b031681565b6000600554610be46114a5565b1015905090565b6001600160a01b03166000908152600c602052604090206001015490565b6004546001600160a01b031681565b60028181548110610c2557fe5b600091825260209091200154905081565b60015481565b60026000541415610c82576040805162461bcd60e51b815260206004820152601f60248201526000805160206123d8833981519152604482015290519081900360640190fd5b60026000556009546001600160a01b03163314610cd05760405162461bcd60e51b81526004018080602001828103825260298152602001806127446029913960400191505060405180910390fd5b6000816001600160a01b03166370a08231306040518263ffffffff1660e01b815260040180826001600160a01b0316815260200191505060206040518083038186803b158015610d1f57600080fd5b505afa158015610d33573d6000803e3d6000fd5b505050506040513d6020811015610d4957600080fd5b5051905080610d895760405162461bcd60e51b815260040180806020018281038252603c8152602001806126b7603c913960400191505060405180910390fd5b6004546001600160a01b0383811691161415610dd65760405162461bcd60e51b81526004018080602001828103825260368152602001806124816036913960400191505060405180910390fd5b60035460005b81811015610e4f5760038181548110610df157fe5b6000918252602090912001546001600160a01b0385811691161415610e475760405162461bcd60e51b81526004018080602001828103825260358152602001806124b76035913960400191505060405180910390fd5b600101610ddc565b50610e646001600160a01b03841685846114a9565b6040516001600160a01b0385169083907fdf1b625465761dd1a4330a9b3a21d4943183f301036528a3544f8d891fdce2c290600090a3505060016000555050565b60006001600160a01b038216610eec5760405162461bcd60e51b815260040180806020018281038252602d8152602001806124ec602d913960400191505060405180910390fd5b506001600160a01b03166000908152600c602052604090206003015490565b60026000541415610f51576040805162461bcd60e51b815260206004820152601f60248201526000805160206123d8833981519152604482015290519081900360640190fd5b6002600055610f62813360016117f3565b506001600055565b6009546001600160a01b03163314610fb35760405162461bcd60e51b81526004018080602001828103825260298152602001806127446029913960400191505060405180910390fd5b610fbd8282611b6e565b5050565b60075481565b60038181548110610fd457fe5b6000918252602090912001546001600160a01b0316905081565b60006001600160a01b0383166110355760405162461bcd60e51b81526004018080602001828103825260278152602001806126906027913960400191505060405180910390fd5b6001600160a01b0383166000908152600c602052604090206003810180548490811061105d57fe5b90600052602060002001549150505b92915050565b600061107c6114a5565b9050600754811161108d5750610bc6565b600060065482106110a0576006546110a2565b815b6007549091508103806110b757505050610bc6565b6001546110c8575060075550610bc6565b60035460005b8181101561120e576000600382815481106110e557fe5b600091825260209182902001546040805163313ce56760e01b815290516001600160a01b039092169263313ce56792600480840193829003018186803b15801561112e57600080fd5b505afa158015611142573d6000803e3d6000fd5b505050506040513d602081101561115857600080fd5b50516002805460ff9092169250600a83900a91600091611196918690811061117c57fe5b906000526020600020015487611b9990919063ffffffff16565b905060006111b96001546111b38585611b9990919063ffffffff16565b90611bf9565b90506111e581600887815481106111cc57fe5b9060005260206000200154611c6090919063ffffffff16565b600886815481106111f257fe5b6000918252602090912001555050600190920191506110ce9050565b50505060075550565b6000806112226114a5565b90506000600654821061123757600654611239565b815b905060006112526007548361178590919063ffffffff16565b905060006003868154811061126357fe5b600091825260209182902001546040805163313ce56760e01b815290516001600160a01b039092169263313ce56792600480840193829003018186803b1580156112ac57600080fd5b505afa1580156112c0573d6000803e3d6000fd5b505050506040513d60208110156112d657600080fd5b50516002805460ff9092169250600a83900a91600091611314918a9081106112fa57fe5b906000526020600020015485611b9990919063ffffffff16565b905060006113316001546111b38585611b9990919063ffffffff16565b905060006113468260088c815481106111cc57fe5b6001600160a01b038c166000908152600c602052604081206001810154929350916113779087906111b39086611b99565b905060006113a7836002018e8154811061138d57fe5b90600052602060002001548361178590919063ffffffff16565b90506113bc81846003018f815481106111cc57fe5b9e9d5050505050505050505050505050565b60026000541415611414576040805162461bcd60e51b815260206004820152601f60248201526000805160206123d8833981519152604482015290519081900360640190fd5b600260005561142233611cba565b6001600055565b60006001600160a01b0383166114705760405162461bcd60e51b81526004018080602001828103825260278152602001806124256027913960400191505060405180910390fd5b6001600160a01b0383166000908152600c602052604090206002810180548490811061105d57fe5b60088181548110610c2557fe5b4390565b604080516001600160a01b038416602482015260448082018490528251808303909101815260649091019091526020810180516001600160e01b031663a9059cbb60e01b1790526114fb908490611d30565b505050565b6001600160a01b0381166000908152600c6020526040902061152182611ee8565b61152a82611f48565b60018101546115395750610b9a565b60035460005b81811015611559576115518482611fa8565b60010161153f565b50505050565b6001600160a01b0381166000908152600c6020526040902061157f611072565b61158882611500565b60035460005b818110156115595760008360030182815481106115a757fe5b9060005260206000200154905060008460030183815481106115c557fe5b90600052602060002001819055506116018582600385815481106115e557fe5b6000918252602090912001546001600160a01b031691906114a9565b846001600160a01b03167f7e6632ca16a0ac6cf28448500b1a17d96c8b8163ad4c4a9b44ef5386cc02779e826003858154811061163a57fe5b60009182526020918290200154604080519384526001600160a01b03909116918301919091528051918290030190a25060010161158e565b8015806116f8575060408051636eb1769f60e11b81523060048201526001600160a01b03848116602483015291519185169163dd62ed3e91604480820192602092909190829003018186803b1580156116ca57600080fd5b505afa1580156116de573d6000803e3d6000fd5b505050506040513d60208110156116f457600080fd5b5051155b6117335760405162461bcd60e51b815260040180806020018281038252603681526020018061276d6036913960400191505060405180910390fd5b604080516001600160a01b038416602482015260448082018490528251808303909101815260649091019091526020810180516001600160e01b031663095ea7b360e01b1790526114fb908490611d30565b6000828211156117dc576040805162461bcd60e51b815260206004820152601e60248201527f536166654d6174683a207375627472616374696f6e206f766572666c6f770000604482015290519081900360640190fd5b50900390565b610b9a81612100565b610bc6612137565b60006117fd6114a5565b9050600554811161183f5760405162461bcd60e51b81526004018080602001828103825260228152602001806126216022913960400191505060405180910390fd5b600654811115611896576040805162461bcd60e51b815260206004820152601b60248201527f5374616b653a3a5374616b696e67206861732066696e69736865640000000000604482015290519081900360640190fd5b6001600160a01b0383166000908152600c60205260409020600a5460018201548592879290916118c69084611c60565b11156119035760405162461bcd60e51b81526004018080602001828103825260288152602001806125896028913960400191505060405180910390fd5b600b546001546119139084611c60565b11156119505760405162461bcd60e51b81526004018080602001828103825260318152602001806125586031913960400191505060405180910390fd5b6000871161199d576040805162461bcd60e51b815260206004820152601560248201527405374616b653a3a43616e6e6f74207374616b65203605c1b604482015290519081900360640190fd5b6001600160a01b0386166000908152600c6020526040902060018101546119c7576119c78761216e565b6119cf611072565b6119d887611500565b60018101546119e79089611c60565b600180830191909155546119fb9089611c60565b60015560035460005b81811015611aff57600060038281548110611a1b57fe5b600091825260209182902001546040805163313ce56760e01b815290516001600160a01b039092169263313ce56792600480840193829003018186803b158015611a6457600080fd5b505afa158015611a78573d6000803e3d6000fd5b505050506040513d6020811015611a8e57600080fd5b50516008805460ff9092169250600a83900a91600091611ad69184916111b39188908110611ab857fe5b90600052602060002001548960010154611b9990919063ffffffff16565b905080866002018581548110611ae857fe5b600091825260209091200155505050600101611a04565b50611b2487611b0e5733611b10565b885b6004546001600160a01b031690308c612193565b604080518a815290516001600160a01b038a16917f9e71bc8eea02a63969f509818f2dafb9254532904319f9dbda79b67bd34a5f3d919081900360200190a2505050505050505050565b6001600160a01b03919091166000908152600d60205260409020805460ff1916911515919091179055565b600082611ba85750600061106c565b82820282848281611bb557fe5b0414611bf25760405162461bcd60e51b81526004018080602001828103825260218152602001806126436021913960400191505060405180910390fd5b9392505050565b6000808211611c4f576040805162461bcd60e51b815260206004820152601a60248201527f536166654d6174683a206469766973696f6e206279207a65726f000000000000604482015290519081900360640190fd5b818381611c5857fe5b049392505050565b600082820183811015611bf2576040805162461bcd60e51b815260206004820152601b60248201527f536166654d6174683a206164646974696f6e206f766572666c6f770000000000604482015290519081900360640190fd5b6001600160a01b0381166000908152600c60205260409020611cdb8261155f565b611ce98160010154836121ed565b600181015460408051918252516001600160a01b038416917f920bb94eb3842a728db98228c375ff6b00c5bc5a54fac6736155517a0a20a61a919081900360200190a25050565b611d42826001600160a01b03166123d1565b611d93576040805162461bcd60e51b815260206004820152601f60248201527f5361666545524332303a2063616c6c20746f206e6f6e2d636f6e747261637400604482015290519081900360640190fd5b60006060836001600160a01b0316836040518082805190602001908083835b60208310611dd15780518252601f199092019160209182019101611db2565b6001836020036101000a0380198251168184511680821785525050505050509050019150506000604051808303816000865af19150503d8060008114611e33576040519150601f19603f3d011682016040523d82523d6000602084013e611e38565b606091505b509150915081611e8f576040805162461bcd60e51b815260206004820181905260248201527f5361666545524332303a206c6f772d6c6576656c2063616c6c206661696c6564604482015290519081900360640190fd5b80511561155957808060200190516020811015611eab57600080fd5b50516115595760405162461bcd60e51b815260040180806020018281038252602a81526020018061271a602a913960400191505060405180910390fd5b6001600160a01b0381166000908152600c6020526040902060035460028201541415611f145750610b9a565b60035460028201545b8181101561155957600283018054600181810183556000928352602083209091019190915501611f1d565b6001600160a01b0381166000908152600c6020526040902060038054908201541415611f745750610b9a565b60038054908201545b8181101561155957600383018054600181810183556000928352602083209091019190915501611f7d565b6001600160a01b0382166000908152600c602052604081206003805491929184908110611fd157fe5b600091825260209182902001546040805163313ce56760e01b815290516001600160a01b039092169263313ce56792600480840193829003018186803b15801561201a57600080fd5b505afa15801561202e573d6000803e3d6000fd5b505050506040513d602081101561204457600080fd5b50516008805460ff9092169250600a83900a9160009161208c9184916111b3918990811061206e57fe5b90600052602060002001548760010154611b9990919063ffffffff16565b905060006120a285600201878154811061138d57fe5b905080156120f7576120bd818660030188815481106111cc57fe5b8560030187815481106120cc57fe5b9060005260206000200181905550818560020187815481106120ea57fe5b6000918252602090912001555b50505050505050565b60405162461bcd60e51b815260040180806020018281038252603f815260200180612519603f913960400191505060405180910390fd5b60405162461bcd60e51b815260040180806020018281038252603c8152602001806125b1603c913960400191505060405180910390fd5b6001600160a01b0381166000908152600c6020526040902061218e6114a5565b905550565b604080516001600160a01b0380861660248301528416604482015260648082018490528251808303909101815260849091019091526020810180516001600160e01b03166323b872dd60e01b179052611559908590611d30565b60008211612242576040805162461bcd60e51b815260206004820152601b60248201527f57697468647261773a3a43616e6e6f7420776974686472617720300000000000604482015290519081900360640190fd5b6001600160a01b0381166000908152600c60205260409020612262611072565b61226b82611500565b600181015461227a9084611785565b6001808301919091555461228e9084611785565b60015560035460005b81811015612374576000600382815481106122ae57fe5b600091825260209182902001546040805163313ce56760e01b815290516001600160a01b039092169263313ce56792600480840193829003018186803b1580156122f757600080fd5b505afa15801561230b573d6000803e3d6000fd5b505050506040513d602081101561232157600080fd5b50516008805460ff9092169250600a83900a9160009161234b9184916111b39188908110611ab857fe5b90508086600201858154811061235d57fe5b600091825260209091200155505050600101612297565b5060045461238c906001600160a01b031684866114a9565b6040805185815290516001600160a01b038516917f7084f5476618d8e60b11ef0d7d3f06914655adb8793e28ff7f018d4c76d505d5919081900360200190a250505050565b3b15159056fe5265656e7472616e637947756172643a207265656e7472616e742063616c6c0047657455736572526577617264446562744c656e6774683a3a496e76616c69642075736572206164647265737347657455736572526577617264446562743a3a496e76616c696420757365722061646472657373457874656e643a3a456e6420626c6f636b206d757374206265206166746572207468652063757272656e7420656e6420626c6f636b57697468647261774c50526577617264733a3a2063616e6e6f742077697468647261772066726f6d20746865204c5020746f6b656e7357697468647261774c50526577617264733a3a43616e6e6f742077697468647261772066726f6d20746f6b656e207265776172647347657455736572546f6b656e734f7765644c656e6774683a3a496e76616c6964207573657220616464726573734f6e6c7945786974466561747572653a3a63616e6e6f742077697468647261772066726f6d207468697320636f6e74726163742e204f6e6c7920657869742e6f6e6c79556e6465725374616b654c696d69743a3a436f6e7472616374205374616b65206c696d697420726561636865646f6e6c79556e6465725374616b654c696d69743a3a5374616b65206c696d697420726561636865644f6e6c7945786974466561747572653a3a63616e6e6f7420636c61696d2066726f6d207468697320636f6e74726163742e204f6e6c7920657869742e457874656e643a3a5265776172647320616d6f756e7473206c656e677468206973206c657373207468616e2065787065637465645374616b653a3a5374616b696e6720686173206e6f74207965742073746172746564536166654d6174683a206d756c7469706c69636174696f6e206f766572666c6f7765786974416e645472616e736665723a3a7265636569766572206973206e6f742077686974656c6973746564476574557365724f776564546f6b656e733a3a496e76616c69642075736572206164647265737357697468647261774c50526577617264733a3a546865726520617265206e6f20726577617264732066726f6d206c697175696469747920706f6f6c73457874656e643a3a456e6420626c6f636b206d75737420626520696e20746865206675747572655361666545524332303a204552433230206f7065726174696f6e20646964206e6f74207375636365656443616c6c6572206973206e6f742052657761726473506f6f6c466163746f727920636f6e74726163745361666545524332303a20617070726f76652066726f6d206e6f6e2d7a65726f20746f206e6f6e2d7a65726f20616c6c6f77616e6365a26469706673582212202aaaebb22b3e8940cdb9db5e0b865404bae7c244a1725680ff6a5d3b70cc46fa64736f6c634300060c0033436f6e7374727563746f723a3a5374616b65206c696d6974206e6565647320746f206265206d6f7265207468616e2030436f6e7374727563746f723a3a54686520656e6420626c6f636b206d75737420626520696e20746865206675747572652e436f6e7374727563746f723a3a526577617264732070657220626c6f636b20616e64207265776172647320746f6b656e73206d7573742062652077697468207468652073616d65206c656e6774682e436f6e7374727563746f723a3a20436f6e7472616374205374616b65206c696d6974206e6565647320746f206265206d6f7265207468616e2030436f6e7374727563746f723a3a546865207374617274696e6720626c6f636b206d75737420626520696e20746865206675747572652e",
  "source": "// SPDX-License-Identifier: MIT\n\npragma solidity 0.6.12;\n\nimport \"./../pool-features/StakeTransfererFeature.sol\";\nimport \"./OnlyExitRewardsPoolMock.sol\";\n\ncontract StakeTransfererRewardsPoolMock is OnlyExitRewardsPoolMock, StakeTransfererFeature {\n\tconstructor(\n        IERC20Detailed _stakingToken,\n        uint256 _startBlock,\n        uint256 _endBlock,\n        address[] memory _rewardsTokens,\n        uint256[] memory _rewardPerBlock,\n\t\tuint256 _stakeLimit,\n\t\tuint256 _contractStakeLimit\n    ) public OnlyExitRewardsPoolMock(_stakingToken, _startBlock, _endBlock, _rewardsTokens, _rewardPerBlock, _stakeLimit, _contractStakeLimit) {\n\n\t}\n\n\tfunction withdraw(uint256 _tokenAmount) public override(OnlyExitRewardsPoolMock, OnlyExitFeature) {\n\t\tOnlyExitRewardsPoolMock.withdraw(_tokenAmount);\n\t}\n\n\tfunction claim() public override(OnlyExitRewardsPoolMock, OnlyExitFeature) {\n\t\tOnlyExitRewardsPoolMock.claim();\n\t}\n}",
  "sourcePath": "/Users/martindobrev/Code/custom-token/contracts/mocks/StakeTransfererRewardsPoolMock.sol",
  "compiler": {
    "name": "solc",
    "version": "0.6.12+commit.27d51765.Emscripten.clang",
    "optimizer": true,
    "runs": 200
  },
  "schemaVersion": "2.3.5",
  "updatedAt": "2022-02-16T15:12:31.217Z"
}