{
  "contractName": "StakeReceiverRewardsPoolMock",
  "abi": [
    {
      "inputs": [
        {
          "internalType": "contract IERC20Detailed",
          "name": "_stakingToken",
          "type": "address"
        },
        {
          "internalType": "uint256",
          "name": "_startBlock",
          "type": "uint256"
        },
        {
          "internalType": "uint256",
          "name": "_endBlock",
          "type": "uint256"
        },
        {
          "internalType": "address[]",
          "name": "_rewardsTokens",
          "type": "address[]"
        },
        {
          "internalType": "uint256[]",
          "name": "_rewardPerBlock",
          "type": "uint256[]"
        },
        {
          "internalType": "uint256",
          "name": "_stakeLimit",
          "type": "uint256"
        },
        {
          "internalType": "uint256",
          "name": "_contractStakeLimit",
          "type": "uint256"
        }
      ],
      "stateMutability": "nonpayable",
      "type": "constructor"
    },
    {
      "anonymous": false,
      "inputs": [
        {
          "indexed": true,
          "internalType": "address",
          "name": "user",
          "type": "address"
        },
        {
          "indexed": false,
          "internalType": "uint256",
          "name": "amount",
          "type": "uint256"
        },
        {
          "indexed": false,
          "internalType": "address",
          "name": "token",
          "type": "address"
        }
      ],
      "name": "Claimed",
      "type": "event"
    },
    {
      "anonymous": false,
      "inputs": [
        {
          "indexed": true,
          "internalType": "address",
          "name": "user",
          "type": "address"
        },
        {
          "indexed": false,
          "internalType": "uint256",
          "name": "amount",
          "type": "uint256"
        }
      ],
      "name": "Exited",
      "type": "event"
    },
    {
      "anonymous": false,
      "inputs": [
        {
          "indexed": false,
          "internalType": "uint256",
          "name": "newEndBlock",
          "type": "uint256"
        },
        {
          "indexed": false,
          "internalType": "uint256[]",
          "name": "newRewardsPerBlock",
          "type": "uint256[]"
        }
      ],
      "name": "Extended",
      "type": "event"
    },
    {
      "anonymous": false,
      "inputs": [
        {
          "indexed": true,
          "internalType": "address",
          "name": "user",
          "type": "address"
        },
        {
          "indexed": false,
          "internalType": "uint256",
          "name": "amount",
          "type": "uint256"
        }
      ],
      "name": "Staked",
      "type": "event"
    },
    {
      "anonymous": false,
      "inputs": [
        {
          "indexed": true,
          "internalType": "uint256",
          "name": "rewardsAmount",
          "type": "uint256"
        },
        {
          "indexed": true,
          "internalType": "address",
          "name": "recipient",
          "type": "address"
        }
      ],
      "name": "WithdrawLPRewards",
      "type": "event"
    },
    {
      "anonymous": false,
      "inputs": [
        {
          "indexed": true,
          "internalType": "address",
          "name": "user",
          "type": "address"
        },
        {
          "indexed": false,
          "internalType": "uint256",
          "name": "amount",
          "type": "uint256"
        }
      ],
      "name": "Withdrawn",
      "type": "event"
    },
    {
      "inputs": [
        {
          "internalType": "uint256",
          "name": "",
          "type": "uint256"
        }
      ],
      "name": "accumulatedRewardMultiplier",
      "outputs": [
        {
          "internalType": "uint256",
          "name": "",
          "type": "uint256"
        }
      ],
      "stateMutability": "view",
      "type": "function"
    },
    {
      "inputs": [
        {
          "internalType": "address",
          "name": "_userAddress",
          "type": "address"
        }
      ],
      "name": "balanceOf",
      "outputs": [
        {
          "internalType": "uint256",
          "name": "",
          "type": "uint256"
        }
      ],
      "stateMutability": "view",
      "type": "function"
    },
    {
      "inputs": [],
      "name": "contractStakeLimit",
      "outputs": [
        {
          "internalType": "uint256",
          "name": "",
          "type": "uint256"
        }
      ],
      "stateMutability": "view",
      "type": "function"
    },
    {
      "inputs": [
        {
          "internalType": "address",
          "name": "staker",
          "type": "address"
        },
        {
          "internalType": "uint256",
          "name": "stake",
          "type": "uint256"
        }
      ],
      "name": "delegateStake",
      "outputs": [],
      "stateMutability": "nonpayable",
      "type": "function"
    },
    {
      "inputs": [],
      "name": "endBlock",
      "outputs": [
        {
          "internalType": "uint256",
          "name": "",
          "type": "uint256"
        }
      ],
      "stateMutability": "view",
      "type": "function"
    },
    {
      "inputs": [],
      "name": "exit",
      "outputs": [],
      "stateMutability": "nonpayable",
      "type": "function"
    },
    {
      "inputs": [
        {
          "internalType": "uint256",
          "name": "_endBlock",
          "type": "uint256"
        },
        {
          "internalType": "uint256[]",
          "name": "_rewardsPerBlock",
          "type": "uint256[]"
        },
        {
          "internalType": "uint256[]",
          "name": "_currentRemainingRewards",
          "type": "uint256[]"
        },
        {
          "internalType": "uint256[]",
          "name": "_newRemainingRewards",
          "type": "uint256[]"
        }
      ],
      "name": "extend",
      "outputs": [],
      "stateMutability": "nonpayable",
      "type": "function"
    },
    {
      "inputs": [],
      "name": "getRewardTokensCount",
      "outputs": [
        {
          "internalType": "uint256",
          "name": "",
          "type": "uint256"
        }
      ],
      "stateMutability": "view",
      "type": "function"
    },
    {
      "inputs": [
        {
          "internalType": "address",
          "name": "_userAddress",
          "type": "address"
        },
        {
          "internalType": "uint256",
          "name": "tokenIndex",
          "type": "uint256"
        }
      ],
      "name": "getUserAccumulatedReward",
      "outputs": [
        {
          "internalType": "uint256",
          "name": "",
          "type": "uint256"
        }
      ],
      "stateMutability": "view",
      "type": "function"
    },
    {
      "inputs": [
        {
          "internalType": "address",
          "name": "_userAddress",
          "type": "address"
        },
        {
          "internalType": "uint256",
          "name": "_index",
          "type": "uint256"
        }
      ],
      "name": "getUserOwedTokens",
      "outputs": [
        {
          "internalType": "uint256",
          "name": "",
          "type": "uint256"
        }
      ],
      "stateMutability": "view",
      "type": "function"
    },
    {
      "inputs": [
        {
          "internalType": "address",
          "name": "_userAddress",
          "type": "address"
        },
        {
          "internalType": "uint256",
          "name": "_index",
          "type": "uint256"
        }
      ],
      "name": "getUserRewardDebt",
      "outputs": [
        {
          "internalType": "uint256",
          "name": "",
          "type": "uint256"
        }
      ],
      "stateMutability": "view",
      "type": "function"
    },
    {
      "inputs": [
        {
          "internalType": "address",
          "name": "_userAddress",
          "type": "address"
        }
      ],
      "name": "getUserRewardDebtLength",
      "outputs": [
        {
          "internalType": "uint256",
          "name": "",
          "type": "uint256"
        }
      ],
      "stateMutability": "view",
      "type": "function"
    },
    {
      "inputs": [
        {
          "internalType": "address",
          "name": "_userAddress",
          "type": "address"
        }
      ],
      "name": "getUserTokensOwedLength",
      "outputs": [
        {
          "internalType": "uint256",
          "name": "",
          "type": "uint256"
        }
      ],
      "stateMutability": "view",
      "type": "function"
    },
    {
      "inputs": [],
      "name": "hasStakingStarted",
      "outputs": [
        {
          "internalType": "bool",
          "name": "",
          "type": "bool"
        }
      ],
      "stateMutability": "view",
      "type": "function"
    },
    {
      "inputs": [],
      "name": "lastRewardBlock",
      "outputs": [
        {
          "internalType": "uint256",
          "name": "",
          "type": "uint256"
        }
      ],
      "stateMutability": "view",
      "type": "function"
    },
    {
      "inputs": [
        {
          "internalType": "uint256",
          "name": "",
          "type": "uint256"
        }
      ],
      "name": "rewardPerBlock",
      "outputs": [
        {
          "internalType": "uint256",
          "name": "",
          "type": "uint256"
        }
      ],
      "stateMutability": "view",
      "type": "function"
    },
    {
      "inputs": [],
      "name": "rewardsPoolFactory",
      "outputs": [
        {
          "internalType": "address",
          "name": "",
          "type": "address"
        }
      ],
      "stateMutability": "view",
      "type": "function"
    },
    {
      "inputs": [
        {
          "internalType": "uint256",
          "name": "",
          "type": "uint256"
        }
      ],
      "name": "rewardsTokens",
      "outputs": [
        {
          "internalType": "address",
          "name": "",
          "type": "address"
        }
      ],
      "stateMutability": "view",
      "type": "function"
    },
    {
      "inputs": [
        {
          "internalType": "uint256",
          "name": "_tokenAmount",
          "type": "uint256"
        }
      ],
      "name": "stake",
      "outputs": [],
      "stateMutability": "nonpayable",
      "type": "function"
    },
    {
      "inputs": [],
      "name": "stakeLimit",
      "outputs": [
        {
          "internalType": "uint256",
          "name": "",
          "type": "uint256"
        }
      ],
      "stateMutability": "view",
      "type": "function"
    },
    {
      "inputs": [],
      "name": "stakingToken",
      "outputs": [
        {
          "internalType": "contract IERC20Detailed",
          "name": "",
          "type": "address"
        }
      ],
      "stateMutability": "view",
      "type": "function"
    },
    {
      "inputs": [],
      "name": "startBlock",
      "outputs": [
        {
          "internalType": "uint256",
          "name": "",
          "type": "uint256"
        }
      ],
      "stateMutability": "view",
      "type": "function"
    },
    {
      "inputs": [],
      "name": "totalStaked",
      "outputs": [
        {
          "internalType": "uint256",
          "name": "",
          "type": "uint256"
        }
      ],
      "stateMutability": "view",
      "type": "function"
    },
    {
      "inputs": [],
      "name": "updateRewardMultipliers",
      "outputs": [],
      "stateMutability": "nonpayable",
      "type": "function"
    },
    {
      "inputs": [
        {
          "internalType": "address",
          "name": "",
          "type": "address"
        }
      ],
      "name": "userInfo",
      "outputs": [
        {
          "internalType": "uint256",
          "name": "firstStakedBlockNumber",
          "type": "uint256"
        },
        {
          "internalType": "uint256",
          "name": "amountStaked",
          "type": "uint256"
        }
      ],
      "stateMutability": "view",
      "type": "function"
    },
    {
      "inputs": [
        {
          "internalType": "address",
          "name": "recipient",
          "type": "address"
        },
        {
          "internalType": "address",
          "name": "lpTokenContract",
          "type": "address"
        }
      ],
      "name": "withdrawLPRewards",
      "outputs": [],
      "stateMutability": "nonpayable",
      "type": "function"
    },
    {
      "inputs": [
        {
          "internalType": "uint256",
          "name": "_tokenAmount",
          "type": "uint256"
        }
      ],
      "name": "withdraw",
      "outputs": [],
      "stateMutability": "nonpayable",
      "type": "function"
    },
    {
      "inputs": [],
      "name": "claim",
      "outputs": [],
      "stateMutability": "nonpayable",
      "type": "function"
    }
  ],
  "bytecode": "0x60806040523480156200001157600080fd5b5060405162002a4438038062002a44833981810160405260e08110156200003757600080fd5b8151602083015160408085015160608601805192519496939591949391820192846401000000008211156200006b57600080fd5b9083019060208201858111156200008157600080fd5b82518660208202830111640100000000821117156200009f57600080fd5b82525081516020918201928201910280838360005b83811015620000ce578181015183820152602001620000b4565b5050505090500160405260200180516040519392919084640100000000821115620000f857600080fd5b9083019060208201858111156200010e57600080fd5b82518660208202830111640100000000821117156200012c57600080fd5b82525081516020918201928201910280838360005b838110156200015b57818101518382015260200162000141565b50505050919091016040908152602083015192015160016000559193509091508790508686868686868686868686868662000195620003b7565b8611620001d45760405162461bcd60e51b815260040180806020018281038252603681526020018062002a0e6036913960400191505060405180910390fd5b620001de620003b7565b85116200021d5760405162461bcd60e51b8152600401808060200182810382526031815260200180620029546031913960400191505060405180910390fd5b83518351146200025f5760405162461bcd60e51b815260040180806020018281038252604f81526020018062002985604f913960600191505060405180910390fd5b816200029d5760405162461bcd60e51b8152600401808060200182810382526030815260200180620029246030913960400191505060405180910390fd5b80620002db5760405162461bcd60e51b815260040180806020018281038252603a815260200180620029d4603a913960400191505060405180910390fd5b600480546001600160a01b0319166001600160a01b03891617905582516200030b906002906020860190620003bb565b506005869055600685905583516200032b9060039060208701906200040b565b50600554600755600980546001600160a01b03191633179055600a829055600b81905560005b6003548110156200039b57600880546001818101835560009283527ff3f7a9fe364faab93b216da50a3214154f22a0a2b415b23a84c8169e8b636ee3909101919091550162000351565b50505050505050505050505050505050505050505050620004a9565b4390565b828054828255906000526020600020908101928215620003f9579160200282015b82811115620003f9578251825591602001919060010190620003dc565b506200040792915062000471565b5090565b82805482825590600052602060002090810192821562000463579160200282015b828111156200046357825182546001600160a01b0319166001600160a01b039091161782556020909201916001909101906200042c565b506200040792915062000488565b5b8082111562000407576000815560010162000472565b5b80821115620004075780546001600160a01b031916815560010162000489565b61246b80620004b96000396000f3fe608060405234801561001057600080fd5b50600436106101c35760003560e01c806372f702f3116100f9578063b6d0dcd811610097578063df9d777f11610071578063df9d777f146105c9578063e9fad8ee146105f5578063f27d0264146105fd578063fb58cad114610629576101c3565b8063b6d0dcd814610578578063ce41530214610595578063dd2da220146105c1576101c3565b8063a1002a0f116100d3578063a1002a0f146104ff578063a1292aea1461052d578063a694fc3a14610553578063a9f8d18114610570576101c3565b806372f702f3146104d2578063791f39cd146104da578063817b1cd2146104f7576101c3565b80633c323a1b116101665780634e71d92d116101405780634e71d92d1461046457806356409b811461046c57806357b4f01f1461049057806370a08231146104ac576101c3565b80633c323a1b1461042857806345ef79af1461045457806348cd4cb11461045c576101c3565b80631959a002116101a25780631959a0021461021057806320e67c761461024f5780632d9e88e1146104035780632e1a7d4d1461040b576101c3565b806284c927146101c857806303d1dae014610200578063083c632314610208575b600080fd5b6101ee600480360360208110156101de57600080fd5b50356001600160a01b0316610646565b60408051918252519081900360200190f35b6101ee6106ac565b6101ee6106b2565b6102366004803603602081101561022657600080fd5b50356001600160a01b03166106b8565b6040805192835260208301919091528051918290030190f35b6104016004803603608081101561026557600080fd5b8135919081019060408101602082013564010000000081111561028757600080fd5b82018360208201111561029957600080fd5b803590602001918460208302840111640100000000831117156102bb57600080fd5b919080806020026020016040519081016040528093929190818152602001838360200280828437600092019190915250929594936020810193503591505064010000000081111561030b57600080fd5b82018360208201111561031d57600080fd5b8035906020019184602083028401116401000000008311171561033f57600080fd5b919080806020026020016040519081016040528093929190818152602001838360200280828437600092019190915250929594936020810193503591505064010000000081111561038f57600080fd5b8201836020820111156103a157600080fd5b803590602001918460208302840111640100000000831117156103c357600080fd5b9190808060200260200160405190810160405280939291908181526020018383602002808284376000920191909152509295506106d1945050505050565b005b6101ee610954565b6104016004803603602081101561042157600080fd5b503561095a565b6104016004803603604081101561043e57600080fd5b506001600160a01b038135169060200135610966565b6101ee610a26565b6101ee610a2c565b610401610a32565b610474610a3c565b604080516001600160a01b039092168252519081900360200190f35b610498610a4b565b604080519115158252519081900360200190f35b6101ee600480360360208110156104c257600080fd5b50356001600160a01b0316610a5f565b610474610a7d565b6101ee600480360360208110156104f057600080fd5b5035610a8c565b6101ee610aaa565b6104016004803603604081101561051557600080fd5b506001600160a01b0381358116916020013516610ab0565b6101ee6004803603602081101561054357600080fd5b50356001600160a01b0316610d2b565b6104016004803603602081101561056957600080fd5b5035610d91565b6101ee610e02565b6104746004803603602081101561058e57600080fd5b5035610e08565b6101ee600480360360408110156105ab57600080fd5b506001600160a01b038135169060200135610e2f565b610401610eb3565b6101ee600480360360408110156105df57600080fd5b506001600160a01b038135169060200135611058565b61040161120f565b6101ee6004803603604081101561061357600080fd5b506001600160a01b03813516906020013561127c565b6101ee6004803603602081101561063f57600080fd5b50356112eb565b60006001600160a01b03821661068d5760405162461bcd60e51b815260040180806020018281038252602d8152602001806120ed602d913960400191505060405180910390fd5b506001600160a01b03166000908152600c602052604090206002015490565b600b5481565b60065481565b600c602052600090815260409020805460019091015482565b6009546001600160a01b0316331461071a5760405162461bcd60e51b815260040180806020018281038252602981526020018061240d6029913960400191505060405180910390fd5b6107226112f8565b841161075f5760405162461bcd60e51b81526004018080602001828103825260278152602001806123bc6027913960400191505060405180910390fd5b6006548410156107a05760405162461bcd60e51b81526004018080602001828103825260358152602001806121416035913960400191505060405180910390fd5b6003548351146107e15760405162461bcd60e51b81526004018080602001828103825260348152602001806122e26034913960400191505060405180910390fd5b6107e9610eb3565b60005b83518110156108c95760006003828154811061080457fe5b60009182526020909120015483516001600160a01b03909116915083908390811061082b57fe5b602002602001015184838151811061083f57fe5b60200260200101511115610893576108933384848151811061085d57fe5b602002602001015186858151811061087157fe5b602002602001015103836001600160a01b03166112fc9092919063ffffffff16565b84828151811061089f57fe5b6020026020010151600283815481106108b457fe5b600091825260209091200155506001016107ec565b50836006819055507f137c92cc7579cc4d6a2b109467cd475c205d1c136363ca854cc46d72f840d5de84846040518083815260200180602001828103825283818151815260200191508051906020019060200280838360005b8381101561093a578181015183820152602001610922565b50505050905001935050505060405180910390a150505050565b60035490565b61096381611353565b50565b600081116109bb576040805162461bcd60e51b815260206004820152601c60248201527f64656c65676174655374616b653a3a4e6f207374616b652073656e7400000000604482015290519081900360640190fd5b6001600160a01b038216610a16576040805162461bcd60e51b815260206004820152601d60248201527f64656c65676174655374616b653a3a496e76616c6964207374616b6572000000604482015290519081900360640190fd5b610a228183600061135c565b5050565b600a5481565b60055481565b610a3a6116d7565b565b6009546001600160a01b031681565b6000600554610a586112f8565b1015905090565b6001600160a01b03166000908152600c602052604090206001015490565b6004546001600160a01b031681565b60028181548110610a9957fe5b600091825260209091200154905081565b60015481565b60026000541415610b08576040805162461bcd60e51b815260206004820152601f60248201527f5265656e7472616e637947756172643a207265656e7472616e742063616c6c00604482015290519081900360640190fd5b60026000556009546001600160a01b03163314610b565760405162461bcd60e51b815260040180806020018281038252602981526020018061240d6029913960400191505060405180910390fd5b6000816001600160a01b03166370a08231306040518263ffffffff1660e01b815260040180826001600160a01b0316815260200191505060206040518083038186803b158015610ba557600080fd5b505afa158015610bb9573d6000803e3d6000fd5b505050506040513d6020811015610bcf57600080fd5b5051905080610c0f5760405162461bcd60e51b815260040180806020018281038252603c815260200180612380603c913960400191505060405180910390fd5b6004546001600160a01b0383811691161415610c5c5760405162461bcd60e51b81526004018080602001828103825260368152602001806121766036913960400191505060405180910390fd5b60035460005b81811015610cd55760038181548110610c7757fe5b6000918252602090912001546001600160a01b0385811691161415610ccd5760405162461bcd60e51b81526004018080602001828103825260358152602001806121ac6035913960400191505060405180910390fd5b600101610c62565b50610cea6001600160a01b03841685846112fc565b6040516001600160a01b0385169083907fdf1b625465761dd1a4330a9b3a21d4943183f301036528a3544f8d891fdce2c290600090a3505060016000555050565b60006001600160a01b038216610d725760405162461bcd60e51b815260040180806020018281038252602d8152602001806121e1602d913960400191505060405180910390fd5b506001600160a01b03166000908152600c602052604090206003015490565b60026000541415610de9576040805162461bcd60e51b815260206004820152601f60248201527f5265656e7472616e637947756172643a207265656e7472616e742063616c6c00604482015290519081900360640190fd5b6002600055610dfa8133600161135c565b506001600055565b60075481565b60038181548110610e1557fe5b6000918252602090912001546001600160a01b0316905081565b60006001600160a01b038316610e765760405162461bcd60e51b81526004018080602001828103825260278152602001806123596027913960400191505060405180910390fd5b6001600160a01b0383166000908152600c6020526040902060038101805484908110610e9e57fe5b90600052602060002001549150505b92915050565b6000610ebd6112f8565b90506007548111610ece5750610a3a565b60006006548210610ee157600654610ee3565b815b600754909150810380610ef857505050610a3a565b600154610f09575060075550610a3a565b60035460005b8181101561104f57600060038281548110610f2657fe5b600091825260209182902001546040805163313ce56760e01b815290516001600160a01b039092169263313ce56792600480840193829003018186803b158015610f6f57600080fd5b505afa158015610f83573d6000803e3d6000fd5b505050506040513d6020811015610f9957600080fd5b50516002805460ff9092169250600a83900a91600091610fd79186908110610fbd57fe5b9060005260206000200154876116df90919063ffffffff16565b90506000610ffa600154610ff485856116df90919063ffffffff16565b9061173f565b9050611026816008878154811061100d57fe5b90600052602060002001546117a690919063ffffffff16565b6008868154811061103357fe5b600091825260209091200155505060019092019150610f0f9050565b50505060075550565b6000806110636112f8565b9050600060065482106110785760065461107a565b815b905060006110936007548361180090919063ffffffff16565b90506000600386815481106110a457fe5b600091825260209182902001546040805163313ce56760e01b815290516001600160a01b039092169263313ce56792600480840193829003018186803b1580156110ed57600080fd5b505afa158015611101573d6000803e3d6000fd5b505050506040513d602081101561111757600080fd5b50516002805460ff9092169250600a83900a91600091611155918a90811061113b57fe5b9060005260206000200154856116df90919063ffffffff16565b90506000611172600154610ff485856116df90919063ffffffff16565b905060006111878260088c8154811061100d57fe5b6001600160a01b038c166000908152600c602052604081206001810154929350916111b8908790610ff490866116df565b905060006111e8836002018e815481106111ce57fe5b90600052602060002001548361180090919063ffffffff16565b90506111fd81846003018f8154811061100d57fe5b9e9d5050505050505050505050505050565b60026000541415611267576040805162461bcd60e51b815260206004820152601f60248201527f5265656e7472616e637947756172643a207265656e7472616e742063616c6c00604482015290519081900360640190fd5b60026000556112753361185d565b6001600055565b60006001600160a01b0383166112c35760405162461bcd60e51b815260040180806020018281038252602781526020018061211a6027913960400191505060405180910390fd5b6001600160a01b0383166000908152600c6020526040902060028101805484908110610e9e57fe5b60088181548110610a9957fe5b4390565b604080516001600160a01b038416602482015260448082018490528251808303909101815260649091019091526020810180516001600160e01b031663a9059cbb60e01b17905261134e9084906118d3565b505050565b61096381611a91565b60006113666112f8565b905060055481116113a85760405162461bcd60e51b81526004018080602001828103825260228152602001806123166022913960400191505060405180910390fd5b6006548111156113ff576040805162461bcd60e51b815260206004820152601b60248201527f5374616b653a3a5374616b696e67206861732066696e69736865640000000000604482015290519081900360640190fd5b6001600160a01b0383166000908152600c60205260409020600a54600182015485928792909161142f90846117a6565b111561146c5760405162461bcd60e51b815260040180806020018281038252602881526020018061227e6028913960400191505060405180910390fd5b600b5460015461147c90846117a6565b11156114b95760405162461bcd60e51b815260040180806020018281038252603181526020018061224d6031913960400191505060405180910390fd5b60008711611506576040805162461bcd60e51b815260206004820152601560248201527405374616b653a3a43616e6e6f74207374616b65203605c1b604482015290519081900360640190fd5b6001600160a01b0386166000908152600c6020526040902060018101546115305761153087611ac8565b611538610eb3565b61154187611aed565b600181015461155090896117a6565b6001808301919091555461156490896117a6565b60015560035460005b818110156116685760006003828154811061158457fe5b600091825260209182902001546040805163313ce56760e01b815290516001600160a01b039092169263313ce56792600480840193829003018186803b1580156115cd57600080fd5b505afa1580156115e1573d6000803e3d6000fd5b505050506040513d60208110156115f757600080fd5b50516008805460ff9092169250600a83900a9160009161163f918491610ff4918890811061162157fe5b906000526020600020015489600101546116df90919063ffffffff16565b90508086600201858154811061165157fe5b60009182526020909120015550505060010161156d565b5061168d876116775733611679565b885b6004546001600160a01b031690308c611b46565b604080518a815290516001600160a01b038a16917f9e71bc8eea02a63969f509818f2dafb9254532904319f9dbda79b67bd34a5f3d919081900360200190a2505050505050505050565b610a3a611ba0565b6000826116ee57506000610ead565b828202828482816116fb57fe5b04146117385760405162461bcd60e51b81526004018080602001828103825260218152602001806123386021913960400191505060405180910390fd5b9392505050565b6000808211611795576040805162461bcd60e51b815260206004820152601a60248201527f536166654d6174683a206469766973696f6e206279207a65726f000000000000604482015290519081900360640190fd5b81838161179e57fe5b049392505050565b600082820183811015611738576040805162461bcd60e51b815260206004820152601b60248201527f536166654d6174683a206164646974696f6e206f766572666c6f770000000000604482015290519081900360640190fd5b600082821115611857576040805162461bcd60e51b815260206004820152601e60248201527f536166654d6174683a207375627472616374696f6e206f766572666c6f770000604482015290519081900360640190fd5b50900390565b6001600160a01b0381166000908152600c6020526040902061187e82611bd7565b61188c816001015483611cea565b600181015460408051918252516001600160a01b038416917f920bb94eb3842a728db98228c375ff6b00c5bc5a54fac6736155517a0a20a61a919081900360200190a25050565b6118e5826001600160a01b0316611ece565b611936576040805162461bcd60e51b815260206004820152601f60248201527f5361666545524332303a2063616c6c20746f206e6f6e2d636f6e747261637400604482015290519081900360640190fd5b60006060836001600160a01b0316836040518082805190602001908083835b602083106119745780518252601f199092019160209182019101611955565b6001836020036101000a0380198251168184511680821785525050505050509050019150506000604051808303816000865af19150503d80600081146119d6576040519150601f19603f3d011682016040523d82523d6000602084013e6119db565b606091505b509150915081611a32576040805162461bcd60e51b815260206004820181905260248201527f5361666545524332303a206c6f772d6c6576656c2063616c6c206661696c6564604482015290519081900360640190fd5b805115611a8b57808060200190516020811015611a4e57600080fd5b5051611a8b5760405162461bcd60e51b815260040180806020018281038252602a8152602001806123e3602a913960400191505060405180910390fd5b50505050565b60405162461bcd60e51b815260040180806020018281038252603f81526020018061220e603f913960400191505060405180910390fd5b6001600160a01b0381166000908152600c60205260409020611ae86112f8565b905550565b6001600160a01b0381166000908152600c60205260409020611b0e82611ed4565b611b1782611f34565b6001810154611b265750610963565b60035460005b81811015611a8b57611b3e8482611f94565b600101611b2c565b604080516001600160a01b0380861660248301528416604482015260648082018490528251808303909101815260849091019091526020810180516001600160e01b03166323b872dd60e01b179052611a8b9085906118d3565b60405162461bcd60e51b815260040180806020018281038252603c8152602001806122a6603c913960400191505060405180910390fd5b6001600160a01b0381166000908152600c60205260409020611bf7610eb3565b611c0082611aed565b60035460005b81811015611a8b576000836003018281548110611c1f57fe5b906000526020600020015490506000846003018381548110611c3d57fe5b9060005260206000200181905550611c79858260038581548110611c5d57fe5b6000918252602090912001546001600160a01b031691906112fc565b846001600160a01b03167f7e6632ca16a0ac6cf28448500b1a17d96c8b8163ad4c4a9b44ef5386cc02779e8260038581548110611cb257fe5b60009182526020918290200154604080519384526001600160a01b03909116918301919091528051918290030190a250600101611c06565b60008211611d3f576040805162461bcd60e51b815260206004820152601b60248201527f57697468647261773a3a43616e6e6f7420776974686472617720300000000000604482015290519081900360640190fd5b6001600160a01b0381166000908152600c60205260409020611d5f610eb3565b611d6882611aed565b6001810154611d779084611800565b60018083019190915554611d8b9084611800565b60015560035460005b81811015611e7157600060038281548110611dab57fe5b600091825260209182902001546040805163313ce56760e01b815290516001600160a01b039092169263313ce56792600480840193829003018186803b158015611df457600080fd5b505afa158015611e08573d6000803e3d6000fd5b505050506040513d6020811015611e1e57600080fd5b50516008805460ff9092169250600a83900a91600091611e48918491610ff4918890811061162157fe5b905080866002018581548110611e5a57fe5b600091825260209091200155505050600101611d94565b50600454611e89906001600160a01b031684866112fc565b6040805185815290516001600160a01b038516917f7084f5476618d8e60b11ef0d7d3f06914655adb8793e28ff7f018d4c76d505d5919081900360200190a250505050565b3b151590565b6001600160a01b0381166000908152600c6020526040902060035460028201541415611f005750610963565b60035460028201545b81811015611a8b57600283018054600181810183556000928352602083209091019190915501611f09565b6001600160a01b0381166000908152600c6020526040902060038054908201541415611f605750610963565b60038054908201545b81811015611a8b57600383018054600181810183556000928352602083209091019190915501611f69565b6001600160a01b0382166000908152600c602052604081206003805491929184908110611fbd57fe5b600091825260209182902001546040805163313ce56760e01b815290516001600160a01b039092169263313ce56792600480840193829003018186803b15801561200657600080fd5b505afa15801561201a573d6000803e3d6000fd5b505050506040513d602081101561203057600080fd5b50516008805460ff9092169250600a83900a91600091612078918491610ff4918990811061205a57fe5b906000526020600020015487600101546116df90919063ffffffff16565b9050600061208e8560020187815481106111ce57fe5b905080156120e3576120a98186600301888154811061100d57fe5b8560030187815481106120b857fe5b9060005260206000200181905550818560020187815481106120d657fe5b6000918252602090912001555b5050505050505056fe47657455736572526577617264446562744c656e6774683a3a496e76616c69642075736572206164647265737347657455736572526577617264446562743a3a496e76616c696420757365722061646472657373457874656e643a3a456e6420626c6f636b206d757374206265206166746572207468652063757272656e7420656e6420626c6f636b57697468647261774c50526577617264733a3a2063616e6e6f742077697468647261772066726f6d20746865204c5020746f6b656e7357697468647261774c50526577617264733a3a43616e6e6f742077697468647261772066726f6d20746f6b656e207265776172647347657455736572546f6b656e734f7765644c656e6774683a3a496e76616c6964207573657220616464726573734f6e6c7945786974466561747572653a3a63616e6e6f742077697468647261772066726f6d207468697320636f6e74726163742e204f6e6c7920657869742e6f6e6c79556e6465725374616b654c696d69743a3a436f6e7472616374205374616b65206c696d697420726561636865646f6e6c79556e6465725374616b654c696d69743a3a5374616b65206c696d697420726561636865644f6e6c7945786974466561747572653a3a63616e6e6f7420636c61696d2066726f6d207468697320636f6e74726163742e204f6e6c7920657869742e457874656e643a3a5265776172647320616d6f756e7473206c656e677468206973206c657373207468616e2065787065637465645374616b653a3a5374616b696e6720686173206e6f74207965742073746172746564536166654d6174683a206d756c7469706c69636174696f6e206f766572666c6f77476574557365724f776564546f6b656e733a3a496e76616c69642075736572206164647265737357697468647261774c50526577617264733a3a546865726520617265206e6f20726577617264732066726f6d206c697175696469747920706f6f6c73457874656e643a3a456e6420626c6f636b206d75737420626520696e20746865206675747572655361666545524332303a204552433230206f7065726174696f6e20646964206e6f74207375636365656443616c6c6572206973206e6f742052657761726473506f6f6c466163746f727920636f6e7472616374a2646970667358221220b77c44af523ac931432250e0531b2390a56caa356ba68267153a70e1556b737364736f6c634300060c0033436f6e7374727563746f723a3a5374616b65206c696d6974206e6565647320746f206265206d6f7265207468616e2030436f6e7374727563746f723a3a54686520656e6420626c6f636b206d75737420626520696e20746865206675747572652e436f6e7374727563746f723a3a526577617264732070657220626c6f636b20616e64207265776172647320746f6b656e73206d7573742062652077697468207468652073616d65206c656e6774682e436f6e7374727563746f723a3a20436f6e7472616374205374616b65206c696d6974206e6565647320746f206265206d6f7265207468616e2030436f6e7374727563746f723a3a546865207374617274696e6720626c6f636b206d75737420626520696e20746865206675747572652e",
  "source": "// SPDX-License-Identifier: MIT\n\npragma solidity 0.6.12;\n\nimport \"./../pool-features/StakeReceiverFeature.sol\";\nimport \"./OnlyExitRewardsPoolMock.sol\";\n\ncontract StakeReceiverRewardsPoolMock is OnlyExitRewardsPoolMock, StakeReceiverFeature {\n\tconstructor(\n        IERC20Detailed _stakingToken,\n        uint256 _startBlock,\n        uint256 _endBlock,\n        address[] memory _rewardsTokens,\n        uint256[] memory _rewardPerBlock,\n\t\tuint256 _stakeLimit,\n\t\tuint256 _contractStakeLimit\n    ) public OnlyExitRewardsPoolMock(_stakingToken, _startBlock, _endBlock, _rewardsTokens, _rewardPerBlock, _stakeLimit, _contractStakeLimit) {\n\n\t}\n\n    function withdraw(uint256 _tokenAmount) public override(OnlyExitRewardsPoolMock, RewardsPoolBase) {\n\t\tOnlyExitRewardsPoolMock.withdraw(_tokenAmount);\n\t}\n\n\tfunction claim() public override(OnlyExitRewardsPoolMock, RewardsPoolBase) {\n\t\tOnlyExitRewardsPoolMock.claim();\n\t}\n}",
  "sourcePath": "/Users/martindobrev/Code/custom-token/contracts/mocks/StakeReceiverRewardsPoolMock.sol",
  "compiler": {
    "name": "solc",
    "version": "0.6.12+commit.27d51765.Emscripten.clang",
    "optimizer": true,
    "runs": 200
  },
  "schemaVersion": "2.3.5",
  "updatedAt": "2022-02-16T15:12:31.216Z"
}