{
  "contractName": "ThrottledExitRewardsPoolMock",
  "abi": [
    {
      "inputs": [
        {
          "internalType": "contract IERC20Detailed",
          "name": "_stakingToken",
          "type": "address"
        },
        {
          "internalType": "uint256",
          "name": "_startBlock",
          "type": "uint256"
        },
        {
          "internalType": "uint256",
          "name": "_endBlock",
          "type": "uint256"
        },
        {
          "internalType": "address[]",
          "name": "_rewardsTokens",
          "type": "address[]"
        },
        {
          "internalType": "uint256[]",
          "name": "_rewardPerBlock",
          "type": "uint256[]"
        },
        {
          "internalType": "uint256",
          "name": "_stakeLimit",
          "type": "uint256"
        },
        {
          "internalType": "uint256",
          "name": "throttleRoundBlocks",
          "type": "uint256"
        },
        {
          "internalType": "uint256",
          "name": "throttleRoundCap",
          "type": "uint256"
        },
        {
          "internalType": "uint256",
          "name": "_contractStakeLimit",
          "type": "uint256"
        }
      ],
      "stateMutability": "nonpayable",
      "type": "constructor"
    },
    {
      "anonymous": false,
      "inputs": [
        {
          "indexed": true,
          "internalType": "address",
          "name": "user",
          "type": "address"
        },
        {
          "indexed": false,
          "internalType": "uint256",
          "name": "amount",
          "type": "uint256"
        },
        {
          "indexed": false,
          "internalType": "address",
          "name": "token",
          "type": "address"
        }
      ],
      "name": "Claimed",
      "type": "event"
    },
    {
      "anonymous": false,
      "inputs": [
        {
          "indexed": false,
          "internalType": "address",
          "name": "user",
          "type": "address"
        },
        {
          "indexed": false,
          "internalType": "uint256",
          "name": "stake",
          "type": "uint256"
        }
      ],
      "name": "ExitCompleted",
      "type": "event"
    },
    {
      "anonymous": false,
      "inputs": [
        {
          "indexed": false,
          "internalType": "address",
          "name": "user",
          "type": "address"
        },
        {
          "indexed": false,
          "internalType": "uint256",
          "name": "exitBlock",
          "type": "uint256"
        }
      ],
      "name": "ExitRequested",
      "type": "event"
    },
    {
      "anonymous": false,
      "inputs": [
        {
          "indexed": true,
          "internalType": "address",
          "name": "user",
          "type": "address"
        },
        {
          "indexed": false,
          "internalType": "uint256",
          "name": "amount",
          "type": "uint256"
        }
      ],
      "name": "Exited",
      "type": "event"
    },
    {
      "anonymous": false,
      "inputs": [
        {
          "indexed": false,
          "internalType": "uint256",
          "name": "newEndBlock",
          "type": "uint256"
        },
        {
          "indexed": false,
          "internalType": "uint256[]",
          "name": "newRewardsPerBlock",
          "type": "uint256[]"
        }
      ],
      "name": "Extended",
      "type": "event"
    },
    {
      "anonymous": false,
      "inputs": [
        {
          "indexed": true,
          "internalType": "address",
          "name": "user",
          "type": "address"
        },
        {
          "indexed": false,
          "internalType": "uint256",
          "name": "amount",
          "type": "uint256"
        }
      ],
      "name": "Staked",
      "type": "event"
    },
    {
      "anonymous": false,
      "inputs": [
        {
          "indexed": true,
          "internalType": "uint256",
          "name": "rewardsAmount",
          "type": "uint256"
        },
        {
          "indexed": true,
          "internalType": "address",
          "name": "recipient",
          "type": "address"
        }
      ],
      "name": "WithdrawLPRewards",
      "type": "event"
    },
    {
      "anonymous": false,
      "inputs": [
        {
          "indexed": true,
          "internalType": "address",
          "name": "user",
          "type": "address"
        },
        {
          "indexed": false,
          "internalType": "uint256",
          "name": "amount",
          "type": "uint256"
        }
      ],
      "name": "Withdrawn",
      "type": "event"
    },
    {
      "inputs": [
        {
          "internalType": "uint256",
          "name": "",
          "type": "uint256"
        }
      ],
      "name": "accumulatedRewardMultiplier",
      "outputs": [
        {
          "internalType": "uint256",
          "name": "",
          "type": "uint256"
        }
      ],
      "stateMutability": "view",
      "type": "function"
    },
    {
      "inputs": [
        {
          "internalType": "address",
          "name": "_userAddress",
          "type": "address"
        }
      ],
      "name": "balanceOf",
      "outputs": [
        {
          "internalType": "uint256",
          "name": "",
          "type": "uint256"
        }
      ],
      "stateMutability": "view",
      "type": "function"
    },
    {
      "inputs": [],
      "name": "completeExit",
      "outputs": [],
      "stateMutability": "nonpayable",
      "type": "function"
    },
    {
      "inputs": [],
      "name": "contractStakeLimit",
      "outputs": [
        {
          "internalType": "uint256",
          "name": "",
          "type": "uint256"
        }
      ],
      "stateMutability": "view",
      "type": "function"
    },
    {
      "inputs": [],
      "name": "endBlock",
      "outputs": [
        {
          "internalType": "uint256",
          "name": "",
          "type": "uint256"
        }
      ],
      "stateMutability": "view",
      "type": "function"
    },
    {
      "inputs": [
        {
          "internalType": "address",
          "name": "",
          "type": "address"
        }
      ],
      "name": "exitInfo",
      "outputs": [
        {
          "internalType": "uint256",
          "name": "exitBlock",
          "type": "uint256"
        },
        {
          "internalType": "uint256",
          "name": "exitStake",
          "type": "uint256"
        }
      ],
      "stateMutability": "view",
      "type": "function"
    },
    {
      "inputs": [
        {
          "internalType": "uint256",
          "name": "_endBlock",
          "type": "uint256"
        },
        {
          "internalType": "uint256[]",
          "name": "_rewardsPerBlock",
          "type": "uint256[]"
        },
        {
          "internalType": "uint256[]",
          "name": "_currentRemainingRewards",
          "type": "uint256[]"
        },
        {
          "internalType": "uint256[]",
          "name": "_newRemainingRewards",
          "type": "uint256[]"
        }
      ],
      "name": "extend",
      "outputs": [],
      "stateMutability": "nonpayable",
      "type": "function"
    },
    {
      "inputs": [
        {
          "internalType": "uint256",
          "name": "tokenIndex",
          "type": "uint256"
        }
      ],
      "name": "getPendingReward",
      "outputs": [
        {
          "internalType": "uint256",
          "name": "",
          "type": "uint256"
        }
      ],
      "stateMutability": "view",
      "type": "function"
    },
    {
      "inputs": [],
      "name": "getRewardTokensCount",
      "outputs": [
        {
          "internalType": "uint256",
          "name": "",
          "type": "uint256"
        }
      ],
      "stateMutability": "view",
      "type": "function"
    },
    {
      "inputs": [
        {
          "internalType": "address",
          "name": "_userAddress",
          "type": "address"
        },
        {
          "internalType": "uint256",
          "name": "tokenIndex",
          "type": "uint256"
        }
      ],
      "name": "getUserAccumulatedReward",
      "outputs": [
        {
          "internalType": "uint256",
          "name": "",
          "type": "uint256"
        }
      ],
      "stateMutability": "view",
      "type": "function"
    },
    {
      "inputs": [
        {
          "internalType": "address",
          "name": "_userAddress",
          "type": "address"
        },
        {
          "internalType": "uint256",
          "name": "_index",
          "type": "uint256"
        }
      ],
      "name": "getUserOwedTokens",
      "outputs": [
        {
          "internalType": "uint256",
          "name": "",
          "type": "uint256"
        }
      ],
      "stateMutability": "view",
      "type": "function"
    },
    {
      "inputs": [
        {
          "internalType": "address",
          "name": "_userAddress",
          "type": "address"
        },
        {
          "internalType": "uint256",
          "name": "_index",
          "type": "uint256"
        }
      ],
      "name": "getUserRewardDebt",
      "outputs": [
        {
          "internalType": "uint256",
          "name": "",
          "type": "uint256"
        }
      ],
      "stateMutability": "view",
      "type": "function"
    },
    {
      "inputs": [
        {
          "internalType": "address",
          "name": "_userAddress",
          "type": "address"
        }
      ],
      "name": "getUserRewardDebtLength",
      "outputs": [
        {
          "internalType": "uint256",
          "name": "",
          "type": "uint256"
        }
      ],
      "stateMutability": "view",
      "type": "function"
    },
    {
      "inputs": [
        {
          "internalType": "address",
          "name": "_userAddress",
          "type": "address"
        }
      ],
      "name": "getUserTokensOwedLength",
      "outputs": [
        {
          "internalType": "uint256",
          "name": "",
          "type": "uint256"
        }
      ],
      "stateMutability": "view",
      "type": "function"
    },
    {
      "inputs": [],
      "name": "hasStakingStarted",
      "outputs": [
        {
          "internalType": "bool",
          "name": "",
          "type": "bool"
        }
      ],
      "stateMutability": "view",
      "type": "function"
    },
    {
      "inputs": [],
      "name": "lastRewardBlock",
      "outputs": [
        {
          "internalType": "uint256",
          "name": "",
          "type": "uint256"
        }
      ],
      "stateMutability": "view",
      "type": "function"
    },
    {
      "inputs": [],
      "name": "lockEndBlock",
      "outputs": [
        {
          "internalType": "uint256",
          "name": "",
          "type": "uint256"
        }
      ],
      "stateMutability": "view",
      "type": "function"
    },
    {
      "inputs": [],
      "name": "nextAvailableExitBlock",
      "outputs": [
        {
          "internalType": "uint256",
          "name": "",
          "type": "uint256"
        }
      ],
      "stateMutability": "view",
      "type": "function"
    },
    {
      "inputs": [],
      "name": "nextAvailableRoundExitVolume",
      "outputs": [
        {
          "internalType": "uint256",
          "name": "",
          "type": "uint256"
        }
      ],
      "stateMutability": "view",
      "type": "function"
    },
    {
      "inputs": [
        {
          "internalType": "uint256",
          "name": "",
          "type": "uint256"
        }
      ],
      "name": "rewardPerBlock",
      "outputs": [
        {
          "internalType": "uint256",
          "name": "",
          "type": "uint256"
        }
      ],
      "stateMutability": "view",
      "type": "function"
    },
    {
      "inputs": [],
      "name": "rewardsPoolFactory",
      "outputs": [
        {
          "internalType": "address",
          "name": "",
          "type": "address"
        }
      ],
      "stateMutability": "view",
      "type": "function"
    },
    {
      "inputs": [
        {
          "internalType": "uint256",
          "name": "",
          "type": "uint256"
        }
      ],
      "name": "rewardsTokens",
      "outputs": [
        {
          "internalType": "address",
          "name": "",
          "type": "address"
        }
      ],
      "stateMutability": "view",
      "type": "function"
    },
    {
      "inputs": [
        {
          "internalType": "uint256",
          "name": "_tokenAmount",
          "type": "uint256"
        }
      ],
      "name": "stake",
      "outputs": [],
      "stateMutability": "nonpayable",
      "type": "function"
    },
    {
      "inputs": [],
      "name": "stakeLimit",
      "outputs": [
        {
          "internalType": "uint256",
          "name": "",
          "type": "uint256"
        }
      ],
      "stateMutability": "view",
      "type": "function"
    },
    {
      "inputs": [],
      "name": "stakingToken",
      "outputs": [
        {
          "internalType": "contract IERC20Detailed",
          "name": "",
          "type": "address"
        }
      ],
      "stateMutability": "view",
      "type": "function"
    },
    {
      "inputs": [],
      "name": "startBlock",
      "outputs": [
        {
          "internalType": "uint256",
          "name": "",
          "type": "uint256"
        }
      ],
      "stateMutability": "view",
      "type": "function"
    },
    {
      "inputs": [],
      "name": "throttleRoundBlocks",
      "outputs": [
        {
          "internalType": "uint256",
          "name": "",
          "type": "uint256"
        }
      ],
      "stateMutability": "view",
      "type": "function"
    },
    {
      "inputs": [],
      "name": "throttleRoundCap",
      "outputs": [
        {
          "internalType": "uint256",
          "name": "",
          "type": "uint256"
        }
      ],
      "stateMutability": "view",
      "type": "function"
    },
    {
      "inputs": [],
      "name": "totalStaked",
      "outputs": [
        {
          "internalType": "uint256",
          "name": "",
          "type": "uint256"
        }
      ],
      "stateMutability": "view",
      "type": "function"
    },
    {
      "inputs": [],
      "name": "updateRewardMultipliers",
      "outputs": [],
      "stateMutability": "nonpayable",
      "type": "function"
    },
    {
      "inputs": [
        {
          "internalType": "address",
          "name": "",
          "type": "address"
        }
      ],
      "name": "userInfo",
      "outputs": [
        {
          "internalType": "uint256",
          "name": "firstStakedBlockNumber",
          "type": "uint256"
        },
        {
          "internalType": "uint256",
          "name": "amountStaked",
          "type": "uint256"
        }
      ],
      "stateMutability": "view",
      "type": "function"
    },
    {
      "inputs": [
        {
          "internalType": "address",
          "name": "recipient",
          "type": "address"
        },
        {
          "internalType": "address",
          "name": "lpTokenContract",
          "type": "address"
        }
      ],
      "name": "withdrawLPRewards",
      "outputs": [],
      "stateMutability": "nonpayable",
      "type": "function"
    },
    {
      "inputs": [
        {
          "internalType": "uint256",
          "name": "_tokenAmount",
          "type": "uint256"
        }
      ],
      "name": "withdraw",
      "outputs": [],
      "stateMutability": "nonpayable",
      "type": "function"
    },
    {
      "inputs": [],
      "name": "claim",
      "outputs": [],
      "stateMutability": "nonpayable",
      "type": "function"
    },
    {
      "inputs": [],
      "name": "exit",
      "outputs": [],
      "stateMutability": "nonpayable",
      "type": "function"
    }
  ],
  "bytecode": "0x60a06040523480156200001157600080fd5b5060405162002f6e38038062002f6e83398181016040526101208110156200003857600080fd5b8151602083015160408085015160608601805192519496939591949391820192846401000000008211156200006c57600080fd5b9083019060208201858111156200008257600080fd5b8251866020820283011164010000000082111715620000a057600080fd5b82525081516020918201928201910280838360005b83811015620000cf578181015183820152602001620000b5565b5050505090500160405260200180516040519392919084640100000000821115620000f957600080fd5b9083019060208201858111156200010f57600080fd5b82518660208202830111640100000000821117156200012d57600080fd5b82525081516020918201928201910280838360005b838110156200015c57818101518382015260200162000142565b50505050919091016040908152602083015190830151606084015160809094015160016000559195509350905086898982898989876200019b62000408565b8611620001da5760405162461bcd60e51b815260040180806020018281038252603681526020018062002f386036913960400191505060405180910390fd5b620001e462000408565b8511620002235760405162461bcd60e51b815260040180806020018281038252603181526020018062002e1a6031913960400191505060405180910390fd5b8351835114620002655760405162461bcd60e51b815260040180806020018281038252604f81526020018062002e4b604f913960600191505060405180910390fd5b81620002a35760405162461bcd60e51b815260040180806020018281038252603081526020018062002db96030913960400191505060405180910390fd5b80620002e15760405162461bcd60e51b815260040180806020018281038252603a81526020018062002efe603a913960400191505060405180910390fd5b600480546001600160a01b0319166001600160a01b03891617905582516200031190600290602086019062000568565b5060058690556006859055835162000331906003906020870190620005b8565b50600554600755600980546001600160a01b03191633179055600a829055600b81905560005b600354811015620003a157600880546001818101835560009283527ff3f7a9fe364faab93b216da50a3214154f22a0a2b415b23a84c8169e8b636ee3909101919091550162000357565b5050505050505050438111620003e95760405162461bcd60e51b815260040180806020018281038252602e81526020018062002ed0602e913960400191505060405180910390fd5b608052620003f98383896200040c565b50505050505050505062000656565b4390565b600083116200044d5760405162461bcd60e51b815260040180806020018281038252603681526020018062002e9a6036913960400191505060405180910390fd5b600082116200048e5760405162461bcd60e51b815260040180806020018281038252603381526020018062002d866033913960400191505060405180910390fd5b600f541580156200049f5750601054155b620004dc5760405162461bcd60e51b815260040180806020018281038252603181526020018062002de96031913960400191505060405180910390fd5b600f8390556010829055620004fe818462000506602090811b620013ed17901c565b600d55505050565b60008282018381101562000561576040805162461bcd60e51b815260206004820152601b60248201527f536166654d6174683a206164646974696f6e206f766572666c6f770000000000604482015290519081900360640190fd5b9392505050565b828054828255906000526020600020908101928215620005a6579160200282015b82811115620005a657825182559160200191906001019062000589565b50620005b49291506200061e565b5090565b82805482825590600052602060002090810192821562000610579160200282015b828111156200061057825182546001600160a01b0319166001600160a01b03909116178255602090920191600190910190620005d9565b50620005b492915062000635565b5b80821115620005b457600081556001016200061f565b5b80821115620005b45780546001600160a01b031916815560010162000636565b60805161270b6200067b60003980610ace5280610e3f5280611ae3525061270b6000f3fe608060405234801561001057600080fd5b50600436106102105760003560e01c806372f702f311610125578063b01eb660116100ad578063df9d777f1161007c578063df9d777f14610655578063e9fad8ee14610681578063ee483cdf14610689578063f27d026414610691578063fb58cad1146106bd57610210565b8063b01eb660146105fc578063b6d0dcd814610604578063ce41530214610621578063dd2da2201461064d57610210565b806394f66417116100f457806394f664171461055d578063a1002a0f14610583578063a1292aea146105b1578063a694fc3a146105d7578063a9f8d181146105f457610210565b806372f702f314610528578063791f39cd14610530578063817b1cd21461054d5780638587edbb1461055557610210565b806345ef79af116101a857806356409b811161017757806356409b811461049d57806357b4f01f146104c15780636eb957df146104dd57806370a08231146104e55780637211bbc91461050b57610210565b806345ef79af1461047d57806348cd4cb1146104855780634e71d92d1461048d5780634ff3306f1461049557610210565b80631c1f9cc0116101e45780631c1f9cc01461029c57806320e67c76146102a45780632d9e88e1146104585780632e1a7d4d1461046057610210565b806284c9271461021557806303d1dae01461024d578063083c6323146102555780631959a0021461025d575b600080fd5b61023b6004803603602081101561022b57600080fd5b50356001600160a01b03166106da565b60408051918252519081900360200190f35b61023b610744565b61023b61074a565b6102836004803603602081101561027357600080fd5b50356001600160a01b0316610750565b6040805192835260208301919091528051918290030190f35b61023b610769565b610456600480360360808110156102ba57600080fd5b813591908101906040810160208201356401000000008111156102dc57600080fd5b8201836020820111156102ee57600080fd5b8035906020019184602083028401116401000000008311171561031057600080fd5b919080806020026020016040519081016040528093929190818152602001838360200280828437600092019190915250929594936020810193503591505064010000000081111561036057600080fd5b82018360208201111561037257600080fd5b8035906020019184602083028401116401000000008311171561039457600080fd5b91908080602002602001604051908101604052809392919081815260200183836020028082843760009201919091525092959493602081019350359150506401000000008111156103e457600080fd5b8201836020820111156103f657600080fd5b8035906020019184602083028401116401000000008311171561041857600080fd5b91908080602002602001604051908101604052809392919081815260200183836020028082843760009201919091525092955061076f945050505050565b005b61023b6109f2565b6104566004803603602081101561047657600080fd5b50356109f8565b61023b610a04565b61023b610a0a565b610456610a10565b61023b610a1a565b6104a5610a20565b604080516001600160a01b039092168252519081900360200190f35b6104c9610a2f565b604080519115158252519081900360200190f35b61023b610a43565b61023b600480360360208110156104fb57600080fd5b50356001600160a01b0316610a49565b61023b6004803603602081101561052157600080fd5b5035610a67565b6104a5610a99565b61023b6004803603602081101561054657600080fd5b5035610aa8565b61023b610ac6565b61023b610acc565b6102836004803603602081101561057357600080fd5b50356001600160a01b0316610af0565b6104566004803603604081101561059957600080fd5b506001600160a01b0381358116916020013516610b09565b61023b600480360360208110156105c757600080fd5b50356001600160a01b0316610d72565b610456600480360360208110156105ed57600080fd5b5035610dd8565b61023b610e37565b610456610e3d565b6104a56004803603602081101561061a57600080fd5b5035610f5c565b61023b6004803603604081101561063757600080fd5b506001600160a01b038135169060200135610f83565b610456611007565b61023b6004803603604081101561066b57600080fd5b506001600160a01b0381351690602001356111ac565b610456611363565b61023b61136b565b61023b600480360360408110156106a757600080fd5b506001600160a01b038135169060200135611371565b61023b600480360360208110156106d357600080fd5b50356113e0565b60006001600160a01b0382166107215760405162461bcd60e51b815260040180806020018281038252602d815260200180612325602d913960400191505060405180910390fd5b506001600160a01b0381166000908152600c60205260409020600201545b919050565b600b5481565b60065481565b600c602052600090815260409020805460019091015482565b600d5481565b6009546001600160a01b031633146107b85760405162461bcd60e51b81526004018080602001828103825260298152602001806126ad6029913960400191505060405180910390fd5b6107c061144e565b84116107fd5760405162461bcd60e51b815260040180806020018281038252602781526020018061265c6027913960400191505060405180910390fd5b60065484101561083e5760405162461bcd60e51b81526004018080602001828103825260358152602001806123796035913960400191505060405180910390fd5b60035483511461087f5760405162461bcd60e51b81526004018080602001828103825260348152602001806125826034913960400191505060405180910390fd5b610887611007565b60005b8351811015610967576000600382815481106108a257fe5b60009182526020909120015483516001600160a01b0390911691508390839081106108c957fe5b60200260200101518483815181106108dd57fe5b6020026020010151111561093157610931338484815181106108fb57fe5b602002602001015186858151811061090f57fe5b602002602001015103836001600160a01b03166114529092919063ffffffff16565b84828151811061093d57fe5b60200260200101516002838154811061095257fe5b6000918252602090912001555060010161088a565b50836006819055507f137c92cc7579cc4d6a2b109467cd475c205d1c136363ca854cc46d72f840d5de84846040518083815260200180602001828103825283818151815260200191508051906020019060200280838360005b838110156109d85781810151838201526020016109c0565b50505050905001935050505060405180910390a150505050565b60035490565b610a01816114a9565b50565b600a5481565b60055481565b610a186114e0565b565b60105481565b6009546001600160a01b031681565b6000600554610a3c61144e565b1015905090565b600f5481565b6001600160a01b03166000908152600c602052604090206001015490565b33600090815260116020526040812060028101805484908110610a8657fe5b9060005260206000200154915050919050565b6004546001600160a01b031681565b60028181548110610ab557fe5b600091825260209091200154905081565b60015481565b7f000000000000000000000000000000000000000000000000000000000000000081565b6011602052600090815260409020805460019091015482565b60026000541415610b4f576040805162461bcd60e51b815260206004820152601f6024820152600080516020612305833981519152604482015290519081900360640190fd5b60026000556009546001600160a01b03163314610b9d5760405162461bcd60e51b81526004018080602001828103825260298152602001806126ad6029913960400191505060405180910390fd5b6000816001600160a01b03166370a08231306040518263ffffffff1660e01b815260040180826001600160a01b0316815260200191505060206040518083038186803b158015610bec57600080fd5b505afa158015610c00573d6000803e3d6000fd5b505050506040513d6020811015610c1657600080fd5b5051905080610c565760405162461bcd60e51b815260040180806020018281038252603c815260200180612620603c913960400191505060405180910390fd5b6004546001600160a01b0383811691161415610ca35760405162461bcd60e51b81526004018080602001828103825260368152602001806123d46036913960400191505060405180910390fd5b60035460005b81811015610d1c5760038181548110610cbe57fe5b6000918252602090912001546001600160a01b0385811691161415610d145760405162461bcd60e51b815260040180806020018281038252603581526020018061240a6035913960400191505060405180910390fd5b600101610ca9565b50610d316001600160a01b0384168584611452565b6040516001600160a01b0385169083907fdf1b625465761dd1a4330a9b3a21d4943183f301036528a3544f8d891fdce2c290600090a3505060016000555050565b60006001600160a01b038216610db95760405162461bcd60e51b815260040180806020018281038252602d815260200180612481602d913960400191505060405180910390fd5b506001600160a01b03166000908152600c602052604090206003015490565b60026000541415610e1e576040805162461bcd60e51b815260206004820152601f6024820152600080516020612305833981519152604482015290519081900360640190fd5b6002600055610e2f81336001611517565b506001600055565b60075481565b7f00000000000000000000000000000000000000000000000000000000000000004311610e9b5760405162461bcd60e51b815260040180806020018281038252604281526020018061243f6042913960600191505060405180910390fd5b60026000541415610ee1576040805162461bcd60e51b815260206004820152601f6024820152600080516020612305833981519152604482015290519081900360640190fd5b60026000556004546003805460408051602080840282018101909252828152610f55946001600160a01b03169390929091830182828015610f4b57602002820191906000526020600020905b81546001600160a01b03168152600190910190602001808311610f2d575b5050505050611892565b6001600055565b60038181548110610f6957fe5b6000918252602090912001546001600160a01b0316905081565b60006001600160a01b038316610fca5760405162461bcd60e51b81526004018080602001828103825260278152602001806125f96027913960400191505060405180910390fd5b6001600160a01b0383166000908152600c6020526040902060038101805484908110610ff257fe5b90600052602060002001549150505b92915050565b600061101161144e565b905060075481116110225750610a18565b6000600654821061103557600654611037565b815b60075490915081038061104c57505050610a18565b60015461105d575060075550610a18565b60035460005b818110156111a35760006003828154811061107a57fe5b600091825260209182902001546040805163313ce56760e01b815290516001600160a01b039092169263313ce56792600480840193829003018186803b1580156110c357600080fd5b505afa1580156110d7573d6000803e3d6000fd5b505050506040513d60208110156110ed57600080fd5b50516002805460ff9092169250600a83900a9160009161112b918690811061111157fe5b9060005260206000200154876119c490919063ffffffff16565b9050600061114e60015461114885856119c490919063ffffffff16565b90611a1d565b905061117a816008878154811061116157fe5b90600052602060002001546113ed90919063ffffffff16565b6008868154811061118757fe5b6000918252602090912001555050600190920191506110639050565b50505060075550565b6000806111b761144e565b9050600060065482106111cc576006546111ce565b815b905060006111e760075483611a8490919063ffffffff16565b90506000600386815481106111f857fe5b600091825260209182902001546040805163313ce56760e01b815290516001600160a01b039092169263313ce56792600480840193829003018186803b15801561124157600080fd5b505afa158015611255573d6000803e3d6000fd5b505050506040513d602081101561126b57600080fd5b50516002805460ff9092169250600a83900a916000916112a9918a90811061128f57fe5b9060005260206000200154856119c490919063ffffffff16565b905060006112c660015461114885856119c490919063ffffffff16565b905060006112db8260088c8154811061116157fe5b6001600160a01b038c166000908152600c6020526040812060018101549293509161130c90879061114890866119c4565b9050600061133c836002018e8154811061132257fe5b906000526020600020015483611a8490919063ffffffff16565b905061135181846003018f8154811061116157fe5b9e9d5050505050505050505050505050565b610a18611ae1565b600e5481565b60006001600160a01b0383166113b85760405162461bcd60e51b81526004018080602001828103825260278152602001806123526027913960400191505060405180910390fd5b6001600160a01b0383166000908152600c6020526040902060028101805484908110610ff257fe5b60088181548110610ab557fe5b600082820183811015611447576040805162461bcd60e51b815260206004820152601b60248201527f536166654d6174683a206164646974696f6e206f766572666c6f770000000000604482015290519081900360640190fd5b9392505050565b4390565b604080516001600160a01b038416602482015260448082018490528251808303909101815260649091019091526020810180516001600160e01b031663a9059cbb60e01b1790526114a4908490611c94565b505050565b60405162461bcd60e51b815260040180806020018281038252603f8152602001806124ae603f913960400191505060405180910390fd5b60405162461bcd60e51b815260040180806020018281038252603c815260200180612546603c913960400191505060405180910390fd5b600061152161144e565b905060055481116115635760405162461bcd60e51b81526004018080602001828103825260228152602001806125b66022913960400191505060405180910390fd5b6006548111156115ba576040805162461bcd60e51b815260206004820152601b60248201527f5374616b653a3a5374616b696e67206861732066696e69736865640000000000604482015290519081900360640190fd5b6001600160a01b0383166000908152600c60205260409020600a5460018201548592879290916115ea90846113ed565b11156116275760405162461bcd60e51b815260040180806020018281038252602881526020018061251e6028913960400191505060405180910390fd5b600b5460015461163790846113ed565b11156116745760405162461bcd60e51b81526004018080602001828103825260318152602001806124ed6031913960400191505060405180910390fd5b600087116116c1576040805162461bcd60e51b815260206004820152601560248201527405374616b653a3a43616e6e6f74207374616b65203605c1b604482015290519081900360640190fd5b6001600160a01b0386166000908152600c6020526040902060018101546116eb576116eb87611e52565b6116f3611007565b6116fc87611e77565b600181015461170b90896113ed565b6001808301919091555461171f90896113ed565b60015560035460005b818110156118235760006003828154811061173f57fe5b600091825260209182902001546040805163313ce56760e01b815290516001600160a01b039092169263313ce56792600480840193829003018186803b15801561178857600080fd5b505afa15801561179c573d6000803e3d6000fd5b505050506040513d60208110156117b257600080fd5b50516008805460ff9092169250600a83900a916000916117fa91849161114891889081106117dc57fe5b906000526020600020015489600101546119c490919063ffffffff16565b90508086600201858154811061180c57fe5b600091825260209091200155505050600101611728565b50611848876118325733611834565b885b6004546001600160a01b031690308c611ed0565b604080518a815290516001600160a01b038a16917f9e71bc8eea02a63969f509818f2dafb9254532904319f9dbda79b67bd34a5f3d919081900360200190a2505050505050505050565b336000908152601160205260409020805443116118e05760405162461bcd60e51b81526004018080602001828103825260268152602001806123ae6026913960400191505060405180910390fd5b60018101805460009091556118ff6001600160a01b0385163383611452565b60005b835181101561198257600083600201828154811061191c57fe5b90600052602060002001549050600084600201838154811061193a57fe5b9060005260206000200181905550611979338287858151811061195957fe5b60200260200101516001600160a01b03166114529092919063ffffffff16565b50600101611902565b50604080513381526020810183905281517f548aea05c5e3b6ba34acdf7b3ad06c7bb667ed71d1761e2c177167be0a9eb059929181900390910190a150505050565b6000826119d357506000611001565b828202828482816119e057fe5b04146114475760405162461bcd60e51b81526004018080602001828103825260218152602001806125d86021913960400191505060405180910390fd5b6000808211611a73576040805162461bcd60e51b815260206004820152601a60248201527f536166654d6174683a206469766973696f6e206279207a65726f000000000000604482015290519081900360640190fd5b818381611a7c57fe5b049392505050565b600082821115611adb576040805162461bcd60e51b815260206004820152601e60248201527f536166654d6174683a207375627472616374696f6e206f766572666c6f770000604482015290519081900360640190fd5b50900390565b7f00000000000000000000000000000000000000000000000000000000000000004311611b3f5760405162461bcd60e51b815260040180806020018281038252604281526020018061243f6042913960600191505060405180910390fd5b60026000541415611b85576040805162461bcd60e51b815260206004820152601f6024820152600080516020612305833981519152604482015290519081900360640190fd5b60026000908155338152600c60205260409020611ba0611007565b6001810154611baf5750610f55565b611bb833611e77565b611c1e816001015460038054905083600301805480602002602001604051908101604052809291908181526020018280548015611c1457602002820191906000526020600020905b815481526020019060010190808311611c00575b5050505050611f2a565b6001808201549054611c2f91611a84565b600190815560009082018190555b600354811015611c8b576000826003018281548110611c5857fe5b90600052602060002001819055506000826002018281548110611c7757fe5b600091825260209091200155600101611c3d565b50506001600055565b611ca6826001600160a01b0316611ffa565b611cf7576040805162461bcd60e51b815260206004820152601f60248201527f5361666545524332303a2063616c6c20746f206e6f6e2d636f6e747261637400604482015290519081900360640190fd5b60006060836001600160a01b0316836040518082805190602001908083835b60208310611d355780518252601f199092019160209182019101611d16565b6001836020036101000a0380198251168184511680821785525050505050509050019150506000604051808303816000865af19150503d8060008114611d97576040519150601f19603f3d011682016040523d82523d6000602084013e611d9c565b606091505b509150915081611df3576040805162461bcd60e51b815260206004820181905260248201527f5361666545524332303a206c6f772d6c6576656c2063616c6c206661696c6564604482015290519081900360640190fd5b805115611e4c57808060200190516020811015611e0f57600080fd5b5051611e4c5760405162461bcd60e51b815260040180806020018281038252602a815260200180612683602a913960400191505060405180910390fd5b50505050565b6001600160a01b0381166000908152600c60205260409020611e7261144e565b905550565b6001600160a01b0381166000908152600c60205260409020611e9882612000565b611ea182612060565b6001810154611eb05750610a01565b60035460005b81811015611e4c57611ec884826120c0565b600101611eb6565b604080516001600160a01b0380861660248301528416604482015260648082018490528251808303909101815260849091019091526020810180516001600160e01b03166323b872dd60e01b179052611e4c908590611c94565b611f343383612218565b336000908152601160205260409020611f4c84612277565b81556001810154611f5d90856113ed565b600182015560005b83811015611fb657611f93838281518110611f7c57fe5b602002602001015183600201838154811061116157fe5b826002018281548110611fa257fe5b600091825260209091200155600101611f65565b50805460408051338152602081019290925280517fd9217a461a0f7f84171a8866118c3d92e943ba7c1ba89b819371f729b5cabcbc9281900390910190a150505050565b3b151590565b6001600160a01b0381166000908152600c602052604090206003546002820154141561202c5750610a01565b60035460028201545b81811015611e4c57600283018054600181810183556000928352602083209091019190915501612035565b6001600160a01b0381166000908152600c602052604090206003805490820154141561208c5750610a01565b60038054908201545b81811015611e4c57600383018054600181810183556000928352602083209091019190915501612095565b6001600160a01b0382166000908152600c6020526040812060038054919291849081106120e957fe5b600091825260209182902001546040805163313ce56760e01b815290516001600160a01b039092169263313ce56792600480840193829003018186803b15801561213257600080fd5b505afa158015612146573d6000803e3d6000fd5b505050506040513d602081101561215c57600080fd5b50516008805460ff9092169250600a83900a916000916121a4918491611148918990811061218657fe5b906000526020600020015487600101546119c490919063ffffffff16565b905060006121ba85600201878154811061132257fe5b9050801561220f576121d58186600301888154811061116157fe5b8560030187815481106121e457fe5b90600052602060002001819055508185600201878154811061220257fe5b6000918252602090912001555b50505050505050565b6001600160a01b038216600090815260116020526040902060028101548214156122425750612273565b60028101545b82811015611e4c57600282018054600181810183556000928352602083209091019190915501612248565b5050565b6000600d544311156122c9576000600f54600d5443038161229457fe5b0690506122b6600f546122b08343611a8490919063ffffffff16565b906113ed565b600d819055600e849055915061073f9050565b600e546122d690836113ed565b600e5550600d54601054600e541061073f57600f54600d546122f7916113ed565b600d556000600e5591905056fe5265656e7472616e637947756172643a207265656e7472616e742063616c6c0047657455736572526577617264446562744c656e6774683a3a496e76616c69642075736572206164647265737347657455736572526577617264446562743a3a496e76616c696420757365722061646472657373457874656e643a3a456e6420626c6f636b206d757374206265206166746572207468652063757272656e7420656e6420626c6f636b66696e616c697a65457869743a3a547279696e6720746f206578697420746f6f206561726c7957697468647261774c50526577617264733a3a2063616e6e6f742077697468647261772066726f6d20746865204c5020746f6b656e7357697468647261774c50526577617264733a3a43616e6e6f742077697468647261772066726f6d20746f6b656e20726577617264736f6e6c79556e6c6f636b65643a3a63616e6e6f7420706572666f726d207468697320616374696f6e20756e74696c2074686520656e64206f6620746865206c6f636b47657455736572546f6b656e734f7765644c656e6774683a3a496e76616c6964207573657220616464726573734f6e6c7945786974466561747572653a3a63616e6e6f742077697468647261772066726f6d207468697320636f6e74726163742e204f6e6c7920657869742e6f6e6c79556e6465725374616b654c696d69743a3a436f6e7472616374205374616b65206c696d697420726561636865646f6e6c79556e6465725374616b654c696d69743a3a5374616b65206c696d697420726561636865644f6e6c7945786974466561747572653a3a63616e6e6f7420636c61696d2066726f6d207468697320636f6e74726163742e204f6e6c7920657869742e457874656e643a3a5265776172647320616d6f756e7473206c656e677468206973206c657373207468616e2065787065637465645374616b653a3a5374616b696e6720686173206e6f74207965742073746172746564536166654d6174683a206d756c7469706c69636174696f6e206f766572666c6f77476574557365724f776564546f6b656e733a3a496e76616c69642075736572206164647265737357697468647261774c50526577617264733a3a546865726520617265206e6f20726577617264732066726f6d206c697175696469747920706f6f6c73457874656e643a3a456e6420626c6f636b206d75737420626520696e20746865206675747572655361666545524332303a204552433230206f7065726174696f6e20646964206e6f74207375636365656443616c6c6572206973206e6f742052657761726473506f6f6c466163746f727920636f6e7472616374a26469706673582212204bd8a1f6f3ad8928a3c23ca8980e606335c8b782966dd81cf9e5754cee30553d64736f6c634300060c00337365745468726f74746c653a3a7468726f74746c6520726f756e6420636170206d757374206265206d6f7265207468616e2030436f6e7374727563746f723a3a5374616b65206c696d6974206e6565647320746f206265206d6f7265207468616e20307365745468726f74746c653a3a7468726f74746c6520706172616d6574657273207765726520616c726561647920736574436f6e7374727563746f723a3a54686520656e6420626c6f636b206d75737420626520696e20746865206675747572652e436f6e7374727563746f723a3a526577617264732070657220626c6f636b20616e64207265776172647320746f6b656e73206d7573742062652077697468207468652073616d65206c656e6774682e7365745468726f74746c653a3a7468726f74746c6520726f756e6420626c6f636b73206d757374206265206d6f7265207468616e20307365744c6f636b456e643a3a4c6f636b20656e64206e6565647320746f20626520696e2074686520667574757265436f6e7374727563746f723a3a20436f6e7472616374205374616b65206c696d6974206e6565647320746f206265206d6f7265207468616e2030436f6e7374727563746f723a3a546865207374617274696e6720626c6f636b206d75737420626520696e20746865206675747572652e",
  "source": "// SPDX-License-Identifier: MIT\n\npragma solidity 0.6.12;\n\nimport \"./../pool-features/ThrottledExitFeature.sol\";\n\ncontract ThrottledExitRewardsPoolMock is RewardsPoolBase, OnlyExitFeature, ThrottledExitFeature {\n\tconstructor(\n        IERC20Detailed _stakingToken,\n        uint256 _startBlock,\n        uint256 _endBlock,\n        address[] memory _rewardsTokens,\n        uint256[] memory _rewardPerBlock,\n\t\tuint256 _stakeLimit,\n\t\tuint256 throttleRoundBlocks,\n\t\tuint256 throttleRoundCap,\n\t\tuint256 _contractStakeLimit\n    ) public RewardsPoolBase(_stakingToken, _startBlock, _endBlock, _rewardsTokens, _rewardPerBlock, _stakeLimit, _contractStakeLimit) StakeLock(_endBlock) {\n\t\tsetThrottleParams(throttleRoundBlocks, throttleRoundCap, _endBlock);\n\t}\n\n\tfunction withdraw(uint256 _tokenAmount) public override(OnlyExitFeature, RewardsPoolBase) {\n\t\tOnlyExitFeature.withdraw(_tokenAmount);\n\t}\n\n\tfunction claim() public override(OnlyExitFeature, RewardsPoolBase) {\n\t\tOnlyExitFeature.claim();\n\t}\n\n\tfunction exit() public override(ThrottledExitFeature, RewardsPoolBase) {\n\t\tThrottledExitFeature.exit();\n\t}\n}",
  "sourcePath": "/Users/martindobrev/Code/custom-token/contracts/mocks/ThrottledExitRewardsPoolMock.sol",
  "compiler": {
    "name": "solc",
    "version": "0.6.12+commit.27d51765.Emscripten.clang",
    "optimizer": true,
    "runs": 200
  },
  "schemaVersion": "2.3.5",
  "updatedAt": "2022-02-16T15:12:31.217Z"
}