{
  "contractName": "Treasury",
  "abi": [
    {
      "inputs": [
        {
          "internalType": "address",
          "name": "_uniswapRouter",
          "type": "address"
        },
        {
          "internalType": "address",
          "name": "_externalRewardToken",
          "type": "address"
        }
      ],
      "stateMutability": "nonpayable",
      "type": "constructor"
    },
    {
      "anonymous": false,
      "inputs": [
        {
          "indexed": true,
          "internalType": "address",
          "name": "previousOwner",
          "type": "address"
        },
        {
          "indexed": true,
          "internalType": "address",
          "name": "newOwner",
          "type": "address"
        }
      ],
      "name": "OwnershipTransferred",
      "type": "event"
    },
    {
      "inputs": [],
      "name": "externalRewardToken",
      "outputs": [
        {
          "internalType": "address",
          "name": "",
          "type": "address"
        }
      ],
      "stateMutability": "view",
      "type": "function"
    },
    {
      "inputs": [
        {
          "internalType": "address",
          "name": "",
          "type": "address"
        }
      ],
      "name": "liquidityDrawn",
      "outputs": [
        {
          "internalType": "uint256",
          "name": "",
          "type": "uint256"
        }
      ],
      "stateMutability": "view",
      "type": "function"
    },
    {
      "inputs": [],
      "name": "owner",
      "outputs": [
        {
          "internalType": "address",
          "name": "",
          "type": "address"
        }
      ],
      "stateMutability": "view",
      "type": "function"
    },
    {
      "inputs": [],
      "name": "renounceOwnership",
      "outputs": [],
      "stateMutability": "nonpayable",
      "type": "function"
    },
    {
      "inputs": [
        {
          "internalType": "address",
          "name": "newOwner",
          "type": "address"
        }
      ],
      "name": "transferOwnership",
      "outputs": [],
      "stateMutability": "nonpayable",
      "type": "function"
    },
    {
      "inputs": [],
      "name": "uniswapRouter",
      "outputs": [
        {
          "internalType": "contract IUniswapV2Router",
          "name": "",
          "type": "address"
        }
      ],
      "stateMutability": "view",
      "type": "function"
    },
    {
      "inputs": [
        {
          "internalType": "address[]",
          "name": "rewardPools",
          "type": "address[]"
        },
        {
          "internalType": "uint256[]",
          "name": "amounts",
          "type": "uint256[]"
        }
      ],
      "name": "withdrawLiquidity",
      "outputs": [],
      "stateMutability": "nonpayable",
      "type": "function"
    },
    {
      "inputs": [
        {
          "internalType": "address[]",
          "name": "rewardPools",
          "type": "address[]"
        },
        {
          "internalType": "uint256[]",
          "name": "externalRewards",
          "type": "uint256[]"
        }
      ],
      "name": "returnLiquidity",
      "outputs": [],
      "stateMutability": "nonpayable",
      "type": "function"
    },
    {
      "inputs": [
        {
          "internalType": "address",
          "name": "tokenA",
          "type": "address"
        },
        {
          "internalType": "address",
          "name": "tokenB",
          "type": "address"
        },
        {
          "internalType": "uint256",
          "name": "amountADesired",
          "type": "uint256"
        },
        {
          "internalType": "uint256",
          "name": "amountBDesired",
          "type": "uint256"
        },
        {
          "internalType": "uint256",
          "name": "amountAMin",
          "type": "uint256"
        },
        {
          "internalType": "uint256",
          "name": "amountBMin",
          "type": "uint256"
        },
        {
          "internalType": "uint256",
          "name": "deadline",
          "type": "uint256"
        }
      ],
      "name": "addUniswapLiquidity",
      "outputs": [
        {
          "internalType": "uint256",
          "name": "amountA",
          "type": "uint256"
        },
        {
          "internalType": "uint256",
          "name": "amountB",
          "type": "uint256"
        },
        {
          "internalType": "uint256",
          "name": "liquidity",
          "type": "uint256"
        }
      ],
      "stateMutability": "nonpayable",
      "type": "function"
    },
    {
      "inputs": [
        {
          "internalType": "address",
          "name": "tokenA",
          "type": "address"
        },
        {
          "internalType": "address",
          "name": "tokenB",
          "type": "address"
        },
        {
          "internalType": "address",
          "name": "lpToken",
          "type": "address"
        },
        {
          "internalType": "uint256",
          "name": "liquidity",
          "type": "uint256"
        },
        {
          "internalType": "uint256",
          "name": "amountAMin",
          "type": "uint256"
        },
        {
          "internalType": "uint256",
          "name": "amountBMin",
          "type": "uint256"
        },
        {
          "internalType": "uint256",
          "name": "deadline",
          "type": "uint256"
        }
      ],
      "name": "removeUniswapLiquidity",
      "outputs": [
        {
          "internalType": "uint256",
          "name": "amountA",
          "type": "uint256"
        },
        {
          "internalType": "uint256",
          "name": "amountB",
          "type": "uint256"
        }
      ],
      "stateMutability": "nonpayable",
      "type": "function"
    },
    {
      "inputs": [
        {
          "internalType": "address",
          "name": "token",
          "type": "address"
        },
        {
          "internalType": "uint256",
          "name": "amount",
          "type": "uint256"
        }
      ],
      "name": "withdrawToken",
      "outputs": [],
      "stateMutability": "nonpayable",
      "type": "function"
    }
  ],
  "bytecode": "0x60c060405234801561001057600080fd5b5060405161152b38038061152b8339818101604052604081101561003357600080fd5b5080516020909101516000610046610138565b600080546001600160a01b0319166001600160a01b0383169081178255604051929350917f8be0079c531659141344cd1fd0a4f28419497f9722a3daafe3b4186f6b6457e0908290a3506001600160a01b0382166100d55760405162461bcd60e51b81526004018080602001828103825260258152602001806114de6025913960400191505060405180910390fd5b6001600160a01b03811661011a5760405162461bcd60e51b81526004018080602001828103825260288152602001806115036028913960400191505060405180910390fd5b6001600160601b0319606092831b811660a052911b1660805261013c565b3390565b60805160601c60a05160601c61135b6101836000398061077952806107ea52806108e9528061091d52806109945280610ad852508061060d52806106e3525061135b6000f3fe608060405234801561001057600080fd5b50600436106100a95760003560e01c8063735de9f711610071578063735de9f71461026d5780638da5cb5b146102755780639e281a981461027d578063a3d44c2e146102a9578063e2b2056c146102e1578063f2fde38b1461039f576100a9565b80632491b5f5146100ae578063333609b61461016e578063364c907414610192578063658e96a3146101f9578063715018a614610265575b600080fd5b61016c600480360360408110156100c457600080fd5b810190602081018135600160201b8111156100de57600080fd5b8201836020820111156100f057600080fd5b803590602001918460208302840111600160201b8311171561011157600080fd5b919390929091602081019035600160201b81111561012e57600080fd5b82018360208201111561014057600080fd5b803590602001918460208302840111600160201b8311171561016157600080fd5b5090925090506103c5565b005b6101766106e1565b604080516001600160a01b039092168252519081900360200190f35b6101e0600480360360e08110156101a857600080fd5b506001600160a01b03813581169160208101358216916040820135169060608101359060808101359060a08101359060c00135610705565b6040805192835260208301919091528051918290030190f35b610247600480360360e081101561020f57600080fd5b506001600160a01b03813581169160208101359091169060408101359060608101359060808101359060a08101359060c00135610873565b60408051938452602084019290925282820152519081900360600190f35b61016c610a2a565b610176610ad6565b610176610afa565b61016c6004803603604081101561029357600080fd5b506001600160a01b038135169060200135610b09565b6102cf600480360360208110156102bf57600080fd5b50356001600160a01b0316610b83565b60408051918252519081900360200190f35b61016c600480360360408110156102f757600080fd5b810190602081018135600160201b81111561031157600080fd5b82018360208201111561032357600080fd5b803590602001918460208302840111600160201b8311171561034457600080fd5b919390929091602081019035600160201b81111561036157600080fd5b82018360208201111561037357600080fd5b803590602001918460208302840111600160201b8311171561039457600080fd5b509092509050610b95565b61016c600480360360208110156103b557600080fd5b50356001600160a01b0316610d80565b6103cd610e82565b6001600160a01b03166103de610afa565b6001600160a01b031614610427576040805162461bcd60e51b81526020600482018190526024820152600080516020611274833981519152604482015290519081900360640190fd5b8281146104655760405162461bcd60e51b815260040180806020018281038252603881526020018061123c6038913960400191505060405180910390fd5b60005b838110156106da57600085858381811061047e57fe5b905060200201356001600160a01b03166001600160a01b03166372f702f36040518163ffffffff1660e01b815260040160206040518083038186803b1580156104c657600080fd5b505afa1580156104da573d6000803e3d6000fd5b505050506040513d60208110156104f057600080fd5b50519050600060018188888681811061050557fe5b905060200201356001600160a01b03166001600160a01b03166001600160a01b0316815260200190815260200160002054905060006001600089898781811061054a57fe5b905060200201356001600160a01b03166001600160a01b03166001600160a01b03168152602001908152602001600020819055506105b787878581811061058d57fe5b905060200201356001600160a01b031682846001600160a01b0316610e869092919063ffffffff16565b8484848181106105c357fe5b90506020020135600014156105d95750506106d2565b6106448787858181106105e857fe5b905060200201356001600160a01b031686868681811061060457fe5b905060200201357f00000000000000000000000000000000000000000000000000000000000000006001600160a01b0316610edd9092919063ffffffff16565b86868481811061065057fe5b905060200201356001600160a01b03166001600160a01b03166350afa34b86868681811061067a57fe5b905060200201356040518263ffffffff1660e01b815260040180828152602001915050600060405180830381600087803b1580156106b757600080fd5b505af11580156106cb573d6000803e3d6000fd5b5050505050505b600101610468565b5050505050565b7f000000000000000000000000000000000000000000000000000000000000000081565b600080610710610e82565b6001600160a01b0316610721610afa565b6001600160a01b03161461076a576040805162461bcd60e51b81526020600482018190526024820152600080516020611274833981519152604482015290519081900360640190fd5b61079e6001600160a01b0388167f000000000000000000000000000000000000000000000000000000000000000088610edd565b60408051635d5155ef60e11b81526001600160a01b038b811660048301528a811660248301526044820189905260648201889052608482018790523060a483015260c4820186905282517f00000000000000000000000000000000000000000000000000000000000000009091169263baa2abde9260e480820193918290030181600087803b15801561083057600080fd5b505af1158015610844573d6000803e3d6000fd5b505050506040513d604081101561085a57600080fd5b508051602090910151909a909950975050505050505050565b6000806000610880610e82565b6001600160a01b0316610891610afa565b6001600160a01b0316146108da576040805162461bcd60e51b81526020600482018190526024820152600080516020611274833981519152604482015290519081900360640190fd5b61090e6001600160a01b038b167f00000000000000000000000000000000000000000000000000000000000000008a610edd565b6109426001600160a01b038a167f000000000000000000000000000000000000000000000000000000000000000089610edd565b6040805162e8e33760e81b81526001600160a01b038c811660048301528b81166024830152604482018b9052606482018a90526084820189905260a482018890523060c483015260e4820187905291517f00000000000000000000000000000000000000000000000000000000000000009092169163e8e3370091610104808201926060929091908290030181600087803b1580156109e057600080fd5b505af11580156109f4573d6000803e3d6000fd5b505050506040513d6060811015610a0a57600080fd5b5080516020820151604090920151909c919b509950975050505050505050565b610a32610e82565b6001600160a01b0316610a43610afa565b6001600160a01b031614610a8c576040805162461bcd60e51b81526020600482018190526024820152600080516020611274833981519152604482015290519081900360640190fd5b600080546040516001600160a01b03909116907f8be0079c531659141344cd1fd0a4f28419497f9722a3daafe3b4186f6b6457e0908390a3600080546001600160a01b0319169055565b7f000000000000000000000000000000000000000000000000000000000000000081565b6000546001600160a01b031690565b610b11610e82565b6001600160a01b0316610b22610afa565b6001600160a01b031614610b6b576040805162461bcd60e51b81526020600482018190526024820152600080516020611274833981519152604482015290519081900360640190fd5b610b7f6001600160a01b0383163383610e86565b5050565b60016020526000908152604090205481565b610b9d610e82565b6001600160a01b0316610bae610afa565b6001600160a01b031614610bf7576040805162461bcd60e51b81526020600482018190526024820152600080516020611274833981519152604482015290519081900360640190fd5b828114610c355760405162461bcd60e51b81526004018080602001828103825260328152602001806112946032913960400191505060405180910390fd5b60005b838110156106da57610ca5838383818110610c4f57fe5b9050602002013560016000888886818110610c6657fe5b905060200201356001600160a01b03166001600160a01b03166001600160a01b0316815260200190815260200160002054610ff090919063ffffffff16565b60016000878785818110610cb557fe5b905060200201356001600160a01b03166001600160a01b03166001600160a01b0316815260200190815260200160002081905550848482818110610cf557fe5b905060200201356001600160a01b03166001600160a01b03166325d5971f848484818110610d1f57fe5b905060200201356040518263ffffffff1660e01b815260040180828152602001915050600060405180830381600087803b158015610d5c57600080fd5b505af1158015610d70573d6000803e3d6000fd5b505060019092019150610c389050565b610d88610e82565b6001600160a01b0316610d99610afa565b6001600160a01b031614610de2576040805162461bcd60e51b81526020600482018190526024820152600080516020611274833981519152604482015290519081900360640190fd5b6001600160a01b038116610e275760405162461bcd60e51b81526004018080602001828103825260268152602001806112166026913960400191505060405180910390fd5b600080546040516001600160a01b03808516939216917f8be0079c531659141344cd1fd0a4f28419497f9722a3daafe3b4186f6b6457e091a3600080546001600160a01b0319166001600160a01b0392909216919091179055565b3390565b604080516001600160a01b038416602482015260448082018490528251808303909101815260649091019091526020810180516001600160e01b031663a9059cbb60e01b179052610ed8908490611051565b505050565b801580610f63575060408051636eb1769f60e11b81523060048201526001600160a01b03848116602483015291519185169163dd62ed3e91604480820192602092909190829003018186803b158015610f3557600080fd5b505afa158015610f49573d6000803e3d6000fd5b505050506040513d6020811015610f5f57600080fd5b5051155b610f9e5760405162461bcd60e51b81526004018080602001828103825260368152602001806112f06036913960400191505060405180910390fd5b604080516001600160a01b038416602482015260448082018490528251808303909101815260649091019091526020810180516001600160e01b031663095ea7b360e01b179052610ed8908490611051565b60008282018381101561104a576040805162461bcd60e51b815260206004820152601b60248201527f536166654d6174683a206164646974696f6e206f766572666c6f770000000000604482015290519081900360640190fd5b9392505050565b611063826001600160a01b031661120f565b6110b4576040805162461bcd60e51b815260206004820152601f60248201527f5361666545524332303a2063616c6c20746f206e6f6e2d636f6e747261637400604482015290519081900360640190fd5b60006060836001600160a01b0316836040518082805190602001908083835b602083106110f25780518252601f1990920191602091820191016110d3565b6001836020036101000a0380198251168184511680821785525050505050509050019150506000604051808303816000865af19150503d8060008114611154576040519150601f19603f3d011682016040523d82523d6000602084013e611159565b606091505b5091509150816111b0576040805162461bcd60e51b815260206004820181905260248201527f5361666545524332303a206c6f772d6c6576656c2063616c6c206661696c6564604482015290519081900360640190fd5b805115611209578080602001905160208110156111cc57600080fd5b50516112095760405162461bcd60e51b815260040180806020018281038252602a8152602001806112c6602a913960400191505060405180910390fd5b50505050565b3b15159056fe4f776e61626c653a206e6577206f776e657220697320746865207a65726f206164647265737372657475726e4c69717569646974793a3a20706f6f6c7320616e642065787465726e616c20746f6b656e7320646f206e6f74206d617463684f776e61626c653a2063616c6c6572206973206e6f7420746865206f776e657277697468647261774c69717569646974793a3a20706f6f6c7320616e6420616d6f756e747320646f206e6f74206d617463685361666545524332303a204552433230206f7065726174696f6e20646964206e6f7420737563636565645361666545524332303a20617070726f76652066726f6d206e6f6e2d7a65726f20746f206e6f6e2d7a65726f20616c6c6f77616e6365a264697066735822122062eda5b1b2c1ec9431f9c6cd67cfead2fe19ec500c52d6ccfe8110428716087564736f6c634300060c003354726561737572793a3a20556e697377617020726f757465722063616e6e6f74206265203054726561737572793a3a2045787465726e616c2072657761726420746f6b656e206e6f7420736574",
  "source": "// SPDX-License-Identifier: MIT\n\npragma solidity 0.6.12;\n\nimport \"openzeppelin-solidity/contracts/math/SafeMath.sol\";\nimport \"openzeppelin-solidity/contracts/access/Ownable.sol\";\nimport \"./../interfaces/IERC20Detailed.sol\";\nimport \"./../interfaces/ITreasuryOperated.sol\";\nimport \"./../interfaces/IRewardsPoolBase.sol\";\nimport \"./../SafeERC20Detailed.sol\";\nimport \"./../interfaces/IUniswapV2Router.sol\";\n\n\ncontract Treasury is Ownable {\n\tusing SafeMath for uint256;\n\tusing SafeERC20Detailed for IERC20Detailed;\n\n\taddress public immutable externalRewardToken;\n\n\tmapping(address => uint256) public liquidityDrawn;\n\tIUniswapV2Router public immutable uniswapRouter;\n\t\n\tconstructor(address _uniswapRouter, address _externalRewardToken) public {\n\t\trequire(_uniswapRouter != address(0x0), \"Treasury:: Uniswap router cannot be 0\");\n\t\trequire(_externalRewardToken != address(0x0), \"Treasury:: External reward token not set\");\n\t\tuniswapRouter = IUniswapV2Router(_uniswapRouter);\n\t\texternalRewardToken = _externalRewardToken;\n\t}\n\n\tfunction withdrawLiquidity(address[] calldata rewardPools, uint256[] calldata amounts) public onlyOwner {\n\t\trequire(rewardPools.length == amounts.length, \"withdrawLiquidity:: pools and amounts do not match\");\n\t\tfor (uint256 i = 0; i < rewardPools.length; i++) {\n\t\t\tliquidityDrawn[rewardPools[i]] = liquidityDrawn[rewardPools[i]].add(amounts[i]);\n\t\t\tITreasuryOperated(rewardPools[i]).withdrawStake(amounts[i]);\n\t\t}\n\t}\n\n\tfunction returnLiquidity(address[] calldata rewardPools, uint[] calldata externalRewards) public onlyOwner {\n\t\trequire(rewardPools.length == externalRewards.length, \"returnLiquidity:: pools and external tokens do not match\");\n\t\tfor (uint256 i = 0; i < rewardPools.length; i++) {\n\t\t\taddress stakingToken = IRewardsPoolBase(rewardPools[i]).stakingToken();\n\t\t\t\n\t\t\tuint256 drawnLiquidity = liquidityDrawn[rewardPools[i]];\n\t\t\tliquidityDrawn[rewardPools[i]] = 0;\n\t\t\tIERC20Detailed(stakingToken).safeTransfer(rewardPools[i], drawnLiquidity);\n\t\t\t\n\t\t\tif(externalRewards[i] == 0) {\n\t\t\t\tcontinue;\n\t\t\t}\n\t\t\tIERC20Detailed(externalRewardToken).safeApprove(rewardPools[i], externalRewards[i]);\n\t\t\tITreasuryOperated(rewardPools[i]).notifyExternalReward(externalRewards[i]);\n\t\t}\n\t}\n\n\tfunction addUniswapLiquidity(\n\t\taddress tokenA,\n\t\taddress tokenB,\n\t\tuint256 amountADesired,\n\t\tuint256 amountBDesired,\n\t\tuint256 amountAMin,\n\t\tuint256 amountBMin,\n\t\tuint256 deadline\n\t) external onlyOwner returns (uint256 amountA, uint256 amountB, uint256 liquidity) {\n\t\tIERC20Detailed(tokenA).safeApprove(address(uniswapRouter), amountADesired);\n\t\tIERC20Detailed(tokenB).safeApprove(address(uniswapRouter), amountBDesired);\n\t\treturn uniswapRouter.addLiquidity(tokenA, tokenB, amountADesired, amountBDesired, amountAMin, amountBMin, address(this), deadline);\n\t}\n\t\n\tfunction removeUniswapLiquidity(\n\t\taddress tokenA,\n\t\taddress tokenB,\n\t\taddress lpToken,\n\t\tuint256 liquidity,\n\t\tuint256 amountAMin,\n\t\tuint256 amountBMin,\n\t\tuint256 deadline\n\t) external onlyOwner returns (uint256 amountA, uint256 amountB) {\n\t\tIERC20Detailed(lpToken).safeApprove(address(uniswapRouter), liquidity);\n\t\treturn uniswapRouter.removeLiquidity(tokenA, tokenB, liquidity, amountAMin, amountBMin, address(this), deadline);\n\t}\n\n\tfunction withdrawToken(address token, uint256 amount) external onlyOwner {\n\t\tIERC20Detailed(token).safeTransfer(msg.sender, amount);\n\t}\n\n}",
  "sourcePath": "/Users/martindobrev/Code/custom-token/contracts/V2/Treasury.sol",
  "compiler": {
    "name": "solc",
    "version": "0.6.12+commit.27d51765.Emscripten.clang",
    "optimizer": true,
    "runs": 200
  },
  "schemaVersion": "2.3.5",
  "updatedAt": "2022-02-16T15:12:31.198Z"
}