{
  "contractName": "UniswapV2RouterMock",
  "abi": [
    {
      "inputs": [],
      "stateMutability": "nonpayable",
      "type": "constructor"
    },
    {
      "inputs": [],
      "name": "lpToken",
      "outputs": [
        {
          "internalType": "address",
          "name": "",
          "type": "address"
        }
      ],
      "stateMutability": "view",
      "type": "function"
    },
    {
      "inputs": [
        {
          "internalType": "address",
          "name": "tokenA",
          "type": "address"
        },
        {
          "internalType": "address",
          "name": "tokenB",
          "type": "address"
        },
        {
          "internalType": "uint256",
          "name": "amountADesired",
          "type": "uint256"
        },
        {
          "internalType": "uint256",
          "name": "amountBDesired",
          "type": "uint256"
        },
        {
          "internalType": "uint256",
          "name": "amountAMin",
          "type": "uint256"
        },
        {
          "internalType": "uint256",
          "name": "amountBMin",
          "type": "uint256"
        },
        {
          "internalType": "address",
          "name": "to",
          "type": "address"
        },
        {
          "internalType": "uint256",
          "name": "deadline",
          "type": "uint256"
        }
      ],
      "name": "addLiquidity",
      "outputs": [
        {
          "internalType": "uint256",
          "name": "amountA",
          "type": "uint256"
        },
        {
          "internalType": "uint256",
          "name": "amountB",
          "type": "uint256"
        },
        {
          "internalType": "uint256",
          "name": "liquidity",
          "type": "uint256"
        }
      ],
      "stateMutability": "nonpayable",
      "type": "function"
    },
    {
      "inputs": [
        {
          "internalType": "address",
          "name": "tokenA",
          "type": "address"
        },
        {
          "internalType": "address",
          "name": "tokenB",
          "type": "address"
        },
        {
          "internalType": "uint256",
          "name": "liquidity",
          "type": "uint256"
        },
        {
          "internalType": "uint256",
          "name": "amountAMin",
          "type": "uint256"
        },
        {
          "internalType": "uint256",
          "name": "amountBMin",
          "type": "uint256"
        },
        {
          "internalType": "address",
          "name": "to",
          "type": "address"
        },
        {
          "internalType": "uint256",
          "name": "deadline",
          "type": "uint256"
        }
      ],
      "name": "removeLiquidity",
      "outputs": [
        {
          "internalType": "uint256",
          "name": "amountA",
          "type": "uint256"
        },
        {
          "internalType": "uint256",
          "name": "amountB",
          "type": "uint256"
        }
      ],
      "stateMutability": "nonpayable",
      "type": "function"
    }
  ],
  "bytecode": "0x608060405234801561001057600080fd5b5060001960405161002090610069565b90815260405190819003602001906000f080158015610043573d6000803e3d6000fd5b50600080546001600160a01b0319166001600160a01b0392909216919091179055610076565b611def8061055983390190565b6104d4806100856000396000f3fe608060405234801561001057600080fd5b50600436106100415760003560e01c80635fcbd28514610046578063baa2abde1461006a578063e8e33700146100d3575b600080fd5b61004e610146565b604080516001600160a01b039092168252519081900360200190f35b6100ba600480360360e081101561008057600080fd5b506001600160a01b038135811691602081013582169160408201359160608101359160808201359160a08101359091169060c00135610155565b6040805192835260208301919091528051918290030190f35b61012860048036036101008110156100ea57600080fd5b506001600160a01b038135811691602081013582169160408201359160608101359160808201359160a08101359160c0820135169060e001356101a4565b60408051938452602084019290925282820152519081900360600190f35b6000546001600160a01b031681565b600080548190610170906001600160a01b031633308a6101ff565b6101846001600160a01b038a16338861025f565b6101986001600160a01b038916338761025f565b97509795505050505050565b600080806101bd6001600160a01b038c1633308c6101ff565b6101d26001600160a01b038b1633308b6101ff565b6000546101f1906001600160a01b031633670de0b6b3a764000061025f565b985098509895505050505050565b604080516001600160a01b0380861660248301528416604482015260648082018490528251808303909101815260849091019091526020810180516001600160e01b03166323b872dd60e01b1790526102599085906102b6565b50505050565b604080516001600160a01b038416602482015260448082018490528251808303909101815260649091019091526020810180516001600160e01b031663a9059cbb60e01b1790526102b19084906102b6565b505050565b6102c8826001600160a01b031661046e565b610319576040805162461bcd60e51b815260206004820152601f60248201527f5361666545524332303a2063616c6c20746f206e6f6e2d636f6e747261637400604482015290519081900360640190fd5b60006060836001600160a01b0316836040518082805190602001908083835b602083106103575780518252601f199092019160209182019101610338565b6001836020036101000a0380198251168184511680821785525050505050509050019150506000604051808303816000865af19150503d80600081146103b9576040519150601f19603f3d011682016040523d82523d6000602084013e6103be565b606091505b509150915081610415576040805162461bcd60e51b815260206004820181905260248201527f5361666545524332303a206c6f772d6c6576656c2063616c6c206661696c6564604482015290519081900360640190fd5b8051156102595780806020019051602081101561043157600080fd5b50516102595760405162461bcd60e51b815260040180806020018281038252602a815260200180610475602a913960400191505060405180910390fd5b3b15159056fe5361666545524332303a204552433230206f7065726174696f6e20646964206e6f742073756363656564a26469706673582212200c323efeba9ced52c0077e2ff8e667aeb6040a3b2775f1bb1b616ea97e4a13be64736f6c634300060c003360806040523480156200001157600080fd5b5060405162001def38038062001def833981810160405260208110156200003757600080fd5b5051604080518082018252600a8152690546573742045524332360b41b60208281019182528351808501909452600480855263151154d560e21b918501919091528251929392849284926200008f9290919062000453565b508051620000a590600590602084019062000453565b50506006805461ff001960ff1990911660121716905550620000d26000620000cc62000146565b6200014a565b620001017f9f2df0fed2c77648de5860a4cc508cd0818c85b8b8a1ab4ceeef8d981c8956a6620000cc62000146565b620001307f65d7a28e3265b37a6474929f336521b332c1681b933f6cb9f3376673440d862a620000cc62000146565b506200013f905033826200015a565b50620004ef565b3390565b6200015682826200026d565b5050565b6001600160a01b038216620001b6576040805162461bcd60e51b815260206004820152601f60248201527f45524332303a206d696e7420746f20746865207a65726f206164647265737300604482015290519081900360640190fd5b620001c460008383620002e6565b620001e0816003546200030360201b62000be71790919060201c565b6003556001600160a01b0382166000908152600160209081526040909120546200021591839062000be762000303821b17901c565b6001600160a01b03831660008181526001602090815260408083209490945583518581529351929391927fddf252ad1be2c89b69c2b068fc378daa952ba7f163c4a11628f55a4df523b3ef9281900390910190a35050565b6000828152602081815260409091206200029291839062000c4162000367821b17901c565b156200015657620002a262000146565b6001600160a01b0316816001600160a01b0316837f2f8788117e7eff1d82e926ec794901d17c78024a50270940304540a733656f0d60405160405180910390a45050565b620002fe8383836200037e60201b62000c561760201c565b505050565b6000828201838110156200035e576040805162461bcd60e51b815260206004820152601b60248201527f536166654d6174683a206164646974696f6e206f766572666c6f770000000000604482015290519081900360640190fd5b90505b92915050565b60006200035e836001600160a01b038416620003de565b62000396838383620002fe60201b620009771760201c565b620003a06200042d565b15620002fe5760405162461bcd60e51b815260040180806020018281038252602a81526020018062001dc5602a913960400191505060405180910390fd5b6000620003ec83836200043b565b620004245750815460018181018455600084815260208082209093018490558454848252828601909352604090209190915562000361565b50600062000361565b600654610100900460ff1690565b60009081526001919091016020526040902054151590565b828054600181600116156101000203166002900490600052602060002090601f016020900481019282601f106200049657805160ff1916838001178555620004c6565b82800160010185558215620004c6579182015b82811115620004c6578251825591602001919060010190620004a9565b50620004d4929150620004d8565b5090565b5b80821115620004d45760008155600101620004d9565b6118c680620004ff6000396000f3fe608060405234801561001057600080fd5b50600436106101a95760003560e01c806370a08231116100f9578063a457c2d711610097578063d539139311610071578063d53913931461051f578063d547741f14610527578063dd62ed3e14610553578063e63ab1e914610581576101a9565b8063a457c2d7146104aa578063a9059cbb146104d6578063ca15c87314610502576101a9565b80639010d07c116100d35780639010d07c1461042f57806391d148541461046e57806395d89b411461049a578063a217fddf146104a2576101a9565b806370a08231146103d557806379cc6790146103fb5780638456cb5914610427576101a9565b8063313ce567116101665780633f4ba83a116101405780633f4ba83a1461037c57806340c10f191461038457806342966c68146103b05780635c975abb146103cd576101a9565b8063313ce5671461030657806336568abe146103245780633950935114610350576101a9565b806306fdde03146101ae578063095ea7b31461022b57806318160ddd1461026b57806323b872dd14610285578063248a9ca3146102bb5780632f2ff15d146102d8575b600080fd5b6101b6610589565b6040805160208082528351818301528351919283929083019185019080838360005b838110156101f05781810151838201526020016101d8565b50505050905090810190601f16801561021d5780820380516001836020036101000a031916815260200191505b509250505060405180910390f35b6102576004803603604081101561024157600080fd5b506001600160a01b03813516906020013561061f565b604080519115158252519081900360200190f35b61027361063d565b60408051918252519081900360200190f35b6102576004803603606081101561029b57600080fd5b506001600160a01b03813581169160208101359091169060400135610643565b610273600480360360208110156102d157600080fd5b50356106ca565b610304600480360360408110156102ee57600080fd5b50803590602001356001600160a01b03166106df565b005b61030e61074b565b6040805160ff9092168252519081900360200190f35b6103046004803603604081101561033a57600080fd5b50803590602001356001600160a01b0316610754565b6102576004803603604081101561036657600080fd5b506001600160a01b0381351690602001356107b5565b610304610803565b6103046004803603604081101561039a57600080fd5b506001600160a01b038135169060200135610874565b610304600480360360208110156103c657600080fd5b50356108e5565b6102576108f9565b610273600480360360208110156103eb57600080fd5b50356001600160a01b0316610907565b6103046004803603604081101561041157600080fd5b506001600160a01b038135169060200135610922565b61030461097c565b6104526004803603604081101561044557600080fd5b50803590602001356109eb565b604080516001600160a01b039092168252519081900360200190f35b6102576004803603604081101561048457600080fd5b50803590602001356001600160a01b0316610a0a565b6101b6610a22565b610273610a83565b610257600480360360408110156104c057600080fd5b506001600160a01b038135169060200135610a88565b610257600480360360408110156104ec57600080fd5b506001600160a01b038135169060200135610af0565b6102736004803603602081101561051857600080fd5b5035610b04565b610273610b1b565b6103046004803603604081101561053d57600080fd5b50803590602001356001600160a01b0316610b3f565b6102736004803603604081101561056957600080fd5b506001600160a01b0381358116916020013516610b98565b610273610bc3565b60048054604080516020601f60026000196101006001881615020190951694909404938401819004810282018101909252828152606093909290918301828280156106155780601f106105ea57610100808354040283529160200191610615565b820191906000526020600020905b8154815290600101906020018083116105f857829003601f168201915b5050505050905090565b600061063361062c610ca5565b8484610ca9565b5060015b92915050565b60035490565b6000610650848484610d95565b6106c08461065c610ca5565b6106bb856040518060600160405280602881526020016116f0602891396001600160a01b038a1660009081526002602052604081209061069a610ca5565b6001600160a01b031681526020810191909152604001600020549190610ef2565b610ca9565b5060019392505050565b60009081526020819052604090206002015490565b600082815260208190526040902060020154610702906106fd610ca5565b610a0a565b61073d5760405162461bcd60e51b815260040180806020018281038252602f8152602001806115ee602f913960400191505060405180910390fd5b6107478282610f89565b5050565b60065460ff1690565b61075c610ca5565b6001600160a01b0316816001600160a01b0316146107ab5760405162461bcd60e51b815260040180806020018281038252602f815260200180611838602f913960400191505060405180910390fd5b6107478282610ff2565b60006106336107c2610ca5565b846106bb85600260006107d3610ca5565b6001600160a01b03908116825260208083019390935260409182016000908120918c168152925290205490610be7565b61082f7f65d7a28e3265b37a6474929f336521b332c1681b933f6cb9f3376673440d862a6106fd610ca5565b61086a5760405162461bcd60e51b815260040180806020018281038252603981526020018061163f6039913960400191505060405180910390fd5b61087261105b565b565b6108a07f9f2df0fed2c77648de5860a4cc508cd0818c85b8b8a1ab4ceeef8d981c8956a66106fd610ca5565b6108db5760405162461bcd60e51b81526004018080602001828103825260368152602001806117186036913960400191505060405180910390fd5b61074782826110fc565b6108f66108f0610ca5565b826111ee565b50565b600654610100900460ff1690565b6001600160a01b031660009081526001602052604090205490565b60006109598260405180606001604052806024815260200161174e602491396109528661094d610ca5565b610b98565b9190610ef2565b905061096d83610967610ca5565b83610ca9565b61097783836111ee565b505050565b6109a87f65d7a28e3265b37a6474929f336521b332c1681b933f6cb9f3376673440d862a6106fd610ca5565b6109e35760405162461bcd60e51b81526004018080602001828103825260378152602001806117dc6037913960400191505060405180910390fd5b6108726112ea565b6000828152602081905260408120610a03908361136f565b9392505050565b6000828152602081905260408120610a03908361137b565b60058054604080516020601f60026000196101006001881615020190951694909404938401819004810282018101909252828152606093909290918301828280156106155780601f106105ea57610100808354040283529160200191610615565b600081565b6000610633610a95610ca5565b846106bb856040518060600160405280602581526020016118136025913960026000610abf610ca5565b6001600160a01b03908116825260208083019390935260409182016000908120918d16815292529020549190610ef2565b6000610633610afd610ca5565b8484610d95565b600081815260208190526040812061063790611390565b7f9f2df0fed2c77648de5860a4cc508cd0818c85b8b8a1ab4ceeef8d981c8956a681565b600082815260208190526040902060020154610b5d906106fd610ca5565b6107ab5760405162461bcd60e51b81526004018080602001828103825260308152602001806116c06030913960400191505060405180910390fd5b6001600160a01b03918216600090815260026020908152604080832093909416825291909152205490565b7f65d7a28e3265b37a6474929f336521b332c1681b933f6cb9f3376673440d862a81565b600082820183811015610a03576040805162461bcd60e51b815260206004820152601b60248201527f536166654d6174683a206164646974696f6e206f766572666c6f770000000000604482015290519081900360640190fd5b6000610a03836001600160a01b03841661139b565b610c61838383610977565b610c696108f9565b156109775760405162461bcd60e51b815260040180806020018281038252602a815260200180611867602a913960400191505060405180910390fd5b3390565b6001600160a01b038316610cee5760405162461bcd60e51b81526004018080602001828103825260248152602001806117b86024913960400191505060405180910390fd5b6001600160a01b038216610d335760405162461bcd60e51b81526004018080602001828103825260228152602001806116786022913960400191505060405180910390fd5b6001600160a01b03808416600081815260026020908152604080832094871680845294825291829020859055815185815291517f8c5be1e5ebec7d5bd14f71427d1e84f3dd0314c0f7b2291e5b200ac8c7c3b9259281900390910190a3505050565b6001600160a01b038316610dda5760405162461bcd60e51b81526004018080602001828103825260258152602001806117936025913960400191505060405180910390fd5b6001600160a01b038216610e1f5760405162461bcd60e51b81526004018080602001828103825260238152602001806115cb6023913960400191505060405180910390fd5b610e2a8383836113e5565b610e678160405180606001604052806026815260200161169a602691396001600160a01b0386166000908152600160205260409020549190610ef2565b6001600160a01b038085166000908152600160205260408082209390935590841681522054610e969082610be7565b6001600160a01b0380841660008181526001602090815260409182902094909455805185815290519193928716927fddf252ad1be2c89b69c2b068fc378daa952ba7f163c4a11628f55a4df523b3ef92918290030190a3505050565b60008184841115610f815760405162461bcd60e51b81526004018080602001828103825283818151815260200191508051906020019080838360005b83811015610f46578181015183820152602001610f2e565b50505050905090810190601f168015610f735780820380516001836020036101000a031916815260200191505b509250505060405180910390fd5b505050900390565b6000828152602081905260409020610fa19082610c41565b1561074757610fae610ca5565b6001600160a01b0316816001600160a01b0316837f2f8788117e7eff1d82e926ec794901d17c78024a50270940304540a733656f0d60405160405180910390a45050565b600082815260208190526040902061100a90826113f0565b1561074757611017610ca5565b6001600160a01b0316816001600160a01b0316837ff6391f5c32d9c69d2a47ea670b442974b53935d1edc7fd64eb21e047a839171b60405160405180910390a45050565b6110636108f9565b6110ab576040805162461bcd60e51b815260206004820152601460248201527314185d5cd8589b194e881b9bdd081c185d5cd95960621b604482015290519081900360640190fd5b6006805461ff00191690557f5db9ee0a495bf2e6ff9c91a7834c1ba4fdd244a5e8aa4e537bd38aeae4b073aa6110df610ca5565b604080516001600160a01b039092168252519081900360200190a1565b6001600160a01b038216611157576040805162461bcd60e51b815260206004820152601f60248201527f45524332303a206d696e7420746f20746865207a65726f206164647265737300604482015290519081900360640190fd5b611163600083836113e5565b6003546111709082610be7565b6003556001600160a01b0382166000908152600160205260409020546111969082610be7565b6001600160a01b03831660008181526001602090815260408083209490945583518581529351929391927fddf252ad1be2c89b69c2b068fc378daa952ba7f163c4a11628f55a4df523b3ef9281900390910190a35050565b6001600160a01b0382166112335760405162461bcd60e51b81526004018080602001828103825260218152602001806117726021913960400191505060405180910390fd5b61123f826000836113e5565b61127c8160405180606001604052806022815260200161161d602291396001600160a01b0385166000908152600160205260409020549190610ef2565b6001600160a01b0383166000908152600160205260409020556003546112a29082611405565b6003556040805182815290516000916001600160a01b038516917fddf252ad1be2c89b69c2b068fc378daa952ba7f163c4a11628f55a4df523b3ef9181900360200190a35050565b6112f26108f9565b15611337576040805162461bcd60e51b815260206004820152601060248201526f14185d5cd8589b194e881c185d5cd95960821b604482015290519081900360640190fd5b6006805461ff0019166101001790557f62e78cea01bee320cd4e420270b5ea74000d11b0c9f74754ebdbfc544b05a2586110df610ca5565b6000610a038383611462565b6000610a03836001600160a01b0384166114c6565b6000610637826114de565b60006113a783836114c6565b6113dd57508154600181810184556000848152602080822090930184905584548482528286019093526040902091909155610637565b506000610637565b610977838383610c56565b6000610a03836001600160a01b0384166114e2565b60008282111561145c576040805162461bcd60e51b815260206004820152601e60248201527f536166654d6174683a207375627472616374696f6e206f766572666c6f770000604482015290519081900360640190fd5b50900390565b815460009082106114a45760405162461bcd60e51b81526004018080602001828103825260228152602001806115a96022913960400191505060405180910390fd5b8260000182815481106114b357fe5b9060005260206000200154905092915050565b60009081526001919091016020526040902054151590565b5490565b6000818152600183016020526040812054801561159e578354600019808301919081019060009087908390811061151557fe5b906000526020600020015490508087600001848154811061153257fe5b60009182526020808320909101929092558281526001898101909252604090209084019055865487908061156257fe5b60019003818190600052602060002001600090559055866001016000878152602001908152602001600020600090556001945050505050610637565b600091505061063756fe456e756d657261626c655365743a20696e646578206f7574206f6620626f756e647345524332303a207472616e7366657220746f20746865207a65726f2061646472657373416363657373436f6e74726f6c3a2073656e646572206d75737420626520616e2061646d696e20746f206772616e7445524332303a206275726e20616d6f756e7420657863656564732062616c616e636545524332305072657365744d696e7465725061757365723a206d75737420686176652070617573657220726f6c6520746f20756e706175736545524332303a20617070726f766520746f20746865207a65726f206164647265737345524332303a207472616e7366657220616d6f756e7420657863656564732062616c616e6365416363657373436f6e74726f6c3a2073656e646572206d75737420626520616e2061646d696e20746f207265766f6b6545524332303a207472616e7366657220616d6f756e74206578636565647320616c6c6f77616e636545524332305072657365744d696e7465725061757365723a206d7573742068617665206d696e74657220726f6c6520746f206d696e7445524332303a206275726e20616d6f756e74206578636565647320616c6c6f77616e636545524332303a206275726e2066726f6d20746865207a65726f206164647265737345524332303a207472616e736665722066726f6d20746865207a65726f206164647265737345524332303a20617070726f76652066726f6d20746865207a65726f206164647265737345524332305072657365744d696e7465725061757365723a206d75737420686176652070617573657220726f6c6520746f20706175736545524332303a2064656372656173656420616c6c6f77616e63652062656c6f77207a65726f416363657373436f6e74726f6c3a2063616e206f6e6c792072656e6f756e636520726f6c657320666f722073656c6645524332305061757361626c653a20746f6b656e207472616e73666572207768696c6520706175736564a2646970667358221220fddc530f34ac99e9efd87c2586db4de6425235b0912343076098a2acbcd40dd864736f6c634300060c003345524332305061757361626c653a20746f6b656e207472616e73666572207768696c6520706175736564",
  "source": "// SPDX-License-Identifier: MIT\n\npragma solidity 0.6.12;\n\nimport \"./../interfaces/IUniswapV2Router.sol\";\nimport \"./../SafeERC20Detailed.sol\";\nimport \"./../interfaces/IERC20Detailed.sol\";\nimport \"./../TestERC20.sol\";\n\n\ncontract UniswapV2RouterMock is IUniswapV2Router {\n\tusing SafeERC20Detailed for IERC20Detailed;\n\n\taddress public lpToken;\n\n\tconstructor() public {\n\t\tlpToken = address(new TestERC20(uint256(-1)));\n\t}\n\n\tfunction addLiquidity(\n        address tokenA,\n        address tokenB,\n        uint amountADesired,\n        uint amountBDesired,\n        uint amountAMin,\n        uint amountBMin,\n        address to,\n        uint deadline\n    ) external override returns (uint amountA, uint amountB, uint liquidity) {\n\t\tIERC20Detailed(tokenA).safeTransferFrom(msg.sender, address(this), amountADesired);\n\t\tIERC20Detailed(tokenB).safeTransferFrom(msg.sender, address(this), amountBDesired);\n\t\tIERC20Detailed(lpToken).safeTransfer(msg.sender, 10**18);\n\t}\n    \n    function removeLiquidity(\n        address tokenA,\n        address tokenB,\n        uint liquidity,\n        uint amountAMin,\n        uint amountBMin,\n        address to,\n        uint deadline\n    ) external override returns (uint amountA, uint amountB) {\n\t\tIERC20Detailed(lpToken).safeTransferFrom(msg.sender, address(this), liquidity);\n\t\tIERC20Detailed(tokenA).safeTransfer(msg.sender, amountAMin);\n\t\tIERC20Detailed(tokenB).safeTransfer(msg.sender, amountBMin);\n\t}\n}",
  "sourcePath": "/Users/martindobrev/Code/custom-token/contracts/mocks/UniswapV2RouterMock.sol",
  "compiler": {
    "name": "solc",
    "version": "0.6.12+commit.27d51765.Emscripten.clang",
    "optimizer": true,
    "runs": 200
  },
  "schemaVersion": "2.3.5",
  "updatedAt": "2022-02-16T15:12:31.218Z"
}